{
	"solutions.sol": {
		"PairGetter": {
			"abi": [
				{
					"inputs": [],
					"stateMutability": "nonpayable",
					"type": "constructor"
				},
				{
					"inputs": [],
					"name": "factory",
					"outputs": [
						{
							"internalType": "contract IFactory",
							"name": "",
							"type": "address"
						}
					],
					"stateMutability": "view",
					"type": "function"
				},
				{
					"inputs": [],
					"name": "getAllPairs",
					"outputs": [
						{
							"internalType": "bool",
							"name": "",
							"type": "bool"
						}
					],
					"stateMutability": "nonpayable",
					"type": "function"
				},
				{
					"inputs": [
						{
							"internalType": "address",
							"name": "",
							"type": "address"
						},
						{
							"internalType": "uint256",
							"name": "",
							"type": "uint256"
						}
					],
					"name": "pairs",
					"outputs": [
						{
							"internalType": "address",
							"name": "",
							"type": "address"
						}
					],
					"stateMutability": "view",
					"type": "function"
				},
				{
					"inputs": [],
					"name": "router",
					"outputs": [
						{
							"internalType": "contract IRouter",
							"name": "",
							"type": "address"
						}
					],
					"stateMutability": "view",
					"type": "function"
				}
			],
			"devdoc": {
				"kind": "dev",
				"methods": {},
				"version": 1
			},
			"evm": {
				"assembly": "    /* \"solutions.sol\":8737:10444  contract PairGetter {... */\n  mstore(0x40, 0x80)\n    /* \"solutions.sol\":8837:8879  0xDE39C89e7A8E3Fc73e1e7f8b2edecD4c7FE62b66 */\n  0xde39c89e7a8e3fc73e1e7f8b2edecd4c7fe62b66\n    /* \"solutions.sol\":8822:8879  address weth = 0xDE39C89e7A8E3Fc73e1e7f8b2edecD4c7FE62b66 */\n  0x02\n  exp(0x0100, 0x00)\n  dup2\n  sload\n  dup2\n  0xffffffffffffffffffffffffffffffffffffffff\n  mul\n  not\n  and\n  swap1\n  dup4\n  0xffffffffffffffffffffffffffffffffffffffff\n  and\n  mul\n  or\n  swap1\n  sstore\n  pop\n    /* \"solutions.sol\":8901:8943  0xE5873093edA4e64b77C80186aDC5be024444fcbd */\n  0xe5873093eda4e64b77c80186adc5be024444fcbd\n    /* \"solutions.sol\":8886:8943  address defi = 0xE5873093edA4e64b77C80186aDC5be024444fcbd */\n  0x03\n  exp(0x0100, 0x00)\n  dup2\n  sload\n  dup2\n  0xffffffffffffffffffffffffffffffffffffffff\n  mul\n  not\n  and\n  swap1\n  dup4\n  0xffffffffffffffffffffffffffffffffffffffff\n  and\n  mul\n  or\n  swap1\n  sstore\n  pop\n    /* \"solutions.sol\":9102:9103  0 */\n  0x00\n    /* \"solutions.sol\":9088:9103  uint256 ind = 0 */\n  0x07\n  sstore\n    /* \"solutions.sol\":9112:9278  constructor() {... */\n  callvalue\n  dup1\n  iszero\n  tag_1\n  jumpi\n  0x00\n  dup1\n  revert\ntag_1:\n  pop\n    /* \"solutions.sol\":9156:9198  0x0Ca73866dFf0f6b0508F5Cbb223C857C19463e07 */\n  0x0ca73866dff0f6b0508f5cbb223c857c19463e07\n    /* \"solutions.sol\":9137:9144  factory */\n  0x00\n  dup1\n    /* \"solutions.sol\":9137:9199  factory = IFactory(0x0Ca73866dFf0f6b0508F5Cbb223C857C19463e07) */\n  0x0100\n  exp\n  dup2\n  sload\n  dup2\n  0xffffffffffffffffffffffffffffffffffffffff\n  mul\n  not\n  and\n  swap1\n  dup4\n  0xffffffffffffffffffffffffffffffffffffffff\n  and\n  mul\n  or\n  swap1\n  sstore\n  pop\n    /* \"solutions.sol\":9227:9269  0x5DA88dF55AF2E5681D33f36e5916d63797BF4766 */\n  0x5da88df55af2e5681d33f36e5916d63797bf4766\n    /* \"solutions.sol\":9210:9216  router */\n  0x01\n  0x00\n    /* \"solutions.sol\":9210:9270  router = IRouter(0x5DA88dF55AF2E5681D33f36e5916d63797BF4766) */\n  0x0100\n  exp\n  dup2\n  sload\n  dup2\n  0xffffffffffffffffffffffffffffffffffffffff\n  mul\n  not\n  and\n  swap1\n  dup4\n  0xffffffffffffffffffffffffffffffffffffffff\n  and\n  mul\n  or\n  swap1\n  sstore\n  pop\n    /* \"solutions.sol\":8737:10444  contract PairGetter {... */\n  dataSize(sub_0)\n  dup1\n  dataOffset(sub_0)\n  0x00\n  codecopy\n  0x00\n  return\nstop\n\nsub_0: assembly {\n        /* \"solutions.sol\":8737:10444  contract PairGetter {... */\n      mstore(0x40, 0x80)\n      callvalue\n      dup1\n      iszero\n      tag_1\n      jumpi\n      0x00\n      dup1\n      revert\n    tag_1:\n      pop\n      jumpi(tag_2, lt(calldatasize, 0x04))\n      shr(0xe0, calldataload(0x00))\n      dup1\n      0x03d40513\n      eq\n      tag_3\n      jumpi\n      dup1\n      0xc45a0155\n      eq\n      tag_4\n      jumpi\n      dup1\n      0xf800ece9\n      eq\n      tag_5\n      jumpi\n      dup1\n      0xf887ea40\n      eq\n      tag_6\n      jumpi\n    tag_2:\n      0x00\n      dup1\n      revert\n        /* \"solutions.sol\":8950:8993  mapping(address => address[2]) public pairs */\n    tag_3:\n      tag_7\n      0x04\n      dup1\n      calldatasize\n      sub\n      dup2\n      add\n      swap1\n      tag_8\n      swap2\n      swap1\n      tag_9\n      jump\t// in\n    tag_8:\n      tag_10\n      jump\t// in\n    tag_7:\n      mload(0x40)\n      tag_11\n      swap2\n      swap1\n      tag_12\n      jump\t// in\n    tag_11:\n      mload(0x40)\n      dup1\n      swap2\n      sub\n      swap1\n      return\n        /* \"solutions.sol\":8764:8787  IFactory public factory */\n    tag_4:\n      tag_13\n      tag_14\n      jump\t// in\n    tag_13:\n      mload(0x40)\n      tag_15\n      swap2\n      swap1\n      tag_16\n      jump\t// in\n    tag_15:\n      mload(0x40)\n      dup1\n      swap2\n      sub\n      swap1\n      return\n        /* \"solutions.sol\":9286:10441  function getAllPairs() public returns (bool) {... */\n    tag_5:\n      tag_17\n      tag_18\n      jump\t// in\n    tag_17:\n      mload(0x40)\n      tag_19\n      swap2\n      swap1\n      tag_20\n      jump\t// in\n    tag_19:\n      mload(0x40)\n      dup1\n      swap2\n      sub\n      swap1\n      return\n        /* \"solutions.sol\":8794:8815  IRouter public router */\n    tag_6:\n      tag_21\n      tag_22\n      jump\t// in\n    tag_21:\n      mload(0x40)\n      tag_23\n      swap2\n      swap1\n      tag_24\n      jump\t// in\n    tag_23:\n      mload(0x40)\n      dup1\n      swap2\n      sub\n      swap1\n      return\n        /* \"solutions.sol\":8950:8993  mapping(address => address[2]) public pairs */\n    tag_10:\n      mstore(0x20, 0x04)\n      dup2\n      0x00\n      mstore\n      keccak256(0x00, 0x40)\n      dup2\n      0x02\n      dup2\n      lt\n      tag_25\n      jumpi\n      0x00\n      dup1\n      revert\n    tag_25:\n      add\n      0x00\n      swap2\n      pop\n      swap2\n      pop\n      swap1\n      sload\n      swap1\n      0x0100\n      exp\n      swap1\n      div\n      0xffffffffffffffffffffffffffffffffffffffff\n      and\n      dup2\n      jump\t// out\n        /* \"solutions.sol\":8764:8787  IFactory public factory */\n    tag_14:\n      0x00\n      dup1\n      sload\n      swap1\n      0x0100\n      exp\n      swap1\n      div\n      0xffffffffffffffffffffffffffffffffffffffff\n      and\n      dup2\n      jump\t// out\n        /* \"solutions.sol\":9286:10441  function getAllPairs() public returns (bool) {... */\n    tag_18:\n        /* \"solutions.sol\":9325:9329  bool */\n      0x00\n        /* \"solutions.sol\":9342:9356  uint256 length */\n      dup1\n        /* \"solutions.sol\":9359:9366  factory */\n      0x00\n      dup1\n      sload\n      swap1\n      0x0100\n      exp\n      swap1\n      div\n      0xffffffffffffffffffffffffffffffffffffffff\n      and\n        /* \"solutions.sol\":9359:9381  factory.allPairsLength */\n      0xffffffffffffffffffffffffffffffffffffffff\n      and\n      0x574f2ba3\n        /* \"solutions.sol\":9359:9383  factory.allPairsLength() */\n      mload(0x40)\n      dup2\n      0xffffffff\n      and\n      0xe0\n      shl\n      dup2\n      mstore\n      0x04\n      add\n      0x20\n      mload(0x40)\n      dup1\n      dup4\n      sub\n      dup2\n      dup7\n      gas\n      staticcall\n      iszero\n      dup1\n      iszero\n      tag_29\n      jumpi\n      returndatasize\n      0x00\n      dup1\n      returndatacopy\n      revert(0x00, returndatasize)\n    tag_29:\n      pop\n      pop\n      pop\n      pop\n      mload(0x40)\n      returndatasize\n      not(0x1f)\n      0x1f\n      dup3\n      add\n      and\n      dup3\n      add\n      dup1\n      0x40\n      mstore\n      pop\n      dup2\n      add\n      swap1\n      tag_30\n      swap2\n      swap1\n      tag_31\n      jump\t// in\n    tag_30:\n        /* \"solutions.sol\":9342:9383  uint256 length = factory.allPairsLength() */\n      swap1\n      pop\n        /* \"solutions.sol\":9409:9418  uint256 i */\n      0x00\n        /* \"solutions.sol\":9404:10018  for (uint256 i = 0; i < length; i++) {... */\n    tag_32:\n        /* \"solutions.sol\":9428:9434  length */\n      dup2\n        /* \"solutions.sol\":9424:9425  i */\n      dup2\n        /* \"solutions.sol\":9424:9434  i < length */\n      lt\n        /* \"solutions.sol\":9404:10018  for (uint256 i = 0; i < length; i++) {... */\n      iszero\n      tag_33\n      jumpi\n        /* \"solutions.sol\":9456:9473  IPair pairAddress */\n      0x00\n        /* \"solutions.sol\":9482:9489  factory */\n      dup1\n      0x00\n      swap1\n      sload\n      swap1\n      0x0100\n      exp\n      swap1\n      div\n      0xffffffffffffffffffffffffffffffffffffffff\n      and\n        /* \"solutions.sol\":9482:9498  factory.allPairs */\n      0xffffffffffffffffffffffffffffffffffffffff\n      and\n      0x1e3dd18b\n        /* \"solutions.sol\":9499:9500  i */\n      dup4\n        /* \"solutions.sol\":9482:9501  factory.allPairs(i) */\n      mload(0x40)\n      dup3\n      0xffffffff\n      and\n      0xe0\n      shl\n      dup2\n      mstore\n      0x04\n      add\n      tag_35\n      swap2\n      swap1\n      tag_36\n      jump\t// in\n    tag_35:\n      0x20\n      mload(0x40)\n      dup1\n      dup4\n      sub\n      dup2\n      dup7\n      gas\n      staticcall\n      iszero\n      dup1\n      iszero\n      tag_38\n      jumpi\n      returndatasize\n      0x00\n      dup1\n      returndatacopy\n      revert(0x00, returndatasize)\n    tag_38:\n      pop\n      pop\n      pop\n      pop\n      mload(0x40)\n      returndatasize\n      not(0x1f)\n      0x1f\n      dup3\n      add\n      and\n      dup3\n      add\n      dup1\n      0x40\n      mstore\n      pop\n      dup2\n      add\n      swap1\n      tag_39\n      swap2\n      swap1\n      tag_40\n      jump\t// in\n    tag_39:\n        /* \"solutions.sol\":9456:9502  IPair pairAddress = IPair(factory.allPairs(i)) */\n      swap1\n      pop\n        /* \"solutions.sol\":9517:9531  address token0 */\n      0x00\n        /* \"solutions.sol\":9534:9545  pairAddress */\n      dup2\n        /* \"solutions.sol\":9534:9552  pairAddress.token0 */\n      0xffffffffffffffffffffffffffffffffffffffff\n      and\n      0x0dfe1681\n        /* \"solutions.sol\":9534:9554  pairAddress.token0() */\n      mload(0x40)\n      dup2\n      0xffffffff\n      and\n      0xe0\n      shl\n      dup2\n      mstore\n      0x04\n      add\n      0x20\n      mload(0x40)\n      dup1\n      dup4\n      sub\n      dup2\n      dup7\n      gas\n      staticcall\n      iszero\n      dup1\n      iszero\n      tag_42\n      jumpi\n      returndatasize\n      0x00\n      dup1\n      returndatacopy\n      revert(0x00, returndatasize)\n    tag_42:\n      pop\n      pop\n      pop\n      pop\n      mload(0x40)\n      returndatasize\n      not(0x1f)\n      0x1f\n      dup3\n      add\n      and\n      dup3\n      add\n      dup1\n      0x40\n      mstore\n      pop\n      dup2\n      add\n      swap1\n      tag_43\n      swap2\n      swap1\n      tag_40\n      jump\t// in\n    tag_43:\n        /* \"solutions.sol\":9517:9554  address token0 = pairAddress.token0() */\n      swap1\n      pop\n        /* \"solutions.sol\":9569:9583  address token1 */\n      0x00\n        /* \"solutions.sol\":9586:9597  pairAddress */\n      dup3\n        /* \"solutions.sol\":9586:9604  pairAddress.token1 */\n      0xffffffffffffffffffffffffffffffffffffffff\n      and\n      0xd21220a7\n        /* \"solutions.sol\":9586:9606  pairAddress.token1() */\n      mload(0x40)\n      dup2\n      0xffffffff\n      and\n      0xe0\n      shl\n      dup2\n      mstore\n      0x04\n      add\n      0x20\n      mload(0x40)\n      dup1\n      dup4\n      sub\n      dup2\n      dup7\n      gas\n      staticcall\n      iszero\n      dup1\n      iszero\n      tag_45\n      jumpi\n      returndatasize\n      0x00\n      dup1\n      returndatacopy\n      revert(0x00, returndatasize)\n    tag_45:\n      pop\n      pop\n      pop\n      pop\n      mload(0x40)\n      returndatasize\n      not(0x1f)\n      0x1f\n      dup3\n      add\n      and\n      dup3\n      add\n      dup1\n      0x40\n      mstore\n      pop\n      dup2\n      add\n      swap1\n      tag_46\n      swap2\n      swap1\n      tag_40\n      jump\t// in\n    tag_46:\n        /* \"solutions.sol\":9569:9606  address token1 = pairAddress.token1() */\n      swap1\n      pop\n        /* \"solutions.sol\":9637:9641  weth */\n      0x02\n      0x00\n      swap1\n      sload\n      swap1\n      0x0100\n      exp\n      swap1\n      div\n      0xffffffffffffffffffffffffffffffffffffffff\n      and\n        /* \"solutions.sol\":9627:9641  token0 != weth */\n      0xffffffffffffffffffffffffffffffffffffffff\n      and\n        /* \"solutions.sol\":9627:9633  token0 */\n      dup3\n        /* \"solutions.sol\":9627:9641  token0 != weth */\n      0xffffffffffffffffffffffffffffffffffffffff\n      and\n      eq\n      iszero\n        /* \"solutions.sol\":9627:9659  token0 != weth && token0 != defi */\n      dup1\n      iszero\n      tag_47\n      jumpi\n      pop\n        /* \"solutions.sol\":9655:9659  defi */\n      0x03\n      0x00\n      swap1\n      sload\n      swap1\n      0x0100\n      exp\n      swap1\n      div\n      0xffffffffffffffffffffffffffffffffffffffff\n      and\n        /* \"solutions.sol\":9645:9659  token0 != defi */\n      0xffffffffffffffffffffffffffffffffffffffff\n      and\n        /* \"solutions.sol\":9645:9651  token0 */\n      dup3\n        /* \"solutions.sol\":9645:9659  token0 != defi */\n      0xffffffffffffffffffffffffffffffffffffffff\n      and\n      eq\n      iszero\n        /* \"solutions.sol\":9627:9659  token0 != weth && token0 != defi */\n    tag_47:\n        /* \"solutions.sol\":9627:9678  token0 != weth && token0 != defi && !exists[token0] */\n      dup1\n      iszero\n      tag_48\n      jumpi\n      pop\n        /* \"solutions.sol\":9664:9670  exists */\n      0x05\n        /* \"solutions.sol\":9664:9678  exists[token0] */\n      0x00\n        /* \"solutions.sol\":9671:9677  token0 */\n      dup4\n        /* \"solutions.sol\":9664:9678  exists[token0] */\n      0xffffffffffffffffffffffffffffffffffffffff\n      and\n      0xffffffffffffffffffffffffffffffffffffffff\n      and\n      dup2\n      mstore\n      0x20\n      add\n      swap1\n      dup2\n      mstore\n      0x20\n      add\n      0x00\n      keccak256\n      0x00\n      swap1\n      sload\n      swap1\n      0x0100\n      exp\n      swap1\n      div\n      0xff\n      and\n        /* \"solutions.sol\":9663:9678  !exists[token0] */\n      iszero\n        /* \"solutions.sol\":9627:9678  token0 != weth && token0 != defi && !exists[token0] */\n    tag_48:\n        /* \"solutions.sol\":9623:9808  if (token0 != weth && token0 != defi && !exists[token0]) {... */\n      iszero\n      tag_49\n      jumpi\n        /* \"solutions.sol\":9716:9720  true */\n      0x01\n        /* \"solutions.sol\":9699:9705  exists */\n      0x05\n        /* \"solutions.sol\":9699:9713  exists[token0] */\n      0x00\n        /* \"solutions.sol\":9706:9712  token0 */\n      dup5\n        /* \"solutions.sol\":9699:9713  exists[token0] */\n      0xffffffffffffffffffffffffffffffffffffffff\n      and\n      0xffffffffffffffffffffffffffffffffffffffff\n      and\n      dup2\n      mstore\n      0x20\n      add\n      swap1\n      dup2\n      mstore\n      0x20\n      add\n      0x00\n      keccak256\n      0x00\n        /* \"solutions.sol\":9699:9720  exists[token0] = true */\n      0x0100\n      exp\n      dup2\n      sload\n      dup2\n      0xff\n      mul\n      not\n      and\n      swap1\n      dup4\n      iszero\n      iszero\n      mul\n      or\n      swap1\n      sstore\n      pop\n        /* \"solutions.sol\":9762:9768  token0 */\n      dup2\n        /* \"solutions.sol\":9739:9754  uniqueAddresses */\n      0x06\n        /* \"solutions.sol\":9739:9759  uniqueAddresses[ind] */\n      0x00\n        /* \"solutions.sol\":9755:9758  ind */\n      sload(0x07)\n        /* \"solutions.sol\":9739:9759  uniqueAddresses[ind] */\n      dup2\n      mstore\n      0x20\n      add\n      swap1\n      dup2\n      mstore\n      0x20\n      add\n      0x00\n      keccak256\n      0x00\n        /* \"solutions.sol\":9739:9768  uniqueAddresses[ind] = token0 */\n      0x0100\n      exp\n      dup2\n      sload\n      dup2\n      0xffffffffffffffffffffffffffffffffffffffff\n      mul\n      not\n      and\n      swap1\n      dup4\n      0xffffffffffffffffffffffffffffffffffffffff\n      and\n      mul\n      or\n      swap1\n      sstore\n      pop\n        /* \"solutions.sol\":9787:9790  ind */\n      0x07\n      0x00\n        /* \"solutions.sol\":9787:9792  ind++ */\n      dup2\n      sload\n      dup1\n      swap3\n      swap2\n      swap1\n      tag_50\n      swap1\n      tag_51\n      jump\t// in\n    tag_50:\n      swap2\n      swap1\n      pop\n      sstore\n      pop\n        /* \"solutions.sol\":9623:9808  if (token0 != weth && token0 != defi && !exists[token0]) {... */\n    tag_49:\n        /* \"solutions.sol\":9836:9840  weth */\n      0x02\n      0x00\n      swap1\n      sload\n      swap1\n      0x0100\n      exp\n      swap1\n      div\n      0xffffffffffffffffffffffffffffffffffffffff\n      and\n        /* \"solutions.sol\":9826:9840  token1 != weth */\n      0xffffffffffffffffffffffffffffffffffffffff\n      and\n        /* \"solutions.sol\":9826:9832  token1 */\n      dup2\n        /* \"solutions.sol\":9826:9840  token1 != weth */\n      0xffffffffffffffffffffffffffffffffffffffff\n      and\n      eq\n      iszero\n        /* \"solutions.sol\":9826:9858  token1 != weth && token1 != defi */\n      dup1\n      iszero\n      tag_52\n      jumpi\n      pop\n        /* \"solutions.sol\":9854:9858  defi */\n      0x03\n      0x00\n      swap1\n      sload\n      swap1\n      0x0100\n      exp\n      swap1\n      div\n      0xffffffffffffffffffffffffffffffffffffffff\n      and\n        /* \"solutions.sol\":9844:9858  token1 != defi */\n      0xffffffffffffffffffffffffffffffffffffffff\n      and\n        /* \"solutions.sol\":9844:9850  token1 */\n      dup2\n        /* \"solutions.sol\":9844:9858  token1 != defi */\n      0xffffffffffffffffffffffffffffffffffffffff\n      and\n      eq\n      iszero\n        /* \"solutions.sol\":9826:9858  token1 != weth && token1 != defi */\n    tag_52:\n        /* \"solutions.sol\":9826:9877  token1 != weth && token1 != defi && !exists[token1] */\n      dup1\n      iszero\n      tag_53\n      jumpi\n      pop\n        /* \"solutions.sol\":9863:9869  exists */\n      0x05\n        /* \"solutions.sol\":9863:9877  exists[token1] */\n      0x00\n        /* \"solutions.sol\":9870:9876  token1 */\n      dup3\n        /* \"solutions.sol\":9863:9877  exists[token1] */\n      0xffffffffffffffffffffffffffffffffffffffff\n      and\n      0xffffffffffffffffffffffffffffffffffffffff\n      and\n      dup2\n      mstore\n      0x20\n      add\n      swap1\n      dup2\n      mstore\n      0x20\n      add\n      0x00\n      keccak256\n      0x00\n      swap1\n      sload\n      swap1\n      0x0100\n      exp\n      swap1\n      div\n      0xff\n      and\n        /* \"solutions.sol\":9862:9877  !exists[token1] */\n      iszero\n        /* \"solutions.sol\":9826:9877  token1 != weth && token1 != defi && !exists[token1] */\n    tag_53:\n        /* \"solutions.sol\":9822:10007  if (token1 != weth && token1 != defi && !exists[token1]) {... */\n      iszero\n      tag_54\n      jumpi\n        /* \"solutions.sol\":9915:9919  true */\n      0x01\n        /* \"solutions.sol\":9898:9904  exists */\n      0x05\n        /* \"solutions.sol\":9898:9912  exists[token1] */\n      0x00\n        /* \"solutions.sol\":9905:9911  token1 */\n      dup4\n        /* \"solutions.sol\":9898:9912  exists[token1] */\n      0xffffffffffffffffffffffffffffffffffffffff\n      and\n      0xffffffffffffffffffffffffffffffffffffffff\n      and\n      dup2\n      mstore\n      0x20\n      add\n      swap1\n      dup2\n      mstore\n      0x20\n      add\n      0x00\n      keccak256\n      0x00\n        /* \"solutions.sol\":9898:9919  exists[token1] = true */\n      0x0100\n      exp\n      dup2\n      sload\n      dup2\n      0xff\n      mul\n      not\n      and\n      swap1\n      dup4\n      iszero\n      iszero\n      mul\n      or\n      swap1\n      sstore\n      pop\n        /* \"solutions.sol\":9961:9967  token1 */\n      dup1\n        /* \"solutions.sol\":9938:9953  uniqueAddresses */\n      0x06\n        /* \"solutions.sol\":9938:9958  uniqueAddresses[ind] */\n      0x00\n        /* \"solutions.sol\":9954:9957  ind */\n      sload(0x07)\n        /* \"solutions.sol\":9938:9958  uniqueAddresses[ind] */\n      dup2\n      mstore\n      0x20\n      add\n      swap1\n      dup2\n      mstore\n      0x20\n      add\n      0x00\n      keccak256\n      0x00\n        /* \"solutions.sol\":9938:9967  uniqueAddresses[ind] = token1 */\n      0x0100\n      exp\n      dup2\n      sload\n      dup2\n      0xffffffffffffffffffffffffffffffffffffffff\n      mul\n      not\n      and\n      swap1\n      dup4\n      0xffffffffffffffffffffffffffffffffffffffff\n      and\n      mul\n      or\n      swap1\n      sstore\n      pop\n        /* \"solutions.sol\":9986:9989  ind */\n      0x07\n      0x00\n        /* \"solutions.sol\":9986:9991  ind++ */\n      dup2\n      sload\n      dup1\n      swap3\n      swap2\n      swap1\n      tag_55\n      swap1\n      tag_51\n      jump\t// in\n    tag_55:\n      swap2\n      swap1\n      pop\n      sstore\n      pop\n        /* \"solutions.sol\":9822:10007  if (token1 != weth && token1 != defi && !exists[token1]) {... */\n    tag_54:\n        /* \"solutions.sol\":9441:10018  {... */\n      pop\n      pop\n      pop\n        /* \"solutions.sol\":9436:9439  i++ */\n      dup1\n      dup1\n      tag_56\n      swap1\n      tag_51\n      jump\t// in\n    tag_56:\n      swap2\n      pop\n      pop\n        /* \"solutions.sol\":9404:10018  for (uint256 i = 0; i < length; i++) {... */\n      jump(tag_32)\n    tag_33:\n      pop\n        /* \"solutions.sol\":10035:10044  uint256 i */\n      0x00\n        /* \"solutions.sol\":10030:10410  for (uint256 i = 0; i < ind; i++) {... */\n    tag_57:\n        /* \"solutions.sol\":10054:10057  ind */\n      sload(0x07)\n        /* \"solutions.sol\":10050:10051  i */\n      dup2\n        /* \"solutions.sol\":10050:10057  i < ind */\n      lt\n        /* \"solutions.sol\":10030:10410  for (uint256 i = 0; i < ind; i++) {... */\n      iszero\n      tag_58\n      jumpi\n        /* \"solutions.sol\":10079:10092  address pair0 */\n      0x00\n        /* \"solutions.sol\":10095:10102  factory */\n      dup1\n      0x00\n      swap1\n      sload\n      swap1\n      0x0100\n      exp\n      swap1\n      div\n      0xffffffffffffffffffffffffffffffffffffffff\n      and\n        /* \"solutions.sol\":10095:10110  factory.getPair */\n      0xffffffffffffffffffffffffffffffffffffffff\n      and\n      0xe6a43905\n        /* \"solutions.sol\":10111:10126  uniqueAddresses */\n      0x06\n        /* \"solutions.sol\":10111:10129  uniqueAddresses[i] */\n      0x00\n        /* \"solutions.sol\":10127:10128  i */\n      dup6\n        /* \"solutions.sol\":10111:10129  uniqueAddresses[i] */\n      dup2\n      mstore\n      0x20\n      add\n      swap1\n      dup2\n      mstore\n      0x20\n      add\n      0x00\n      keccak256\n      0x00\n      swap1\n      sload\n      swap1\n      0x0100\n      exp\n      swap1\n      div\n      0xffffffffffffffffffffffffffffffffffffffff\n      and\n        /* \"solutions.sol\":10131:10135  weth */\n      0x02\n      0x00\n      swap1\n      sload\n      swap1\n      0x0100\n      exp\n      swap1\n      div\n      0xffffffffffffffffffffffffffffffffffffffff\n      and\n        /* \"solutions.sol\":10095:10136  factory.getPair(uniqueAddresses[i], weth) */\n      mload(0x40)\n      dup4\n      0xffffffff\n      and\n      0xe0\n      shl\n      dup2\n      mstore\n      0x04\n      add\n      tag_60\n      swap3\n      swap2\n      swap1\n      tag_61\n      jump\t// in\n    tag_60:\n      0x20\n      mload(0x40)\n      dup1\n      dup4\n      sub\n      dup2\n      dup7\n      gas\n      staticcall\n      iszero\n      dup1\n      iszero\n      tag_63\n      jumpi\n      returndatasize\n      0x00\n      dup1\n      returndatacopy\n      revert(0x00, returndatasize)\n    tag_63:\n      pop\n      pop\n      pop\n      pop\n      mload(0x40)\n      returndatasize\n      not(0x1f)\n      0x1f\n      dup3\n      add\n      and\n      dup3\n      add\n      dup1\n      0x40\n      mstore\n      pop\n      dup2\n      add\n      swap1\n      tag_64\n      swap2\n      swap1\n      tag_40\n      jump\t// in\n    tag_64:\n        /* \"solutions.sol\":10079:10136  address pair0 = factory.getPair(uniqueAddresses[i], weth) */\n      swap1\n      pop\n        /* \"solutions.sol\":10151:10164  address pair1 */\n      0x00\n        /* \"solutions.sol\":10167:10174  factory */\n      dup1\n      0x00\n      swap1\n      sload\n      swap1\n      0x0100\n      exp\n      swap1\n      div\n      0xffffffffffffffffffffffffffffffffffffffff\n      and\n        /* \"solutions.sol\":10167:10182  factory.getPair */\n      0xffffffffffffffffffffffffffffffffffffffff\n      and\n      0xe6a43905\n        /* \"solutions.sol\":10183:10198  uniqueAddresses */\n      0x06\n        /* \"solutions.sol\":10183:10201  uniqueAddresses[i] */\n      0x00\n        /* \"solutions.sol\":10199:10200  i */\n      dup7\n        /* \"solutions.sol\":10183:10201  uniqueAddresses[i] */\n      dup2\n      mstore\n      0x20\n      add\n      swap1\n      dup2\n      mstore\n      0x20\n      add\n      0x00\n      keccak256\n      0x00\n      swap1\n      sload\n      swap1\n      0x0100\n      exp\n      swap1\n      div\n      0xffffffffffffffffffffffffffffffffffffffff\n      and\n        /* \"solutions.sol\":10203:10207  defi */\n      0x03\n      0x00\n      swap1\n      sload\n      swap1\n      0x0100\n      exp\n      swap1\n      div\n      0xffffffffffffffffffffffffffffffffffffffff\n      and\n        /* \"solutions.sol\":10167:10208  factory.getPair(uniqueAddresses[i], defi) */\n      mload(0x40)\n      dup4\n      0xffffffff\n      and\n      0xe0\n      shl\n      dup2\n      mstore\n      0x04\n      add\n      tag_65\n      swap3\n      swap2\n      swap1\n      tag_61\n      jump\t// in\n    tag_65:\n      0x20\n      mload(0x40)\n      dup1\n      dup4\n      sub\n      dup2\n      dup7\n      gas\n      staticcall\n      iszero\n      dup1\n      iszero\n      tag_67\n      jumpi\n      returndatasize\n      0x00\n      dup1\n      returndatacopy\n      revert(0x00, returndatasize)\n    tag_67:\n      pop\n      pop\n      pop\n      pop\n      mload(0x40)\n      returndatasize\n      not(0x1f)\n      0x1f\n      dup3\n      add\n      and\n      dup3\n      add\n      dup1\n      0x40\n      mstore\n      pop\n      dup2\n      add\n      swap1\n      tag_68\n      swap2\n      swap1\n      tag_40\n      jump\t// in\n    tag_68:\n        /* \"solutions.sol\":10151:10208  address pair1 = factory.getPair(uniqueAddresses[i], defi) */\n      swap1\n      pop\n        /* \"solutions.sol\":10246:10247  0 */\n      0x00\n        /* \"solutions.sol\":10229:10248  pair0 != address(0) */\n      0xffffffffffffffffffffffffffffffffffffffff\n      and\n        /* \"solutions.sol\":10229:10234  pair0 */\n      dup3\n        /* \"solutions.sol\":10229:10248  pair0 != address(0) */\n      0xffffffffffffffffffffffffffffffffffffffff\n      and\n      eq\n      iszero\n        /* \"solutions.sol\":10229:10271  pair0 != address(0) && pair1 != address(0) */\n      dup1\n      iszero\n      tag_69\n      jumpi\n      pop\n        /* \"solutions.sol\":10269:10270  0 */\n      0x00\n        /* \"solutions.sol\":10252:10271  pair1 != address(0) */\n      0xffffffffffffffffffffffffffffffffffffffff\n      and\n        /* \"solutions.sol\":10252:10257  pair1 */\n      dup2\n        /* \"solutions.sol\":10252:10271  pair1 != address(0) */\n      0xffffffffffffffffffffffffffffffffffffffff\n      and\n      eq\n      iszero\n        /* \"solutions.sol\":10229:10271  pair0 != address(0) && pair1 != address(0) */\n    tag_69:\n        /* \"solutions.sol\":10225:10399  if (pair0 != address(0) && pair1 != address(0)) {... */\n      iszero\n      tag_70\n      jumpi\n        /* \"solutions.sol\":10323:10328  pair0 */\n      dup2\n        /* \"solutions.sol\":10292:10297  pairs */\n      0x04\n        /* \"solutions.sol\":10292:10317  pairs[uniqueAddresses[i]] */\n      0x00\n        /* \"solutions.sol\":10298:10313  uniqueAddresses */\n      0x06\n        /* \"solutions.sol\":10298:10316  uniqueAddresses[i] */\n      0x00\n        /* \"solutions.sol\":10314:10315  i */\n      dup8\n        /* \"solutions.sol\":10298:10316  uniqueAddresses[i] */\n      dup2\n      mstore\n      0x20\n      add\n      swap1\n      dup2\n      mstore\n      0x20\n      add\n      0x00\n      keccak256\n      0x00\n      swap1\n      sload\n      swap1\n      0x0100\n      exp\n      swap1\n      div\n      0xffffffffffffffffffffffffffffffffffffffff\n      and\n        /* \"solutions.sol\":10292:10317  pairs[uniqueAddresses[i]] */\n      0xffffffffffffffffffffffffffffffffffffffff\n      and\n      0xffffffffffffffffffffffffffffffffffffffff\n      and\n      dup2\n      mstore\n      0x20\n      add\n      swap1\n      dup2\n      mstore\n      0x20\n      add\n      0x00\n      keccak256\n        /* \"solutions.sol\":10318:10319  0 */\n      0x00\n        /* \"solutions.sol\":10292:10320  pairs[uniqueAddresses[i]][0] */\n      0x02\n      dup2\n      lt\n      tag_71\n      jumpi\n      tag_72\n      tag_73\n      jump\t// in\n    tag_72:\n    tag_71:\n      add\n      0x00\n        /* \"solutions.sol\":10292:10328  pairs[uniqueAddresses[i]][0] = pair0 */\n      0x0100\n      exp\n      dup2\n      sload\n      dup2\n      0xffffffffffffffffffffffffffffffffffffffff\n      mul\n      not\n      and\n      swap1\n      dup4\n      0xffffffffffffffffffffffffffffffffffffffff\n      and\n      mul\n      or\n      swap1\n      sstore\n      pop\n        /* \"solutions.sol\":10378:10383  pair1 */\n      dup1\n        /* \"solutions.sol\":10347:10352  pairs */\n      0x04\n        /* \"solutions.sol\":10347:10372  pairs[uniqueAddresses[i]] */\n      0x00\n        /* \"solutions.sol\":10353:10368  uniqueAddresses */\n      0x06\n        /* \"solutions.sol\":10353:10371  uniqueAddresses[i] */\n      0x00\n        /* \"solutions.sol\":10369:10370  i */\n      dup8\n        /* \"solutions.sol\":10353:10371  uniqueAddresses[i] */\n      dup2\n      mstore\n      0x20\n      add\n      swap1\n      dup2\n      mstore\n      0x20\n      add\n      0x00\n      keccak256\n      0x00\n      swap1\n      sload\n      swap1\n      0x0100\n      exp\n      swap1\n      div\n      0xffffffffffffffffffffffffffffffffffffffff\n      and\n        /* \"solutions.sol\":10347:10372  pairs[uniqueAddresses[i]] */\n      0xffffffffffffffffffffffffffffffffffffffff\n      and\n      0xffffffffffffffffffffffffffffffffffffffff\n      and\n      dup2\n      mstore\n      0x20\n      add\n      swap1\n      dup2\n      mstore\n      0x20\n      add\n      0x00\n      keccak256\n        /* \"solutions.sol\":10373:10374  1 */\n      0x01\n        /* \"solutions.sol\":10347:10375  pairs[uniqueAddresses[i]][1] */\n      0x02\n      dup2\n      lt\n      tag_75\n      jumpi\n      tag_76\n      tag_73\n      jump\t// in\n    tag_76:\n    tag_75:\n      add\n      0x00\n        /* \"solutions.sol\":10347:10383  pairs[uniqueAddresses[i]][1] = pair1 */\n      0x0100\n      exp\n      dup2\n      sload\n      dup2\n      0xffffffffffffffffffffffffffffffffffffffff\n      mul\n      not\n      and\n      swap1\n      dup4\n      0xffffffffffffffffffffffffffffffffffffffff\n      and\n      mul\n      or\n      swap1\n      sstore\n      pop\n        /* \"solutions.sol\":10225:10399  if (pair0 != address(0) && pair1 != address(0)) {... */\n    tag_70:\n        /* \"solutions.sol\":10064:10410  {... */\n      pop\n      pop\n        /* \"solutions.sol\":10059:10062  i++ */\n      dup1\n      dup1\n      tag_78\n      swap1\n      tag_51\n      jump\t// in\n    tag_78:\n      swap2\n      pop\n      pop\n        /* \"solutions.sol\":10030:10410  for (uint256 i = 0; i < ind; i++) {... */\n      jump(tag_57)\n    tag_58:\n      pop\n        /* \"solutions.sol\":10429:10433  true */\n      0x01\n        /* \"solutions.sol\":10422:10433  return true */\n      swap2\n      pop\n      pop\n        /* \"solutions.sol\":9286:10441  function getAllPairs() public returns (bool) {... */\n      swap1\n      jump\t// out\n        /* \"solutions.sol\":8794:8815  IRouter public router */\n    tag_22:\n      0x01\n      0x00\n      swap1\n      sload\n      swap1\n      0x0100\n      exp\n      swap1\n      div\n      0xffffffffffffffffffffffffffffffffffffffff\n      and\n      dup2\n      jump\t// out\n        /* \"#utility.yul\":88:205   */\n    tag_80:\n        /* \"#utility.yul\":197:198   */\n      0x00\n        /* \"#utility.yul\":194:195   */\n      dup1\n        /* \"#utility.yul\":187:199   */\n      revert\n        /* \"#utility.yul\":334:460   */\n    tag_82:\n        /* \"#utility.yul\":371:378   */\n      0x00\n        /* \"#utility.yul\":411:453   */\n      0xffffffffffffffffffffffffffffffffffffffff\n        /* \"#utility.yul\":404:409   */\n      dup3\n        /* \"#utility.yul\":400:454   */\n      and\n        /* \"#utility.yul\":389:454   */\n      swap1\n      pop\n        /* \"#utility.yul\":334:460   */\n      swap2\n      swap1\n      pop\n      jump\t// out\n        /* \"#utility.yul\":466:562   */\n    tag_83:\n        /* \"#utility.yul\":503:510   */\n      0x00\n        /* \"#utility.yul\":532:556   */\n      tag_109\n        /* \"#utility.yul\":550:555   */\n      dup3\n        /* \"#utility.yul\":532:556   */\n      tag_82\n      jump\t// in\n    tag_109:\n        /* \"#utility.yul\":521:556   */\n      swap1\n      pop\n        /* \"#utility.yul\":466:562   */\n      swap2\n      swap1\n      pop\n      jump\t// out\n        /* \"#utility.yul\":568:690   */\n    tag_84:\n        /* \"#utility.yul\":641:665   */\n      tag_111\n        /* \"#utility.yul\":659:664   */\n      dup2\n        /* \"#utility.yul\":641:665   */\n      tag_83\n      jump\t// in\n    tag_111:\n        /* \"#utility.yul\":634:639   */\n      dup2\n        /* \"#utility.yul\":631:666   */\n      eq\n        /* \"#utility.yul\":621:684   */\n      tag_112\n      jumpi\n        /* \"#utility.yul\":680:681   */\n      0x00\n        /* \"#utility.yul\":677:678   */\n      dup1\n        /* \"#utility.yul\":670:682   */\n      revert\n        /* \"#utility.yul\":621:684   */\n    tag_112:\n        /* \"#utility.yul\":568:690   */\n      pop\n      jump\t// out\n        /* \"#utility.yul\":696:835   */\n    tag_85:\n        /* \"#utility.yul\":742:747   */\n      0x00\n        /* \"#utility.yul\":780:786   */\n      dup2\n        /* \"#utility.yul\":767:787   */\n      calldataload\n        /* \"#utility.yul\":758:787   */\n      swap1\n      pop\n        /* \"#utility.yul\":796:829   */\n      tag_114\n        /* \"#utility.yul\":823:828   */\n      dup2\n        /* \"#utility.yul\":796:829   */\n      tag_84\n      jump\t// in\n    tag_114:\n        /* \"#utility.yul\":696:835   */\n      swap3\n      swap2\n      pop\n      pop\n      jump\t// out\n        /* \"#utility.yul\":841:918   */\n    tag_86:\n        /* \"#utility.yul\":878:885   */\n      0x00\n        /* \"#utility.yul\":907:912   */\n      dup2\n        /* \"#utility.yul\":896:912   */\n      swap1\n      pop\n        /* \"#utility.yul\":841:918   */\n      swap2\n      swap1\n      pop\n      jump\t// out\n        /* \"#utility.yul\":924:1046   */\n    tag_87:\n        /* \"#utility.yul\":997:1021   */\n      tag_117\n        /* \"#utility.yul\":1015:1020   */\n      dup2\n        /* \"#utility.yul\":997:1021   */\n      tag_86\n      jump\t// in\n    tag_117:\n        /* \"#utility.yul\":990:995   */\n      dup2\n        /* \"#utility.yul\":987:1022   */\n      eq\n        /* \"#utility.yul\":977:1040   */\n      tag_118\n      jumpi\n        /* \"#utility.yul\":1036:1037   */\n      0x00\n        /* \"#utility.yul\":1033:1034   */\n      dup1\n        /* \"#utility.yul\":1026:1038   */\n      revert\n        /* \"#utility.yul\":977:1040   */\n    tag_118:\n        /* \"#utility.yul\":924:1046   */\n      pop\n      jump\t// out\n        /* \"#utility.yul\":1052:1191   */\n    tag_88:\n        /* \"#utility.yul\":1098:1103   */\n      0x00\n        /* \"#utility.yul\":1136:1142   */\n      dup2\n        /* \"#utility.yul\":1123:1143   */\n      calldataload\n        /* \"#utility.yul\":1114:1143   */\n      swap1\n      pop\n        /* \"#utility.yul\":1152:1185   */\n      tag_120\n        /* \"#utility.yul\":1179:1184   */\n      dup2\n        /* \"#utility.yul\":1152:1185   */\n      tag_87\n      jump\t// in\n    tag_120:\n        /* \"#utility.yul\":1052:1191   */\n      swap3\n      swap2\n      pop\n      pop\n      jump\t// out\n        /* \"#utility.yul\":1197:1671   */\n    tag_9:\n        /* \"#utility.yul\":1265:1271   */\n      0x00\n        /* \"#utility.yul\":1273:1279   */\n      dup1\n        /* \"#utility.yul\":1322:1324   */\n      0x40\n        /* \"#utility.yul\":1310:1319   */\n      dup4\n        /* \"#utility.yul\":1301:1308   */\n      dup6\n        /* \"#utility.yul\":1297:1320   */\n      sub\n        /* \"#utility.yul\":1293:1325   */\n      slt\n        /* \"#utility.yul\":1290:1409   */\n      iszero\n      tag_122\n      jumpi\n        /* \"#utility.yul\":1328:1407   */\n      tag_123\n      tag_80\n      jump\t// in\n    tag_123:\n        /* \"#utility.yul\":1290:1409   */\n    tag_122:\n        /* \"#utility.yul\":1448:1449   */\n      0x00\n        /* \"#utility.yul\":1473:1526   */\n      tag_124\n        /* \"#utility.yul\":1518:1525   */\n      dup6\n        /* \"#utility.yul\":1509:1515   */\n      dup3\n        /* \"#utility.yul\":1498:1507   */\n      dup7\n        /* \"#utility.yul\":1494:1516   */\n      add\n        /* \"#utility.yul\":1473:1526   */\n      tag_85\n      jump\t// in\n    tag_124:\n        /* \"#utility.yul\":1463:1526   */\n      swap3\n      pop\n        /* \"#utility.yul\":1419:1536   */\n      pop\n        /* \"#utility.yul\":1575:1577   */\n      0x20\n        /* \"#utility.yul\":1601:1654   */\n      tag_125\n        /* \"#utility.yul\":1646:1653   */\n      dup6\n        /* \"#utility.yul\":1637:1643   */\n      dup3\n        /* \"#utility.yul\":1626:1635   */\n      dup7\n        /* \"#utility.yul\":1622:1644   */\n      add\n        /* \"#utility.yul\":1601:1654   */\n      tag_88\n      jump\t// in\n    tag_125:\n        /* \"#utility.yul\":1591:1654   */\n      swap2\n      pop\n        /* \"#utility.yul\":1546:1664   */\n      pop\n        /* \"#utility.yul\":1197:1671   */\n      swap3\n      pop\n      swap3\n      swap1\n      pop\n      jump\t// out\n        /* \"#utility.yul\":1677:1795   */\n    tag_89:\n        /* \"#utility.yul\":1764:1788   */\n      tag_127\n        /* \"#utility.yul\":1782:1787   */\n      dup2\n        /* \"#utility.yul\":1764:1788   */\n      tag_83\n      jump\t// in\n    tag_127:\n        /* \"#utility.yul\":1759:1762   */\n      dup3\n        /* \"#utility.yul\":1752:1789   */\n      mstore\n        /* \"#utility.yul\":1677:1795   */\n      pop\n      pop\n      jump\t// out\n        /* \"#utility.yul\":1801:2023   */\n    tag_12:\n        /* \"#utility.yul\":1894:1898   */\n      0x00\n        /* \"#utility.yul\":1932:1934   */\n      0x20\n        /* \"#utility.yul\":1921:1930   */\n      dup3\n        /* \"#utility.yul\":1917:1935   */\n      add\n        /* \"#utility.yul\":1909:1935   */\n      swap1\n      pop\n        /* \"#utility.yul\":1945:2016   */\n      tag_129\n        /* \"#utility.yul\":2013:2014   */\n      0x00\n        /* \"#utility.yul\":2002:2011   */\n      dup4\n        /* \"#utility.yul\":1998:2015   */\n      add\n        /* \"#utility.yul\":1989:1995   */\n      dup5\n        /* \"#utility.yul\":1945:2016   */\n      tag_89\n      jump\t// in\n    tag_129:\n        /* \"#utility.yul\":1801:2023   */\n      swap3\n      swap2\n      pop\n      pop\n      jump\t// out\n        /* \"#utility.yul\":2029:2089   */\n    tag_90:\n        /* \"#utility.yul\":2057:2060   */\n      0x00\n        /* \"#utility.yul\":2078:2083   */\n      dup2\n        /* \"#utility.yul\":2071:2083   */\n      swap1\n      pop\n        /* \"#utility.yul\":2029:2089   */\n      swap2\n      swap1\n      pop\n      jump\t// out\n        /* \"#utility.yul\":2095:2237   */\n    tag_91:\n        /* \"#utility.yul\":2145:2154   */\n      0x00\n        /* \"#utility.yul\":2178:2231   */\n      tag_132\n        /* \"#utility.yul\":2196:2230   */\n      tag_133\n        /* \"#utility.yul\":2205:2229   */\n      tag_134\n        /* \"#utility.yul\":2223:2228   */\n      dup5\n        /* \"#utility.yul\":2205:2229   */\n      tag_82\n      jump\t// in\n    tag_134:\n        /* \"#utility.yul\":2196:2230   */\n      tag_90\n      jump\t// in\n    tag_133:\n        /* \"#utility.yul\":2178:2231   */\n      tag_82\n      jump\t// in\n    tag_132:\n        /* \"#utility.yul\":2165:2231   */\n      swap1\n      pop\n        /* \"#utility.yul\":2095:2237   */\n      swap2\n      swap1\n      pop\n      jump\t// out\n        /* \"#utility.yul\":2243:2369   */\n    tag_92:\n        /* \"#utility.yul\":2293:2302   */\n      0x00\n        /* \"#utility.yul\":2326:2363   */\n      tag_136\n        /* \"#utility.yul\":2357:2362   */\n      dup3\n        /* \"#utility.yul\":2326:2363   */\n      tag_91\n      jump\t// in\n    tag_136:\n        /* \"#utility.yul\":2313:2363   */\n      swap1\n      pop\n        /* \"#utility.yul\":2243:2369   */\n      swap2\n      swap1\n      pop\n      jump\t// out\n        /* \"#utility.yul\":2375:2516   */\n    tag_93:\n        /* \"#utility.yul\":2440:2449   */\n      0x00\n        /* \"#utility.yul\":2473:2510   */\n      tag_138\n        /* \"#utility.yul\":2504:2509   */\n      dup3\n        /* \"#utility.yul\":2473:2510   */\n      tag_92\n      jump\t// in\n    tag_138:\n        /* \"#utility.yul\":2460:2510   */\n      swap1\n      pop\n        /* \"#utility.yul\":2375:2516   */\n      swap2\n      swap1\n      pop\n      jump\t// out\n        /* \"#utility.yul\":2522:2683   */\n    tag_94:\n        /* \"#utility.yul\":2624:2676   */\n      tag_140\n        /* \"#utility.yul\":2670:2675   */\n      dup2\n        /* \"#utility.yul\":2624:2676   */\n      tag_93\n      jump\t// in\n    tag_140:\n        /* \"#utility.yul\":2619:2622   */\n      dup3\n        /* \"#utility.yul\":2612:2677   */\n      mstore\n        /* \"#utility.yul\":2522:2683   */\n      pop\n      pop\n      jump\t// out\n        /* \"#utility.yul\":2689:2941   */\n    tag_16:\n        /* \"#utility.yul\":2797:2801   */\n      0x00\n        /* \"#utility.yul\":2835:2837   */\n      0x20\n        /* \"#utility.yul\":2824:2833   */\n      dup3\n        /* \"#utility.yul\":2820:2838   */\n      add\n        /* \"#utility.yul\":2812:2838   */\n      swap1\n      pop\n        /* \"#utility.yul\":2848:2934   */\n      tag_142\n        /* \"#utility.yul\":2931:2932   */\n      0x00\n        /* \"#utility.yul\":2920:2929   */\n      dup4\n        /* \"#utility.yul\":2916:2933   */\n      add\n        /* \"#utility.yul\":2907:2913   */\n      dup5\n        /* \"#utility.yul\":2848:2934   */\n      tag_94\n      jump\t// in\n    tag_142:\n        /* \"#utility.yul\":2689:2941   */\n      swap3\n      swap2\n      pop\n      pop\n      jump\t// out\n        /* \"#utility.yul\":2947:3037   */\n    tag_95:\n        /* \"#utility.yul\":2981:2988   */\n      0x00\n        /* \"#utility.yul\":3024:3029   */\n      dup2\n        /* \"#utility.yul\":3017:3030   */\n      iszero\n        /* \"#utility.yul\":3010:3031   */\n      iszero\n        /* \"#utility.yul\":2999:3031   */\n      swap1\n      pop\n        /* \"#utility.yul\":2947:3037   */\n      swap2\n      swap1\n      pop\n      jump\t// out\n        /* \"#utility.yul\":3043:3152   */\n    tag_96:\n        /* \"#utility.yul\":3124:3145   */\n      tag_145\n        /* \"#utility.yul\":3139:3144   */\n      dup2\n        /* \"#utility.yul\":3124:3145   */\n      tag_95\n      jump\t// in\n    tag_145:\n        /* \"#utility.yul\":3119:3122   */\n      dup3\n        /* \"#utility.yul\":3112:3146   */\n      mstore\n        /* \"#utility.yul\":3043:3152   */\n      pop\n      pop\n      jump\t// out\n        /* \"#utility.yul\":3158:3368   */\n    tag_20:\n        /* \"#utility.yul\":3245:3249   */\n      0x00\n        /* \"#utility.yul\":3283:3285   */\n      0x20\n        /* \"#utility.yul\":3272:3281   */\n      dup3\n        /* \"#utility.yul\":3268:3286   */\n      add\n        /* \"#utility.yul\":3260:3286   */\n      swap1\n      pop\n        /* \"#utility.yul\":3296:3361   */\n      tag_147\n        /* \"#utility.yul\":3358:3359   */\n      0x00\n        /* \"#utility.yul\":3347:3356   */\n      dup4\n        /* \"#utility.yul\":3343:3360   */\n      add\n        /* \"#utility.yul\":3334:3340   */\n      dup5\n        /* \"#utility.yul\":3296:3361   */\n      tag_96\n      jump\t// in\n    tag_147:\n        /* \"#utility.yul\":3158:3368   */\n      swap3\n      swap2\n      pop\n      pop\n      jump\t// out\n        /* \"#utility.yul\":3374:3515   */\n    tag_97:\n        /* \"#utility.yul\":3439:3448   */\n      0x00\n        /* \"#utility.yul\":3472:3509   */\n      tag_149\n        /* \"#utility.yul\":3503:3508   */\n      dup3\n        /* \"#utility.yul\":3472:3509   */\n      tag_92\n      jump\t// in\n    tag_149:\n        /* \"#utility.yul\":3459:3509   */\n      swap1\n      pop\n        /* \"#utility.yul\":3374:3515   */\n      swap2\n      swap1\n      pop\n      jump\t// out\n        /* \"#utility.yul\":3521:3682   */\n    tag_98:\n        /* \"#utility.yul\":3623:3675   */\n      tag_151\n        /* \"#utility.yul\":3669:3674   */\n      dup2\n        /* \"#utility.yul\":3623:3675   */\n      tag_97\n      jump\t// in\n    tag_151:\n        /* \"#utility.yul\":3618:3621   */\n      dup3\n        /* \"#utility.yul\":3611:3676   */\n      mstore\n        /* \"#utility.yul\":3521:3682   */\n      pop\n      pop\n      jump\t// out\n        /* \"#utility.yul\":3688:3940   */\n    tag_24:\n        /* \"#utility.yul\":3796:3800   */\n      0x00\n        /* \"#utility.yul\":3834:3836   */\n      0x20\n        /* \"#utility.yul\":3823:3832   */\n      dup3\n        /* \"#utility.yul\":3819:3837   */\n      add\n        /* \"#utility.yul\":3811:3837   */\n      swap1\n      pop\n        /* \"#utility.yul\":3847:3933   */\n      tag_153\n        /* \"#utility.yul\":3930:3931   */\n      0x00\n        /* \"#utility.yul\":3919:3928   */\n      dup4\n        /* \"#utility.yul\":3915:3932   */\n      add\n        /* \"#utility.yul\":3906:3912   */\n      dup5\n        /* \"#utility.yul\":3847:3933   */\n      tag_98\n      jump\t// in\n    tag_153:\n        /* \"#utility.yul\":3688:3940   */\n      swap3\n      swap2\n      pop\n      pop\n      jump\t// out\n        /* \"#utility.yul\":3946:4089   */\n    tag_99:\n        /* \"#utility.yul\":4003:4008   */\n      0x00\n        /* \"#utility.yul\":4034:4040   */\n      dup2\n        /* \"#utility.yul\":4028:4041   */\n      mload\n        /* \"#utility.yul\":4019:4041   */\n      swap1\n      pop\n        /* \"#utility.yul\":4050:4083   */\n      tag_155\n        /* \"#utility.yul\":4077:4082   */\n      dup2\n        /* \"#utility.yul\":4050:4083   */\n      tag_87\n      jump\t// in\n    tag_155:\n        /* \"#utility.yul\":3946:4089   */\n      swap3\n      swap2\n      pop\n      pop\n      jump\t// out\n        /* \"#utility.yul\":4095:4446   */\n    tag_31:\n        /* \"#utility.yul\":4165:4171   */\n      0x00\n        /* \"#utility.yul\":4214:4216   */\n      0x20\n        /* \"#utility.yul\":4202:4211   */\n      dup3\n        /* \"#utility.yul\":4193:4200   */\n      dup5\n        /* \"#utility.yul\":4189:4212   */\n      sub\n        /* \"#utility.yul\":4185:4217   */\n      slt\n        /* \"#utility.yul\":4182:4301   */\n      iszero\n      tag_157\n      jumpi\n        /* \"#utility.yul\":4220:4299   */\n      tag_158\n      tag_80\n      jump\t// in\n    tag_158:\n        /* \"#utility.yul\":4182:4301   */\n    tag_157:\n        /* \"#utility.yul\":4340:4341   */\n      0x00\n        /* \"#utility.yul\":4365:4429   */\n      tag_159\n        /* \"#utility.yul\":4421:4428   */\n      dup5\n        /* \"#utility.yul\":4412:4418   */\n      dup3\n        /* \"#utility.yul\":4401:4410   */\n      dup6\n        /* \"#utility.yul\":4397:4419   */\n      add\n        /* \"#utility.yul\":4365:4429   */\n      tag_99\n      jump\t// in\n    tag_159:\n        /* \"#utility.yul\":4355:4429   */\n      swap2\n      pop\n        /* \"#utility.yul\":4311:4439   */\n      pop\n        /* \"#utility.yul\":4095:4446   */\n      swap3\n      swap2\n      pop\n      pop\n      jump\t// out\n        /* \"#utility.yul\":4452:4570   */\n    tag_100:\n        /* \"#utility.yul\":4539:4563   */\n      tag_161\n        /* \"#utility.yul\":4557:4562   */\n      dup2\n        /* \"#utility.yul\":4539:4563   */\n      tag_86\n      jump\t// in\n    tag_161:\n        /* \"#utility.yul\":4534:4537   */\n      dup3\n        /* \"#utility.yul\":4527:4564   */\n      mstore\n        /* \"#utility.yul\":4452:4570   */\n      pop\n      pop\n      jump\t// out\n        /* \"#utility.yul\":4576:4798   */\n    tag_36:\n        /* \"#utility.yul\":4669:4673   */\n      0x00\n        /* \"#utility.yul\":4707:4709   */\n      0x20\n        /* \"#utility.yul\":4696:4705   */\n      dup3\n        /* \"#utility.yul\":4692:4710   */\n      add\n        /* \"#utility.yul\":4684:4710   */\n      swap1\n      pop\n        /* \"#utility.yul\":4720:4791   */\n      tag_163\n        /* \"#utility.yul\":4788:4789   */\n      0x00\n        /* \"#utility.yul\":4777:4786   */\n      dup4\n        /* \"#utility.yul\":4773:4790   */\n      add\n        /* \"#utility.yul\":4764:4770   */\n      dup5\n        /* \"#utility.yul\":4720:4791   */\n      tag_100\n      jump\t// in\n    tag_163:\n        /* \"#utility.yul\":4576:4798   */\n      swap3\n      swap2\n      pop\n      pop\n      jump\t// out\n        /* \"#utility.yul\":4804:4947   */\n    tag_101:\n        /* \"#utility.yul\":4861:4866   */\n      0x00\n        /* \"#utility.yul\":4892:4898   */\n      dup2\n        /* \"#utility.yul\":4886:4899   */\n      mload\n        /* \"#utility.yul\":4877:4899   */\n      swap1\n      pop\n        /* \"#utility.yul\":4908:4941   */\n      tag_165\n        /* \"#utility.yul\":4935:4940   */\n      dup2\n        /* \"#utility.yul\":4908:4941   */\n      tag_84\n      jump\t// in\n    tag_165:\n        /* \"#utility.yul\":4804:4947   */\n      swap3\n      swap2\n      pop\n      pop\n      jump\t// out\n        /* \"#utility.yul\":4953:5304   */\n    tag_40:\n        /* \"#utility.yul\":5023:5029   */\n      0x00\n        /* \"#utility.yul\":5072:5074   */\n      0x20\n        /* \"#utility.yul\":5060:5069   */\n      dup3\n        /* \"#utility.yul\":5051:5058   */\n      dup5\n        /* \"#utility.yul\":5047:5070   */\n      sub\n        /* \"#utility.yul\":5043:5075   */\n      slt\n        /* \"#utility.yul\":5040:5159   */\n      iszero\n      tag_167\n      jumpi\n        /* \"#utility.yul\":5078:5157   */\n      tag_168\n      tag_80\n      jump\t// in\n    tag_168:\n        /* \"#utility.yul\":5040:5159   */\n    tag_167:\n        /* \"#utility.yul\":5198:5199   */\n      0x00\n        /* \"#utility.yul\":5223:5287   */\n      tag_169\n        /* \"#utility.yul\":5279:5286   */\n      dup5\n        /* \"#utility.yul\":5270:5276   */\n      dup3\n        /* \"#utility.yul\":5259:5268   */\n      dup6\n        /* \"#utility.yul\":5255:5277   */\n      add\n        /* \"#utility.yul\":5223:5287   */\n      tag_101\n      jump\t// in\n    tag_169:\n        /* \"#utility.yul\":5213:5287   */\n      swap2\n      pop\n        /* \"#utility.yul\":5169:5297   */\n      pop\n        /* \"#utility.yul\":4953:5304   */\n      swap3\n      swap2\n      pop\n      pop\n      jump\t// out\n        /* \"#utility.yul\":5310:5490   */\n    tag_102:\n        /* \"#utility.yul\":5358:5435   */\n      0x4e487b7100000000000000000000000000000000000000000000000000000000\n        /* \"#utility.yul\":5355:5356   */\n      0x00\n        /* \"#utility.yul\":5348:5436   */\n      mstore\n        /* \"#utility.yul\":5455:5459   */\n      0x11\n        /* \"#utility.yul\":5452:5453   */\n      0x04\n        /* \"#utility.yul\":5445:5460   */\n      mstore\n        /* \"#utility.yul\":5479:5483   */\n      0x24\n        /* \"#utility.yul\":5476:5477   */\n      0x00\n        /* \"#utility.yul\":5469:5484   */\n      revert\n        /* \"#utility.yul\":5496:5729   */\n    tag_51:\n        /* \"#utility.yul\":5535:5538   */\n      0x00\n        /* \"#utility.yul\":5558:5582   */\n      tag_172\n        /* \"#utility.yul\":5576:5581   */\n      dup3\n        /* \"#utility.yul\":5558:5582   */\n      tag_86\n      jump\t// in\n    tag_172:\n        /* \"#utility.yul\":5549:5582   */\n      swap2\n      pop\n        /* \"#utility.yul\":5604:5670   */\n      0xffffffffffffffffffffffffffffffffffffffffffffffffffffffffffffffff\n        /* \"#utility.yul\":5597:5602   */\n      dup3\n        /* \"#utility.yul\":5594:5671   */\n      sub\n        /* \"#utility.yul\":5591:5694   */\n      tag_173\n      jumpi\n        /* \"#utility.yul\":5674:5692   */\n      tag_174\n      tag_102\n      jump\t// in\n    tag_174:\n        /* \"#utility.yul\":5591:5694   */\n    tag_173:\n        /* \"#utility.yul\":5721:5722   */\n      0x01\n        /* \"#utility.yul\":5714:5719   */\n      dup3\n        /* \"#utility.yul\":5710:5723   */\n      add\n        /* \"#utility.yul\":5703:5723   */\n      swap1\n      pop\n        /* \"#utility.yul\":5496:5729   */\n      swap2\n      swap1\n      pop\n      jump\t// out\n        /* \"#utility.yul\":5735:6067   */\n    tag_61:\n        /* \"#utility.yul\":5856:5860   */\n      0x00\n        /* \"#utility.yul\":5894:5896   */\n      0x40\n        /* \"#utility.yul\":5883:5892   */\n      dup3\n        /* \"#utility.yul\":5879:5897   */\n      add\n        /* \"#utility.yul\":5871:5897   */\n      swap1\n      pop\n        /* \"#utility.yul\":5907:5978   */\n      tag_176\n        /* \"#utility.yul\":5975:5976   */\n      0x00\n        /* \"#utility.yul\":5964:5973   */\n      dup4\n        /* \"#utility.yul\":5960:5977   */\n      add\n        /* \"#utility.yul\":5951:5957   */\n      dup6\n        /* \"#utility.yul\":5907:5978   */\n      tag_89\n      jump\t// in\n    tag_176:\n        /* \"#utility.yul\":5988:6060   */\n      tag_177\n        /* \"#utility.yul\":6056:6058   */\n      0x20\n        /* \"#utility.yul\":6045:6054   */\n      dup4\n        /* \"#utility.yul\":6041:6059   */\n      add\n        /* \"#utility.yul\":6032:6038   */\n      dup5\n        /* \"#utility.yul\":5988:6060   */\n      tag_89\n      jump\t// in\n    tag_177:\n        /* \"#utility.yul\":5735:6067   */\n      swap4\n      swap3\n      pop\n      pop\n      pop\n      jump\t// out\n        /* \"#utility.yul\":6073:6253   */\n    tag_73:\n        /* \"#utility.yul\":6121:6198   */\n      0x4e487b7100000000000000000000000000000000000000000000000000000000\n        /* \"#utility.yul\":6118:6119   */\n      0x00\n        /* \"#utility.yul\":6111:6199   */\n      mstore\n        /* \"#utility.yul\":6218:6222   */\n      0x32\n        /* \"#utility.yul\":6215:6216   */\n      0x04\n        /* \"#utility.yul\":6208:6223   */\n      mstore\n        /* \"#utility.yul\":6242:6246   */\n      0x24\n        /* \"#utility.yul\":6239:6240   */\n      0x00\n        /* \"#utility.yul\":6232:6247   */\n      revert\n\n    auxdata: 0xa2646970667358221220f23df6f11edc2baf21784af70a357c1ca0d12cc0faeada960e416e2471d29fb264736f6c63430008110033\n}\n",
				"bytecode": {
					"linkReferences": {},
					"object": "608060405273de39c89e7a8e3fc73e1e7f8b2edecd4c7fe62b66600260006101000a81548173ffffffffffffffffffffffffffffffffffffffff021916908373ffffffffffffffffffffffffffffffffffffffff16021790555073e5873093eda4e64b77c80186adc5be024444fcbd600360006101000a81548173ffffffffffffffffffffffffffffffffffffffff021916908373ffffffffffffffffffffffffffffffffffffffff16021790555060006007553480156100bf57600080fd5b50730ca73866dff0f6b0508f5cbb223c857c19463e076000806101000a81548173ffffffffffffffffffffffffffffffffffffffff021916908373ffffffffffffffffffffffffffffffffffffffff160217905550735da88df55af2e5681d33f36e5916d63797bf4766600160006101000a81548173ffffffffffffffffffffffffffffffffffffffff021916908373ffffffffffffffffffffffffffffffffffffffff160217905550610ef0806101786000396000f3fe608060405234801561001057600080fd5b506004361061004c5760003560e01c806303d4051314610051578063c45a015514610081578063f800ece91461009f578063f887ea40146100bd575b600080fd5b61006b60048036038101906100669190610be7565b6100db565b6040516100789190610c36565b60405180910390f35b610089610120565b6040516100969190610cb0565b60405180910390f35b6100a7610144565b6040516100b49190610ce6565b60405180910390f35b6100c5610b28565b6040516100d29190610d22565b60405180910390f35b600460205281600052604060002081600281106100f757600080fd5b016000915091509054906101000a900473ffffffffffffffffffffffffffffffffffffffff1681565b60008054906101000a900473ffffffffffffffffffffffffffffffffffffffff1681565b60008060008054906101000a900473ffffffffffffffffffffffffffffffffffffffff1673ffffffffffffffffffffffffffffffffffffffff1663574f2ba36040518163ffffffff1660e01b8152600401602060405180830381865afa1580156101b2573d6000803e3d6000fd5b505050506040513d601f19601f820116820180604052508101906101d69190610d52565b905060005b818110156107165760008060009054906101000a900473ffffffffffffffffffffffffffffffffffffffff1673ffffffffffffffffffffffffffffffffffffffff16631e3dd18b836040518263ffffffff1660e01b815260040161023f9190610d8e565b602060405180830381865afa15801561025c573d6000803e3d6000fd5b505050506040513d601f19601f820116820180604052508101906102809190610dbe565b905060008173ffffffffffffffffffffffffffffffffffffffff16630dfe16816040518163ffffffff1660e01b8152600401602060405180830381865afa1580156102cf573d6000803e3d6000fd5b505050506040513d601f19601f820116820180604052508101906102f39190610dbe565b905060008273ffffffffffffffffffffffffffffffffffffffff1663d21220a76040518163ffffffff1660e01b8152600401602060405180830381865afa158015610342573d6000803e3d6000fd5b505050506040513d601f19601f820116820180604052508101906103669190610dbe565b9050600260009054906101000a900473ffffffffffffffffffffffffffffffffffffffff1673ffffffffffffffffffffffffffffffffffffffff168273ffffffffffffffffffffffffffffffffffffffff16141580156104145750600360009054906101000a900473ffffffffffffffffffffffffffffffffffffffff1673ffffffffffffffffffffffffffffffffffffffff168273ffffffffffffffffffffffffffffffffffffffff1614155b801561046a5750600560008373ffffffffffffffffffffffffffffffffffffffff1673ffffffffffffffffffffffffffffffffffffffff16815260200190815260200160002060009054906101000a900460ff16155b15610534576001600560008473ffffffffffffffffffffffffffffffffffffffff1673ffffffffffffffffffffffffffffffffffffffff16815260200190815260200160002060006101000a81548160ff0219169083151502179055508160066000600754815260200190815260200160002060006101000a81548173ffffffffffffffffffffffffffffffffffffffff021916908373ffffffffffffffffffffffffffffffffffffffff1602179055506007600081548092919061052e90610e1a565b91905055505b600260009054906101000a900473ffffffffffffffffffffffffffffffffffffffff1673ffffffffffffffffffffffffffffffffffffffff168173ffffffffffffffffffffffffffffffffffffffff16141580156105e05750600360009054906101000a900473ffffffffffffffffffffffffffffffffffffffff1673ffffffffffffffffffffffffffffffffffffffff168173ffffffffffffffffffffffffffffffffffffffff1614155b80156106365750600560008273ffffffffffffffffffffffffffffffffffffffff1673ffffffffffffffffffffffffffffffffffffffff16815260200190815260200160002060009054906101000a900460ff16155b15610700576001600560008373ffffffffffffffffffffffffffffffffffffffff1673ffffffffffffffffffffffffffffffffffffffff16815260200190815260200160002060006101000a81548160ff0219169083151502179055508060066000600754815260200190815260200160002060006101000a81548173ffffffffffffffffffffffffffffffffffffffff021916908373ffffffffffffffffffffffffffffffffffffffff160217905550600760008154809291906106fa90610e1a565b91905055505b505050808061070e90610e1a565b9150506101db565b5060005b600754811015610b1f5760008060009054906101000a900473ffffffffffffffffffffffffffffffffffffffff1673ffffffffffffffffffffffffffffffffffffffff1663e6a439056006600085815260200190815260200160002060009054906101000a900473ffffffffffffffffffffffffffffffffffffffff16600260009054906101000a900473ffffffffffffffffffffffffffffffffffffffff166040518363ffffffff1660e01b81526004016107d7929190610e62565b602060405180830381865afa1580156107f4573d6000803e3d6000fd5b505050506040513d601f19601f820116820180604052508101906108189190610dbe565b905060008060009054906101000a900473ffffffffffffffffffffffffffffffffffffffff1673ffffffffffffffffffffffffffffffffffffffff1663e6a439056006600086815260200190815260200160002060009054906101000a900473ffffffffffffffffffffffffffffffffffffffff16600360009054906101000a900473ffffffffffffffffffffffffffffffffffffffff166040518363ffffffff1660e01b81526004016108cd929190610e62565b602060405180830381865afa1580156108ea573d6000803e3d6000fd5b505050506040513d601f19601f8201168201806040525081019061090e9190610dbe565b9050600073ffffffffffffffffffffffffffffffffffffffff168273ffffffffffffffffffffffffffffffffffffffff161415801561097a5750600073ffffffffffffffffffffffffffffffffffffffff168173ffffffffffffffffffffffffffffffffffffffff1614155b15610b0a5781600460006006600087815260200190815260200160002060009054906101000a900473ffffffffffffffffffffffffffffffffffffffff1673ffffffffffffffffffffffffffffffffffffffff1673ffffffffffffffffffffffffffffffffffffffff168152602001908152602001600020600060028110610a0557610a04610e8b565b5b0160006101000a81548173ffffffffffffffffffffffffffffffffffffffff021916908373ffffffffffffffffffffffffffffffffffffffff16021790555080600460006006600087815260200190815260200160002060009054906101000a900473ffffffffffffffffffffffffffffffffffffffff1673ffffffffffffffffffffffffffffffffffffffff1673ffffffffffffffffffffffffffffffffffffffff168152602001908152602001600020600160028110610aca57610ac9610e8b565b5b0160006101000a81548173ffffffffffffffffffffffffffffffffffffffff021916908373ffffffffffffffffffffffffffffffffffffffff1602179055505b50508080610b1790610e1a565b91505061071a565b50600191505090565b600160009054906101000a900473ffffffffffffffffffffffffffffffffffffffff1681565b600080fd5b600073ffffffffffffffffffffffffffffffffffffffff82169050919050565b6000610b7e82610b53565b9050919050565b610b8e81610b73565b8114610b9957600080fd5b50565b600081359050610bab81610b85565b92915050565b6000819050919050565b610bc481610bb1565b8114610bcf57600080fd5b50565b600081359050610be181610bbb565b92915050565b60008060408385031215610bfe57610bfd610b4e565b5b6000610c0c85828601610b9c565b9250506020610c1d85828601610bd2565b9150509250929050565b610c3081610b73565b82525050565b6000602082019050610c4b6000830184610c27565b92915050565b6000819050919050565b6000610c76610c71610c6c84610b53565b610c51565b610b53565b9050919050565b6000610c8882610c5b565b9050919050565b6000610c9a82610c7d565b9050919050565b610caa81610c8f565b82525050565b6000602082019050610cc56000830184610ca1565b92915050565b60008115159050919050565b610ce081610ccb565b82525050565b6000602082019050610cfb6000830184610cd7565b92915050565b6000610d0c82610c7d565b9050919050565b610d1c81610d01565b82525050565b6000602082019050610d376000830184610d13565b92915050565b600081519050610d4c81610bbb565b92915050565b600060208284031215610d6857610d67610b4e565b5b6000610d7684828501610d3d565b91505092915050565b610d8881610bb1565b82525050565b6000602082019050610da36000830184610d7f565b92915050565b600081519050610db881610b85565b92915050565b600060208284031215610dd457610dd3610b4e565b5b6000610de284828501610da9565b91505092915050565b7f4e487b7100000000000000000000000000000000000000000000000000000000600052601160045260246000fd5b6000610e2582610bb1565b91507fffffffffffffffffffffffffffffffffffffffffffffffffffffffffffffffff8203610e5757610e56610deb565b5b600182019050919050565b6000604082019050610e776000830185610c27565b610e846020830184610c27565b9392505050565b7f4e487b7100000000000000000000000000000000000000000000000000000000600052603260045260246000fdfea2646970667358221220f23df6f11edc2baf21784af70a357c1ca0d12cc0faeada960e416e2471d29fb264736f6c63430008110033",
					"opcodes": "PUSH1 0x80 PUSH1 0x40 MSTORE PUSH20 0xDE39C89E7A8E3FC73E1E7F8B2EDECD4C7FE62B66 PUSH1 0x2 PUSH1 0x0 PUSH2 0x100 EXP DUP2 SLOAD DUP2 PUSH20 0xFFFFFFFFFFFFFFFFFFFFFFFFFFFFFFFFFFFFFFFF MUL NOT AND SWAP1 DUP4 PUSH20 0xFFFFFFFFFFFFFFFFFFFFFFFFFFFFFFFFFFFFFFFF AND MUL OR SWAP1 SSTORE POP PUSH20 0xE5873093EDA4E64B77C80186ADC5BE024444FCBD PUSH1 0x3 PUSH1 0x0 PUSH2 0x100 EXP DUP2 SLOAD DUP2 PUSH20 0xFFFFFFFFFFFFFFFFFFFFFFFFFFFFFFFFFFFFFFFF MUL NOT AND SWAP1 DUP4 PUSH20 0xFFFFFFFFFFFFFFFFFFFFFFFFFFFFFFFFFFFFFFFF AND MUL OR SWAP1 SSTORE POP PUSH1 0x0 PUSH1 0x7 SSTORE CALLVALUE DUP1 ISZERO PUSH2 0xBF JUMPI PUSH1 0x0 DUP1 REVERT JUMPDEST POP PUSH20 0xCA73866DFF0F6B0508F5CBB223C857C19463E07 PUSH1 0x0 DUP1 PUSH2 0x100 EXP DUP2 SLOAD DUP2 PUSH20 0xFFFFFFFFFFFFFFFFFFFFFFFFFFFFFFFFFFFFFFFF MUL NOT AND SWAP1 DUP4 PUSH20 0xFFFFFFFFFFFFFFFFFFFFFFFFFFFFFFFFFFFFFFFF AND MUL OR SWAP1 SSTORE POP PUSH20 0x5DA88DF55AF2E5681D33F36E5916D63797BF4766 PUSH1 0x1 PUSH1 0x0 PUSH2 0x100 EXP DUP2 SLOAD DUP2 PUSH20 0xFFFFFFFFFFFFFFFFFFFFFFFFFFFFFFFFFFFFFFFF MUL NOT AND SWAP1 DUP4 PUSH20 0xFFFFFFFFFFFFFFFFFFFFFFFFFFFFFFFFFFFFFFFF AND MUL OR SWAP1 SSTORE POP PUSH2 0xEF0 DUP1 PUSH2 0x178 PUSH1 0x0 CODECOPY PUSH1 0x0 RETURN INVALID PUSH1 0x80 PUSH1 0x40 MSTORE CALLVALUE DUP1 ISZERO PUSH2 0x10 JUMPI PUSH1 0x0 DUP1 REVERT JUMPDEST POP PUSH1 0x4 CALLDATASIZE LT PUSH2 0x4C JUMPI PUSH1 0x0 CALLDATALOAD PUSH1 0xE0 SHR DUP1 PUSH4 0x3D40513 EQ PUSH2 0x51 JUMPI DUP1 PUSH4 0xC45A0155 EQ PUSH2 0x81 JUMPI DUP1 PUSH4 0xF800ECE9 EQ PUSH2 0x9F JUMPI DUP1 PUSH4 0xF887EA40 EQ PUSH2 0xBD JUMPI JUMPDEST PUSH1 0x0 DUP1 REVERT JUMPDEST PUSH2 0x6B PUSH1 0x4 DUP1 CALLDATASIZE SUB DUP2 ADD SWAP1 PUSH2 0x66 SWAP2 SWAP1 PUSH2 0xBE7 JUMP JUMPDEST PUSH2 0xDB JUMP JUMPDEST PUSH1 0x40 MLOAD PUSH2 0x78 SWAP2 SWAP1 PUSH2 0xC36 JUMP JUMPDEST PUSH1 0x40 MLOAD DUP1 SWAP2 SUB SWAP1 RETURN JUMPDEST PUSH2 0x89 PUSH2 0x120 JUMP JUMPDEST PUSH1 0x40 MLOAD PUSH2 0x96 SWAP2 SWAP1 PUSH2 0xCB0 JUMP JUMPDEST PUSH1 0x40 MLOAD DUP1 SWAP2 SUB SWAP1 RETURN JUMPDEST PUSH2 0xA7 PUSH2 0x144 JUMP JUMPDEST PUSH1 0x40 MLOAD PUSH2 0xB4 SWAP2 SWAP1 PUSH2 0xCE6 JUMP JUMPDEST PUSH1 0x40 MLOAD DUP1 SWAP2 SUB SWAP1 RETURN JUMPDEST PUSH2 0xC5 PUSH2 0xB28 JUMP JUMPDEST PUSH1 0x40 MLOAD PUSH2 0xD2 SWAP2 SWAP1 PUSH2 0xD22 JUMP JUMPDEST PUSH1 0x40 MLOAD DUP1 SWAP2 SUB SWAP1 RETURN JUMPDEST PUSH1 0x4 PUSH1 0x20 MSTORE DUP2 PUSH1 0x0 MSTORE PUSH1 0x40 PUSH1 0x0 KECCAK256 DUP2 PUSH1 0x2 DUP2 LT PUSH2 0xF7 JUMPI PUSH1 0x0 DUP1 REVERT JUMPDEST ADD PUSH1 0x0 SWAP2 POP SWAP2 POP SWAP1 SLOAD SWAP1 PUSH2 0x100 EXP SWAP1 DIV PUSH20 0xFFFFFFFFFFFFFFFFFFFFFFFFFFFFFFFFFFFFFFFF AND DUP2 JUMP JUMPDEST PUSH1 0x0 DUP1 SLOAD SWAP1 PUSH2 0x100 EXP SWAP1 DIV PUSH20 0xFFFFFFFFFFFFFFFFFFFFFFFFFFFFFFFFFFFFFFFF AND DUP2 JUMP JUMPDEST PUSH1 0x0 DUP1 PUSH1 0x0 DUP1 SLOAD SWAP1 PUSH2 0x100 EXP SWAP1 DIV PUSH20 0xFFFFFFFFFFFFFFFFFFFFFFFFFFFFFFFFFFFFFFFF AND PUSH20 0xFFFFFFFFFFFFFFFFFFFFFFFFFFFFFFFFFFFFFFFF AND PUSH4 0x574F2BA3 PUSH1 0x40 MLOAD DUP2 PUSH4 0xFFFFFFFF AND PUSH1 0xE0 SHL DUP2 MSTORE PUSH1 0x4 ADD PUSH1 0x20 PUSH1 0x40 MLOAD DUP1 DUP4 SUB DUP2 DUP7 GAS STATICCALL ISZERO DUP1 ISZERO PUSH2 0x1B2 JUMPI RETURNDATASIZE PUSH1 0x0 DUP1 RETURNDATACOPY RETURNDATASIZE PUSH1 0x0 REVERT JUMPDEST POP POP POP POP PUSH1 0x40 MLOAD RETURNDATASIZE PUSH1 0x1F NOT PUSH1 0x1F DUP3 ADD AND DUP3 ADD DUP1 PUSH1 0x40 MSTORE POP DUP2 ADD SWAP1 PUSH2 0x1D6 SWAP2 SWAP1 PUSH2 0xD52 JUMP JUMPDEST SWAP1 POP PUSH1 0x0 JUMPDEST DUP2 DUP2 LT ISZERO PUSH2 0x716 JUMPI PUSH1 0x0 DUP1 PUSH1 0x0 SWAP1 SLOAD SWAP1 PUSH2 0x100 EXP SWAP1 DIV PUSH20 0xFFFFFFFFFFFFFFFFFFFFFFFFFFFFFFFFFFFFFFFF AND PUSH20 0xFFFFFFFFFFFFFFFFFFFFFFFFFFFFFFFFFFFFFFFF AND PUSH4 0x1E3DD18B DUP4 PUSH1 0x40 MLOAD DUP3 PUSH4 0xFFFFFFFF AND PUSH1 0xE0 SHL DUP2 MSTORE PUSH1 0x4 ADD PUSH2 0x23F SWAP2 SWAP1 PUSH2 0xD8E JUMP JUMPDEST PUSH1 0x20 PUSH1 0x40 MLOAD DUP1 DUP4 SUB DUP2 DUP7 GAS STATICCALL ISZERO DUP1 ISZERO PUSH2 0x25C JUMPI RETURNDATASIZE PUSH1 0x0 DUP1 RETURNDATACOPY RETURNDATASIZE PUSH1 0x0 REVERT JUMPDEST POP POP POP POP PUSH1 0x40 MLOAD RETURNDATASIZE PUSH1 0x1F NOT PUSH1 0x1F DUP3 ADD AND DUP3 ADD DUP1 PUSH1 0x40 MSTORE POP DUP2 ADD SWAP1 PUSH2 0x280 SWAP2 SWAP1 PUSH2 0xDBE JUMP JUMPDEST SWAP1 POP PUSH1 0x0 DUP2 PUSH20 0xFFFFFFFFFFFFFFFFFFFFFFFFFFFFFFFFFFFFFFFF AND PUSH4 0xDFE1681 PUSH1 0x40 MLOAD DUP2 PUSH4 0xFFFFFFFF AND PUSH1 0xE0 SHL DUP2 MSTORE PUSH1 0x4 ADD PUSH1 0x20 PUSH1 0x40 MLOAD DUP1 DUP4 SUB DUP2 DUP7 GAS STATICCALL ISZERO DUP1 ISZERO PUSH2 0x2CF JUMPI RETURNDATASIZE PUSH1 0x0 DUP1 RETURNDATACOPY RETURNDATASIZE PUSH1 0x0 REVERT JUMPDEST POP POP POP POP PUSH1 0x40 MLOAD RETURNDATASIZE PUSH1 0x1F NOT PUSH1 0x1F DUP3 ADD AND DUP3 ADD DUP1 PUSH1 0x40 MSTORE POP DUP2 ADD SWAP1 PUSH2 0x2F3 SWAP2 SWAP1 PUSH2 0xDBE JUMP JUMPDEST SWAP1 POP PUSH1 0x0 DUP3 PUSH20 0xFFFFFFFFFFFFFFFFFFFFFFFFFFFFFFFFFFFFFFFF AND PUSH4 0xD21220A7 PUSH1 0x40 MLOAD DUP2 PUSH4 0xFFFFFFFF AND PUSH1 0xE0 SHL DUP2 MSTORE PUSH1 0x4 ADD PUSH1 0x20 PUSH1 0x40 MLOAD DUP1 DUP4 SUB DUP2 DUP7 GAS STATICCALL ISZERO DUP1 ISZERO PUSH2 0x342 JUMPI RETURNDATASIZE PUSH1 0x0 DUP1 RETURNDATACOPY RETURNDATASIZE PUSH1 0x0 REVERT JUMPDEST POP POP POP POP PUSH1 0x40 MLOAD RETURNDATASIZE PUSH1 0x1F NOT PUSH1 0x1F DUP3 ADD AND DUP3 ADD DUP1 PUSH1 0x40 MSTORE POP DUP2 ADD SWAP1 PUSH2 0x366 SWAP2 SWAP1 PUSH2 0xDBE JUMP JUMPDEST SWAP1 POP PUSH1 0x2 PUSH1 0x0 SWAP1 SLOAD SWAP1 PUSH2 0x100 EXP SWAP1 DIV PUSH20 0xFFFFFFFFFFFFFFFFFFFFFFFFFFFFFFFFFFFFFFFF AND PUSH20 0xFFFFFFFFFFFFFFFFFFFFFFFFFFFFFFFFFFFFFFFF AND DUP3 PUSH20 0xFFFFFFFFFFFFFFFFFFFFFFFFFFFFFFFFFFFFFFFF AND EQ ISZERO DUP1 ISZERO PUSH2 0x414 JUMPI POP PUSH1 0x3 PUSH1 0x0 SWAP1 SLOAD SWAP1 PUSH2 0x100 EXP SWAP1 DIV PUSH20 0xFFFFFFFFFFFFFFFFFFFFFFFFFFFFFFFFFFFFFFFF AND PUSH20 0xFFFFFFFFFFFFFFFFFFFFFFFFFFFFFFFFFFFFFFFF AND DUP3 PUSH20 0xFFFFFFFFFFFFFFFFFFFFFFFFFFFFFFFFFFFFFFFF AND EQ ISZERO JUMPDEST DUP1 ISZERO PUSH2 0x46A JUMPI POP PUSH1 0x5 PUSH1 0x0 DUP4 PUSH20 0xFFFFFFFFFFFFFFFFFFFFFFFFFFFFFFFFFFFFFFFF AND PUSH20 0xFFFFFFFFFFFFFFFFFFFFFFFFFFFFFFFFFFFFFFFF AND DUP2 MSTORE PUSH1 0x20 ADD SWAP1 DUP2 MSTORE PUSH1 0x20 ADD PUSH1 0x0 KECCAK256 PUSH1 0x0 SWAP1 SLOAD SWAP1 PUSH2 0x100 EXP SWAP1 DIV PUSH1 0xFF AND ISZERO JUMPDEST ISZERO PUSH2 0x534 JUMPI PUSH1 0x1 PUSH1 0x5 PUSH1 0x0 DUP5 PUSH20 0xFFFFFFFFFFFFFFFFFFFFFFFFFFFFFFFFFFFFFFFF AND PUSH20 0xFFFFFFFFFFFFFFFFFFFFFFFFFFFFFFFFFFFFFFFF AND DUP2 MSTORE PUSH1 0x20 ADD SWAP1 DUP2 MSTORE PUSH1 0x20 ADD PUSH1 0x0 KECCAK256 PUSH1 0x0 PUSH2 0x100 EXP DUP2 SLOAD DUP2 PUSH1 0xFF MUL NOT AND SWAP1 DUP4 ISZERO ISZERO MUL OR SWAP1 SSTORE POP DUP2 PUSH1 0x6 PUSH1 0x0 PUSH1 0x7 SLOAD DUP2 MSTORE PUSH1 0x20 ADD SWAP1 DUP2 MSTORE PUSH1 0x20 ADD PUSH1 0x0 KECCAK256 PUSH1 0x0 PUSH2 0x100 EXP DUP2 SLOAD DUP2 PUSH20 0xFFFFFFFFFFFFFFFFFFFFFFFFFFFFFFFFFFFFFFFF MUL NOT AND SWAP1 DUP4 PUSH20 0xFFFFFFFFFFFFFFFFFFFFFFFFFFFFFFFFFFFFFFFF AND MUL OR SWAP1 SSTORE POP PUSH1 0x7 PUSH1 0x0 DUP2 SLOAD DUP1 SWAP3 SWAP2 SWAP1 PUSH2 0x52E SWAP1 PUSH2 0xE1A JUMP JUMPDEST SWAP2 SWAP1 POP SSTORE POP JUMPDEST PUSH1 0x2 PUSH1 0x0 SWAP1 SLOAD SWAP1 PUSH2 0x100 EXP SWAP1 DIV PUSH20 0xFFFFFFFFFFFFFFFFFFFFFFFFFFFFFFFFFFFFFFFF AND PUSH20 0xFFFFFFFFFFFFFFFFFFFFFFFFFFFFFFFFFFFFFFFF AND DUP2 PUSH20 0xFFFFFFFFFFFFFFFFFFFFFFFFFFFFFFFFFFFFFFFF AND EQ ISZERO DUP1 ISZERO PUSH2 0x5E0 JUMPI POP PUSH1 0x3 PUSH1 0x0 SWAP1 SLOAD SWAP1 PUSH2 0x100 EXP SWAP1 DIV PUSH20 0xFFFFFFFFFFFFFFFFFFFFFFFFFFFFFFFFFFFFFFFF AND PUSH20 0xFFFFFFFFFFFFFFFFFFFFFFFFFFFFFFFFFFFFFFFF AND DUP2 PUSH20 0xFFFFFFFFFFFFFFFFFFFFFFFFFFFFFFFFFFFFFFFF AND EQ ISZERO JUMPDEST DUP1 ISZERO PUSH2 0x636 JUMPI POP PUSH1 0x5 PUSH1 0x0 DUP3 PUSH20 0xFFFFFFFFFFFFFFFFFFFFFFFFFFFFFFFFFFFFFFFF AND PUSH20 0xFFFFFFFFFFFFFFFFFFFFFFFFFFFFFFFFFFFFFFFF AND DUP2 MSTORE PUSH1 0x20 ADD SWAP1 DUP2 MSTORE PUSH1 0x20 ADD PUSH1 0x0 KECCAK256 PUSH1 0x0 SWAP1 SLOAD SWAP1 PUSH2 0x100 EXP SWAP1 DIV PUSH1 0xFF AND ISZERO JUMPDEST ISZERO PUSH2 0x700 JUMPI PUSH1 0x1 PUSH1 0x5 PUSH1 0x0 DUP4 PUSH20 0xFFFFFFFFFFFFFFFFFFFFFFFFFFFFFFFFFFFFFFFF AND PUSH20 0xFFFFFFFFFFFFFFFFFFFFFFFFFFFFFFFFFFFFFFFF AND DUP2 MSTORE PUSH1 0x20 ADD SWAP1 DUP2 MSTORE PUSH1 0x20 ADD PUSH1 0x0 KECCAK256 PUSH1 0x0 PUSH2 0x100 EXP DUP2 SLOAD DUP2 PUSH1 0xFF MUL NOT AND SWAP1 DUP4 ISZERO ISZERO MUL OR SWAP1 SSTORE POP DUP1 PUSH1 0x6 PUSH1 0x0 PUSH1 0x7 SLOAD DUP2 MSTORE PUSH1 0x20 ADD SWAP1 DUP2 MSTORE PUSH1 0x20 ADD PUSH1 0x0 KECCAK256 PUSH1 0x0 PUSH2 0x100 EXP DUP2 SLOAD DUP2 PUSH20 0xFFFFFFFFFFFFFFFFFFFFFFFFFFFFFFFFFFFFFFFF MUL NOT AND SWAP1 DUP4 PUSH20 0xFFFFFFFFFFFFFFFFFFFFFFFFFFFFFFFFFFFFFFFF AND MUL OR SWAP1 SSTORE POP PUSH1 0x7 PUSH1 0x0 DUP2 SLOAD DUP1 SWAP3 SWAP2 SWAP1 PUSH2 0x6FA SWAP1 PUSH2 0xE1A JUMP JUMPDEST SWAP2 SWAP1 POP SSTORE POP JUMPDEST POP POP POP DUP1 DUP1 PUSH2 0x70E SWAP1 PUSH2 0xE1A JUMP JUMPDEST SWAP2 POP POP PUSH2 0x1DB JUMP JUMPDEST POP PUSH1 0x0 JUMPDEST PUSH1 0x7 SLOAD DUP2 LT ISZERO PUSH2 0xB1F JUMPI PUSH1 0x0 DUP1 PUSH1 0x0 SWAP1 SLOAD SWAP1 PUSH2 0x100 EXP SWAP1 DIV PUSH20 0xFFFFFFFFFFFFFFFFFFFFFFFFFFFFFFFFFFFFFFFF AND PUSH20 0xFFFFFFFFFFFFFFFFFFFFFFFFFFFFFFFFFFFFFFFF AND PUSH4 0xE6A43905 PUSH1 0x6 PUSH1 0x0 DUP6 DUP2 MSTORE PUSH1 0x20 ADD SWAP1 DUP2 MSTORE PUSH1 0x20 ADD PUSH1 0x0 KECCAK256 PUSH1 0x0 SWAP1 SLOAD SWAP1 PUSH2 0x100 EXP SWAP1 DIV PUSH20 0xFFFFFFFFFFFFFFFFFFFFFFFFFFFFFFFFFFFFFFFF AND PUSH1 0x2 PUSH1 0x0 SWAP1 SLOAD SWAP1 PUSH2 0x100 EXP SWAP1 DIV PUSH20 0xFFFFFFFFFFFFFFFFFFFFFFFFFFFFFFFFFFFFFFFF AND PUSH1 0x40 MLOAD DUP4 PUSH4 0xFFFFFFFF AND PUSH1 0xE0 SHL DUP2 MSTORE PUSH1 0x4 ADD PUSH2 0x7D7 SWAP3 SWAP2 SWAP1 PUSH2 0xE62 JUMP JUMPDEST PUSH1 0x20 PUSH1 0x40 MLOAD DUP1 DUP4 SUB DUP2 DUP7 GAS STATICCALL ISZERO DUP1 ISZERO PUSH2 0x7F4 JUMPI RETURNDATASIZE PUSH1 0x0 DUP1 RETURNDATACOPY RETURNDATASIZE PUSH1 0x0 REVERT JUMPDEST POP POP POP POP PUSH1 0x40 MLOAD RETURNDATASIZE PUSH1 0x1F NOT PUSH1 0x1F DUP3 ADD AND DUP3 ADD DUP1 PUSH1 0x40 MSTORE POP DUP2 ADD SWAP1 PUSH2 0x818 SWAP2 SWAP1 PUSH2 0xDBE JUMP JUMPDEST SWAP1 POP PUSH1 0x0 DUP1 PUSH1 0x0 SWAP1 SLOAD SWAP1 PUSH2 0x100 EXP SWAP1 DIV PUSH20 0xFFFFFFFFFFFFFFFFFFFFFFFFFFFFFFFFFFFFFFFF AND PUSH20 0xFFFFFFFFFFFFFFFFFFFFFFFFFFFFFFFFFFFFFFFF AND PUSH4 0xE6A43905 PUSH1 0x6 PUSH1 0x0 DUP7 DUP2 MSTORE PUSH1 0x20 ADD SWAP1 DUP2 MSTORE PUSH1 0x20 ADD PUSH1 0x0 KECCAK256 PUSH1 0x0 SWAP1 SLOAD SWAP1 PUSH2 0x100 EXP SWAP1 DIV PUSH20 0xFFFFFFFFFFFFFFFFFFFFFFFFFFFFFFFFFFFFFFFF AND PUSH1 0x3 PUSH1 0x0 SWAP1 SLOAD SWAP1 PUSH2 0x100 EXP SWAP1 DIV PUSH20 0xFFFFFFFFFFFFFFFFFFFFFFFFFFFFFFFFFFFFFFFF AND PUSH1 0x40 MLOAD DUP4 PUSH4 0xFFFFFFFF AND PUSH1 0xE0 SHL DUP2 MSTORE PUSH1 0x4 ADD PUSH2 0x8CD SWAP3 SWAP2 SWAP1 PUSH2 0xE62 JUMP JUMPDEST PUSH1 0x20 PUSH1 0x40 MLOAD DUP1 DUP4 SUB DUP2 DUP7 GAS STATICCALL ISZERO DUP1 ISZERO PUSH2 0x8EA JUMPI RETURNDATASIZE PUSH1 0x0 DUP1 RETURNDATACOPY RETURNDATASIZE PUSH1 0x0 REVERT JUMPDEST POP POP POP POP PUSH1 0x40 MLOAD RETURNDATASIZE PUSH1 0x1F NOT PUSH1 0x1F DUP3 ADD AND DUP3 ADD DUP1 PUSH1 0x40 MSTORE POP DUP2 ADD SWAP1 PUSH2 0x90E SWAP2 SWAP1 PUSH2 0xDBE JUMP JUMPDEST SWAP1 POP PUSH1 0x0 PUSH20 0xFFFFFFFFFFFFFFFFFFFFFFFFFFFFFFFFFFFFFFFF AND DUP3 PUSH20 0xFFFFFFFFFFFFFFFFFFFFFFFFFFFFFFFFFFFFFFFF AND EQ ISZERO DUP1 ISZERO PUSH2 0x97A JUMPI POP PUSH1 0x0 PUSH20 0xFFFFFFFFFFFFFFFFFFFFFFFFFFFFFFFFFFFFFFFF AND DUP2 PUSH20 0xFFFFFFFFFFFFFFFFFFFFFFFFFFFFFFFFFFFFFFFF AND EQ ISZERO JUMPDEST ISZERO PUSH2 0xB0A JUMPI DUP2 PUSH1 0x4 PUSH1 0x0 PUSH1 0x6 PUSH1 0x0 DUP8 DUP2 MSTORE PUSH1 0x20 ADD SWAP1 DUP2 MSTORE PUSH1 0x20 ADD PUSH1 0x0 KECCAK256 PUSH1 0x0 SWAP1 SLOAD SWAP1 PUSH2 0x100 EXP SWAP1 DIV PUSH20 0xFFFFFFFFFFFFFFFFFFFFFFFFFFFFFFFFFFFFFFFF AND PUSH20 0xFFFFFFFFFFFFFFFFFFFFFFFFFFFFFFFFFFFFFFFF AND PUSH20 0xFFFFFFFFFFFFFFFFFFFFFFFFFFFFFFFFFFFFFFFF AND DUP2 MSTORE PUSH1 0x20 ADD SWAP1 DUP2 MSTORE PUSH1 0x20 ADD PUSH1 0x0 KECCAK256 PUSH1 0x0 PUSH1 0x2 DUP2 LT PUSH2 0xA05 JUMPI PUSH2 0xA04 PUSH2 0xE8B JUMP JUMPDEST JUMPDEST ADD PUSH1 0x0 PUSH2 0x100 EXP DUP2 SLOAD DUP2 PUSH20 0xFFFFFFFFFFFFFFFFFFFFFFFFFFFFFFFFFFFFFFFF MUL NOT AND SWAP1 DUP4 PUSH20 0xFFFFFFFFFFFFFFFFFFFFFFFFFFFFFFFFFFFFFFFF AND MUL OR SWAP1 SSTORE POP DUP1 PUSH1 0x4 PUSH1 0x0 PUSH1 0x6 PUSH1 0x0 DUP8 DUP2 MSTORE PUSH1 0x20 ADD SWAP1 DUP2 MSTORE PUSH1 0x20 ADD PUSH1 0x0 KECCAK256 PUSH1 0x0 SWAP1 SLOAD SWAP1 PUSH2 0x100 EXP SWAP1 DIV PUSH20 0xFFFFFFFFFFFFFFFFFFFFFFFFFFFFFFFFFFFFFFFF AND PUSH20 0xFFFFFFFFFFFFFFFFFFFFFFFFFFFFFFFFFFFFFFFF AND PUSH20 0xFFFFFFFFFFFFFFFFFFFFFFFFFFFFFFFFFFFFFFFF AND DUP2 MSTORE PUSH1 0x20 ADD SWAP1 DUP2 MSTORE PUSH1 0x20 ADD PUSH1 0x0 KECCAK256 PUSH1 0x1 PUSH1 0x2 DUP2 LT PUSH2 0xACA JUMPI PUSH2 0xAC9 PUSH2 0xE8B JUMP JUMPDEST JUMPDEST ADD PUSH1 0x0 PUSH2 0x100 EXP DUP2 SLOAD DUP2 PUSH20 0xFFFFFFFFFFFFFFFFFFFFFFFFFFFFFFFFFFFFFFFF MUL NOT AND SWAP1 DUP4 PUSH20 0xFFFFFFFFFFFFFFFFFFFFFFFFFFFFFFFFFFFFFFFF AND MUL OR SWAP1 SSTORE POP JUMPDEST POP POP DUP1 DUP1 PUSH2 0xB17 SWAP1 PUSH2 0xE1A JUMP JUMPDEST SWAP2 POP POP PUSH2 0x71A JUMP JUMPDEST POP PUSH1 0x1 SWAP2 POP POP SWAP1 JUMP JUMPDEST PUSH1 0x1 PUSH1 0x0 SWAP1 SLOAD SWAP1 PUSH2 0x100 EXP SWAP1 DIV PUSH20 0xFFFFFFFFFFFFFFFFFFFFFFFFFFFFFFFFFFFFFFFF AND DUP2 JUMP JUMPDEST PUSH1 0x0 DUP1 REVERT JUMPDEST PUSH1 0x0 PUSH20 0xFFFFFFFFFFFFFFFFFFFFFFFFFFFFFFFFFFFFFFFF DUP3 AND SWAP1 POP SWAP2 SWAP1 POP JUMP JUMPDEST PUSH1 0x0 PUSH2 0xB7E DUP3 PUSH2 0xB53 JUMP JUMPDEST SWAP1 POP SWAP2 SWAP1 POP JUMP JUMPDEST PUSH2 0xB8E DUP2 PUSH2 0xB73 JUMP JUMPDEST DUP2 EQ PUSH2 0xB99 JUMPI PUSH1 0x0 DUP1 REVERT JUMPDEST POP JUMP JUMPDEST PUSH1 0x0 DUP2 CALLDATALOAD SWAP1 POP PUSH2 0xBAB DUP2 PUSH2 0xB85 JUMP JUMPDEST SWAP3 SWAP2 POP POP JUMP JUMPDEST PUSH1 0x0 DUP2 SWAP1 POP SWAP2 SWAP1 POP JUMP JUMPDEST PUSH2 0xBC4 DUP2 PUSH2 0xBB1 JUMP JUMPDEST DUP2 EQ PUSH2 0xBCF JUMPI PUSH1 0x0 DUP1 REVERT JUMPDEST POP JUMP JUMPDEST PUSH1 0x0 DUP2 CALLDATALOAD SWAP1 POP PUSH2 0xBE1 DUP2 PUSH2 0xBBB JUMP JUMPDEST SWAP3 SWAP2 POP POP JUMP JUMPDEST PUSH1 0x0 DUP1 PUSH1 0x40 DUP4 DUP6 SUB SLT ISZERO PUSH2 0xBFE JUMPI PUSH2 0xBFD PUSH2 0xB4E JUMP JUMPDEST JUMPDEST PUSH1 0x0 PUSH2 0xC0C DUP6 DUP3 DUP7 ADD PUSH2 0xB9C JUMP JUMPDEST SWAP3 POP POP PUSH1 0x20 PUSH2 0xC1D DUP6 DUP3 DUP7 ADD PUSH2 0xBD2 JUMP JUMPDEST SWAP2 POP POP SWAP3 POP SWAP3 SWAP1 POP JUMP JUMPDEST PUSH2 0xC30 DUP2 PUSH2 0xB73 JUMP JUMPDEST DUP3 MSTORE POP POP JUMP JUMPDEST PUSH1 0x0 PUSH1 0x20 DUP3 ADD SWAP1 POP PUSH2 0xC4B PUSH1 0x0 DUP4 ADD DUP5 PUSH2 0xC27 JUMP JUMPDEST SWAP3 SWAP2 POP POP JUMP JUMPDEST PUSH1 0x0 DUP2 SWAP1 POP SWAP2 SWAP1 POP JUMP JUMPDEST PUSH1 0x0 PUSH2 0xC76 PUSH2 0xC71 PUSH2 0xC6C DUP5 PUSH2 0xB53 JUMP JUMPDEST PUSH2 0xC51 JUMP JUMPDEST PUSH2 0xB53 JUMP JUMPDEST SWAP1 POP SWAP2 SWAP1 POP JUMP JUMPDEST PUSH1 0x0 PUSH2 0xC88 DUP3 PUSH2 0xC5B JUMP JUMPDEST SWAP1 POP SWAP2 SWAP1 POP JUMP JUMPDEST PUSH1 0x0 PUSH2 0xC9A DUP3 PUSH2 0xC7D JUMP JUMPDEST SWAP1 POP SWAP2 SWAP1 POP JUMP JUMPDEST PUSH2 0xCAA DUP2 PUSH2 0xC8F JUMP JUMPDEST DUP3 MSTORE POP POP JUMP JUMPDEST PUSH1 0x0 PUSH1 0x20 DUP3 ADD SWAP1 POP PUSH2 0xCC5 PUSH1 0x0 DUP4 ADD DUP5 PUSH2 0xCA1 JUMP JUMPDEST SWAP3 SWAP2 POP POP JUMP JUMPDEST PUSH1 0x0 DUP2 ISZERO ISZERO SWAP1 POP SWAP2 SWAP1 POP JUMP JUMPDEST PUSH2 0xCE0 DUP2 PUSH2 0xCCB JUMP JUMPDEST DUP3 MSTORE POP POP JUMP JUMPDEST PUSH1 0x0 PUSH1 0x20 DUP3 ADD SWAP1 POP PUSH2 0xCFB PUSH1 0x0 DUP4 ADD DUP5 PUSH2 0xCD7 JUMP JUMPDEST SWAP3 SWAP2 POP POP JUMP JUMPDEST PUSH1 0x0 PUSH2 0xD0C DUP3 PUSH2 0xC7D JUMP JUMPDEST SWAP1 POP SWAP2 SWAP1 POP JUMP JUMPDEST PUSH2 0xD1C DUP2 PUSH2 0xD01 JUMP JUMPDEST DUP3 MSTORE POP POP JUMP JUMPDEST PUSH1 0x0 PUSH1 0x20 DUP3 ADD SWAP1 POP PUSH2 0xD37 PUSH1 0x0 DUP4 ADD DUP5 PUSH2 0xD13 JUMP JUMPDEST SWAP3 SWAP2 POP POP JUMP JUMPDEST PUSH1 0x0 DUP2 MLOAD SWAP1 POP PUSH2 0xD4C DUP2 PUSH2 0xBBB JUMP JUMPDEST SWAP3 SWAP2 POP POP JUMP JUMPDEST PUSH1 0x0 PUSH1 0x20 DUP3 DUP5 SUB SLT ISZERO PUSH2 0xD68 JUMPI PUSH2 0xD67 PUSH2 0xB4E JUMP JUMPDEST JUMPDEST PUSH1 0x0 PUSH2 0xD76 DUP5 DUP3 DUP6 ADD PUSH2 0xD3D JUMP JUMPDEST SWAP2 POP POP SWAP3 SWAP2 POP POP JUMP JUMPDEST PUSH2 0xD88 DUP2 PUSH2 0xBB1 JUMP JUMPDEST DUP3 MSTORE POP POP JUMP JUMPDEST PUSH1 0x0 PUSH1 0x20 DUP3 ADD SWAP1 POP PUSH2 0xDA3 PUSH1 0x0 DUP4 ADD DUP5 PUSH2 0xD7F JUMP JUMPDEST SWAP3 SWAP2 POP POP JUMP JUMPDEST PUSH1 0x0 DUP2 MLOAD SWAP1 POP PUSH2 0xDB8 DUP2 PUSH2 0xB85 JUMP JUMPDEST SWAP3 SWAP2 POP POP JUMP JUMPDEST PUSH1 0x0 PUSH1 0x20 DUP3 DUP5 SUB SLT ISZERO PUSH2 0xDD4 JUMPI PUSH2 0xDD3 PUSH2 0xB4E JUMP JUMPDEST JUMPDEST PUSH1 0x0 PUSH2 0xDE2 DUP5 DUP3 DUP6 ADD PUSH2 0xDA9 JUMP JUMPDEST SWAP2 POP POP SWAP3 SWAP2 POP POP JUMP JUMPDEST PUSH32 0x4E487B7100000000000000000000000000000000000000000000000000000000 PUSH1 0x0 MSTORE PUSH1 0x11 PUSH1 0x4 MSTORE PUSH1 0x24 PUSH1 0x0 REVERT JUMPDEST PUSH1 0x0 PUSH2 0xE25 DUP3 PUSH2 0xBB1 JUMP JUMPDEST SWAP2 POP PUSH32 0xFFFFFFFFFFFFFFFFFFFFFFFFFFFFFFFFFFFFFFFFFFFFFFFFFFFFFFFFFFFFFFFF DUP3 SUB PUSH2 0xE57 JUMPI PUSH2 0xE56 PUSH2 0xDEB JUMP JUMPDEST JUMPDEST PUSH1 0x1 DUP3 ADD SWAP1 POP SWAP2 SWAP1 POP JUMP JUMPDEST PUSH1 0x0 PUSH1 0x40 DUP3 ADD SWAP1 POP PUSH2 0xE77 PUSH1 0x0 DUP4 ADD DUP6 PUSH2 0xC27 JUMP JUMPDEST PUSH2 0xE84 PUSH1 0x20 DUP4 ADD DUP5 PUSH2 0xC27 JUMP JUMPDEST SWAP4 SWAP3 POP POP POP JUMP JUMPDEST PUSH32 0x4E487B7100000000000000000000000000000000000000000000000000000000 PUSH1 0x0 MSTORE PUSH1 0x32 PUSH1 0x4 MSTORE PUSH1 0x24 PUSH1 0x0 REVERT INVALID LOG2 PUSH5 0x6970667358 0x22 SLT KECCAK256 CALLCODE RETURNDATASIZE 0xF6 CALL 0x1E 0xDC 0x2B 0xAF 0x21 PUSH25 0x4AF70A357C1CA0D12CC0FAEADA960E416E2471D29FB264736F PUSH13 0x63430008110033000000000000 "
				},
				"gasEstimates": {
					"creation": {
						"codeDepositCost": "764800",
						"executionCost": "102873",
						"totalCost": "867673"
					},
					"external": {
						"factory()": "infinite",
						"getAllPairs()": "infinite",
						"pairs(address,uint256)": "infinite",
						"router()": "infinite"
					}
				},
				"methodIdentifiers": {
					"factory()": "c45a0155",
					"getAllPairs()": "f800ece9",
					"pairs(address,uint256)": "03d40513",
					"router()": "f887ea40"
				}
			},
			"storageLayout": {
				"storage": [
					{
						"astId": 755,
						"contract": "solutions.sol:PairGetter",
						"label": "factory",
						"offset": 0,
						"slot": "0",
						"type": "t_contract(IFactory)62"
					},
					{
						"astId": 758,
						"contract": "solutions.sol:PairGetter",
						"label": "router",
						"offset": 0,
						"slot": "1",
						"type": "t_contract(IRouter)312"
					},
					{
						"astId": 761,
						"contract": "solutions.sol:PairGetter",
						"label": "weth",
						"offset": 0,
						"slot": "2",
						"type": "t_address"
					},
					{
						"astId": 764,
						"contract": "solutions.sol:PairGetter",
						"label": "defi",
						"offset": 0,
						"slot": "3",
						"type": "t_address"
					},
					{
						"astId": 770,
						"contract": "solutions.sol:PairGetter",
						"label": "pairs",
						"offset": 0,
						"slot": "4",
						"type": "t_mapping(t_address,t_array(t_address)2_storage)"
					},
					{
						"astId": 774,
						"contract": "solutions.sol:PairGetter",
						"label": "exists",
						"offset": 0,
						"slot": "5",
						"type": "t_mapping(t_address,t_bool)"
					},
					{
						"astId": 778,
						"contract": "solutions.sol:PairGetter",
						"label": "uniqueAddresses",
						"offset": 0,
						"slot": "6",
						"type": "t_mapping(t_uint256,t_address)"
					},
					{
						"astId": 781,
						"contract": "solutions.sol:PairGetter",
						"label": "ind",
						"offset": 0,
						"slot": "7",
						"type": "t_uint256"
					}
				],
				"types": {
					"t_address": {
						"encoding": "inplace",
						"label": "address",
						"numberOfBytes": "20"
					},
					"t_array(t_address)2_storage": {
						"base": "t_address",
						"encoding": "inplace",
						"label": "address[2]",
						"numberOfBytes": "64"
					},
					"t_bool": {
						"encoding": "inplace",
						"label": "bool",
						"numberOfBytes": "1"
					},
					"t_contract(IFactory)62": {
						"encoding": "inplace",
						"label": "contract IFactory",
						"numberOfBytes": "20"
					},
					"t_contract(IRouter)312": {
						"encoding": "inplace",
						"label": "contract IRouter",
						"numberOfBytes": "20"
					},
					"t_mapping(t_address,t_array(t_address)2_storage)": {
						"encoding": "mapping",
						"key": "t_address",
						"label": "mapping(address => address[2])",
						"numberOfBytes": "32",
						"value": "t_array(t_address)2_storage"
					},
					"t_mapping(t_address,t_bool)": {
						"encoding": "mapping",
						"key": "t_address",
						"label": "mapping(address => bool)",
						"numberOfBytes": "32",
						"value": "t_bool"
					},
					"t_mapping(t_uint256,t_address)": {
						"encoding": "mapping",
						"key": "t_uint256",
						"label": "mapping(uint256 => address)",
						"numberOfBytes": "32",
						"value": "t_address"
					},
					"t_uint256": {
						"encoding": "inplace",
						"label": "uint256",
						"numberOfBytes": "32"
					}
				}
			},
			"userdoc": {
				"kind": "user",
				"methods": {},
				"version": 1
			}
		}
	}
}