{
	"solutions.sol": {
		"Wechselkurs": {
			"abi": [
				{
					"inputs": [],
					"stateMutability": "nonpayable",
					"type": "constructor"
				},
				{
					"inputs": [],
					"name": "factory",
					"outputs": [
						{
							"internalType": "contract IFactory",
							"name": "",
							"type": "address"
						}
					],
					"stateMutability": "view",
					"type": "function"
				},
				{
					"inputs": [
						{
							"internalType": "uint256",
							"name": "amountIn",
							"type": "uint256"
						},
						{
							"internalType": "contract IERC20",
							"name": "tokenA",
							"type": "address"
						},
						{
							"internalType": "contract IERC20",
							"name": "tokenB",
							"type": "address"
						}
					],
					"name": "getWechselkurs",
					"outputs": [
						{
							"internalType": "uint256",
							"name": "",
							"type": "uint256"
						}
					],
					"stateMutability": "view",
					"type": "function"
				},
				{
					"inputs": [],
					"name": "router",
					"outputs": [
						{
							"internalType": "contract IRouter",
							"name": "",
							"type": "address"
						}
					],
					"stateMutability": "view",
					"type": "function"
				}
			],
			"devdoc": {
				"kind": "dev",
				"methods": {},
				"version": 1
			},
			"evm": {
				"assembly": "    /* \"solutions.sol\":7188:8731  contract Wechselkurs {... */\n  mstore(0x40, 0x80)\n    /* \"solutions.sol\":7276:7442  constructor() {... */\n  callvalue\n  dup1\n  iszero\n  tag_1\n  jumpi\n  0x00\n  dup1\n  revert\ntag_1:\n  pop\n    /* \"solutions.sol\":7320:7362  0x0Ca73866dFf0f6b0508F5Cbb223C857C19463e07 */\n  0x0ca73866dff0f6b0508f5cbb223c857c19463e07\n    /* \"solutions.sol\":7301:7308  factory */\n  0x00\n  dup1\n    /* \"solutions.sol\":7301:7363  factory = IFactory(0x0Ca73866dFf0f6b0508F5Cbb223C857C19463e07) */\n  0x0100\n  exp\n  dup2\n  sload\n  dup2\n  0xffffffffffffffffffffffffffffffffffffffff\n  mul\n  not\n  and\n  swap1\n  dup4\n  0xffffffffffffffffffffffffffffffffffffffff\n  and\n  mul\n  or\n  swap1\n  sstore\n  pop\n    /* \"solutions.sol\":7391:7433  0x5DA88dF55AF2E5681D33f36e5916d63797BF4766 */\n  0x5da88df55af2e5681d33f36e5916d63797bf4766\n    /* \"solutions.sol\":7374:7380  router */\n  0x01\n  0x00\n    /* \"solutions.sol\":7374:7434  router = IRouter(0x5DA88dF55AF2E5681D33f36e5916d63797BF4766) */\n  0x0100\n  exp\n  dup2\n  sload\n  dup2\n  0xffffffffffffffffffffffffffffffffffffffff\n  mul\n  not\n  and\n  swap1\n  dup4\n  0xffffffffffffffffffffffffffffffffffffffff\n  and\n  mul\n  or\n  swap1\n  sstore\n  pop\n    /* \"solutions.sol\":7188:8731  contract Wechselkurs {... */\n  dataSize(sub_0)\n  dup1\n  dataOffset(sub_0)\n  0x00\n  codecopy\n  0x00\n  return\nstop\n\nsub_0: assembly {\n        /* \"solutions.sol\":7188:8731  contract Wechselkurs {... */\n      mstore(0x40, 0x80)\n      callvalue\n      dup1\n      iszero\n      tag_1\n      jumpi\n      0x00\n      dup1\n      revert\n    tag_1:\n      pop\n      jumpi(tag_2, lt(calldatasize, 0x04))\n      shr(0xe0, calldataload(0x00))\n      dup1\n      0x37b39076\n      eq\n      tag_3\n      jumpi\n      dup1\n      0xc45a0155\n      eq\n      tag_4\n      jumpi\n      dup1\n      0xf887ea40\n      eq\n      tag_5\n      jumpi\n    tag_2:\n      0x00\n      dup1\n      revert\n        /* \"solutions.sol\":7450:8728  function getWechselkurs(uint256 amountIn, IERC20 tokenA, IERC20 tokenB) public view returns (uint256) {... */\n    tag_3:\n      tag_6\n      0x04\n      dup1\n      calldatasize\n      sub\n      dup2\n      add\n      swap1\n      tag_7\n      swap2\n      swap1\n      tag_8\n      jump\t// in\n    tag_7:\n      tag_9\n      jump\t// in\n    tag_6:\n      mload(0x40)\n      tag_10\n      swap2\n      swap1\n      tag_11\n      jump\t// in\n    tag_10:\n      mload(0x40)\n      dup1\n      swap2\n      sub\n      swap1\n      return\n        /* \"solutions.sol\":7216:7239  IFactory public factory */\n    tag_4:\n      tag_12\n      tag_13\n      jump\t// in\n    tag_12:\n      mload(0x40)\n      tag_14\n      swap2\n      swap1\n      tag_15\n      jump\t// in\n    tag_14:\n      mload(0x40)\n      dup1\n      swap2\n      sub\n      swap1\n      return\n        /* \"solutions.sol\":7246:7267  IRouter public router */\n    tag_5:\n      tag_16\n      tag_17\n      jump\t// in\n    tag_16:\n      mload(0x40)\n      tag_18\n      swap2\n      swap1\n      tag_19\n      jump\t// in\n    tag_18:\n      mload(0x40)\n      dup1\n      swap2\n      sub\n      swap1\n      return\n        /* \"solutions.sol\":7450:8728  function getWechselkurs(uint256 amountIn, IERC20 tokenA, IERC20 tokenB) public view returns (uint256) {... */\n    tag_9:\n        /* \"solutions.sol\":7543:7550  uint256 */\n      0x00\n        /* \"solutions.sol\":7613:7632  address pairAddress */\n      dup1\n        /* \"solutions.sol\":7635:7642  factory */\n      0x00\n      dup1\n      sload\n      swap1\n      0x0100\n      exp\n      swap1\n      div\n      0xffffffffffffffffffffffffffffffffffffffff\n      and\n        /* \"solutions.sol\":7635:7650  factory.getPair */\n      0xffffffffffffffffffffffffffffffffffffffff\n      and\n      0xe6a43905\n        /* \"solutions.sol\":7659:7665  tokenA */\n      dup6\n        /* \"solutions.sol\":7676:7682  tokenB */\n      dup6\n        /* \"solutions.sol\":7635:7684  factory.getPair(address(tokenA), address(tokenB)) */\n      mload(0x40)\n      dup4\n      0xffffffff\n      and\n      0xe0\n      shl\n      dup2\n      mstore\n      0x04\n      add\n      tag_21\n      swap3\n      swap2\n      swap1\n      tag_22\n      jump\t// in\n    tag_21:\n      0x20\n      mload(0x40)\n      dup1\n      dup4\n      sub\n      dup2\n      dup7\n      gas\n      staticcall\n      iszero\n      dup1\n      iszero\n      tag_24\n      jumpi\n      returndatasize\n      0x00\n      dup1\n      returndatacopy\n      revert(0x00, returndatasize)\n    tag_24:\n      pop\n      pop\n      pop\n      pop\n      mload(0x40)\n      returndatasize\n      not(0x1f)\n      0x1f\n      dup3\n      add\n      and\n      dup3\n      add\n      dup1\n      0x40\n      mstore\n      pop\n      dup2\n      add\n      swap1\n      tag_25\n      swap2\n      swap1\n      tag_26\n      jump\t// in\n    tag_25:\n        /* \"solutions.sol\":7613:7684  address pairAddress = factory.getPair(address(tokenA), address(tokenB)) */\n      swap1\n      pop\n        /* \"solutions.sol\":7726:7727  0 */\n      0x00\n        /* \"solutions.sol\":7703:7728  pairAddress != address(0) */\n      0xffffffffffffffffffffffffffffffffffffffff\n      and\n        /* \"solutions.sol\":7703:7714  pairAddress */\n      dup2\n        /* \"solutions.sol\":7703:7728  pairAddress != address(0) */\n      0xffffffffffffffffffffffffffffffffffffffff\n      and\n      sub\n        /* \"solutions.sol\":7695:7752  require(pairAddress != address(0), \"Pair does not exist\") */\n      tag_27\n      jumpi\n      mload(0x40)\n      0x08c379a000000000000000000000000000000000000000000000000000000000\n      dup2\n      mstore\n      0x04\n      add\n      tag_28\n      swap1\n      tag_29\n      jump\t// in\n    tag_28:\n      mload(0x40)\n      dup1\n      swap2\n      sub\n      swap1\n      revert\n    tag_27:\n        /* \"solutions.sol\":7807:7817  IPair pair */\n      0x00\n        /* \"solutions.sol\":7826:7837  pairAddress */\n      dup2\n        /* \"solutions.sol\":7807:7838  IPair pair = IPair(pairAddress) */\n      swap1\n      pop\n        /* \"solutions.sol\":8036:8052  uint256 reserve0 */\n      0x00\n        /* \"solutions.sol\":8054:8070  uint256 reserve1 */\n      dup1\n        /* \"solutions.sol\":8075:8079  pair */\n      dup3\n        /* \"solutions.sol\":8075:8091  pair.getReserves */\n      0xffffffffffffffffffffffffffffffffffffffff\n      and\n      0x0902f1ac\n        /* \"solutions.sol\":8075:8093  pair.getReserves() */\n      mload(0x40)\n      dup2\n      0xffffffff\n      and\n      0xe0\n      shl\n      dup2\n      mstore\n      0x04\n      add\n      0x60\n      mload(0x40)\n      dup1\n      dup4\n      sub\n      dup2\n      dup7\n      gas\n      staticcall\n      iszero\n      dup1\n      iszero\n      tag_31\n      jumpi\n      returndatasize\n      0x00\n      dup1\n      returndatacopy\n      revert(0x00, returndatasize)\n    tag_31:\n      pop\n      pop\n      pop\n      pop\n      mload(0x40)\n      returndatasize\n      not(0x1f)\n      0x1f\n      dup3\n      add\n      and\n      dup3\n      add\n      dup1\n      0x40\n      mstore\n      pop\n      dup2\n      add\n      swap1\n      tag_32\n      swap2\n      swap1\n      tag_33\n      jump\t// in\n    tag_32:\n        /* \"solutions.sol\":8035:8093  (uint256 reserve0, uint256 reserve1,) = pair.getReserves() */\n      pop\n      swap2\n      pop\n      swap2\n      pop\n        /* \"solutions.sol\":8104:8120  uint256 reserveA */\n      0x00\n        /* \"solutions.sol\":8131:8147  uint256 reserveB */\n      dup1\n        /* \"solutions.sol\":8286:8292  tokenA */\n      dup9\n        /* \"solutions.sol\":8261:8293  pair.token0() == address(tokenA) */\n      0xffffffffffffffffffffffffffffffffffffffff\n      and\n        /* \"solutions.sol\":8261:8265  pair */\n      dup6\n        /* \"solutions.sol\":8261:8272  pair.token0 */\n      0xffffffffffffffffffffffffffffffffffffffff\n      and\n      0x0dfe1681\n        /* \"solutions.sol\":8261:8274  pair.token0() */\n      mload(0x40)\n      dup2\n      0xffffffff\n      and\n      0xe0\n      shl\n      dup2\n      mstore\n      0x04\n      add\n      0x20\n      mload(0x40)\n      dup1\n      dup4\n      sub\n      dup2\n      dup7\n      gas\n      staticcall\n      iszero\n      dup1\n      iszero\n      tag_35\n      jumpi\n      returndatasize\n      0x00\n      dup1\n      returndatacopy\n      revert(0x00, returndatasize)\n    tag_35:\n      pop\n      pop\n      pop\n      pop\n      mload(0x40)\n      returndatasize\n      not(0x1f)\n      0x1f\n      dup3\n      add\n      and\n      dup3\n      add\n      dup1\n      0x40\n      mstore\n      pop\n      dup2\n      add\n      swap1\n      tag_36\n      swap2\n      swap1\n      tag_26\n      jump\t// in\n    tag_36:\n        /* \"solutions.sol\":8261:8293  pair.token0() == address(tokenA) */\n      0xffffffffffffffffffffffffffffffffffffffff\n      and\n      sub\n        /* \"solutions.sol\":8257:8461  if (pair.token0() == address(tokenA)) {... */\n      tag_37\n      jumpi\n        /* \"solutions.sol\":8321:8329  reserve0 */\n      dup4\n        /* \"solutions.sol\":8310:8329  reserveA = reserve0 */\n      swap2\n      pop\n        /* \"solutions.sol\":8355:8363  reserve1 */\n      dup3\n        /* \"solutions.sol\":8344:8363  reserveB = reserve1 */\n      swap1\n      pop\n        /* \"solutions.sol\":8257:8461  if (pair.token0() == address(tokenA)) {... */\n      jump(tag_38)\n    tag_37:\n        /* \"solutions.sol\":8407:8415  reserve1 */\n      dup3\n        /* \"solutions.sol\":8396:8415  reserveA = reserve1 */\n      swap2\n      pop\n        /* \"solutions.sol\":8441:8449  reserve0 */\n      dup4\n        /* \"solutions.sol\":8430:8449  reserveB = reserve0 */\n      swap1\n      pop\n        /* \"solutions.sol\":8257:8461  if (pair.token0() == address(tokenA)) {... */\n    tag_38:\n        /* \"solutions.sol\":8554:8568  uint amountOut */\n      0x00\n        /* \"solutions.sol\":8571:8577  router */\n      0x01\n      0x00\n      swap1\n      sload\n      swap1\n      0x0100\n      exp\n      swap1\n      div\n      0xffffffffffffffffffffffffffffffffffffffff\n      and\n        /* \"solutions.sol\":8571:8590  router.getAmountOut */\n      0xffffffffffffffffffffffffffffffffffffffff\n      and\n      0x054d50d4\n        /* \"solutions.sol\":8591:8599  amountIn */\n      dup13\n        /* \"solutions.sol\":8601:8609  reserveA */\n      dup6\n        /* \"solutions.sol\":8611:8619  reserveB */\n      dup6\n        /* \"solutions.sol\":8571:8620  router.getAmountOut(amountIn, reserveA, reserveB) */\n      mload(0x40)\n      dup5\n      0xffffffff\n      and\n      0xe0\n      shl\n      dup2\n      mstore\n      0x04\n      add\n      tag_39\n      swap4\n      swap3\n      swap2\n      swap1\n      tag_40\n      jump\t// in\n    tag_39:\n      0x20\n      mload(0x40)\n      dup1\n      dup4\n      sub\n      dup2\n      dup7\n      gas\n      staticcall\n      iszero\n      dup1\n      iszero\n      tag_42\n      jumpi\n      returndatasize\n      0x00\n      dup1\n      returndatacopy\n      revert(0x00, returndatasize)\n    tag_42:\n      pop\n      pop\n      pop\n      pop\n      mload(0x40)\n      returndatasize\n      not(0x1f)\n      0x1f\n      dup3\n      add\n      and\n      dup3\n      add\n      dup1\n      0x40\n      mstore\n      pop\n      dup2\n      add\n      swap1\n      tag_43\n      swap2\n      swap1\n      tag_44\n      jump\t// in\n    tag_43:\n        /* \"solutions.sol\":8554:8620  uint amountOut = router.getAmountOut(amountIn, reserveA, reserveB) */\n      swap1\n      pop\n        /* \"solutions.sol\":8711:8720  amountOut */\n      dup1\n        /* \"solutions.sol\":8704:8720  return amountOut */\n      swap8\n      pop\n      pop\n      pop\n      pop\n      pop\n      pop\n      pop\n      pop\n        /* \"solutions.sol\":7450:8728  function getWechselkurs(uint256 amountIn, IERC20 tokenA, IERC20 tokenB) public view returns (uint256) {... */\n      swap4\n      swap3\n      pop\n      pop\n      pop\n      jump\t// out\n        /* \"solutions.sol\":7216:7239  IFactory public factory */\n    tag_13:\n      0x00\n      dup1\n      sload\n      swap1\n      0x0100\n      exp\n      swap1\n      div\n      0xffffffffffffffffffffffffffffffffffffffff\n      and\n      dup2\n      jump\t// out\n        /* \"solutions.sol\":7246:7267  IRouter public router */\n    tag_17:\n      0x01\n      0x00\n      swap1\n      sload\n      swap1\n      0x0100\n      exp\n      swap1\n      div\n      0xffffffffffffffffffffffffffffffffffffffff\n      and\n      dup2\n      jump\t// out\n        /* \"#utility.yul\":88:205   */\n    tag_46:\n        /* \"#utility.yul\":197:198   */\n      0x00\n        /* \"#utility.yul\":194:195   */\n      dup1\n        /* \"#utility.yul\":187:199   */\n      revert\n        /* \"#utility.yul\":334:411   */\n    tag_48:\n        /* \"#utility.yul\":371:378   */\n      0x00\n        /* \"#utility.yul\":400:405   */\n      dup2\n        /* \"#utility.yul\":389:405   */\n      swap1\n      pop\n        /* \"#utility.yul\":334:411   */\n      swap2\n      swap1\n      pop\n      jump\t// out\n        /* \"#utility.yul\":417:539   */\n    tag_49:\n        /* \"#utility.yul\":490:514   */\n      tag_80\n        /* \"#utility.yul\":508:513   */\n      dup2\n        /* \"#utility.yul\":490:514   */\n      tag_48\n      jump\t// in\n    tag_80:\n        /* \"#utility.yul\":483:488   */\n      dup2\n        /* \"#utility.yul\":480:515   */\n      eq\n        /* \"#utility.yul\":470:533   */\n      tag_81\n      jumpi\n        /* \"#utility.yul\":529:530   */\n      0x00\n        /* \"#utility.yul\":526:527   */\n      dup1\n        /* \"#utility.yul\":519:531   */\n      revert\n        /* \"#utility.yul\":470:533   */\n    tag_81:\n        /* \"#utility.yul\":417:539   */\n      pop\n      jump\t// out\n        /* \"#utility.yul\":545:684   */\n    tag_50:\n        /* \"#utility.yul\":591:596   */\n      0x00\n        /* \"#utility.yul\":629:635   */\n      dup2\n        /* \"#utility.yul\":616:636   */\n      calldataload\n        /* \"#utility.yul\":607:636   */\n      swap1\n      pop\n        /* \"#utility.yul\":645:678   */\n      tag_83\n        /* \"#utility.yul\":672:677   */\n      dup2\n        /* \"#utility.yul\":645:678   */\n      tag_49\n      jump\t// in\n    tag_83:\n        /* \"#utility.yul\":545:684   */\n      swap3\n      swap2\n      pop\n      pop\n      jump\t// out\n        /* \"#utility.yul\":690:816   */\n    tag_51:\n        /* \"#utility.yul\":727:734   */\n      0x00\n        /* \"#utility.yul\":767:809   */\n      0xffffffffffffffffffffffffffffffffffffffff\n        /* \"#utility.yul\":760:765   */\n      dup3\n        /* \"#utility.yul\":756:810   */\n      and\n        /* \"#utility.yul\":745:810   */\n      swap1\n      pop\n        /* \"#utility.yul\":690:816   */\n      swap2\n      swap1\n      pop\n      jump\t// out\n        /* \"#utility.yul\":822:918   */\n    tag_52:\n        /* \"#utility.yul\":859:866   */\n      0x00\n        /* \"#utility.yul\":888:912   */\n      tag_86\n        /* \"#utility.yul\":906:911   */\n      dup3\n        /* \"#utility.yul\":888:912   */\n      tag_51\n      jump\t// in\n    tag_86:\n        /* \"#utility.yul\":877:912   */\n      swap1\n      pop\n        /* \"#utility.yul\":822:918   */\n      swap2\n      swap1\n      pop\n      jump\t// out\n        /* \"#utility.yul\":924:1034   */\n    tag_53:\n        /* \"#utility.yul\":975:982   */\n      0x00\n        /* \"#utility.yul\":1004:1028   */\n      tag_88\n        /* \"#utility.yul\":1022:1027   */\n      dup3\n        /* \"#utility.yul\":1004:1028   */\n      tag_52\n      jump\t// in\n    tag_88:\n        /* \"#utility.yul\":993:1028   */\n      swap1\n      pop\n        /* \"#utility.yul\":924:1034   */\n      swap2\n      swap1\n      pop\n      jump\t// out\n        /* \"#utility.yul\":1040:1190   */\n    tag_54:\n        /* \"#utility.yul\":1127:1165   */\n      tag_90\n        /* \"#utility.yul\":1159:1164   */\n      dup2\n        /* \"#utility.yul\":1127:1165   */\n      tag_53\n      jump\t// in\n    tag_90:\n        /* \"#utility.yul\":1120:1125   */\n      dup2\n        /* \"#utility.yul\":1117:1166   */\n      eq\n        /* \"#utility.yul\":1107:1184   */\n      tag_91\n      jumpi\n        /* \"#utility.yul\":1180:1181   */\n      0x00\n        /* \"#utility.yul\":1177:1178   */\n      dup1\n        /* \"#utility.yul\":1170:1182   */\n      revert\n        /* \"#utility.yul\":1107:1184   */\n    tag_91:\n        /* \"#utility.yul\":1040:1190   */\n      pop\n      jump\t// out\n        /* \"#utility.yul\":1196:1363   */\n    tag_55:\n        /* \"#utility.yul\":1256:1261   */\n      0x00\n        /* \"#utility.yul\":1294:1300   */\n      dup2\n        /* \"#utility.yul\":1281:1301   */\n      calldataload\n        /* \"#utility.yul\":1272:1301   */\n      swap1\n      pop\n        /* \"#utility.yul\":1310:1357   */\n      tag_93\n        /* \"#utility.yul\":1351:1356   */\n      dup2\n        /* \"#utility.yul\":1310:1357   */\n      tag_54\n      jump\t// in\n    tag_93:\n        /* \"#utility.yul\":1196:1363   */\n      swap3\n      swap2\n      pop\n      pop\n      jump\t// out\n        /* \"#utility.yul\":1369:2044   */\n    tag_8:\n        /* \"#utility.yul\":1474:1480   */\n      0x00\n        /* \"#utility.yul\":1482:1488   */\n      dup1\n        /* \"#utility.yul\":1490:1496   */\n      0x00\n        /* \"#utility.yul\":1539:1541   */\n      0x60\n        /* \"#utility.yul\":1527:1536   */\n      dup5\n        /* \"#utility.yul\":1518:1525   */\n      dup7\n        /* \"#utility.yul\":1514:1537   */\n      sub\n        /* \"#utility.yul\":1510:1542   */\n      slt\n        /* \"#utility.yul\":1507:1626   */\n      iszero\n      tag_95\n      jumpi\n        /* \"#utility.yul\":1545:1624   */\n      tag_96\n      tag_46\n      jump\t// in\n    tag_96:\n        /* \"#utility.yul\":1507:1626   */\n    tag_95:\n        /* \"#utility.yul\":1665:1666   */\n      0x00\n        /* \"#utility.yul\":1690:1743   */\n      tag_97\n        /* \"#utility.yul\":1735:1742   */\n      dup7\n        /* \"#utility.yul\":1726:1732   */\n      dup3\n        /* \"#utility.yul\":1715:1724   */\n      dup8\n        /* \"#utility.yul\":1711:1733   */\n      add\n        /* \"#utility.yul\":1690:1743   */\n      tag_50\n      jump\t// in\n    tag_97:\n        /* \"#utility.yul\":1680:1743   */\n      swap4\n      pop\n        /* \"#utility.yul\":1636:1753   */\n      pop\n        /* \"#utility.yul\":1792:1794   */\n      0x20\n        /* \"#utility.yul\":1818:1885   */\n      tag_98\n        /* \"#utility.yul\":1877:1884   */\n      dup7\n        /* \"#utility.yul\":1868:1874   */\n      dup3\n        /* \"#utility.yul\":1857:1866   */\n      dup8\n        /* \"#utility.yul\":1853:1875   */\n      add\n        /* \"#utility.yul\":1818:1885   */\n      tag_55\n      jump\t// in\n    tag_98:\n        /* \"#utility.yul\":1808:1885   */\n      swap3\n      pop\n        /* \"#utility.yul\":1763:1895   */\n      pop\n        /* \"#utility.yul\":1934:1936   */\n      0x40\n        /* \"#utility.yul\":1960:2027   */\n      tag_99\n        /* \"#utility.yul\":2019:2026   */\n      dup7\n        /* \"#utility.yul\":2010:2016   */\n      dup3\n        /* \"#utility.yul\":1999:2008   */\n      dup8\n        /* \"#utility.yul\":1995:2017   */\n      add\n        /* \"#utility.yul\":1960:2027   */\n      tag_55\n      jump\t// in\n    tag_99:\n        /* \"#utility.yul\":1950:2027   */\n      swap2\n      pop\n        /* \"#utility.yul\":1905:2037   */\n      pop\n        /* \"#utility.yul\":1369:2044   */\n      swap3\n      pop\n      swap3\n      pop\n      swap3\n      jump\t// out\n        /* \"#utility.yul\":2050:2168   */\n    tag_56:\n        /* \"#utility.yul\":2137:2161   */\n      tag_101\n        /* \"#utility.yul\":2155:2160   */\n      dup2\n        /* \"#utility.yul\":2137:2161   */\n      tag_48\n      jump\t// in\n    tag_101:\n        /* \"#utility.yul\":2132:2135   */\n      dup3\n        /* \"#utility.yul\":2125:2162   */\n      mstore\n        /* \"#utility.yul\":2050:2168   */\n      pop\n      pop\n      jump\t// out\n        /* \"#utility.yul\":2174:2396   */\n    tag_11:\n        /* \"#utility.yul\":2267:2271   */\n      0x00\n        /* \"#utility.yul\":2305:2307   */\n      0x20\n        /* \"#utility.yul\":2294:2303   */\n      dup3\n        /* \"#utility.yul\":2290:2308   */\n      add\n        /* \"#utility.yul\":2282:2308   */\n      swap1\n      pop\n        /* \"#utility.yul\":2318:2389   */\n      tag_103\n        /* \"#utility.yul\":2386:2387   */\n      0x00\n        /* \"#utility.yul\":2375:2384   */\n      dup4\n        /* \"#utility.yul\":2371:2388   */\n      add\n        /* \"#utility.yul\":2362:2368   */\n      dup5\n        /* \"#utility.yul\":2318:2389   */\n      tag_56\n      jump\t// in\n    tag_103:\n        /* \"#utility.yul\":2174:2396   */\n      swap3\n      swap2\n      pop\n      pop\n      jump\t// out\n        /* \"#utility.yul\":2402:2462   */\n    tag_57:\n        /* \"#utility.yul\":2430:2433   */\n      0x00\n        /* \"#utility.yul\":2451:2456   */\n      dup2\n        /* \"#utility.yul\":2444:2456   */\n      swap1\n      pop\n        /* \"#utility.yul\":2402:2462   */\n      swap2\n      swap1\n      pop\n      jump\t// out\n        /* \"#utility.yul\":2468:2610   */\n    tag_58:\n        /* \"#utility.yul\":2518:2527   */\n      0x00\n        /* \"#utility.yul\":2551:2604   */\n      tag_106\n        /* \"#utility.yul\":2569:2603   */\n      tag_107\n        /* \"#utility.yul\":2578:2602   */\n      tag_108\n        /* \"#utility.yul\":2596:2601   */\n      dup5\n        /* \"#utility.yul\":2578:2602   */\n      tag_51\n      jump\t// in\n    tag_108:\n        /* \"#utility.yul\":2569:2603   */\n      tag_57\n      jump\t// in\n    tag_107:\n        /* \"#utility.yul\":2551:2604   */\n      tag_51\n      jump\t// in\n    tag_106:\n        /* \"#utility.yul\":2538:2604   */\n      swap1\n      pop\n        /* \"#utility.yul\":2468:2610   */\n      swap2\n      swap1\n      pop\n      jump\t// out\n        /* \"#utility.yul\":2616:2742   */\n    tag_59:\n        /* \"#utility.yul\":2666:2675   */\n      0x00\n        /* \"#utility.yul\":2699:2736   */\n      tag_110\n        /* \"#utility.yul\":2730:2735   */\n      dup3\n        /* \"#utility.yul\":2699:2736   */\n      tag_58\n      jump\t// in\n    tag_110:\n        /* \"#utility.yul\":2686:2736   */\n      swap1\n      pop\n        /* \"#utility.yul\":2616:2742   */\n      swap2\n      swap1\n      pop\n      jump\t// out\n        /* \"#utility.yul\":2748:2889   */\n    tag_60:\n        /* \"#utility.yul\":2813:2822   */\n      0x00\n        /* \"#utility.yul\":2846:2883   */\n      tag_112\n        /* \"#utility.yul\":2877:2882   */\n      dup3\n        /* \"#utility.yul\":2846:2883   */\n      tag_59\n      jump\t// in\n    tag_112:\n        /* \"#utility.yul\":2833:2883   */\n      swap1\n      pop\n        /* \"#utility.yul\":2748:2889   */\n      swap2\n      swap1\n      pop\n      jump\t// out\n        /* \"#utility.yul\":2895:3056   */\n    tag_61:\n        /* \"#utility.yul\":2997:3049   */\n      tag_114\n        /* \"#utility.yul\":3043:3048   */\n      dup2\n        /* \"#utility.yul\":2997:3049   */\n      tag_60\n      jump\t// in\n    tag_114:\n        /* \"#utility.yul\":2992:2995   */\n      dup3\n        /* \"#utility.yul\":2985:3050   */\n      mstore\n        /* \"#utility.yul\":2895:3056   */\n      pop\n      pop\n      jump\t// out\n        /* \"#utility.yul\":3062:3314   */\n    tag_15:\n        /* \"#utility.yul\":3170:3174   */\n      0x00\n        /* \"#utility.yul\":3208:3210   */\n      0x20\n        /* \"#utility.yul\":3197:3206   */\n      dup3\n        /* \"#utility.yul\":3193:3211   */\n      add\n        /* \"#utility.yul\":3185:3211   */\n      swap1\n      pop\n        /* \"#utility.yul\":3221:3307   */\n      tag_116\n        /* \"#utility.yul\":3304:3305   */\n      0x00\n        /* \"#utility.yul\":3293:3302   */\n      dup4\n        /* \"#utility.yul\":3289:3306   */\n      add\n        /* \"#utility.yul\":3280:3286   */\n      dup5\n        /* \"#utility.yul\":3221:3307   */\n      tag_61\n      jump\t// in\n    tag_116:\n        /* \"#utility.yul\":3062:3314   */\n      swap3\n      swap2\n      pop\n      pop\n      jump\t// out\n        /* \"#utility.yul\":3320:3461   */\n    tag_62:\n        /* \"#utility.yul\":3385:3394   */\n      0x00\n        /* \"#utility.yul\":3418:3455   */\n      tag_118\n        /* \"#utility.yul\":3449:3454   */\n      dup3\n        /* \"#utility.yul\":3418:3455   */\n      tag_59\n      jump\t// in\n    tag_118:\n        /* \"#utility.yul\":3405:3455   */\n      swap1\n      pop\n        /* \"#utility.yul\":3320:3461   */\n      swap2\n      swap1\n      pop\n      jump\t// out\n        /* \"#utility.yul\":3467:3628   */\n    tag_63:\n        /* \"#utility.yul\":3569:3621   */\n      tag_120\n        /* \"#utility.yul\":3615:3620   */\n      dup2\n        /* \"#utility.yul\":3569:3621   */\n      tag_62\n      jump\t// in\n    tag_120:\n        /* \"#utility.yul\":3564:3567   */\n      dup3\n        /* \"#utility.yul\":3557:3622   */\n      mstore\n        /* \"#utility.yul\":3467:3628   */\n      pop\n      pop\n      jump\t// out\n        /* \"#utility.yul\":3634:3886   */\n    tag_19:\n        /* \"#utility.yul\":3742:3746   */\n      0x00\n        /* \"#utility.yul\":3780:3782   */\n      0x20\n        /* \"#utility.yul\":3769:3778   */\n      dup3\n        /* \"#utility.yul\":3765:3783   */\n      add\n        /* \"#utility.yul\":3757:3783   */\n      swap1\n      pop\n        /* \"#utility.yul\":3793:3879   */\n      tag_122\n        /* \"#utility.yul\":3876:3877   */\n      0x00\n        /* \"#utility.yul\":3865:3874   */\n      dup4\n        /* \"#utility.yul\":3861:3878   */\n      add\n        /* \"#utility.yul\":3852:3858   */\n      dup5\n        /* \"#utility.yul\":3793:3879   */\n      tag_63\n      jump\t// in\n    tag_122:\n        /* \"#utility.yul\":3634:3886   */\n      swap3\n      swap2\n      pop\n      pop\n      jump\t// out\n        /* \"#utility.yul\":3892:4010   */\n    tag_64:\n        /* \"#utility.yul\":3979:4003   */\n      tag_124\n        /* \"#utility.yul\":3997:4002   */\n      dup2\n        /* \"#utility.yul\":3979:4003   */\n      tag_52\n      jump\t// in\n    tag_124:\n        /* \"#utility.yul\":3974:3977   */\n      dup3\n        /* \"#utility.yul\":3967:4004   */\n      mstore\n        /* \"#utility.yul\":3892:4010   */\n      pop\n      pop\n      jump\t// out\n        /* \"#utility.yul\":4016:4348   */\n    tag_22:\n        /* \"#utility.yul\":4137:4141   */\n      0x00\n        /* \"#utility.yul\":4175:4177   */\n      0x40\n        /* \"#utility.yul\":4164:4173   */\n      dup3\n        /* \"#utility.yul\":4160:4178   */\n      add\n        /* \"#utility.yul\":4152:4178   */\n      swap1\n      pop\n        /* \"#utility.yul\":4188:4259   */\n      tag_126\n        /* \"#utility.yul\":4256:4257   */\n      0x00\n        /* \"#utility.yul\":4245:4254   */\n      dup4\n        /* \"#utility.yul\":4241:4258   */\n      add\n        /* \"#utility.yul\":4232:4238   */\n      dup6\n        /* \"#utility.yul\":4188:4259   */\n      tag_64\n      jump\t// in\n    tag_126:\n        /* \"#utility.yul\":4269:4341   */\n      tag_127\n        /* \"#utility.yul\":4337:4339   */\n      0x20\n        /* \"#utility.yul\":4326:4335   */\n      dup4\n        /* \"#utility.yul\":4322:4340   */\n      add\n        /* \"#utility.yul\":4313:4319   */\n      dup5\n        /* \"#utility.yul\":4269:4341   */\n      tag_64\n      jump\t// in\n    tag_127:\n        /* \"#utility.yul\":4016:4348   */\n      swap4\n      swap3\n      pop\n      pop\n      pop\n      jump\t// out\n        /* \"#utility.yul\":4354:4476   */\n    tag_65:\n        /* \"#utility.yul\":4427:4451   */\n      tag_129\n        /* \"#utility.yul\":4445:4450   */\n      dup2\n        /* \"#utility.yul\":4427:4451   */\n      tag_52\n      jump\t// in\n    tag_129:\n        /* \"#utility.yul\":4420:4425   */\n      dup2\n        /* \"#utility.yul\":4417:4452   */\n      eq\n        /* \"#utility.yul\":4407:4470   */\n      tag_130\n      jumpi\n        /* \"#utility.yul\":4466:4467   */\n      0x00\n        /* \"#utility.yul\":4463:4464   */\n      dup1\n        /* \"#utility.yul\":4456:4468   */\n      revert\n        /* \"#utility.yul\":4407:4470   */\n    tag_130:\n        /* \"#utility.yul\":4354:4476   */\n      pop\n      jump\t// out\n        /* \"#utility.yul\":4482:4625   */\n    tag_66:\n        /* \"#utility.yul\":4539:4544   */\n      0x00\n        /* \"#utility.yul\":4570:4576   */\n      dup2\n        /* \"#utility.yul\":4564:4577   */\n      mload\n        /* \"#utility.yul\":4555:4577   */\n      swap1\n      pop\n        /* \"#utility.yul\":4586:4619   */\n      tag_132\n        /* \"#utility.yul\":4613:4618   */\n      dup2\n        /* \"#utility.yul\":4586:4619   */\n      tag_65\n      jump\t// in\n    tag_132:\n        /* \"#utility.yul\":4482:4625   */\n      swap3\n      swap2\n      pop\n      pop\n      jump\t// out\n        /* \"#utility.yul\":4631:4982   */\n    tag_26:\n        /* \"#utility.yul\":4701:4707   */\n      0x00\n        /* \"#utility.yul\":4750:4752   */\n      0x20\n        /* \"#utility.yul\":4738:4747   */\n      dup3\n        /* \"#utility.yul\":4729:4736   */\n      dup5\n        /* \"#utility.yul\":4725:4748   */\n      sub\n        /* \"#utility.yul\":4721:4753   */\n      slt\n        /* \"#utility.yul\":4718:4837   */\n      iszero\n      tag_134\n      jumpi\n        /* \"#utility.yul\":4756:4835   */\n      tag_135\n      tag_46\n      jump\t// in\n    tag_135:\n        /* \"#utility.yul\":4718:4837   */\n    tag_134:\n        /* \"#utility.yul\":4876:4877   */\n      0x00\n        /* \"#utility.yul\":4901:4965   */\n      tag_136\n        /* \"#utility.yul\":4957:4964   */\n      dup5\n        /* \"#utility.yul\":4948:4954   */\n      dup3\n        /* \"#utility.yul\":4937:4946   */\n      dup6\n        /* \"#utility.yul\":4933:4955   */\n      add\n        /* \"#utility.yul\":4901:4965   */\n      tag_66\n      jump\t// in\n    tag_136:\n        /* \"#utility.yul\":4891:4965   */\n      swap2\n      pop\n        /* \"#utility.yul\":4847:4975   */\n      pop\n        /* \"#utility.yul\":4631:4982   */\n      swap3\n      swap2\n      pop\n      pop\n      jump\t// out\n        /* \"#utility.yul\":4988:5157   */\n    tag_67:\n        /* \"#utility.yul\":5072:5083   */\n      0x00\n        /* \"#utility.yul\":5106:5112   */\n      dup3\n        /* \"#utility.yul\":5101:5104   */\n      dup3\n        /* \"#utility.yul\":5094:5113   */\n      mstore\n        /* \"#utility.yul\":5146:5150   */\n      0x20\n        /* \"#utility.yul\":5141:5144   */\n      dup3\n        /* \"#utility.yul\":5137:5151   */\n      add\n        /* \"#utility.yul\":5122:5151   */\n      swap1\n      pop\n        /* \"#utility.yul\":4988:5157   */\n      swap3\n      swap2\n      pop\n      pop\n      jump\t// out\n        /* \"#utility.yul\":5163:5332   */\n    tag_68:\n        /* \"#utility.yul\":5303:5324   */\n      0x5061697220646f6573206e6f7420657869737400000000000000000000000000\n        /* \"#utility.yul\":5299:5300   */\n      0x00\n        /* \"#utility.yul\":5291:5297   */\n      dup3\n        /* \"#utility.yul\":5287:5301   */\n      add\n        /* \"#utility.yul\":5280:5325   */\n      mstore\n        /* \"#utility.yul\":5163:5332   */\n      pop\n      jump\t// out\n        /* \"#utility.yul\":5338:5704   */\n    tag_69:\n        /* \"#utility.yul\":5480:5483   */\n      0x00\n        /* \"#utility.yul\":5501:5568   */\n      tag_140\n        /* \"#utility.yul\":5565:5567   */\n      0x13\n        /* \"#utility.yul\":5560:5563   */\n      dup4\n        /* \"#utility.yul\":5501:5568   */\n      tag_67\n      jump\t// in\n    tag_140:\n        /* \"#utility.yul\":5494:5568   */\n      swap2\n      pop\n        /* \"#utility.yul\":5577:5670   */\n      tag_141\n        /* \"#utility.yul\":5666:5669   */\n      dup3\n        /* \"#utility.yul\":5577:5670   */\n      tag_68\n      jump\t// in\n    tag_141:\n        /* \"#utility.yul\":5695:5697   */\n      0x20\n        /* \"#utility.yul\":5690:5693   */\n      dup3\n        /* \"#utility.yul\":5686:5698   */\n      add\n        /* \"#utility.yul\":5679:5698   */\n      swap1\n      pop\n        /* \"#utility.yul\":5338:5704   */\n      swap2\n      swap1\n      pop\n      jump\t// out\n        /* \"#utility.yul\":5710:6129   */\n    tag_29:\n        /* \"#utility.yul\":5876:5880   */\n      0x00\n        /* \"#utility.yul\":5914:5916   */\n      0x20\n        /* \"#utility.yul\":5903:5912   */\n      dup3\n        /* \"#utility.yul\":5899:5917   */\n      add\n        /* \"#utility.yul\":5891:5917   */\n      swap1\n      pop\n        /* \"#utility.yul\":5963:5972   */\n      dup2\n        /* \"#utility.yul\":5957:5961   */\n      dup2\n        /* \"#utility.yul\":5953:5973   */\n      sub\n        /* \"#utility.yul\":5949:5950   */\n      0x00\n        /* \"#utility.yul\":5938:5947   */\n      dup4\n        /* \"#utility.yul\":5934:5951   */\n      add\n        /* \"#utility.yul\":5927:5974   */\n      mstore\n        /* \"#utility.yul\":5991:6122   */\n      tag_143\n        /* \"#utility.yul\":6117:6121   */\n      dup2\n        /* \"#utility.yul\":5991:6122   */\n      tag_69\n      jump\t// in\n    tag_143:\n        /* \"#utility.yul\":5983:6122   */\n      swap1\n      pop\n        /* \"#utility.yul\":5710:6129   */\n      swap2\n      swap1\n      pop\n      jump\t// out\n        /* \"#utility.yul\":6135:6278   */\n    tag_70:\n        /* \"#utility.yul\":6192:6197   */\n      0x00\n        /* \"#utility.yul\":6223:6229   */\n      dup2\n        /* \"#utility.yul\":6217:6230   */\n      mload\n        /* \"#utility.yul\":6208:6230   */\n      swap1\n      pop\n        /* \"#utility.yul\":6239:6272   */\n      tag_145\n        /* \"#utility.yul\":6266:6271   */\n      dup2\n        /* \"#utility.yul\":6239:6272   */\n      tag_49\n      jump\t// in\n    tag_145:\n        /* \"#utility.yul\":6135:6278   */\n      swap3\n      swap2\n      pop\n      pop\n      jump\t// out\n        /* \"#utility.yul\":6284:6377   */\n    tag_71:\n        /* \"#utility.yul\":6320:6327   */\n      0x00\n        /* \"#utility.yul\":6360:6370   */\n      0xffffffff\n        /* \"#utility.yul\":6353:6358   */\n      dup3\n        /* \"#utility.yul\":6349:6371   */\n      and\n        /* \"#utility.yul\":6338:6371   */\n      swap1\n      pop\n        /* \"#utility.yul\":6284:6377   */\n      swap2\n      swap1\n      pop\n      jump\t// out\n        /* \"#utility.yul\":6383:6503   */\n    tag_72:\n        /* \"#utility.yul\":6455:6478   */\n      tag_148\n        /* \"#utility.yul\":6472:6477   */\n      dup2\n        /* \"#utility.yul\":6455:6478   */\n      tag_71\n      jump\t// in\n    tag_148:\n        /* \"#utility.yul\":6448:6453   */\n      dup2\n        /* \"#utility.yul\":6445:6479   */\n      eq\n        /* \"#utility.yul\":6435:6497   */\n      tag_149\n      jumpi\n        /* \"#utility.yul\":6493:6494   */\n      0x00\n        /* \"#utility.yul\":6490:6491   */\n      dup1\n        /* \"#utility.yul\":6483:6495   */\n      revert\n        /* \"#utility.yul\":6435:6497   */\n    tag_149:\n        /* \"#utility.yul\":6383:6503   */\n      pop\n      jump\t// out\n        /* \"#utility.yul\":6509:6650   */\n    tag_73:\n        /* \"#utility.yul\":6565:6570   */\n      0x00\n        /* \"#utility.yul\":6596:6602   */\n      dup2\n        /* \"#utility.yul\":6590:6603   */\n      mload\n        /* \"#utility.yul\":6581:6603   */\n      swap1\n      pop\n        /* \"#utility.yul\":6612:6644   */\n      tag_151\n        /* \"#utility.yul\":6638:6643   */\n      dup2\n        /* \"#utility.yul\":6612:6644   */\n      tag_72\n      jump\t// in\n    tag_151:\n        /* \"#utility.yul\":6509:6650   */\n      swap3\n      swap2\n      pop\n      pop\n      jump\t// out\n        /* \"#utility.yul\":6656:7317   */\n    tag_33:\n        /* \"#utility.yul\":6743:6749   */\n      0x00\n        /* \"#utility.yul\":6751:6757   */\n      dup1\n        /* \"#utility.yul\":6759:6765   */\n      0x00\n        /* \"#utility.yul\":6808:6810   */\n      0x60\n        /* \"#utility.yul\":6796:6805   */\n      dup5\n        /* \"#utility.yul\":6787:6794   */\n      dup7\n        /* \"#utility.yul\":6783:6806   */\n      sub\n        /* \"#utility.yul\":6779:6811   */\n      slt\n        /* \"#utility.yul\":6776:6895   */\n      iszero\n      tag_153\n      jumpi\n        /* \"#utility.yul\":6814:6893   */\n      tag_154\n      tag_46\n      jump\t// in\n    tag_154:\n        /* \"#utility.yul\":6776:6895   */\n    tag_153:\n        /* \"#utility.yul\":6934:6935   */\n      0x00\n        /* \"#utility.yul\":6959:7023   */\n      tag_155\n        /* \"#utility.yul\":7015:7022   */\n      dup7\n        /* \"#utility.yul\":7006:7012   */\n      dup3\n        /* \"#utility.yul\":6995:7004   */\n      dup8\n        /* \"#utility.yul\":6991:7013   */\n      add\n        /* \"#utility.yul\":6959:7023   */\n      tag_70\n      jump\t// in\n    tag_155:\n        /* \"#utility.yul\":6949:7023   */\n      swap4\n      pop\n        /* \"#utility.yul\":6905:7033   */\n      pop\n        /* \"#utility.yul\":7072:7074   */\n      0x20\n        /* \"#utility.yul\":7098:7162   */\n      tag_156\n        /* \"#utility.yul\":7154:7161   */\n      dup7\n        /* \"#utility.yul\":7145:7151   */\n      dup3\n        /* \"#utility.yul\":7134:7143   */\n      dup8\n        /* \"#utility.yul\":7130:7152   */\n      add\n        /* \"#utility.yul\":7098:7162   */\n      tag_70\n      jump\t// in\n    tag_156:\n        /* \"#utility.yul\":7088:7162   */\n      swap3\n      pop\n        /* \"#utility.yul\":7043:7172   */\n      pop\n        /* \"#utility.yul\":7211:7213   */\n      0x40\n        /* \"#utility.yul\":7237:7300   */\n      tag_157\n        /* \"#utility.yul\":7292:7299   */\n      dup7\n        /* \"#utility.yul\":7283:7289   */\n      dup3\n        /* \"#utility.yul\":7272:7281   */\n      dup8\n        /* \"#utility.yul\":7268:7290   */\n      add\n        /* \"#utility.yul\":7237:7300   */\n      tag_73\n      jump\t// in\n    tag_157:\n        /* \"#utility.yul\":7227:7300   */\n      swap2\n      pop\n        /* \"#utility.yul\":7182:7310   */\n      pop\n        /* \"#utility.yul\":6656:7317   */\n      swap3\n      pop\n      swap3\n      pop\n      swap3\n      jump\t// out\n        /* \"#utility.yul\":7323:7765   */\n    tag_40:\n        /* \"#utility.yul\":7472:7476   */\n      0x00\n        /* \"#utility.yul\":7510:7512   */\n      0x60\n        /* \"#utility.yul\":7499:7508   */\n      dup3\n        /* \"#utility.yul\":7495:7513   */\n      add\n        /* \"#utility.yul\":7487:7513   */\n      swap1\n      pop\n        /* \"#utility.yul\":7523:7594   */\n      tag_159\n        /* \"#utility.yul\":7591:7592   */\n      0x00\n        /* \"#utility.yul\":7580:7589   */\n      dup4\n        /* \"#utility.yul\":7576:7593   */\n      add\n        /* \"#utility.yul\":7567:7573   */\n      dup7\n        /* \"#utility.yul\":7523:7594   */\n      tag_56\n      jump\t// in\n    tag_159:\n        /* \"#utility.yul\":7604:7676   */\n      tag_160\n        /* \"#utility.yul\":7672:7674   */\n      0x20\n        /* \"#utility.yul\":7661:7670   */\n      dup4\n        /* \"#utility.yul\":7657:7675   */\n      add\n        /* \"#utility.yul\":7648:7654   */\n      dup6\n        /* \"#utility.yul\":7604:7676   */\n      tag_56\n      jump\t// in\n    tag_160:\n        /* \"#utility.yul\":7686:7758   */\n      tag_161\n        /* \"#utility.yul\":7754:7756   */\n      0x40\n        /* \"#utility.yul\":7743:7752   */\n      dup4\n        /* \"#utility.yul\":7739:7757   */\n      add\n        /* \"#utility.yul\":7730:7736   */\n      dup5\n        /* \"#utility.yul\":7686:7758   */\n      tag_56\n      jump\t// in\n    tag_161:\n        /* \"#utility.yul\":7323:7765   */\n      swap5\n      swap4\n      pop\n      pop\n      pop\n      pop\n      jump\t// out\n        /* \"#utility.yul\":7771:8122   */\n    tag_44:\n        /* \"#utility.yul\":7841:7847   */\n      0x00\n        /* \"#utility.yul\":7890:7892   */\n      0x20\n        /* \"#utility.yul\":7878:7887   */\n      dup3\n        /* \"#utility.yul\":7869:7876   */\n      dup5\n        /* \"#utility.yul\":7865:7888   */\n      sub\n        /* \"#utility.yul\":7861:7893   */\n      slt\n        /* \"#utility.yul\":7858:7977   */\n      iszero\n      tag_163\n      jumpi\n        /* \"#utility.yul\":7896:7975   */\n      tag_164\n      tag_46\n      jump\t// in\n    tag_164:\n        /* \"#utility.yul\":7858:7977   */\n    tag_163:\n        /* \"#utility.yul\":8016:8017   */\n      0x00\n        /* \"#utility.yul\":8041:8105   */\n      tag_165\n        /* \"#utility.yul\":8097:8104   */\n      dup5\n        /* \"#utility.yul\":8088:8094   */\n      dup3\n        /* \"#utility.yul\":8077:8086   */\n      dup6\n        /* \"#utility.yul\":8073:8095   */\n      add\n        /* \"#utility.yul\":8041:8105   */\n      tag_70\n      jump\t// in\n    tag_165:\n        /* \"#utility.yul\":8031:8105   */\n      swap2\n      pop\n        /* \"#utility.yul\":7987:8115   */\n      pop\n        /* \"#utility.yul\":7771:8122   */\n      swap3\n      swap2\n      pop\n      pop\n      jump\t// out\n\n    auxdata: 0xa264697066735822122069a6199deef5d3d271a5f7a115a66310db67d47b1ae90ab6a49be85fc104ab5564736f6c63430008110033\n}\n",
				"bytecode": {
					"linkReferences": {},
					"object": "608060405234801561001057600080fd5b50730ca73866dff0f6b0508f5cbb223c857c19463e076000806101000a81548173ffffffffffffffffffffffffffffffffffffffff021916908373ffffffffffffffffffffffffffffffffffffffff160217905550735da88df55af2e5681d33f36e5916d63797bf4766600160006101000a81548173ffffffffffffffffffffffffffffffffffffffff021916908373ffffffffffffffffffffffffffffffffffffffff16021790555061081d806100c96000396000f3fe608060405234801561001057600080fd5b50600436106100415760003560e01c806337b3907614610046578063c45a015514610076578063f887ea4014610094575b600080fd5b610060600480360381019061005b919061049e565b6100b2565b60405161006d9190610500565b60405180910390f35b61007e6103a9565b60405161008b919061057a565b60405180910390f35b61009c6103cd565b6040516100a991906105b6565b60405180910390f35b60008060008054906101000a900473ffffffffffffffffffffffffffffffffffffffff1673ffffffffffffffffffffffffffffffffffffffff1663e6a4390585856040518363ffffffff1660e01b81526004016101109291906105e0565b602060405180830381865afa15801561012d573d6000803e3d6000fd5b505050506040513d601f19601f820116820180604052508101906101519190610635565b9050600073ffffffffffffffffffffffffffffffffffffffff168173ffffffffffffffffffffffffffffffffffffffff16036101c2576040517f08c379a00000000000000000000000000000000000000000000000000000000081526004016101b9906106bf565b60405180910390fd5b60008190506000808273ffffffffffffffffffffffffffffffffffffffff16630902f1ac6040518163ffffffff1660e01b8152600401606060405180830381865afa158015610215573d6000803e3d6000fd5b505050506040513d601f19601f820116820180604052508101906102399190610730565b50915091506000808873ffffffffffffffffffffffffffffffffffffffff168573ffffffffffffffffffffffffffffffffffffffff16630dfe16816040518163ffffffff1660e01b8152600401602060405180830381865afa1580156102a3573d6000803e3d6000fd5b505050506040513d601f19601f820116820180604052508101906102c79190610635565b73ffffffffffffffffffffffffffffffffffffffff16036102ed578391508290506102f4565b8291508390505b6000600160009054906101000a900473ffffffffffffffffffffffffffffffffffffffff1673ffffffffffffffffffffffffffffffffffffffff1663054d50d48c85856040518463ffffffff1660e01b815260040161035593929190610783565b602060405180830381865afa158015610372573d6000803e3d6000fd5b505050506040513d601f19601f8201168201806040525081019061039691906107ba565b9050809750505050505050509392505050565b60008054906101000a900473ffffffffffffffffffffffffffffffffffffffff1681565b600160009054906101000a900473ffffffffffffffffffffffffffffffffffffffff1681565b600080fd5b6000819050919050565b61040b816103f8565b811461041657600080fd5b50565b60008135905061042881610402565b92915050565b600073ffffffffffffffffffffffffffffffffffffffff82169050919050565b60006104598261042e565b9050919050565b600061046b8261044e565b9050919050565b61047b81610460565b811461048657600080fd5b50565b60008135905061049881610472565b92915050565b6000806000606084860312156104b7576104b66103f3565b5b60006104c586828701610419565b93505060206104d686828701610489565b92505060406104e786828701610489565b9150509250925092565b6104fa816103f8565b82525050565b600060208201905061051560008301846104f1565b92915050565b6000819050919050565b600061054061053b6105368461042e565b61051b565b61042e565b9050919050565b600061055282610525565b9050919050565b600061056482610547565b9050919050565b61057481610559565b82525050565b600060208201905061058f600083018461056b565b92915050565b60006105a082610547565b9050919050565b6105b081610595565b82525050565b60006020820190506105cb60008301846105a7565b92915050565b6105da8161044e565b82525050565b60006040820190506105f560008301856105d1565b61060260208301846105d1565b9392505050565b6106128161044e565b811461061d57600080fd5b50565b60008151905061062f81610609565b92915050565b60006020828403121561064b5761064a6103f3565b5b600061065984828501610620565b91505092915050565b600082825260208201905092915050565b7f5061697220646f6573206e6f7420657869737400000000000000000000000000600082015250565b60006106a9601383610662565b91506106b482610673565b602082019050919050565b600060208201905081810360008301526106d88161069c565b9050919050565b6000815190506106ee81610402565b92915050565b600063ffffffff82169050919050565b61070d816106f4565b811461071857600080fd5b50565b60008151905061072a81610704565b92915050565b600080600060608486031215610749576107486103f3565b5b6000610757868287016106df565b9350506020610768868287016106df565b92505060406107798682870161071b565b9150509250925092565b600060608201905061079860008301866104f1565b6107a560208301856104f1565b6107b260408301846104f1565b949350505050565b6000602082840312156107d0576107cf6103f3565b5b60006107de848285016106df565b9150509291505056fea264697066735822122069a6199deef5d3d271a5f7a115a66310db67d47b1ae90ab6a49be85fc104ab5564736f6c63430008110033",
					"opcodes": "PUSH1 0x80 PUSH1 0x40 MSTORE CALLVALUE DUP1 ISZERO PUSH2 0x10 JUMPI PUSH1 0x0 DUP1 REVERT JUMPDEST POP PUSH20 0xCA73866DFF0F6B0508F5CBB223C857C19463E07 PUSH1 0x0 DUP1 PUSH2 0x100 EXP DUP2 SLOAD DUP2 PUSH20 0xFFFFFFFFFFFFFFFFFFFFFFFFFFFFFFFFFFFFFFFF MUL NOT AND SWAP1 DUP4 PUSH20 0xFFFFFFFFFFFFFFFFFFFFFFFFFFFFFFFFFFFFFFFF AND MUL OR SWAP1 SSTORE POP PUSH20 0x5DA88DF55AF2E5681D33F36E5916D63797BF4766 PUSH1 0x1 PUSH1 0x0 PUSH2 0x100 EXP DUP2 SLOAD DUP2 PUSH20 0xFFFFFFFFFFFFFFFFFFFFFFFFFFFFFFFFFFFFFFFF MUL NOT AND SWAP1 DUP4 PUSH20 0xFFFFFFFFFFFFFFFFFFFFFFFFFFFFFFFFFFFFFFFF AND MUL OR SWAP1 SSTORE POP PUSH2 0x81D DUP1 PUSH2 0xC9 PUSH1 0x0 CODECOPY PUSH1 0x0 RETURN INVALID PUSH1 0x80 PUSH1 0x40 MSTORE CALLVALUE DUP1 ISZERO PUSH2 0x10 JUMPI PUSH1 0x0 DUP1 REVERT JUMPDEST POP PUSH1 0x4 CALLDATASIZE LT PUSH2 0x41 JUMPI PUSH1 0x0 CALLDATALOAD PUSH1 0xE0 SHR DUP1 PUSH4 0x37B39076 EQ PUSH2 0x46 JUMPI DUP1 PUSH4 0xC45A0155 EQ PUSH2 0x76 JUMPI DUP1 PUSH4 0xF887EA40 EQ PUSH2 0x94 JUMPI JUMPDEST PUSH1 0x0 DUP1 REVERT JUMPDEST PUSH2 0x60 PUSH1 0x4 DUP1 CALLDATASIZE SUB DUP2 ADD SWAP1 PUSH2 0x5B SWAP2 SWAP1 PUSH2 0x49E JUMP JUMPDEST PUSH2 0xB2 JUMP JUMPDEST PUSH1 0x40 MLOAD PUSH2 0x6D SWAP2 SWAP1 PUSH2 0x500 JUMP JUMPDEST PUSH1 0x40 MLOAD DUP1 SWAP2 SUB SWAP1 RETURN JUMPDEST PUSH2 0x7E PUSH2 0x3A9 JUMP JUMPDEST PUSH1 0x40 MLOAD PUSH2 0x8B SWAP2 SWAP1 PUSH2 0x57A JUMP JUMPDEST PUSH1 0x40 MLOAD DUP1 SWAP2 SUB SWAP1 RETURN JUMPDEST PUSH2 0x9C PUSH2 0x3CD JUMP JUMPDEST PUSH1 0x40 MLOAD PUSH2 0xA9 SWAP2 SWAP1 PUSH2 0x5B6 JUMP JUMPDEST PUSH1 0x40 MLOAD DUP1 SWAP2 SUB SWAP1 RETURN JUMPDEST PUSH1 0x0 DUP1 PUSH1 0x0 DUP1 SLOAD SWAP1 PUSH2 0x100 EXP SWAP1 DIV PUSH20 0xFFFFFFFFFFFFFFFFFFFFFFFFFFFFFFFFFFFFFFFF AND PUSH20 0xFFFFFFFFFFFFFFFFFFFFFFFFFFFFFFFFFFFFFFFF AND PUSH4 0xE6A43905 DUP6 DUP6 PUSH1 0x40 MLOAD DUP4 PUSH4 0xFFFFFFFF AND PUSH1 0xE0 SHL DUP2 MSTORE PUSH1 0x4 ADD PUSH2 0x110 SWAP3 SWAP2 SWAP1 PUSH2 0x5E0 JUMP JUMPDEST PUSH1 0x20 PUSH1 0x40 MLOAD DUP1 DUP4 SUB DUP2 DUP7 GAS STATICCALL ISZERO DUP1 ISZERO PUSH2 0x12D JUMPI RETURNDATASIZE PUSH1 0x0 DUP1 RETURNDATACOPY RETURNDATASIZE PUSH1 0x0 REVERT JUMPDEST POP POP POP POP PUSH1 0x40 MLOAD RETURNDATASIZE PUSH1 0x1F NOT PUSH1 0x1F DUP3 ADD AND DUP3 ADD DUP1 PUSH1 0x40 MSTORE POP DUP2 ADD SWAP1 PUSH2 0x151 SWAP2 SWAP1 PUSH2 0x635 JUMP JUMPDEST SWAP1 POP PUSH1 0x0 PUSH20 0xFFFFFFFFFFFFFFFFFFFFFFFFFFFFFFFFFFFFFFFF AND DUP2 PUSH20 0xFFFFFFFFFFFFFFFFFFFFFFFFFFFFFFFFFFFFFFFF AND SUB PUSH2 0x1C2 JUMPI PUSH1 0x40 MLOAD PUSH32 0x8C379A000000000000000000000000000000000000000000000000000000000 DUP2 MSTORE PUSH1 0x4 ADD PUSH2 0x1B9 SWAP1 PUSH2 0x6BF JUMP JUMPDEST PUSH1 0x40 MLOAD DUP1 SWAP2 SUB SWAP1 REVERT JUMPDEST PUSH1 0x0 DUP2 SWAP1 POP PUSH1 0x0 DUP1 DUP3 PUSH20 0xFFFFFFFFFFFFFFFFFFFFFFFFFFFFFFFFFFFFFFFF AND PUSH4 0x902F1AC PUSH1 0x40 MLOAD DUP2 PUSH4 0xFFFFFFFF AND PUSH1 0xE0 SHL DUP2 MSTORE PUSH1 0x4 ADD PUSH1 0x60 PUSH1 0x40 MLOAD DUP1 DUP4 SUB DUP2 DUP7 GAS STATICCALL ISZERO DUP1 ISZERO PUSH2 0x215 JUMPI RETURNDATASIZE PUSH1 0x0 DUP1 RETURNDATACOPY RETURNDATASIZE PUSH1 0x0 REVERT JUMPDEST POP POP POP POP PUSH1 0x40 MLOAD RETURNDATASIZE PUSH1 0x1F NOT PUSH1 0x1F DUP3 ADD AND DUP3 ADD DUP1 PUSH1 0x40 MSTORE POP DUP2 ADD SWAP1 PUSH2 0x239 SWAP2 SWAP1 PUSH2 0x730 JUMP JUMPDEST POP SWAP2 POP SWAP2 POP PUSH1 0x0 DUP1 DUP9 PUSH20 0xFFFFFFFFFFFFFFFFFFFFFFFFFFFFFFFFFFFFFFFF AND DUP6 PUSH20 0xFFFFFFFFFFFFFFFFFFFFFFFFFFFFFFFFFFFFFFFF AND PUSH4 0xDFE1681 PUSH1 0x40 MLOAD DUP2 PUSH4 0xFFFFFFFF AND PUSH1 0xE0 SHL DUP2 MSTORE PUSH1 0x4 ADD PUSH1 0x20 PUSH1 0x40 MLOAD DUP1 DUP4 SUB DUP2 DUP7 GAS STATICCALL ISZERO DUP1 ISZERO PUSH2 0x2A3 JUMPI RETURNDATASIZE PUSH1 0x0 DUP1 RETURNDATACOPY RETURNDATASIZE PUSH1 0x0 REVERT JUMPDEST POP POP POP POP PUSH1 0x40 MLOAD RETURNDATASIZE PUSH1 0x1F NOT PUSH1 0x1F DUP3 ADD AND DUP3 ADD DUP1 PUSH1 0x40 MSTORE POP DUP2 ADD SWAP1 PUSH2 0x2C7 SWAP2 SWAP1 PUSH2 0x635 JUMP JUMPDEST PUSH20 0xFFFFFFFFFFFFFFFFFFFFFFFFFFFFFFFFFFFFFFFF AND SUB PUSH2 0x2ED JUMPI DUP4 SWAP2 POP DUP3 SWAP1 POP PUSH2 0x2F4 JUMP JUMPDEST DUP3 SWAP2 POP DUP4 SWAP1 POP JUMPDEST PUSH1 0x0 PUSH1 0x1 PUSH1 0x0 SWAP1 SLOAD SWAP1 PUSH2 0x100 EXP SWAP1 DIV PUSH20 0xFFFFFFFFFFFFFFFFFFFFFFFFFFFFFFFFFFFFFFFF AND PUSH20 0xFFFFFFFFFFFFFFFFFFFFFFFFFFFFFFFFFFFFFFFF AND PUSH4 0x54D50D4 DUP13 DUP6 DUP6 PUSH1 0x40 MLOAD DUP5 PUSH4 0xFFFFFFFF AND PUSH1 0xE0 SHL DUP2 MSTORE PUSH1 0x4 ADD PUSH2 0x355 SWAP4 SWAP3 SWAP2 SWAP1 PUSH2 0x783 JUMP JUMPDEST PUSH1 0x20 PUSH1 0x40 MLOAD DUP1 DUP4 SUB DUP2 DUP7 GAS STATICCALL ISZERO DUP1 ISZERO PUSH2 0x372 JUMPI RETURNDATASIZE PUSH1 0x0 DUP1 RETURNDATACOPY RETURNDATASIZE PUSH1 0x0 REVERT JUMPDEST POP POP POP POP PUSH1 0x40 MLOAD RETURNDATASIZE PUSH1 0x1F NOT PUSH1 0x1F DUP3 ADD AND DUP3 ADD DUP1 PUSH1 0x40 MSTORE POP DUP2 ADD SWAP1 PUSH2 0x396 SWAP2 SWAP1 PUSH2 0x7BA JUMP JUMPDEST SWAP1 POP DUP1 SWAP8 POP POP POP POP POP POP POP POP SWAP4 SWAP3 POP POP POP JUMP JUMPDEST PUSH1 0x0 DUP1 SLOAD SWAP1 PUSH2 0x100 EXP SWAP1 DIV PUSH20 0xFFFFFFFFFFFFFFFFFFFFFFFFFFFFFFFFFFFFFFFF AND DUP2 JUMP JUMPDEST PUSH1 0x1 PUSH1 0x0 SWAP1 SLOAD SWAP1 PUSH2 0x100 EXP SWAP1 DIV PUSH20 0xFFFFFFFFFFFFFFFFFFFFFFFFFFFFFFFFFFFFFFFF AND DUP2 JUMP JUMPDEST PUSH1 0x0 DUP1 REVERT JUMPDEST PUSH1 0x0 DUP2 SWAP1 POP SWAP2 SWAP1 POP JUMP JUMPDEST PUSH2 0x40B DUP2 PUSH2 0x3F8 JUMP JUMPDEST DUP2 EQ PUSH2 0x416 JUMPI PUSH1 0x0 DUP1 REVERT JUMPDEST POP JUMP JUMPDEST PUSH1 0x0 DUP2 CALLDATALOAD SWAP1 POP PUSH2 0x428 DUP2 PUSH2 0x402 JUMP JUMPDEST SWAP3 SWAP2 POP POP JUMP JUMPDEST PUSH1 0x0 PUSH20 0xFFFFFFFFFFFFFFFFFFFFFFFFFFFFFFFFFFFFFFFF DUP3 AND SWAP1 POP SWAP2 SWAP1 POP JUMP JUMPDEST PUSH1 0x0 PUSH2 0x459 DUP3 PUSH2 0x42E JUMP JUMPDEST SWAP1 POP SWAP2 SWAP1 POP JUMP JUMPDEST PUSH1 0x0 PUSH2 0x46B DUP3 PUSH2 0x44E JUMP JUMPDEST SWAP1 POP SWAP2 SWAP1 POP JUMP JUMPDEST PUSH2 0x47B DUP2 PUSH2 0x460 JUMP JUMPDEST DUP2 EQ PUSH2 0x486 JUMPI PUSH1 0x0 DUP1 REVERT JUMPDEST POP JUMP JUMPDEST PUSH1 0x0 DUP2 CALLDATALOAD SWAP1 POP PUSH2 0x498 DUP2 PUSH2 0x472 JUMP JUMPDEST SWAP3 SWAP2 POP POP JUMP JUMPDEST PUSH1 0x0 DUP1 PUSH1 0x0 PUSH1 0x60 DUP5 DUP7 SUB SLT ISZERO PUSH2 0x4B7 JUMPI PUSH2 0x4B6 PUSH2 0x3F3 JUMP JUMPDEST JUMPDEST PUSH1 0x0 PUSH2 0x4C5 DUP7 DUP3 DUP8 ADD PUSH2 0x419 JUMP JUMPDEST SWAP4 POP POP PUSH1 0x20 PUSH2 0x4D6 DUP7 DUP3 DUP8 ADD PUSH2 0x489 JUMP JUMPDEST SWAP3 POP POP PUSH1 0x40 PUSH2 0x4E7 DUP7 DUP3 DUP8 ADD PUSH2 0x489 JUMP JUMPDEST SWAP2 POP POP SWAP3 POP SWAP3 POP SWAP3 JUMP JUMPDEST PUSH2 0x4FA DUP2 PUSH2 0x3F8 JUMP JUMPDEST DUP3 MSTORE POP POP JUMP JUMPDEST PUSH1 0x0 PUSH1 0x20 DUP3 ADD SWAP1 POP PUSH2 0x515 PUSH1 0x0 DUP4 ADD DUP5 PUSH2 0x4F1 JUMP JUMPDEST SWAP3 SWAP2 POP POP JUMP JUMPDEST PUSH1 0x0 DUP2 SWAP1 POP SWAP2 SWAP1 POP JUMP JUMPDEST PUSH1 0x0 PUSH2 0x540 PUSH2 0x53B PUSH2 0x536 DUP5 PUSH2 0x42E JUMP JUMPDEST PUSH2 0x51B JUMP JUMPDEST PUSH2 0x42E JUMP JUMPDEST SWAP1 POP SWAP2 SWAP1 POP JUMP JUMPDEST PUSH1 0x0 PUSH2 0x552 DUP3 PUSH2 0x525 JUMP JUMPDEST SWAP1 POP SWAP2 SWAP1 POP JUMP JUMPDEST PUSH1 0x0 PUSH2 0x564 DUP3 PUSH2 0x547 JUMP JUMPDEST SWAP1 POP SWAP2 SWAP1 POP JUMP JUMPDEST PUSH2 0x574 DUP2 PUSH2 0x559 JUMP JUMPDEST DUP3 MSTORE POP POP JUMP JUMPDEST PUSH1 0x0 PUSH1 0x20 DUP3 ADD SWAP1 POP PUSH2 0x58F PUSH1 0x0 DUP4 ADD DUP5 PUSH2 0x56B JUMP JUMPDEST SWAP3 SWAP2 POP POP JUMP JUMPDEST PUSH1 0x0 PUSH2 0x5A0 DUP3 PUSH2 0x547 JUMP JUMPDEST SWAP1 POP SWAP2 SWAP1 POP JUMP JUMPDEST PUSH2 0x5B0 DUP2 PUSH2 0x595 JUMP JUMPDEST DUP3 MSTORE POP POP JUMP JUMPDEST PUSH1 0x0 PUSH1 0x20 DUP3 ADD SWAP1 POP PUSH2 0x5CB PUSH1 0x0 DUP4 ADD DUP5 PUSH2 0x5A7 JUMP JUMPDEST SWAP3 SWAP2 POP POP JUMP JUMPDEST PUSH2 0x5DA DUP2 PUSH2 0x44E JUMP JUMPDEST DUP3 MSTORE POP POP JUMP JUMPDEST PUSH1 0x0 PUSH1 0x40 DUP3 ADD SWAP1 POP PUSH2 0x5F5 PUSH1 0x0 DUP4 ADD DUP6 PUSH2 0x5D1 JUMP JUMPDEST PUSH2 0x602 PUSH1 0x20 DUP4 ADD DUP5 PUSH2 0x5D1 JUMP JUMPDEST SWAP4 SWAP3 POP POP POP JUMP JUMPDEST PUSH2 0x612 DUP2 PUSH2 0x44E JUMP JUMPDEST DUP2 EQ PUSH2 0x61D JUMPI PUSH1 0x0 DUP1 REVERT JUMPDEST POP JUMP JUMPDEST PUSH1 0x0 DUP2 MLOAD SWAP1 POP PUSH2 0x62F DUP2 PUSH2 0x609 JUMP JUMPDEST SWAP3 SWAP2 POP POP JUMP JUMPDEST PUSH1 0x0 PUSH1 0x20 DUP3 DUP5 SUB SLT ISZERO PUSH2 0x64B JUMPI PUSH2 0x64A PUSH2 0x3F3 JUMP JUMPDEST JUMPDEST PUSH1 0x0 PUSH2 0x659 DUP5 DUP3 DUP6 ADD PUSH2 0x620 JUMP JUMPDEST SWAP2 POP POP SWAP3 SWAP2 POP POP JUMP JUMPDEST PUSH1 0x0 DUP3 DUP3 MSTORE PUSH1 0x20 DUP3 ADD SWAP1 POP SWAP3 SWAP2 POP POP JUMP JUMPDEST PUSH32 0x5061697220646F6573206E6F7420657869737400000000000000000000000000 PUSH1 0x0 DUP3 ADD MSTORE POP JUMP JUMPDEST PUSH1 0x0 PUSH2 0x6A9 PUSH1 0x13 DUP4 PUSH2 0x662 JUMP JUMPDEST SWAP2 POP PUSH2 0x6B4 DUP3 PUSH2 0x673 JUMP JUMPDEST PUSH1 0x20 DUP3 ADD SWAP1 POP SWAP2 SWAP1 POP JUMP JUMPDEST PUSH1 0x0 PUSH1 0x20 DUP3 ADD SWAP1 POP DUP2 DUP2 SUB PUSH1 0x0 DUP4 ADD MSTORE PUSH2 0x6D8 DUP2 PUSH2 0x69C JUMP JUMPDEST SWAP1 POP SWAP2 SWAP1 POP JUMP JUMPDEST PUSH1 0x0 DUP2 MLOAD SWAP1 POP PUSH2 0x6EE DUP2 PUSH2 0x402 JUMP JUMPDEST SWAP3 SWAP2 POP POP JUMP JUMPDEST PUSH1 0x0 PUSH4 0xFFFFFFFF DUP3 AND SWAP1 POP SWAP2 SWAP1 POP JUMP JUMPDEST PUSH2 0x70D DUP2 PUSH2 0x6F4 JUMP JUMPDEST DUP2 EQ PUSH2 0x718 JUMPI PUSH1 0x0 DUP1 REVERT JUMPDEST POP JUMP JUMPDEST PUSH1 0x0 DUP2 MLOAD SWAP1 POP PUSH2 0x72A DUP2 PUSH2 0x704 JUMP JUMPDEST SWAP3 SWAP2 POP POP JUMP JUMPDEST PUSH1 0x0 DUP1 PUSH1 0x0 PUSH1 0x60 DUP5 DUP7 SUB SLT ISZERO PUSH2 0x749 JUMPI PUSH2 0x748 PUSH2 0x3F3 JUMP JUMPDEST JUMPDEST PUSH1 0x0 PUSH2 0x757 DUP7 DUP3 DUP8 ADD PUSH2 0x6DF JUMP JUMPDEST SWAP4 POP POP PUSH1 0x20 PUSH2 0x768 DUP7 DUP3 DUP8 ADD PUSH2 0x6DF JUMP JUMPDEST SWAP3 POP POP PUSH1 0x40 PUSH2 0x779 DUP7 DUP3 DUP8 ADD PUSH2 0x71B JUMP JUMPDEST SWAP2 POP POP SWAP3 POP SWAP3 POP SWAP3 JUMP JUMPDEST PUSH1 0x0 PUSH1 0x60 DUP3 ADD SWAP1 POP PUSH2 0x798 PUSH1 0x0 DUP4 ADD DUP7 PUSH2 0x4F1 JUMP JUMPDEST PUSH2 0x7A5 PUSH1 0x20 DUP4 ADD DUP6 PUSH2 0x4F1 JUMP JUMPDEST PUSH2 0x7B2 PUSH1 0x40 DUP4 ADD DUP5 PUSH2 0x4F1 JUMP JUMPDEST SWAP5 SWAP4 POP POP POP POP JUMP JUMPDEST PUSH1 0x0 PUSH1 0x20 DUP3 DUP5 SUB SLT ISZERO PUSH2 0x7D0 JUMPI PUSH2 0x7CF PUSH2 0x3F3 JUMP JUMPDEST JUMPDEST PUSH1 0x0 PUSH2 0x7DE DUP5 DUP3 DUP6 ADD PUSH2 0x6DF JUMP JUMPDEST SWAP2 POP POP SWAP3 SWAP2 POP POP JUMP INVALID LOG2 PUSH5 0x6970667358 0x22 SLT KECCAK256 PUSH10 0xA6199DEEF5D3D271A5F7 LOG1 ISZERO 0xA6 PUSH4 0x10DB67D4 PUSH28 0x1AE90AB6A49BE85FC104AB5564736F6C634300081100330000000000 "
				},
				"gasEstimates": {
					"creation": {
						"codeDepositCost": "415400",
						"executionCost": "48983",
						"totalCost": "464383"
					},
					"external": {
						"factory()": "infinite",
						"getWechselkurs(uint256,address,address)": "infinite",
						"router()": "infinite"
					}
				},
				"methodIdentifiers": {
					"factory()": "c45a0155",
					"getWechselkurs(uint256,address,address)": "37b39076",
					"router()": "f887ea40"
				}
			},
			"storageLayout": {
				"storage": [
					{
						"astId": 635,
						"contract": "solutions.sol:Wechselkurs",
						"label": "factory",
						"offset": 0,
						"slot": "0",
						"type": "t_contract(IFactory)62"
					},
					{
						"astId": 638,
						"contract": "solutions.sol:Wechselkurs",
						"label": "router",
						"offset": 0,
						"slot": "1",
						"type": "t_contract(IRouter)312"
					}
				],
				"types": {
					"t_contract(IFactory)62": {
						"encoding": "inplace",
						"label": "contract IFactory",
						"numberOfBytes": "20"
					},
					"t_contract(IRouter)312": {
						"encoding": "inplace",
						"label": "contract IRouter",
						"numberOfBytes": "20"
					}
				}
			},
			"userdoc": {
				"kind": "user",
				"methods": {},
				"version": 1
			}
		}
	}
}