{
	"solutions.sol": {
		"GetExchangeRate": {
			"abi": [
				{
					"inputs": [],
					"stateMutability": "nonpayable",
					"type": "constructor"
				},
				{
					"inputs": [],
					"name": "ETH",
					"outputs": [
						{
							"internalType": "uint256",
							"name": "",
							"type": "uint256"
						}
					],
					"stateMutability": "view",
					"type": "function"
				},
				{
					"inputs": [
						{
							"internalType": "uint256",
							"name": "",
							"type": "uint256"
						}
					],
					"name": "EXrate",
					"outputs": [
						{
							"internalType": "uint256",
							"name": "",
							"type": "uint256"
						}
					],
					"stateMutability": "view",
					"type": "function"
				},
				{
					"inputs": [],
					"name": "defi",
					"outputs": [
						{
							"internalType": "address",
							"name": "",
							"type": "address"
						}
					],
					"stateMutability": "view",
					"type": "function"
				},
				{
					"inputs": [],
					"name": "factory",
					"outputs": [
						{
							"internalType": "contract IFactory",
							"name": "",
							"type": "address"
						}
					],
					"stateMutability": "view",
					"type": "function"
				},
				{
					"inputs": [],
					"name": "getExRates",
					"outputs": [
						{
							"internalType": "bool",
							"name": "",
							"type": "bool"
						}
					],
					"stateMutability": "nonpayable",
					"type": "function"
				},
				{
					"inputs": [],
					"name": "pairGetter",
					"outputs": [
						{
							"internalType": "contract PairGetter",
							"name": "",
							"type": "address"
						}
					],
					"stateMutability": "view",
					"type": "function"
				},
				{
					"inputs": [],
					"name": "router",
					"outputs": [
						{
							"internalType": "contract IRouter",
							"name": "",
							"type": "address"
						}
					],
					"stateMutability": "view",
					"type": "function"
				},
				{
					"inputs": [],
					"name": "wechselkurs",
					"outputs": [
						{
							"internalType": "contract Wechselkurs",
							"name": "",
							"type": "address"
						}
					],
					"stateMutability": "view",
					"type": "function"
				},
				{
					"inputs": [],
					"name": "weth",
					"outputs": [
						{
							"internalType": "address",
							"name": "",
							"type": "address"
						}
					],
					"stateMutability": "view",
					"type": "function"
				}
			],
			"devdoc": {
				"kind": "dev",
				"methods": {},
				"version": 1
			},
			"evm": {
				"assembly": "    /* \"solutions.sol\":10684:12010  contract GetExchangeRate {... */\n  mstore(0x40, 0x80)\n    /* \"solutions.sol\":10868:10910  0xDE39C89e7A8E3Fc73e1e7f8b2edecD4c7FE62b66 */\n  0xde39c89e7a8e3fc73e1e7f8b2edecd4c7fe62b66\n    /* \"solutions.sol\":10846:10910  address public weth = 0xDE39C89e7A8E3Fc73e1e7f8b2edecD4c7FE62b66 */\n  0x04\n  exp(0x0100, 0x00)\n  dup2\n  sload\n  dup2\n  0xffffffffffffffffffffffffffffffffffffffff\n  mul\n  not\n  and\n  swap1\n  dup4\n  0xffffffffffffffffffffffffffffffffffffffff\n  and\n  mul\n  or\n  swap1\n  sstore\n  pop\n    /* \"solutions.sol\":10939:10981  0xE5873093edA4e64b77C80186aDC5be024444fcbd */\n  0xe5873093eda4e64b77c80186adc5be024444fcbd\n    /* \"solutions.sol\":10917:10981  address public defi = 0xE5873093edA4e64b77C80186aDC5be024444fcbd */\n  0x05\n  exp(0x0100, 0x00)\n  dup2\n  sload\n  dup2\n  0xffffffffffffffffffffffffffffffffffffffff\n  mul\n  not\n  and\n  swap1\n  dup4\n  0xffffffffffffffffffffffffffffffffffffffff\n  and\n  mul\n  or\n  swap1\n  sstore\n  pop\n    /* \"solutions.sol\":11009:11016  1 ether */\n  0x0de0b6b3a7640000\n    /* \"solutions.sol\":10988:11016  uint256 public ETH = 1 ether */\n  0x06\n  sstore\n    /* \"solutions.sol\":11055:11386  constructor() {... */\n  callvalue\n  dup1\n  iszero\n  tag_1\n  jumpi\n  0x00\n  dup1\n  revert\ntag_1:\n  pop\n    /* \"solutions.sol\":11099:11141  0x0Ca73866dFf0f6b0508F5Cbb223C857C19463e07 */\n  0x0ca73866dff0f6b0508f5cbb223c857c19463e07\n    /* \"solutions.sol\":11080:11087  factory */\n  0x01\n  0x00\n    /* \"solutions.sol\":11080:11142  factory = IFactory(0x0Ca73866dFf0f6b0508F5Cbb223C857C19463e07) */\n  0x0100\n  exp\n  dup2\n  sload\n  dup2\n  0xffffffffffffffffffffffffffffffffffffffff\n  mul\n  not\n  and\n  swap1\n  dup4\n  0xffffffffffffffffffffffffffffffffffffffff\n  and\n  mul\n  or\n  swap1\n  sstore\n  pop\n    /* \"solutions.sol\":11170:11212  0x5DA88dF55AF2E5681D33f36e5916d63797BF4766 */\n  0x5da88df55af2e5681d33f36e5916d63797bf4766\n    /* \"solutions.sol\":11153:11159  router */\n  0x02\n  0x00\n    /* \"solutions.sol\":11153:11213  router = IRouter(0x5DA88dF55AF2E5681D33f36e5916d63797BF4766) */\n  0x0100\n  exp\n  dup2\n  sload\n  dup2\n  0xffffffffffffffffffffffffffffffffffffffff\n  mul\n  not\n  and\n  swap1\n  dup4\n  0xffffffffffffffffffffffffffffffffffffffff\n  and\n  mul\n  or\n  swap1\n  sstore\n  pop\n    /* \"solutions.sol\":11255:11297  0x92721e164A5848C0071d6Be7D4c4B11d7932e0aF */\n  0x92721e164a5848c0071d6be7d4c4b11d7932e0af\n    /* \"solutions.sol\":11231:11241  pairGetter */\n  0x00\n  dup1\n    /* \"solutions.sol\":11231:11298  pairGetter = PairGetter(0x92721e164A5848C0071d6Be7D4c4B11d7932e0aF) */\n  0x0100\n  exp\n  dup2\n  sload\n  dup2\n  0xffffffffffffffffffffffffffffffffffffffff\n  mul\n  not\n  and\n  swap1\n  dup4\n  0xffffffffffffffffffffffffffffffffffffffff\n  and\n  mul\n  or\n  swap1\n  sstore\n  pop\n    /* \"solutions.sol\":11335:11377  0x8a968C762063170cBBB3eac00F530cB425D5806F */\n  0x8a968c762063170cbbb3eac00f530cb425d5806f\n    /* \"solutions.sol\":11309:11320  wechselkurs */\n  0x03\n  0x00\n    /* \"solutions.sol\":11309:11378  wechselkurs = Wechselkurs(0x8a968C762063170cBBB3eac00F530cB425D5806F) */\n  0x0100\n  exp\n  dup2\n  sload\n  dup2\n  0xffffffffffffffffffffffffffffffffffffffff\n  mul\n  not\n  and\n  swap1\n  dup4\n  0xffffffffffffffffffffffffffffffffffffffff\n  and\n  mul\n  or\n  swap1\n  sstore\n  pop\n    /* \"solutions.sol\":10684:12010  contract GetExchangeRate {... */\n  dataSize(sub_0)\n  dup1\n  dataOffset(sub_0)\n  0x00\n  codecopy\n  0x00\n  return\nstop\n\nsub_0: assembly {\n        /* \"solutions.sol\":10684:12010  contract GetExchangeRate {... */\n      mstore(0x40, 0x80)\n      callvalue\n      dup1\n      iszero\n      tag_1\n      jumpi\n      0x00\n      dup1\n      revert\n    tag_1:\n      pop\n      jumpi(tag_2, lt(calldatasize, 0x04))\n      shr(0xe0, calldataload(0x00))\n      dup1\n      0x8322fff2\n      gt\n      tag_12\n      jumpi\n      dup1\n      0x8322fff2\n      eq\n      tag_7\n      jumpi\n      dup1\n      0xc45a0155\n      eq\n      tag_8\n      jumpi\n      dup1\n      0xc95097b1\n      eq\n      tag_9\n      jumpi\n      dup1\n      0xc985395d\n      eq\n      tag_10\n      jumpi\n      dup1\n      0xf887ea40\n      eq\n      tag_11\n      jumpi\n      jump(tag_2)\n    tag_12:\n      dup1\n      0x38c0f073\n      eq\n      tag_3\n      jumpi\n      dup1\n      0x3fc8cef3\n      eq\n      tag_4\n      jumpi\n      dup1\n      0x57bc8be3\n      eq\n      tag_5\n      jumpi\n      dup1\n      0x7a7beed3\n      eq\n      tag_6\n      jumpi\n    tag_2:\n      0x00\n      dup1\n      revert\n        /* \"solutions.sol\":10917:10981  address public defi = 0xE5873093edA4e64b77C80186aDC5be024444fcbd */\n    tag_3:\n      tag_13\n      tag_14\n      jump\t// in\n    tag_13:\n      mload(0x40)\n      tag_15\n      swap2\n      swap1\n      tag_16\n      jump\t// in\n    tag_15:\n      mload(0x40)\n      dup1\n      swap2\n      sub\n      swap1\n      return\n        /* \"solutions.sol\":10846:10910  address public weth = 0xDE39C89e7A8E3Fc73e1e7f8b2edecD4c7FE62b66 */\n    tag_4:\n      tag_17\n      tag_18\n      jump\t// in\n    tag_17:\n      mload(0x40)\n      tag_19\n      swap2\n      swap1\n      tag_16\n      jump\t// in\n    tag_19:\n      mload(0x40)\n      dup1\n      swap2\n      sub\n      swap1\n      return\n        /* \"solutions.sol\":11023:11046  uint256[] public EXrate */\n    tag_5:\n      tag_20\n      0x04\n      dup1\n      calldatasize\n      sub\n      dup2\n      add\n      swap1\n      tag_21\n      swap2\n      swap1\n      tag_22\n      jump\t// in\n    tag_21:\n      tag_23\n      jump\t// in\n    tag_20:\n      mload(0x40)\n      tag_24\n      swap2\n      swap1\n      tag_25\n      jump\t// in\n    tag_24:\n      mload(0x40)\n      dup1\n      swap2\n      sub\n      swap1\n      return\n        /* \"solutions.sol\":10716:10744  PairGetter public pairGetter */\n    tag_6:\n      tag_26\n      tag_27\n      jump\t// in\n    tag_26:\n      mload(0x40)\n      tag_28\n      swap2\n      swap1\n      tag_29\n      jump\t// in\n    tag_28:\n      mload(0x40)\n      dup1\n      swap2\n      sub\n      swap1\n      return\n        /* \"solutions.sol\":10988:11016  uint256 public ETH = 1 ether */\n    tag_7:\n      tag_30\n      tag_31\n      jump\t// in\n    tag_30:\n      mload(0x40)\n      tag_32\n      swap2\n      swap1\n      tag_25\n      jump\t// in\n    tag_32:\n      mload(0x40)\n      dup1\n      swap2\n      sub\n      swap1\n      return\n        /* \"solutions.sol\":10751:10774  IFactory public factory */\n    tag_8:\n      tag_33\n      tag_34\n      jump\t// in\n    tag_33:\n      mload(0x40)\n      tag_35\n      swap2\n      swap1\n      tag_36\n      jump\t// in\n    tag_35:\n      mload(0x40)\n      dup1\n      swap2\n      sub\n      swap1\n      return\n        /* \"solutions.sol\":11394:12007  function getExRates() public returns (bool) {... */\n    tag_9:\n      tag_37\n      tag_38\n      jump\t// in\n    tag_37:\n      mload(0x40)\n      tag_39\n      swap2\n      swap1\n      tag_40\n      jump\t// in\n    tag_39:\n      mload(0x40)\n      dup1\n      swap2\n      sub\n      swap1\n      return\n        /* \"solutions.sol\":10809:10839  Wechselkurs public wechselkurs */\n    tag_10:\n      tag_41\n      tag_42\n      jump\t// in\n    tag_41:\n      mload(0x40)\n      tag_43\n      swap2\n      swap1\n      tag_44\n      jump\t// in\n    tag_43:\n      mload(0x40)\n      dup1\n      swap2\n      sub\n      swap1\n      return\n        /* \"solutions.sol\":10781:10802  IRouter public router */\n    tag_11:\n      tag_45\n      tag_46\n      jump\t// in\n    tag_45:\n      mload(0x40)\n      tag_47\n      swap2\n      swap1\n      tag_48\n      jump\t// in\n    tag_47:\n      mload(0x40)\n      dup1\n      swap2\n      sub\n      swap1\n      return\n        /* \"solutions.sol\":10917:10981  address public defi = 0xE5873093edA4e64b77C80186aDC5be024444fcbd */\n    tag_14:\n      0x05\n      0x00\n      swap1\n      sload\n      swap1\n      0x0100\n      exp\n      swap1\n      div\n      0xffffffffffffffffffffffffffffffffffffffff\n      and\n      dup2\n      jump\t// out\n        /* \"solutions.sol\":10846:10910  address public weth = 0xDE39C89e7A8E3Fc73e1e7f8b2edecD4c7FE62b66 */\n    tag_18:\n      0x04\n      0x00\n      swap1\n      sload\n      swap1\n      0x0100\n      exp\n      swap1\n      div\n      0xffffffffffffffffffffffffffffffffffffffff\n      and\n      dup2\n      jump\t// out\n        /* \"solutions.sol\":11023:11046  uint256[] public EXrate */\n    tag_23:\n      0x07\n      dup2\n      dup2\n      sload\n      dup2\n      lt\n      tag_49\n      jumpi\n      0x00\n      dup1\n      revert\n    tag_49:\n      swap1\n      0x00\n      mstore\n      keccak256(0x00, 0x20)\n      add\n      0x00\n      swap2\n      pop\n      swap1\n      pop\n      sload\n      dup2\n      jump\t// out\n        /* \"solutions.sol\":10716:10744  PairGetter public pairGetter */\n    tag_27:\n      0x00\n      dup1\n      sload\n      swap1\n      0x0100\n      exp\n      swap1\n      div\n      0xffffffffffffffffffffffffffffffffffffffff\n      and\n      dup2\n      jump\t// out\n        /* \"solutions.sol\":10988:11016  uint256 public ETH = 1 ether */\n    tag_31:\n      sload(0x06)\n      dup2\n      jump\t// out\n        /* \"solutions.sol\":10751:10774  IFactory public factory */\n    tag_34:\n      0x01\n      0x00\n      swap1\n      sload\n      swap1\n      0x0100\n      exp\n      swap1\n      div\n      0xffffffffffffffffffffffffffffffffffffffff\n      and\n      dup2\n      jump\t// out\n        /* \"solutions.sol\":11394:12007  function getExRates() public returns (bool) {... */\n    tag_38:\n        /* \"solutions.sol\":11432:11436  bool */\n      0x00\n        /* \"solutions.sol\":11449:11460  uint256 ind */\n      dup1\n        /* \"solutions.sol\":11463:11473  pairGetter */\n      0x00\n      dup1\n      sload\n      swap1\n      0x0100\n      exp\n      swap1\n      div\n      0xffffffffffffffffffffffffffffffffffffffff\n      and\n        /* \"solutions.sol\":11463:11477  pairGetter.ind */\n      0xffffffffffffffffffffffffffffffffffffffff\n      and\n      0x240e5b58\n        /* \"solutions.sol\":11463:11479  pairGetter.ind() */\n      mload(0x40)\n      dup2\n      0xffffffff\n      and\n      0xe0\n      shl\n      dup2\n      mstore\n      0x04\n      add\n      0x20\n      mload(0x40)\n      dup1\n      dup4\n      sub\n      dup2\n      dup7\n      gas\n      staticcall\n      iszero\n      dup1\n      iszero\n      tag_53\n      jumpi\n      returndatasize\n      0x00\n      dup1\n      returndatacopy\n      revert(0x00, returndatasize)\n    tag_53:\n      pop\n      pop\n      pop\n      pop\n      mload(0x40)\n      returndatasize\n      not(0x1f)\n      0x1f\n      dup3\n      add\n      and\n      dup3\n      add\n      dup1\n      0x40\n      mstore\n      pop\n      dup2\n      add\n      swap1\n      tag_54\n      swap2\n      swap1\n      tag_55\n      jump\t// in\n    tag_54:\n        /* \"solutions.sol\":11449:11479  uint256 ind = pairGetter.ind() */\n      swap1\n      pop\n        /* \"solutions.sol\":11533:11542  uint256 i */\n      0x00\n        /* \"solutions.sol\":11528:11978  for (uint256 i = 0; i < ind; i++) {... */\n    tag_56:\n        /* \"solutions.sol\":11552:11555  ind */\n      dup2\n        /* \"solutions.sol\":11548:11549  i */\n      dup2\n        /* \"solutions.sol\":11548:11555  i < ind */\n      lt\n        /* \"solutions.sol\":11528:11978  for (uint256 i = 0; i < ind; i++) {... */\n      iszero\n      tag_57\n      jumpi\n        /* \"solutions.sol\":11591:11609  address middleCoin */\n      0x00\n        /* \"solutions.sol\":11612:11622  pairGetter */\n      dup1\n      0x00\n      swap1\n      sload\n      swap1\n      0x0100\n      exp\n      swap1\n      div\n      0xffffffffffffffffffffffffffffffffffffffff\n      and\n        /* \"solutions.sol\":11612:11638  pairGetter.uniqueAddresses */\n      0xffffffffffffffffffffffffffffffffffffffff\n      and\n      0x8e75b5e6\n        /* \"solutions.sol\":11639:11640  i */\n      dup4\n        /* \"solutions.sol\":11612:11641  pairGetter.uniqueAddresses(i) */\n      mload(0x40)\n      dup3\n      0xffffffff\n      and\n      0xe0\n      shl\n      dup2\n      mstore\n      0x04\n      add\n      tag_59\n      swap2\n      swap1\n      tag_25\n      jump\t// in\n    tag_59:\n      0x20\n      mload(0x40)\n      dup1\n      dup4\n      sub\n      dup2\n      dup7\n      gas\n      staticcall\n      iszero\n      dup1\n      iszero\n      tag_61\n      jumpi\n      returndatasize\n      0x00\n      dup1\n      returndatacopy\n      revert(0x00, returndatasize)\n    tag_61:\n      pop\n      pop\n      pop\n      pop\n      mload(0x40)\n      returndatasize\n      not(0x1f)\n      0x1f\n      dup3\n      add\n      and\n      dup3\n      add\n      dup1\n      0x40\n      mstore\n      pop\n      dup2\n      add\n      swap1\n      tag_62\n      swap2\n      swap1\n      tag_63\n      jump\t// in\n    tag_62:\n        /* \"solutions.sol\":11591:11641  address middleCoin = pairGetter.uniqueAddresses(i) */\n      swap1\n      pop\n        /* \"solutions.sol\":11681:11682  0 */\n      0x00\n        /* \"solutions.sol\":11661:11683  middleCoin!=address(0) */\n      0xffffffffffffffffffffffffffffffffffffffff\n      and\n        /* \"solutions.sol\":11661:11671  middleCoin */\n      dup2\n        /* \"solutions.sol\":11661:11683  middleCoin!=address(0) */\n      0xffffffffffffffffffffffffffffffffffffffff\n      and\n      eq\n        /* \"solutions.sol\":11658:11967  if(middleCoin!=address(0)){... */\n      tag_64\n      jumpi\n        /* \"solutions.sol\":11699:11710  uint256 ex1 */\n      0x00\n        /* \"solutions.sol\":11713:11724  wechselkurs */\n      0x03\n      0x00\n      swap1\n      sload\n      swap1\n      0x0100\n      exp\n      swap1\n      div\n      0xffffffffffffffffffffffffffffffffffffffff\n      and\n        /* \"solutions.sol\":11713:11739  wechselkurs.getWechselkurs */\n      0xffffffffffffffffffffffffffffffffffffffff\n      and\n      0x37b39076\n        /* \"solutions.sol\":11740:11743  ETH */\n      sload(0x06)\n        /* \"solutions.sol\":11752:11756  weth */\n      0x04\n      0x00\n      swap1\n      sload\n      swap1\n      0x0100\n      exp\n      swap1\n      div\n      0xffffffffffffffffffffffffffffffffffffffff\n      and\n        /* \"solutions.sol\":11766:11776  middleCoin */\n      dup6\n        /* \"solutions.sol\":11713:11778  wechselkurs.getWechselkurs(ETH, IERC20(weth), IERC20(middleCoin)) */\n      mload(0x40)\n      dup5\n      0xffffffff\n      and\n      0xe0\n      shl\n      dup2\n      mstore\n      0x04\n      add\n      tag_65\n      swap4\n      swap3\n      swap2\n      swap1\n      tag_66\n      jump\t// in\n    tag_65:\n      0x20\n      mload(0x40)\n      dup1\n      dup4\n      sub\n      dup2\n      dup7\n      gas\n      staticcall\n      iszero\n      dup1\n      iszero\n      tag_68\n      jumpi\n      returndatasize\n      0x00\n      dup1\n      returndatacopy\n      revert(0x00, returndatasize)\n    tag_68:\n      pop\n      pop\n      pop\n      pop\n      mload(0x40)\n      returndatasize\n      not(0x1f)\n      0x1f\n      dup3\n      add\n      and\n      dup3\n      add\n      dup1\n      0x40\n      mstore\n      pop\n      dup2\n      add\n      swap1\n      tag_69\n      swap2\n      swap1\n      tag_55\n      jump\t// in\n    tag_69:\n        /* \"solutions.sol\":11699:11778  uint256 ex1 = wechselkurs.getWechselkurs(ETH, IERC20(weth), IERC20(middleCoin)) */\n      swap1\n      pop\n        /* \"solutions.sol\":11801:11802  0 */\n      0x00\n        /* \"solutions.sol\":11796:11799  ex1 */\n      dup2\n        /* \"solutions.sol\":11796:11802  ex1!=0 */\n      eq\n        /* \"solutions.sol\":11793:11952  if(ex1!=0){... */\n      tag_70\n      jumpi\n        /* \"solutions.sol\":11822:11833  uint256 ex2 */\n      0x00\n        /* \"solutions.sol\":11836:11847  wechselkurs */\n      0x03\n      0x00\n      swap1\n      sload\n      swap1\n      0x0100\n      exp\n      swap1\n      div\n      0xffffffffffffffffffffffffffffffffffffffff\n      and\n        /* \"solutions.sol\":11836:11862  wechselkurs.getWechselkurs */\n      0xffffffffffffffffffffffffffffffffffffffff\n      and\n      0x37b39076\n        /* \"solutions.sol\":11863:11866  ex1 */\n      dup4\n        /* \"solutions.sol\":11875:11885  middleCoin */\n      dup6\n        /* \"solutions.sol\":11895:11899  defi */\n      0x05\n      0x00\n      swap1\n      sload\n      swap1\n      0x0100\n      exp\n      swap1\n      div\n      0xffffffffffffffffffffffffffffffffffffffff\n      and\n        /* \"solutions.sol\":11836:11901  wechselkurs.getWechselkurs(ex1, IERC20(middleCoin), IERC20(defi)) */\n      mload(0x40)\n      dup5\n      0xffffffff\n      and\n      0xe0\n      shl\n      dup2\n      mstore\n      0x04\n      add\n      tag_71\n      swap4\n      swap3\n      swap2\n      swap1\n      tag_66\n      jump\t// in\n    tag_71:\n      0x20\n      mload(0x40)\n      dup1\n      dup4\n      sub\n      dup2\n      dup7\n      gas\n      staticcall\n      iszero\n      dup1\n      iszero\n      tag_73\n      jumpi\n      returndatasize\n      0x00\n      dup1\n      returndatacopy\n      revert(0x00, returndatasize)\n    tag_73:\n      pop\n      pop\n      pop\n      pop\n      mload(0x40)\n      returndatasize\n      not(0x1f)\n      0x1f\n      dup3\n      add\n      and\n      dup3\n      add\n      dup1\n      0x40\n      mstore\n      pop\n      dup2\n      add\n      swap1\n      tag_74\n      swap2\n      swap1\n      tag_55\n      jump\t// in\n    tag_74:\n        /* \"solutions.sol\":11822:11901  uint256 ex2 = wechselkurs.getWechselkurs(ex1, IERC20(middleCoin), IERC20(defi)) */\n      swap1\n      pop\n        /* \"solutions.sol\":11920:11926  EXrate */\n      0x07\n        /* \"solutions.sol\":11932:11935  ex2 */\n      dup2\n        /* \"solutions.sol\":11920:11936  EXrate.push(ex2) */\n      swap1\n      dup1\n      0x01\n      dup2\n      sload\n      add\n      dup1\n      dup3\n      sstore\n      dup1\n      swap2\n      pop\n      pop\n      0x01\n      swap1\n      sub\n      swap1\n      0x00\n      mstore\n      keccak256(0x00, 0x20)\n      add\n      0x00\n      swap1\n      swap2\n      swap1\n      swap2\n      swap1\n      swap2\n      pop\n      sstore\n        /* \"solutions.sol\":11803:11952  {... */\n      pop\n        /* \"solutions.sol\":11793:11952  if(ex1!=0){... */\n    tag_70:\n        /* \"solutions.sol\":11684:11967  {... */\n      pop\n        /* \"solutions.sol\":11658:11967  if(middleCoin!=address(0)){... */\n    tag_64:\n        /* \"solutions.sol\":11562:11978  {... */\n      pop\n        /* \"solutions.sol\":11557:11560  i++ */\n      dup1\n      dup1\n      tag_76\n      swap1\n      tag_77\n      jump\t// in\n    tag_76:\n      swap2\n      pop\n      pop\n        /* \"solutions.sol\":11528:11978  for (uint256 i = 0; i < ind; i++) {... */\n      jump(tag_56)\n    tag_57:\n      pop\n        /* \"solutions.sol\":11995:11999  true */\n      0x01\n        /* \"solutions.sol\":11988:11999  return true */\n      swap2\n      pop\n      pop\n        /* \"solutions.sol\":11394:12007  function getExRates() public returns (bool) {... */\n      swap1\n      jump\t// out\n        /* \"solutions.sol\":10809:10839  Wechselkurs public wechselkurs */\n    tag_42:\n      0x03\n      0x00\n      swap1\n      sload\n      swap1\n      0x0100\n      exp\n      swap1\n      div\n      0xffffffffffffffffffffffffffffffffffffffff\n      and\n      dup2\n      jump\t// out\n        /* \"solutions.sol\":10781:10802  IRouter public router */\n    tag_46:\n      0x02\n      0x00\n      swap1\n      sload\n      swap1\n      0x0100\n      exp\n      swap1\n      div\n      0xffffffffffffffffffffffffffffffffffffffff\n      and\n      dup2\n      jump\t// out\n        /* \"#utility.yul\":7:133   */\n    tag_78:\n        /* \"#utility.yul\":44:51   */\n      0x00\n        /* \"#utility.yul\":84:126   */\n      0xffffffffffffffffffffffffffffffffffffffff\n        /* \"#utility.yul\":77:82   */\n      dup3\n        /* \"#utility.yul\":73:127   */\n      and\n        /* \"#utility.yul\":62:127   */\n      swap1\n      pop\n        /* \"#utility.yul\":7:133   */\n      swap2\n      swap1\n      pop\n      jump\t// out\n        /* \"#utility.yul\":139:235   */\n    tag_79:\n        /* \"#utility.yul\":176:183   */\n      0x00\n        /* \"#utility.yul\":205:229   */\n      tag_110\n        /* \"#utility.yul\":223:228   */\n      dup3\n        /* \"#utility.yul\":205:229   */\n      tag_78\n      jump\t// in\n    tag_110:\n        /* \"#utility.yul\":194:229   */\n      swap1\n      pop\n        /* \"#utility.yul\":139:235   */\n      swap2\n      swap1\n      pop\n      jump\t// out\n        /* \"#utility.yul\":241:359   */\n    tag_80:\n        /* \"#utility.yul\":328:352   */\n      tag_112\n        /* \"#utility.yul\":346:351   */\n      dup2\n        /* \"#utility.yul\":328:352   */\n      tag_79\n      jump\t// in\n    tag_112:\n        /* \"#utility.yul\":323:326   */\n      dup3\n        /* \"#utility.yul\":316:353   */\n      mstore\n        /* \"#utility.yul\":241:359   */\n      pop\n      pop\n      jump\t// out\n        /* \"#utility.yul\":365:587   */\n    tag_16:\n        /* \"#utility.yul\":458:462   */\n      0x00\n        /* \"#utility.yul\":496:498   */\n      0x20\n        /* \"#utility.yul\":485:494   */\n      dup3\n        /* \"#utility.yul\":481:499   */\n      add\n        /* \"#utility.yul\":473:499   */\n      swap1\n      pop\n        /* \"#utility.yul\":509:580   */\n      tag_114\n        /* \"#utility.yul\":577:578   */\n      0x00\n        /* \"#utility.yul\":566:575   */\n      dup4\n        /* \"#utility.yul\":562:579   */\n      add\n        /* \"#utility.yul\":553:559   */\n      dup5\n        /* \"#utility.yul\":509:580   */\n      tag_80\n      jump\t// in\n    tag_114:\n        /* \"#utility.yul\":365:587   */\n      swap3\n      swap2\n      pop\n      pop\n      jump\t// out\n        /* \"#utility.yul\":674:791   */\n    tag_82:\n        /* \"#utility.yul\":783:784   */\n      0x00\n        /* \"#utility.yul\":780:781   */\n      dup1\n        /* \"#utility.yul\":773:785   */\n      revert\n        /* \"#utility.yul\":920:997   */\n    tag_84:\n        /* \"#utility.yul\":957:964   */\n      0x00\n        /* \"#utility.yul\":986:991   */\n      dup2\n        /* \"#utility.yul\":975:991   */\n      swap1\n      pop\n        /* \"#utility.yul\":920:997   */\n      swap2\n      swap1\n      pop\n      jump\t// out\n        /* \"#utility.yul\":1003:1125   */\n    tag_85:\n        /* \"#utility.yul\":1076:1100   */\n      tag_120\n        /* \"#utility.yul\":1094:1099   */\n      dup2\n        /* \"#utility.yul\":1076:1100   */\n      tag_84\n      jump\t// in\n    tag_120:\n        /* \"#utility.yul\":1069:1074   */\n      dup2\n        /* \"#utility.yul\":1066:1101   */\n      eq\n        /* \"#utility.yul\":1056:1119   */\n      tag_121\n      jumpi\n        /* \"#utility.yul\":1115:1116   */\n      0x00\n        /* \"#utility.yul\":1112:1113   */\n      dup1\n        /* \"#utility.yul\":1105:1117   */\n      revert\n        /* \"#utility.yul\":1056:1119   */\n    tag_121:\n        /* \"#utility.yul\":1003:1125   */\n      pop\n      jump\t// out\n        /* \"#utility.yul\":1131:1270   */\n    tag_86:\n        /* \"#utility.yul\":1177:1182   */\n      0x00\n        /* \"#utility.yul\":1215:1221   */\n      dup2\n        /* \"#utility.yul\":1202:1222   */\n      calldataload\n        /* \"#utility.yul\":1193:1222   */\n      swap1\n      pop\n        /* \"#utility.yul\":1231:1264   */\n      tag_123\n        /* \"#utility.yul\":1258:1263   */\n      dup2\n        /* \"#utility.yul\":1231:1264   */\n      tag_85\n      jump\t// in\n    tag_123:\n        /* \"#utility.yul\":1131:1270   */\n      swap3\n      swap2\n      pop\n      pop\n      jump\t// out\n        /* \"#utility.yul\":1276:1605   */\n    tag_22:\n        /* \"#utility.yul\":1335:1341   */\n      0x00\n        /* \"#utility.yul\":1384:1386   */\n      0x20\n        /* \"#utility.yul\":1372:1381   */\n      dup3\n        /* \"#utility.yul\":1363:1370   */\n      dup5\n        /* \"#utility.yul\":1359:1382   */\n      sub\n        /* \"#utility.yul\":1355:1387   */\n      slt\n        /* \"#utility.yul\":1352:1471   */\n      iszero\n      tag_125\n      jumpi\n        /* \"#utility.yul\":1390:1469   */\n      tag_126\n      tag_82\n      jump\t// in\n    tag_126:\n        /* \"#utility.yul\":1352:1471   */\n    tag_125:\n        /* \"#utility.yul\":1510:1511   */\n      0x00\n        /* \"#utility.yul\":1535:1588   */\n      tag_127\n        /* \"#utility.yul\":1580:1587   */\n      dup5\n        /* \"#utility.yul\":1571:1577   */\n      dup3\n        /* \"#utility.yul\":1560:1569   */\n      dup6\n        /* \"#utility.yul\":1556:1578   */\n      add\n        /* \"#utility.yul\":1535:1588   */\n      tag_86\n      jump\t// in\n    tag_127:\n        /* \"#utility.yul\":1525:1588   */\n      swap2\n      pop\n        /* \"#utility.yul\":1481:1598   */\n      pop\n        /* \"#utility.yul\":1276:1605   */\n      swap3\n      swap2\n      pop\n      pop\n      jump\t// out\n        /* \"#utility.yul\":1611:1729   */\n    tag_87:\n        /* \"#utility.yul\":1698:1722   */\n      tag_129\n        /* \"#utility.yul\":1716:1721   */\n      dup2\n        /* \"#utility.yul\":1698:1722   */\n      tag_84\n      jump\t// in\n    tag_129:\n        /* \"#utility.yul\":1693:1696   */\n      dup3\n        /* \"#utility.yul\":1686:1723   */\n      mstore\n        /* \"#utility.yul\":1611:1729   */\n      pop\n      pop\n      jump\t// out\n        /* \"#utility.yul\":1735:1957   */\n    tag_25:\n        /* \"#utility.yul\":1828:1832   */\n      0x00\n        /* \"#utility.yul\":1866:1868   */\n      0x20\n        /* \"#utility.yul\":1855:1864   */\n      dup3\n        /* \"#utility.yul\":1851:1869   */\n      add\n        /* \"#utility.yul\":1843:1869   */\n      swap1\n      pop\n        /* \"#utility.yul\":1879:1950   */\n      tag_131\n        /* \"#utility.yul\":1947:1948   */\n      0x00\n        /* \"#utility.yul\":1936:1945   */\n      dup4\n        /* \"#utility.yul\":1932:1949   */\n      add\n        /* \"#utility.yul\":1923:1929   */\n      dup5\n        /* \"#utility.yul\":1879:1950   */\n      tag_87\n      jump\t// in\n    tag_131:\n        /* \"#utility.yul\":1735:1957   */\n      swap3\n      swap2\n      pop\n      pop\n      jump\t// out\n        /* \"#utility.yul\":1963:2023   */\n    tag_88:\n        /* \"#utility.yul\":1991:1994   */\n      0x00\n        /* \"#utility.yul\":2012:2017   */\n      dup2\n        /* \"#utility.yul\":2005:2017   */\n      swap1\n      pop\n        /* \"#utility.yul\":1963:2023   */\n      swap2\n      swap1\n      pop\n      jump\t// out\n        /* \"#utility.yul\":2029:2171   */\n    tag_89:\n        /* \"#utility.yul\":2079:2088   */\n      0x00\n        /* \"#utility.yul\":2112:2165   */\n      tag_134\n        /* \"#utility.yul\":2130:2164   */\n      tag_135\n        /* \"#utility.yul\":2139:2163   */\n      tag_136\n        /* \"#utility.yul\":2157:2162   */\n      dup5\n        /* \"#utility.yul\":2139:2163   */\n      tag_78\n      jump\t// in\n    tag_136:\n        /* \"#utility.yul\":2130:2164   */\n      tag_88\n      jump\t// in\n    tag_135:\n        /* \"#utility.yul\":2112:2165   */\n      tag_78\n      jump\t// in\n    tag_134:\n        /* \"#utility.yul\":2099:2165   */\n      swap1\n      pop\n        /* \"#utility.yul\":2029:2171   */\n      swap2\n      swap1\n      pop\n      jump\t// out\n        /* \"#utility.yul\":2177:2303   */\n    tag_90:\n        /* \"#utility.yul\":2227:2236   */\n      0x00\n        /* \"#utility.yul\":2260:2297   */\n      tag_138\n        /* \"#utility.yul\":2291:2296   */\n      dup3\n        /* \"#utility.yul\":2260:2297   */\n      tag_89\n      jump\t// in\n    tag_138:\n        /* \"#utility.yul\":2247:2297   */\n      swap1\n      pop\n        /* \"#utility.yul\":2177:2303   */\n      swap2\n      swap1\n      pop\n      jump\t// out\n        /* \"#utility.yul\":2309:2453   */\n    tag_91:\n        /* \"#utility.yul\":2377:2386   */\n      0x00\n        /* \"#utility.yul\":2410:2447   */\n      tag_140\n        /* \"#utility.yul\":2441:2446   */\n      dup3\n        /* \"#utility.yul\":2410:2447   */\n      tag_90\n      jump\t// in\n    tag_140:\n        /* \"#utility.yul\":2397:2447   */\n      swap1\n      pop\n        /* \"#utility.yul\":2309:2453   */\n      swap2\n      swap1\n      pop\n      jump\t// out\n        /* \"#utility.yul\":2459:2626   */\n    tag_92:\n        /* \"#utility.yul\":2564:2619   */\n      tag_142\n        /* \"#utility.yul\":2613:2618   */\n      dup2\n        /* \"#utility.yul\":2564:2619   */\n      tag_91\n      jump\t// in\n    tag_142:\n        /* \"#utility.yul\":2559:2562   */\n      dup3\n        /* \"#utility.yul\":2552:2620   */\n      mstore\n        /* \"#utility.yul\":2459:2626   */\n      pop\n      pop\n      jump\t// out\n        /* \"#utility.yul\":2632:2890   */\n    tag_29:\n        /* \"#utility.yul\":2743:2747   */\n      0x00\n        /* \"#utility.yul\":2781:2783   */\n      0x20\n        /* \"#utility.yul\":2770:2779   */\n      dup3\n        /* \"#utility.yul\":2766:2784   */\n      add\n        /* \"#utility.yul\":2758:2784   */\n      swap1\n      pop\n        /* \"#utility.yul\":2794:2883   */\n      tag_144\n        /* \"#utility.yul\":2880:2881   */\n      0x00\n        /* \"#utility.yul\":2869:2878   */\n      dup4\n        /* \"#utility.yul\":2865:2882   */\n      add\n        /* \"#utility.yul\":2856:2862   */\n      dup5\n        /* \"#utility.yul\":2794:2883   */\n      tag_92\n      jump\t// in\n    tag_144:\n        /* \"#utility.yul\":2632:2890   */\n      swap3\n      swap2\n      pop\n      pop\n      jump\t// out\n        /* \"#utility.yul\":2896:3037   */\n    tag_93:\n        /* \"#utility.yul\":2961:2970   */\n      0x00\n        /* \"#utility.yul\":2994:3031   */\n      tag_146\n        /* \"#utility.yul\":3025:3030   */\n      dup3\n        /* \"#utility.yul\":2994:3031   */\n      tag_90\n      jump\t// in\n    tag_146:\n        /* \"#utility.yul\":2981:3031   */\n      swap1\n      pop\n        /* \"#utility.yul\":2896:3037   */\n      swap2\n      swap1\n      pop\n      jump\t// out\n        /* \"#utility.yul\":3043:3204   */\n    tag_94:\n        /* \"#utility.yul\":3145:3197   */\n      tag_148\n        /* \"#utility.yul\":3191:3196   */\n      dup2\n        /* \"#utility.yul\":3145:3197   */\n      tag_93\n      jump\t// in\n    tag_148:\n        /* \"#utility.yul\":3140:3143   */\n      dup3\n        /* \"#utility.yul\":3133:3198   */\n      mstore\n        /* \"#utility.yul\":3043:3204   */\n      pop\n      pop\n      jump\t// out\n        /* \"#utility.yul\":3210:3462   */\n    tag_36:\n        /* \"#utility.yul\":3318:3322   */\n      0x00\n        /* \"#utility.yul\":3356:3358   */\n      0x20\n        /* \"#utility.yul\":3345:3354   */\n      dup3\n        /* \"#utility.yul\":3341:3359   */\n      add\n        /* \"#utility.yul\":3333:3359   */\n      swap1\n      pop\n        /* \"#utility.yul\":3369:3455   */\n      tag_150\n        /* \"#utility.yul\":3452:3453   */\n      0x00\n        /* \"#utility.yul\":3441:3450   */\n      dup4\n        /* \"#utility.yul\":3437:3454   */\n      add\n        /* \"#utility.yul\":3428:3434   */\n      dup5\n        /* \"#utility.yul\":3369:3455   */\n      tag_94\n      jump\t// in\n    tag_150:\n        /* \"#utility.yul\":3210:3462   */\n      swap3\n      swap2\n      pop\n      pop\n      jump\t// out\n        /* \"#utility.yul\":3468:3558   */\n    tag_95:\n        /* \"#utility.yul\":3502:3509   */\n      0x00\n        /* \"#utility.yul\":3545:3550   */\n      dup2\n        /* \"#utility.yul\":3538:3551   */\n      iszero\n        /* \"#utility.yul\":3531:3552   */\n      iszero\n        /* \"#utility.yul\":3520:3552   */\n      swap1\n      pop\n        /* \"#utility.yul\":3468:3558   */\n      swap2\n      swap1\n      pop\n      jump\t// out\n        /* \"#utility.yul\":3564:3673   */\n    tag_96:\n        /* \"#utility.yul\":3645:3666   */\n      tag_153\n        /* \"#utility.yul\":3660:3665   */\n      dup2\n        /* \"#utility.yul\":3645:3666   */\n      tag_95\n      jump\t// in\n    tag_153:\n        /* \"#utility.yul\":3640:3643   */\n      dup3\n        /* \"#utility.yul\":3633:3667   */\n      mstore\n        /* \"#utility.yul\":3564:3673   */\n      pop\n      pop\n      jump\t// out\n        /* \"#utility.yul\":3679:3889   */\n    tag_40:\n        /* \"#utility.yul\":3766:3770   */\n      0x00\n        /* \"#utility.yul\":3804:3806   */\n      0x20\n        /* \"#utility.yul\":3793:3802   */\n      dup3\n        /* \"#utility.yul\":3789:3807   */\n      add\n        /* \"#utility.yul\":3781:3807   */\n      swap1\n      pop\n        /* \"#utility.yul\":3817:3882   */\n      tag_155\n        /* \"#utility.yul\":3879:3880   */\n      0x00\n        /* \"#utility.yul\":3868:3877   */\n      dup4\n        /* \"#utility.yul\":3864:3881   */\n      add\n        /* \"#utility.yul\":3855:3861   */\n      dup5\n        /* \"#utility.yul\":3817:3882   */\n      tag_96\n      jump\t// in\n    tag_155:\n        /* \"#utility.yul\":3679:3889   */\n      swap3\n      swap2\n      pop\n      pop\n      jump\t// out\n        /* \"#utility.yul\":3895:4040   */\n    tag_97:\n        /* \"#utility.yul\":3964:3973   */\n      0x00\n        /* \"#utility.yul\":3997:4034   */\n      tag_157\n        /* \"#utility.yul\":4028:4033   */\n      dup3\n        /* \"#utility.yul\":3997:4034   */\n      tag_90\n      jump\t// in\n    tag_157:\n        /* \"#utility.yul\":3984:4034   */\n      swap1\n      pop\n        /* \"#utility.yul\":3895:4040   */\n      swap2\n      swap1\n      pop\n      jump\t// out\n        /* \"#utility.yul\":4046:4215   */\n    tag_98:\n        /* \"#utility.yul\":4152:4208   */\n      tag_159\n        /* \"#utility.yul\":4202:4207   */\n      dup2\n        /* \"#utility.yul\":4152:4208   */\n      tag_97\n      jump\t// in\n    tag_159:\n        /* \"#utility.yul\":4147:4150   */\n      dup3\n        /* \"#utility.yul\":4140:4209   */\n      mstore\n        /* \"#utility.yul\":4046:4215   */\n      pop\n      pop\n      jump\t// out\n        /* \"#utility.yul\":4221:4481   */\n    tag_44:\n        /* \"#utility.yul\":4333:4337   */\n      0x00\n        /* \"#utility.yul\":4371:4373   */\n      0x20\n        /* \"#utility.yul\":4360:4369   */\n      dup3\n        /* \"#utility.yul\":4356:4374   */\n      add\n        /* \"#utility.yul\":4348:4374   */\n      swap1\n      pop\n        /* \"#utility.yul\":4384:4474   */\n      tag_161\n        /* \"#utility.yul\":4471:4472   */\n      0x00\n        /* \"#utility.yul\":4460:4469   */\n      dup4\n        /* \"#utility.yul\":4456:4473   */\n      add\n        /* \"#utility.yul\":4447:4453   */\n      dup5\n        /* \"#utility.yul\":4384:4474   */\n      tag_98\n      jump\t// in\n    tag_161:\n        /* \"#utility.yul\":4221:4481   */\n      swap3\n      swap2\n      pop\n      pop\n      jump\t// out\n        /* \"#utility.yul\":4487:4628   */\n    tag_99:\n        /* \"#utility.yul\":4552:4561   */\n      0x00\n        /* \"#utility.yul\":4585:4622   */\n      tag_163\n        /* \"#utility.yul\":4616:4621   */\n      dup3\n        /* \"#utility.yul\":4585:4622   */\n      tag_90\n      jump\t// in\n    tag_163:\n        /* \"#utility.yul\":4572:4622   */\n      swap1\n      pop\n        /* \"#utility.yul\":4487:4628   */\n      swap2\n      swap1\n      pop\n      jump\t// out\n        /* \"#utility.yul\":4634:4795   */\n    tag_100:\n        /* \"#utility.yul\":4736:4788   */\n      tag_165\n        /* \"#utility.yul\":4782:4787   */\n      dup2\n        /* \"#utility.yul\":4736:4788   */\n      tag_99\n      jump\t// in\n    tag_165:\n        /* \"#utility.yul\":4731:4734   */\n      dup3\n        /* \"#utility.yul\":4724:4789   */\n      mstore\n        /* \"#utility.yul\":4634:4795   */\n      pop\n      pop\n      jump\t// out\n        /* \"#utility.yul\":4801:5053   */\n    tag_48:\n        /* \"#utility.yul\":4909:4913   */\n      0x00\n        /* \"#utility.yul\":4947:4949   */\n      0x20\n        /* \"#utility.yul\":4936:4945   */\n      dup3\n        /* \"#utility.yul\":4932:4950   */\n      add\n        /* \"#utility.yul\":4924:4950   */\n      swap1\n      pop\n        /* \"#utility.yul\":4960:5046   */\n      tag_167\n        /* \"#utility.yul\":5043:5044   */\n      0x00\n        /* \"#utility.yul\":5032:5041   */\n      dup4\n        /* \"#utility.yul\":5028:5045   */\n      add\n        /* \"#utility.yul\":5019:5025   */\n      dup5\n        /* \"#utility.yul\":4960:5046   */\n      tag_100\n      jump\t// in\n    tag_167:\n        /* \"#utility.yul\":4801:5053   */\n      swap3\n      swap2\n      pop\n      pop\n      jump\t// out\n        /* \"#utility.yul\":5059:5202   */\n    tag_101:\n        /* \"#utility.yul\":5116:5121   */\n      0x00\n        /* \"#utility.yul\":5147:5153   */\n      dup2\n        /* \"#utility.yul\":5141:5154   */\n      mload\n        /* \"#utility.yul\":5132:5154   */\n      swap1\n      pop\n        /* \"#utility.yul\":5163:5196   */\n      tag_169\n        /* \"#utility.yul\":5190:5195   */\n      dup2\n        /* \"#utility.yul\":5163:5196   */\n      tag_85\n      jump\t// in\n    tag_169:\n        /* \"#utility.yul\":5059:5202   */\n      swap3\n      swap2\n      pop\n      pop\n      jump\t// out\n        /* \"#utility.yul\":5208:5559   */\n    tag_55:\n        /* \"#utility.yul\":5278:5284   */\n      0x00\n        /* \"#utility.yul\":5327:5329   */\n      0x20\n        /* \"#utility.yul\":5315:5324   */\n      dup3\n        /* \"#utility.yul\":5306:5313   */\n      dup5\n        /* \"#utility.yul\":5302:5325   */\n      sub\n        /* \"#utility.yul\":5298:5330   */\n      slt\n        /* \"#utility.yul\":5295:5414   */\n      iszero\n      tag_171\n      jumpi\n        /* \"#utility.yul\":5333:5412   */\n      tag_172\n      tag_82\n      jump\t// in\n    tag_172:\n        /* \"#utility.yul\":5295:5414   */\n    tag_171:\n        /* \"#utility.yul\":5453:5454   */\n      0x00\n        /* \"#utility.yul\":5478:5542   */\n      tag_173\n        /* \"#utility.yul\":5534:5541   */\n      dup5\n        /* \"#utility.yul\":5525:5531   */\n      dup3\n        /* \"#utility.yul\":5514:5523   */\n      dup6\n        /* \"#utility.yul\":5510:5532   */\n      add\n        /* \"#utility.yul\":5478:5542   */\n      tag_101\n      jump\t// in\n    tag_173:\n        /* \"#utility.yul\":5468:5542   */\n      swap2\n      pop\n        /* \"#utility.yul\":5424:5552   */\n      pop\n        /* \"#utility.yul\":5208:5559   */\n      swap3\n      swap2\n      pop\n      pop\n      jump\t// out\n        /* \"#utility.yul\":5565:5687   */\n    tag_102:\n        /* \"#utility.yul\":5638:5662   */\n      tag_175\n        /* \"#utility.yul\":5656:5661   */\n      dup2\n        /* \"#utility.yul\":5638:5662   */\n      tag_79\n      jump\t// in\n    tag_175:\n        /* \"#utility.yul\":5631:5636   */\n      dup2\n        /* \"#utility.yul\":5628:5663   */\n      eq\n        /* \"#utility.yul\":5618:5681   */\n      tag_176\n      jumpi\n        /* \"#utility.yul\":5677:5678   */\n      0x00\n        /* \"#utility.yul\":5674:5675   */\n      dup1\n        /* \"#utility.yul\":5667:5679   */\n      revert\n        /* \"#utility.yul\":5618:5681   */\n    tag_176:\n        /* \"#utility.yul\":5565:5687   */\n      pop\n      jump\t// out\n        /* \"#utility.yul\":5693:5836   */\n    tag_103:\n        /* \"#utility.yul\":5750:5755   */\n      0x00\n        /* \"#utility.yul\":5781:5787   */\n      dup2\n        /* \"#utility.yul\":5775:5788   */\n      mload\n        /* \"#utility.yul\":5766:5788   */\n      swap1\n      pop\n        /* \"#utility.yul\":5797:5830   */\n      tag_178\n        /* \"#utility.yul\":5824:5829   */\n      dup2\n        /* \"#utility.yul\":5797:5830   */\n      tag_102\n      jump\t// in\n    tag_178:\n        /* \"#utility.yul\":5693:5836   */\n      swap3\n      swap2\n      pop\n      pop\n      jump\t// out\n        /* \"#utility.yul\":5842:6193   */\n    tag_63:\n        /* \"#utility.yul\":5912:5918   */\n      0x00\n        /* \"#utility.yul\":5961:5963   */\n      0x20\n        /* \"#utility.yul\":5949:5958   */\n      dup3\n        /* \"#utility.yul\":5940:5947   */\n      dup5\n        /* \"#utility.yul\":5936:5959   */\n      sub\n        /* \"#utility.yul\":5932:5964   */\n      slt\n        /* \"#utility.yul\":5929:6048   */\n      iszero\n      tag_180\n      jumpi\n        /* \"#utility.yul\":5967:6046   */\n      tag_181\n      tag_82\n      jump\t// in\n    tag_181:\n        /* \"#utility.yul\":5929:6048   */\n    tag_180:\n        /* \"#utility.yul\":6087:6088   */\n      0x00\n        /* \"#utility.yul\":6112:6176   */\n      tag_182\n        /* \"#utility.yul\":6168:6175   */\n      dup5\n        /* \"#utility.yul\":6159:6165   */\n      dup3\n        /* \"#utility.yul\":6148:6157   */\n      dup6\n        /* \"#utility.yul\":6144:6166   */\n      add\n        /* \"#utility.yul\":6112:6176   */\n      tag_103\n      jump\t// in\n    tag_182:\n        /* \"#utility.yul\":6102:6176   */\n      swap2\n      pop\n        /* \"#utility.yul\":6058:6186   */\n      pop\n        /* \"#utility.yul\":5842:6193   */\n      swap3\n      swap2\n      pop\n      pop\n      jump\t// out\n        /* \"#utility.yul\":6199:6339   */\n    tag_104:\n        /* \"#utility.yul\":6263:6272   */\n      0x00\n        /* \"#utility.yul\":6296:6333   */\n      tag_184\n        /* \"#utility.yul\":6327:6332   */\n      dup3\n        /* \"#utility.yul\":6296:6333   */\n      tag_90\n      jump\t// in\n    tag_184:\n        /* \"#utility.yul\":6283:6333   */\n      swap1\n      pop\n        /* \"#utility.yul\":6199:6339   */\n      swap2\n      swap1\n      pop\n      jump\t// out\n        /* \"#utility.yul\":6345:6504   */\n    tag_105:\n        /* \"#utility.yul\":6446:6497   */\n      tag_186\n        /* \"#utility.yul\":6491:6496   */\n      dup2\n        /* \"#utility.yul\":6446:6497   */\n      tag_104\n      jump\t// in\n    tag_186:\n        /* \"#utility.yul\":6441:6444   */\n      dup3\n        /* \"#utility.yul\":6434:6498   */\n      mstore\n        /* \"#utility.yul\":6345:6504   */\n      pop\n      pop\n      jump\t// out\n        /* \"#utility.yul\":6510:7008   */\n    tag_66:\n        /* \"#utility.yul\":6687:6691   */\n      0x00\n        /* \"#utility.yul\":6725:6727   */\n      0x60\n        /* \"#utility.yul\":6714:6723   */\n      dup3\n        /* \"#utility.yul\":6710:6728   */\n      add\n        /* \"#utility.yul\":6702:6728   */\n      swap1\n      pop\n        /* \"#utility.yul\":6738:6809   */\n      tag_188\n        /* \"#utility.yul\":6806:6807   */\n      0x00\n        /* \"#utility.yul\":6795:6804   */\n      dup4\n        /* \"#utility.yul\":6791:6808   */\n      add\n        /* \"#utility.yul\":6782:6788   */\n      dup7\n        /* \"#utility.yul\":6738:6809   */\n      tag_87\n      jump\t// in\n    tag_188:\n        /* \"#utility.yul\":6819:6905   */\n      tag_189\n        /* \"#utility.yul\":6901:6903   */\n      0x20\n        /* \"#utility.yul\":6890:6899   */\n      dup4\n        /* \"#utility.yul\":6886:6904   */\n      add\n        /* \"#utility.yul\":6877:6883   */\n      dup6\n        /* \"#utility.yul\":6819:6905   */\n      tag_105\n      jump\t// in\n    tag_189:\n        /* \"#utility.yul\":6915:7001   */\n      tag_190\n        /* \"#utility.yul\":6997:6999   */\n      0x40\n        /* \"#utility.yul\":6986:6995   */\n      dup4\n        /* \"#utility.yul\":6982:7000   */\n      add\n        /* \"#utility.yul\":6973:6979   */\n      dup5\n        /* \"#utility.yul\":6915:7001   */\n      tag_105\n      jump\t// in\n    tag_190:\n        /* \"#utility.yul\":6510:7008   */\n      swap5\n      swap4\n      pop\n      pop\n      pop\n      pop\n      jump\t// out\n        /* \"#utility.yul\":7014:7194   */\n    tag_106:\n        /* \"#utility.yul\":7062:7139   */\n      0x4e487b7100000000000000000000000000000000000000000000000000000000\n        /* \"#utility.yul\":7059:7060   */\n      0x00\n        /* \"#utility.yul\":7052:7140   */\n      mstore\n        /* \"#utility.yul\":7159:7163   */\n      0x11\n        /* \"#utility.yul\":7156:7157   */\n      0x04\n        /* \"#utility.yul\":7149:7164   */\n      mstore\n        /* \"#utility.yul\":7183:7187   */\n      0x24\n        /* \"#utility.yul\":7180:7181   */\n      0x00\n        /* \"#utility.yul\":7173:7188   */\n      revert\n        /* \"#utility.yul\":7200:7433   */\n    tag_77:\n        /* \"#utility.yul\":7239:7242   */\n      0x00\n        /* \"#utility.yul\":7262:7286   */\n      tag_193\n        /* \"#utility.yul\":7280:7285   */\n      dup3\n        /* \"#utility.yul\":7262:7286   */\n      tag_84\n      jump\t// in\n    tag_193:\n        /* \"#utility.yul\":7253:7286   */\n      swap2\n      pop\n        /* \"#utility.yul\":7308:7374   */\n      0xffffffffffffffffffffffffffffffffffffffffffffffffffffffffffffffff\n        /* \"#utility.yul\":7301:7306   */\n      dup3\n        /* \"#utility.yul\":7298:7375   */\n      sub\n        /* \"#utility.yul\":7295:7398   */\n      tag_194\n      jumpi\n        /* \"#utility.yul\":7378:7396   */\n      tag_195\n      tag_106\n      jump\t// in\n    tag_195:\n        /* \"#utility.yul\":7295:7398   */\n    tag_194:\n        /* \"#utility.yul\":7425:7426   */\n      0x01\n        /* \"#utility.yul\":7418:7423   */\n      dup3\n        /* \"#utility.yul\":7414:7427   */\n      add\n        /* \"#utility.yul\":7407:7427   */\n      swap1\n      pop\n        /* \"#utility.yul\":7200:7433   */\n      swap2\n      swap1\n      pop\n      jump\t// out\n\n    auxdata: 0xa2646970667358221220bc557e3710a1b2a9bd482a04af24c5d29796f5776f9c223b2c959f7e7bdcbdf664736f6c63430008110033\n}\n",
				"bytecode": {
					"linkReferences": {},
					"object": "608060405273de39c89e7a8e3fc73e1e7f8b2edecd4c7fe62b66600460006101000a81548173ffffffffffffffffffffffffffffffffffffffff021916908373ffffffffffffffffffffffffffffffffffffffff16021790555073e5873093eda4e64b77c80186adc5be024444fcbd600560006101000a81548173ffffffffffffffffffffffffffffffffffffffff021916908373ffffffffffffffffffffffffffffffffffffffff160217905550670de0b6b3a76400006006553480156100c657600080fd5b50730ca73866dff0f6b0508f5cbb223c857c19463e07600160006101000a81548173ffffffffffffffffffffffffffffffffffffffff021916908373ffffffffffffffffffffffffffffffffffffffff160217905550735da88df55af2e5681d33f36e5916d63797bf4766600260006101000a81548173ffffffffffffffffffffffffffffffffffffffff021916908373ffffffffffffffffffffffffffffffffffffffff1602179055507392721e164a5848c0071d6be7d4c4b11d7932e0af6000806101000a81548173ffffffffffffffffffffffffffffffffffffffff021916908373ffffffffffffffffffffffffffffffffffffffff160217905550738a968c762063170cbbb3eac00f530cb425d5806f600360006101000a81548173ffffffffffffffffffffffffffffffffffffffff021916908373ffffffffffffffffffffffffffffffffffffffff160217905550610a08806102296000396000f3fe608060405234801561001057600080fd5b50600436106100935760003560e01c80638322fff2116100665780638322fff214610122578063c45a015514610140578063c95097b11461015e578063c985395d1461017c578063f887ea401461019a57610093565b806338c0f073146100985780633fc8cef3146100b657806357bc8be3146100d45780637a7beed314610104575b600080fd5b6100a06101b8565b6040516100ad9190610657565b60405180910390f35b6100be6101de565b6040516100cb9190610657565b60405180910390f35b6100ee60048036038101906100e991906106ad565b610204565b6040516100fb91906106e9565b60405180910390f35b61010c610228565b6040516101199190610763565b60405180910390f35b61012a61024c565b60405161013791906106e9565b60405180910390f35b610148610252565b604051610155919061079f565b60405180910390f35b610166610278565b60405161017391906107d5565b60405180910390f35b6101846105ca565b6040516101919190610811565b60405180910390f35b6101a26105f0565b6040516101af919061084d565b60405180910390f35b600560009054906101000a900473ffffffffffffffffffffffffffffffffffffffff1681565b600460009054906101000a900473ffffffffffffffffffffffffffffffffffffffff1681565b6007818154811061021457600080fd5b906000526020600020016000915090505481565b60008054906101000a900473ffffffffffffffffffffffffffffffffffffffff1681565b60065481565b600160009054906101000a900473ffffffffffffffffffffffffffffffffffffffff1681565b60008060008054906101000a900473ffffffffffffffffffffffffffffffffffffffff1673ffffffffffffffffffffffffffffffffffffffff1663240e5b586040518163ffffffff1660e01b8152600401602060405180830381865afa1580156102e6573d6000803e3d6000fd5b505050506040513d601f19601f8201168201806040525081019061030a919061087d565b905060005b818110156105c15760008060009054906101000a900473ffffffffffffffffffffffffffffffffffffffff1673ffffffffffffffffffffffffffffffffffffffff16638e75b5e6836040518263ffffffff1660e01b815260040161037391906106e9565b602060405180830381865afa158015610390573d6000803e3d6000fd5b505050506040513d601f19601f820116820180604052508101906103b491906108d6565b9050600073ffffffffffffffffffffffffffffffffffffffff168173ffffffffffffffffffffffffffffffffffffffff16146105ad576000600360009054906101000a900473ffffffffffffffffffffffffffffffffffffffff1673ffffffffffffffffffffffffffffffffffffffff166337b39076600654600460009054906101000a900473ffffffffffffffffffffffffffffffffffffffff16856040518463ffffffff1660e01b815260040161046f93929190610924565b602060405180830381865afa15801561048c573d6000803e3d6000fd5b505050506040513d601f19601f820116820180604052508101906104b0919061087d565b9050600081146105ab576000600360009054906101000a900473ffffffffffffffffffffffffffffffffffffffff1673ffffffffffffffffffffffffffffffffffffffff166337b390768385600560009054906101000a900473ffffffffffffffffffffffffffffffffffffffff166040518463ffffffff1660e01b815260040161053d93929190610924565b602060405180830381865afa15801561055a573d6000803e3d6000fd5b505050506040513d601f19601f8201168201806040525081019061057e919061087d565b90506007819080600181540180825580915050600190039060005260206000200160009091909190915055505b505b5080806105b99061098a565b91505061030f565b50600191505090565b600360009054906101000a900473ffffffffffffffffffffffffffffffffffffffff1681565b600260009054906101000a900473ffffffffffffffffffffffffffffffffffffffff1681565b600073ffffffffffffffffffffffffffffffffffffffff82169050919050565b600061064182610616565b9050919050565b61065181610636565b82525050565b600060208201905061066c6000830184610648565b92915050565b600080fd5b6000819050919050565b61068a81610677565b811461069557600080fd5b50565b6000813590506106a781610681565b92915050565b6000602082840312156106c3576106c2610672565b5b60006106d184828501610698565b91505092915050565b6106e381610677565b82525050565b60006020820190506106fe60008301846106da565b92915050565b6000819050919050565b600061072961072461071f84610616565b610704565b610616565b9050919050565b600061073b8261070e565b9050919050565b600061074d82610730565b9050919050565b61075d81610742565b82525050565b60006020820190506107786000830184610754565b92915050565b600061078982610730565b9050919050565b6107998161077e565b82525050565b60006020820190506107b46000830184610790565b92915050565b60008115159050919050565b6107cf816107ba565b82525050565b60006020820190506107ea60008301846107c6565b92915050565b60006107fb82610730565b9050919050565b61080b816107f0565b82525050565b60006020820190506108266000830184610802565b92915050565b600061083782610730565b9050919050565b6108478161082c565b82525050565b6000602082019050610862600083018461083e565b92915050565b60008151905061087781610681565b92915050565b60006020828403121561089357610892610672565b5b60006108a184828501610868565b91505092915050565b6108b381610636565b81146108be57600080fd5b50565b6000815190506108d0816108aa565b92915050565b6000602082840312156108ec576108eb610672565b5b60006108fa848285016108c1565b91505092915050565b600061090e82610730565b9050919050565b61091e81610903565b82525050565b600060608201905061093960008301866106da565b6109466020830185610915565b6109536040830184610915565b949350505050565b7f4e487b7100000000000000000000000000000000000000000000000000000000600052601160045260246000fd5b600061099582610677565b91507fffffffffffffffffffffffffffffffffffffffffffffffffffffffffffffffff82036109c7576109c661095b565b5b60018201905091905056fea2646970667358221220bc557e3710a1b2a9bd482a04af24c5d29796f5776f9c223b2c959f7e7bdcbdf664736f6c63430008110033",
					"opcodes": "PUSH1 0x80 PUSH1 0x40 MSTORE PUSH20 0xDE39C89E7A8E3FC73E1E7F8B2EDECD4C7FE62B66 PUSH1 0x4 PUSH1 0x0 PUSH2 0x100 EXP DUP2 SLOAD DUP2 PUSH20 0xFFFFFFFFFFFFFFFFFFFFFFFFFFFFFFFFFFFFFFFF MUL NOT AND SWAP1 DUP4 PUSH20 0xFFFFFFFFFFFFFFFFFFFFFFFFFFFFFFFFFFFFFFFF AND MUL OR SWAP1 SSTORE POP PUSH20 0xE5873093EDA4E64B77C80186ADC5BE024444FCBD PUSH1 0x5 PUSH1 0x0 PUSH2 0x100 EXP DUP2 SLOAD DUP2 PUSH20 0xFFFFFFFFFFFFFFFFFFFFFFFFFFFFFFFFFFFFFFFF MUL NOT AND SWAP1 DUP4 PUSH20 0xFFFFFFFFFFFFFFFFFFFFFFFFFFFFFFFFFFFFFFFF AND MUL OR SWAP1 SSTORE POP PUSH8 0xDE0B6B3A7640000 PUSH1 0x6 SSTORE CALLVALUE DUP1 ISZERO PUSH2 0xC6 JUMPI PUSH1 0x0 DUP1 REVERT JUMPDEST POP PUSH20 0xCA73866DFF0F6B0508F5CBB223C857C19463E07 PUSH1 0x1 PUSH1 0x0 PUSH2 0x100 EXP DUP2 SLOAD DUP2 PUSH20 0xFFFFFFFFFFFFFFFFFFFFFFFFFFFFFFFFFFFFFFFF MUL NOT AND SWAP1 DUP4 PUSH20 0xFFFFFFFFFFFFFFFFFFFFFFFFFFFFFFFFFFFFFFFF AND MUL OR SWAP1 SSTORE POP PUSH20 0x5DA88DF55AF2E5681D33F36E5916D63797BF4766 PUSH1 0x2 PUSH1 0x0 PUSH2 0x100 EXP DUP2 SLOAD DUP2 PUSH20 0xFFFFFFFFFFFFFFFFFFFFFFFFFFFFFFFFFFFFFFFF MUL NOT AND SWAP1 DUP4 PUSH20 0xFFFFFFFFFFFFFFFFFFFFFFFFFFFFFFFFFFFFFFFF AND MUL OR SWAP1 SSTORE POP PUSH20 0x92721E164A5848C0071D6BE7D4C4B11D7932E0AF PUSH1 0x0 DUP1 PUSH2 0x100 EXP DUP2 SLOAD DUP2 PUSH20 0xFFFFFFFFFFFFFFFFFFFFFFFFFFFFFFFFFFFFFFFF MUL NOT AND SWAP1 DUP4 PUSH20 0xFFFFFFFFFFFFFFFFFFFFFFFFFFFFFFFFFFFFFFFF AND MUL OR SWAP1 SSTORE POP PUSH20 0x8A968C762063170CBBB3EAC00F530CB425D5806F PUSH1 0x3 PUSH1 0x0 PUSH2 0x100 EXP DUP2 SLOAD DUP2 PUSH20 0xFFFFFFFFFFFFFFFFFFFFFFFFFFFFFFFFFFFFFFFF MUL NOT AND SWAP1 DUP4 PUSH20 0xFFFFFFFFFFFFFFFFFFFFFFFFFFFFFFFFFFFFFFFF AND MUL OR SWAP1 SSTORE POP PUSH2 0xA08 DUP1 PUSH2 0x229 PUSH1 0x0 CODECOPY PUSH1 0x0 RETURN INVALID PUSH1 0x80 PUSH1 0x40 MSTORE CALLVALUE DUP1 ISZERO PUSH2 0x10 JUMPI PUSH1 0x0 DUP1 REVERT JUMPDEST POP PUSH1 0x4 CALLDATASIZE LT PUSH2 0x93 JUMPI PUSH1 0x0 CALLDATALOAD PUSH1 0xE0 SHR DUP1 PUSH4 0x8322FFF2 GT PUSH2 0x66 JUMPI DUP1 PUSH4 0x8322FFF2 EQ PUSH2 0x122 JUMPI DUP1 PUSH4 0xC45A0155 EQ PUSH2 0x140 JUMPI DUP1 PUSH4 0xC95097B1 EQ PUSH2 0x15E JUMPI DUP1 PUSH4 0xC985395D EQ PUSH2 0x17C JUMPI DUP1 PUSH4 0xF887EA40 EQ PUSH2 0x19A JUMPI PUSH2 0x93 JUMP JUMPDEST DUP1 PUSH4 0x38C0F073 EQ PUSH2 0x98 JUMPI DUP1 PUSH4 0x3FC8CEF3 EQ PUSH2 0xB6 JUMPI DUP1 PUSH4 0x57BC8BE3 EQ PUSH2 0xD4 JUMPI DUP1 PUSH4 0x7A7BEED3 EQ PUSH2 0x104 JUMPI JUMPDEST PUSH1 0x0 DUP1 REVERT JUMPDEST PUSH2 0xA0 PUSH2 0x1B8 JUMP JUMPDEST PUSH1 0x40 MLOAD PUSH2 0xAD SWAP2 SWAP1 PUSH2 0x657 JUMP JUMPDEST PUSH1 0x40 MLOAD DUP1 SWAP2 SUB SWAP1 RETURN JUMPDEST PUSH2 0xBE PUSH2 0x1DE JUMP JUMPDEST PUSH1 0x40 MLOAD PUSH2 0xCB SWAP2 SWAP1 PUSH2 0x657 JUMP JUMPDEST PUSH1 0x40 MLOAD DUP1 SWAP2 SUB SWAP1 RETURN JUMPDEST PUSH2 0xEE PUSH1 0x4 DUP1 CALLDATASIZE SUB DUP2 ADD SWAP1 PUSH2 0xE9 SWAP2 SWAP1 PUSH2 0x6AD JUMP JUMPDEST PUSH2 0x204 JUMP JUMPDEST PUSH1 0x40 MLOAD PUSH2 0xFB SWAP2 SWAP1 PUSH2 0x6E9 JUMP JUMPDEST PUSH1 0x40 MLOAD DUP1 SWAP2 SUB SWAP1 RETURN JUMPDEST PUSH2 0x10C PUSH2 0x228 JUMP JUMPDEST PUSH1 0x40 MLOAD PUSH2 0x119 SWAP2 SWAP1 PUSH2 0x763 JUMP JUMPDEST PUSH1 0x40 MLOAD DUP1 SWAP2 SUB SWAP1 RETURN JUMPDEST PUSH2 0x12A PUSH2 0x24C JUMP JUMPDEST PUSH1 0x40 MLOAD PUSH2 0x137 SWAP2 SWAP1 PUSH2 0x6E9 JUMP JUMPDEST PUSH1 0x40 MLOAD DUP1 SWAP2 SUB SWAP1 RETURN JUMPDEST PUSH2 0x148 PUSH2 0x252 JUMP JUMPDEST PUSH1 0x40 MLOAD PUSH2 0x155 SWAP2 SWAP1 PUSH2 0x79F JUMP JUMPDEST PUSH1 0x40 MLOAD DUP1 SWAP2 SUB SWAP1 RETURN JUMPDEST PUSH2 0x166 PUSH2 0x278 JUMP JUMPDEST PUSH1 0x40 MLOAD PUSH2 0x173 SWAP2 SWAP1 PUSH2 0x7D5 JUMP JUMPDEST PUSH1 0x40 MLOAD DUP1 SWAP2 SUB SWAP1 RETURN JUMPDEST PUSH2 0x184 PUSH2 0x5CA JUMP JUMPDEST PUSH1 0x40 MLOAD PUSH2 0x191 SWAP2 SWAP1 PUSH2 0x811 JUMP JUMPDEST PUSH1 0x40 MLOAD DUP1 SWAP2 SUB SWAP1 RETURN JUMPDEST PUSH2 0x1A2 PUSH2 0x5F0 JUMP JUMPDEST PUSH1 0x40 MLOAD PUSH2 0x1AF SWAP2 SWAP1 PUSH2 0x84D JUMP JUMPDEST PUSH1 0x40 MLOAD DUP1 SWAP2 SUB SWAP1 RETURN JUMPDEST PUSH1 0x5 PUSH1 0x0 SWAP1 SLOAD SWAP1 PUSH2 0x100 EXP SWAP1 DIV PUSH20 0xFFFFFFFFFFFFFFFFFFFFFFFFFFFFFFFFFFFFFFFF AND DUP2 JUMP JUMPDEST PUSH1 0x4 PUSH1 0x0 SWAP1 SLOAD SWAP1 PUSH2 0x100 EXP SWAP1 DIV PUSH20 0xFFFFFFFFFFFFFFFFFFFFFFFFFFFFFFFFFFFFFFFF AND DUP2 JUMP JUMPDEST PUSH1 0x7 DUP2 DUP2 SLOAD DUP2 LT PUSH2 0x214 JUMPI PUSH1 0x0 DUP1 REVERT JUMPDEST SWAP1 PUSH1 0x0 MSTORE PUSH1 0x20 PUSH1 0x0 KECCAK256 ADD PUSH1 0x0 SWAP2 POP SWAP1 POP SLOAD DUP2 JUMP JUMPDEST PUSH1 0x0 DUP1 SLOAD SWAP1 PUSH2 0x100 EXP SWAP1 DIV PUSH20 0xFFFFFFFFFFFFFFFFFFFFFFFFFFFFFFFFFFFFFFFF AND DUP2 JUMP JUMPDEST PUSH1 0x6 SLOAD DUP2 JUMP JUMPDEST PUSH1 0x1 PUSH1 0x0 SWAP1 SLOAD SWAP1 PUSH2 0x100 EXP SWAP1 DIV PUSH20 0xFFFFFFFFFFFFFFFFFFFFFFFFFFFFFFFFFFFFFFFF AND DUP2 JUMP JUMPDEST PUSH1 0x0 DUP1 PUSH1 0x0 DUP1 SLOAD SWAP1 PUSH2 0x100 EXP SWAP1 DIV PUSH20 0xFFFFFFFFFFFFFFFFFFFFFFFFFFFFFFFFFFFFFFFF AND PUSH20 0xFFFFFFFFFFFFFFFFFFFFFFFFFFFFFFFFFFFFFFFF AND PUSH4 0x240E5B58 PUSH1 0x40 MLOAD DUP2 PUSH4 0xFFFFFFFF AND PUSH1 0xE0 SHL DUP2 MSTORE PUSH1 0x4 ADD PUSH1 0x20 PUSH1 0x40 MLOAD DUP1 DUP4 SUB DUP2 DUP7 GAS STATICCALL ISZERO DUP1 ISZERO PUSH2 0x2E6 JUMPI RETURNDATASIZE PUSH1 0x0 DUP1 RETURNDATACOPY RETURNDATASIZE PUSH1 0x0 REVERT JUMPDEST POP POP POP POP PUSH1 0x40 MLOAD RETURNDATASIZE PUSH1 0x1F NOT PUSH1 0x1F DUP3 ADD AND DUP3 ADD DUP1 PUSH1 0x40 MSTORE POP DUP2 ADD SWAP1 PUSH2 0x30A SWAP2 SWAP1 PUSH2 0x87D JUMP JUMPDEST SWAP1 POP PUSH1 0x0 JUMPDEST DUP2 DUP2 LT ISZERO PUSH2 0x5C1 JUMPI PUSH1 0x0 DUP1 PUSH1 0x0 SWAP1 SLOAD SWAP1 PUSH2 0x100 EXP SWAP1 DIV PUSH20 0xFFFFFFFFFFFFFFFFFFFFFFFFFFFFFFFFFFFFFFFF AND PUSH20 0xFFFFFFFFFFFFFFFFFFFFFFFFFFFFFFFFFFFFFFFF AND PUSH4 0x8E75B5E6 DUP4 PUSH1 0x40 MLOAD DUP3 PUSH4 0xFFFFFFFF AND PUSH1 0xE0 SHL DUP2 MSTORE PUSH1 0x4 ADD PUSH2 0x373 SWAP2 SWAP1 PUSH2 0x6E9 JUMP JUMPDEST PUSH1 0x20 PUSH1 0x40 MLOAD DUP1 DUP4 SUB DUP2 DUP7 GAS STATICCALL ISZERO DUP1 ISZERO PUSH2 0x390 JUMPI RETURNDATASIZE PUSH1 0x0 DUP1 RETURNDATACOPY RETURNDATASIZE PUSH1 0x0 REVERT JUMPDEST POP POP POP POP PUSH1 0x40 MLOAD RETURNDATASIZE PUSH1 0x1F NOT PUSH1 0x1F DUP3 ADD AND DUP3 ADD DUP1 PUSH1 0x40 MSTORE POP DUP2 ADD SWAP1 PUSH2 0x3B4 SWAP2 SWAP1 PUSH2 0x8D6 JUMP JUMPDEST SWAP1 POP PUSH1 0x0 PUSH20 0xFFFFFFFFFFFFFFFFFFFFFFFFFFFFFFFFFFFFFFFF AND DUP2 PUSH20 0xFFFFFFFFFFFFFFFFFFFFFFFFFFFFFFFFFFFFFFFF AND EQ PUSH2 0x5AD JUMPI PUSH1 0x0 PUSH1 0x3 PUSH1 0x0 SWAP1 SLOAD SWAP1 PUSH2 0x100 EXP SWAP1 DIV PUSH20 0xFFFFFFFFFFFFFFFFFFFFFFFFFFFFFFFFFFFFFFFF AND PUSH20 0xFFFFFFFFFFFFFFFFFFFFFFFFFFFFFFFFFFFFFFFF AND PUSH4 0x37B39076 PUSH1 0x6 SLOAD PUSH1 0x4 PUSH1 0x0 SWAP1 SLOAD SWAP1 PUSH2 0x100 EXP SWAP1 DIV PUSH20 0xFFFFFFFFFFFFFFFFFFFFFFFFFFFFFFFFFFFFFFFF AND DUP6 PUSH1 0x40 MLOAD DUP5 PUSH4 0xFFFFFFFF AND PUSH1 0xE0 SHL DUP2 MSTORE PUSH1 0x4 ADD PUSH2 0x46F SWAP4 SWAP3 SWAP2 SWAP1 PUSH2 0x924 JUMP JUMPDEST PUSH1 0x20 PUSH1 0x40 MLOAD DUP1 DUP4 SUB DUP2 DUP7 GAS STATICCALL ISZERO DUP1 ISZERO PUSH2 0x48C JUMPI RETURNDATASIZE PUSH1 0x0 DUP1 RETURNDATACOPY RETURNDATASIZE PUSH1 0x0 REVERT JUMPDEST POP POP POP POP PUSH1 0x40 MLOAD RETURNDATASIZE PUSH1 0x1F NOT PUSH1 0x1F DUP3 ADD AND DUP3 ADD DUP1 PUSH1 0x40 MSTORE POP DUP2 ADD SWAP1 PUSH2 0x4B0 SWAP2 SWAP1 PUSH2 0x87D JUMP JUMPDEST SWAP1 POP PUSH1 0x0 DUP2 EQ PUSH2 0x5AB JUMPI PUSH1 0x0 PUSH1 0x3 PUSH1 0x0 SWAP1 SLOAD SWAP1 PUSH2 0x100 EXP SWAP1 DIV PUSH20 0xFFFFFFFFFFFFFFFFFFFFFFFFFFFFFFFFFFFFFFFF AND PUSH20 0xFFFFFFFFFFFFFFFFFFFFFFFFFFFFFFFFFFFFFFFF AND PUSH4 0x37B39076 DUP4 DUP6 PUSH1 0x5 PUSH1 0x0 SWAP1 SLOAD SWAP1 PUSH2 0x100 EXP SWAP1 DIV PUSH20 0xFFFFFFFFFFFFFFFFFFFFFFFFFFFFFFFFFFFFFFFF AND PUSH1 0x40 MLOAD DUP5 PUSH4 0xFFFFFFFF AND PUSH1 0xE0 SHL DUP2 MSTORE PUSH1 0x4 ADD PUSH2 0x53D SWAP4 SWAP3 SWAP2 SWAP1 PUSH2 0x924 JUMP JUMPDEST PUSH1 0x20 PUSH1 0x40 MLOAD DUP1 DUP4 SUB DUP2 DUP7 GAS STATICCALL ISZERO DUP1 ISZERO PUSH2 0x55A JUMPI RETURNDATASIZE PUSH1 0x0 DUP1 RETURNDATACOPY RETURNDATASIZE PUSH1 0x0 REVERT JUMPDEST POP POP POP POP PUSH1 0x40 MLOAD RETURNDATASIZE PUSH1 0x1F NOT PUSH1 0x1F DUP3 ADD AND DUP3 ADD DUP1 PUSH1 0x40 MSTORE POP DUP2 ADD SWAP1 PUSH2 0x57E SWAP2 SWAP1 PUSH2 0x87D JUMP JUMPDEST SWAP1 POP PUSH1 0x7 DUP2 SWAP1 DUP1 PUSH1 0x1 DUP2 SLOAD ADD DUP1 DUP3 SSTORE DUP1 SWAP2 POP POP PUSH1 0x1 SWAP1 SUB SWAP1 PUSH1 0x0 MSTORE PUSH1 0x20 PUSH1 0x0 KECCAK256 ADD PUSH1 0x0 SWAP1 SWAP2 SWAP1 SWAP2 SWAP1 SWAP2 POP SSTORE POP JUMPDEST POP JUMPDEST POP DUP1 DUP1 PUSH2 0x5B9 SWAP1 PUSH2 0x98A JUMP JUMPDEST SWAP2 POP POP PUSH2 0x30F JUMP JUMPDEST POP PUSH1 0x1 SWAP2 POP POP SWAP1 JUMP JUMPDEST PUSH1 0x3 PUSH1 0x0 SWAP1 SLOAD SWAP1 PUSH2 0x100 EXP SWAP1 DIV PUSH20 0xFFFFFFFFFFFFFFFFFFFFFFFFFFFFFFFFFFFFFFFF AND DUP2 JUMP JUMPDEST PUSH1 0x2 PUSH1 0x0 SWAP1 SLOAD SWAP1 PUSH2 0x100 EXP SWAP1 DIV PUSH20 0xFFFFFFFFFFFFFFFFFFFFFFFFFFFFFFFFFFFFFFFF AND DUP2 JUMP JUMPDEST PUSH1 0x0 PUSH20 0xFFFFFFFFFFFFFFFFFFFFFFFFFFFFFFFFFFFFFFFF DUP3 AND SWAP1 POP SWAP2 SWAP1 POP JUMP JUMPDEST PUSH1 0x0 PUSH2 0x641 DUP3 PUSH2 0x616 JUMP JUMPDEST SWAP1 POP SWAP2 SWAP1 POP JUMP JUMPDEST PUSH2 0x651 DUP2 PUSH2 0x636 JUMP JUMPDEST DUP3 MSTORE POP POP JUMP JUMPDEST PUSH1 0x0 PUSH1 0x20 DUP3 ADD SWAP1 POP PUSH2 0x66C PUSH1 0x0 DUP4 ADD DUP5 PUSH2 0x648 JUMP JUMPDEST SWAP3 SWAP2 POP POP JUMP JUMPDEST PUSH1 0x0 DUP1 REVERT JUMPDEST PUSH1 0x0 DUP2 SWAP1 POP SWAP2 SWAP1 POP JUMP JUMPDEST PUSH2 0x68A DUP2 PUSH2 0x677 JUMP JUMPDEST DUP2 EQ PUSH2 0x695 JUMPI PUSH1 0x0 DUP1 REVERT JUMPDEST POP JUMP JUMPDEST PUSH1 0x0 DUP2 CALLDATALOAD SWAP1 POP PUSH2 0x6A7 DUP2 PUSH2 0x681 JUMP JUMPDEST SWAP3 SWAP2 POP POP JUMP JUMPDEST PUSH1 0x0 PUSH1 0x20 DUP3 DUP5 SUB SLT ISZERO PUSH2 0x6C3 JUMPI PUSH2 0x6C2 PUSH2 0x672 JUMP JUMPDEST JUMPDEST PUSH1 0x0 PUSH2 0x6D1 DUP5 DUP3 DUP6 ADD PUSH2 0x698 JUMP JUMPDEST SWAP2 POP POP SWAP3 SWAP2 POP POP JUMP JUMPDEST PUSH2 0x6E3 DUP2 PUSH2 0x677 JUMP JUMPDEST DUP3 MSTORE POP POP JUMP JUMPDEST PUSH1 0x0 PUSH1 0x20 DUP3 ADD SWAP1 POP PUSH2 0x6FE PUSH1 0x0 DUP4 ADD DUP5 PUSH2 0x6DA JUMP JUMPDEST SWAP3 SWAP2 POP POP JUMP JUMPDEST PUSH1 0x0 DUP2 SWAP1 POP SWAP2 SWAP1 POP JUMP JUMPDEST PUSH1 0x0 PUSH2 0x729 PUSH2 0x724 PUSH2 0x71F DUP5 PUSH2 0x616 JUMP JUMPDEST PUSH2 0x704 JUMP JUMPDEST PUSH2 0x616 JUMP JUMPDEST SWAP1 POP SWAP2 SWAP1 POP JUMP JUMPDEST PUSH1 0x0 PUSH2 0x73B DUP3 PUSH2 0x70E JUMP JUMPDEST SWAP1 POP SWAP2 SWAP1 POP JUMP JUMPDEST PUSH1 0x0 PUSH2 0x74D DUP3 PUSH2 0x730 JUMP JUMPDEST SWAP1 POP SWAP2 SWAP1 POP JUMP JUMPDEST PUSH2 0x75D DUP2 PUSH2 0x742 JUMP JUMPDEST DUP3 MSTORE POP POP JUMP JUMPDEST PUSH1 0x0 PUSH1 0x20 DUP3 ADD SWAP1 POP PUSH2 0x778 PUSH1 0x0 DUP4 ADD DUP5 PUSH2 0x754 JUMP JUMPDEST SWAP3 SWAP2 POP POP JUMP JUMPDEST PUSH1 0x0 PUSH2 0x789 DUP3 PUSH2 0x730 JUMP JUMPDEST SWAP1 POP SWAP2 SWAP1 POP JUMP JUMPDEST PUSH2 0x799 DUP2 PUSH2 0x77E JUMP JUMPDEST DUP3 MSTORE POP POP JUMP JUMPDEST PUSH1 0x0 PUSH1 0x20 DUP3 ADD SWAP1 POP PUSH2 0x7B4 PUSH1 0x0 DUP4 ADD DUP5 PUSH2 0x790 JUMP JUMPDEST SWAP3 SWAP2 POP POP JUMP JUMPDEST PUSH1 0x0 DUP2 ISZERO ISZERO SWAP1 POP SWAP2 SWAP1 POP JUMP JUMPDEST PUSH2 0x7CF DUP2 PUSH2 0x7BA JUMP JUMPDEST DUP3 MSTORE POP POP JUMP JUMPDEST PUSH1 0x0 PUSH1 0x20 DUP3 ADD SWAP1 POP PUSH2 0x7EA PUSH1 0x0 DUP4 ADD DUP5 PUSH2 0x7C6 JUMP JUMPDEST SWAP3 SWAP2 POP POP JUMP JUMPDEST PUSH1 0x0 PUSH2 0x7FB DUP3 PUSH2 0x730 JUMP JUMPDEST SWAP1 POP SWAP2 SWAP1 POP JUMP JUMPDEST PUSH2 0x80B DUP2 PUSH2 0x7F0 JUMP JUMPDEST DUP3 MSTORE POP POP JUMP JUMPDEST PUSH1 0x0 PUSH1 0x20 DUP3 ADD SWAP1 POP PUSH2 0x826 PUSH1 0x0 DUP4 ADD DUP5 PUSH2 0x802 JUMP JUMPDEST SWAP3 SWAP2 POP POP JUMP JUMPDEST PUSH1 0x0 PUSH2 0x837 DUP3 PUSH2 0x730 JUMP JUMPDEST SWAP1 POP SWAP2 SWAP1 POP JUMP JUMPDEST PUSH2 0x847 DUP2 PUSH2 0x82C JUMP JUMPDEST DUP3 MSTORE POP POP JUMP JUMPDEST PUSH1 0x0 PUSH1 0x20 DUP3 ADD SWAP1 POP PUSH2 0x862 PUSH1 0x0 DUP4 ADD DUP5 PUSH2 0x83E JUMP JUMPDEST SWAP3 SWAP2 POP POP JUMP JUMPDEST PUSH1 0x0 DUP2 MLOAD SWAP1 POP PUSH2 0x877 DUP2 PUSH2 0x681 JUMP JUMPDEST SWAP3 SWAP2 POP POP JUMP JUMPDEST PUSH1 0x0 PUSH1 0x20 DUP3 DUP5 SUB SLT ISZERO PUSH2 0x893 JUMPI PUSH2 0x892 PUSH2 0x672 JUMP JUMPDEST JUMPDEST PUSH1 0x0 PUSH2 0x8A1 DUP5 DUP3 DUP6 ADD PUSH2 0x868 JUMP JUMPDEST SWAP2 POP POP SWAP3 SWAP2 POP POP JUMP JUMPDEST PUSH2 0x8B3 DUP2 PUSH2 0x636 JUMP JUMPDEST DUP2 EQ PUSH2 0x8BE JUMPI PUSH1 0x0 DUP1 REVERT JUMPDEST POP JUMP JUMPDEST PUSH1 0x0 DUP2 MLOAD SWAP1 POP PUSH2 0x8D0 DUP2 PUSH2 0x8AA JUMP JUMPDEST SWAP3 SWAP2 POP POP JUMP JUMPDEST PUSH1 0x0 PUSH1 0x20 DUP3 DUP5 SUB SLT ISZERO PUSH2 0x8EC JUMPI PUSH2 0x8EB PUSH2 0x672 JUMP JUMPDEST JUMPDEST PUSH1 0x0 PUSH2 0x8FA DUP5 DUP3 DUP6 ADD PUSH2 0x8C1 JUMP JUMPDEST SWAP2 POP POP SWAP3 SWAP2 POP POP JUMP JUMPDEST PUSH1 0x0 PUSH2 0x90E DUP3 PUSH2 0x730 JUMP JUMPDEST SWAP1 POP SWAP2 SWAP1 POP JUMP JUMPDEST PUSH2 0x91E DUP2 PUSH2 0x903 JUMP JUMPDEST DUP3 MSTORE POP POP JUMP JUMPDEST PUSH1 0x0 PUSH1 0x60 DUP3 ADD SWAP1 POP PUSH2 0x939 PUSH1 0x0 DUP4 ADD DUP7 PUSH2 0x6DA JUMP JUMPDEST PUSH2 0x946 PUSH1 0x20 DUP4 ADD DUP6 PUSH2 0x915 JUMP JUMPDEST PUSH2 0x953 PUSH1 0x40 DUP4 ADD DUP5 PUSH2 0x915 JUMP JUMPDEST SWAP5 SWAP4 POP POP POP POP JUMP JUMPDEST PUSH32 0x4E487B7100000000000000000000000000000000000000000000000000000000 PUSH1 0x0 MSTORE PUSH1 0x11 PUSH1 0x4 MSTORE PUSH1 0x24 PUSH1 0x0 REVERT JUMPDEST PUSH1 0x0 PUSH2 0x995 DUP3 PUSH2 0x677 JUMP JUMPDEST SWAP2 POP PUSH32 0xFFFFFFFFFFFFFFFFFFFFFFFFFFFFFFFFFFFFFFFFFFFFFFFFFFFFFFFFFFFFFFFF DUP3 SUB PUSH2 0x9C7 JUMPI PUSH2 0x9C6 PUSH2 0x95B JUMP JUMPDEST JUMPDEST PUSH1 0x1 DUP3 ADD SWAP1 POP SWAP2 SWAP1 POP JUMP INVALID LOG2 PUSH5 0x6970667358 0x22 SLT KECCAK256 0xBC SSTORE PUSH31 0x3710A1B2A9BD482A04AF24C5D29796F5776F9C223B2C959F7E7BDCBDF66473 PUSH16 0x6C634300081100330000000000000000 "
				},
				"gasEstimates": {
					"creation": {
						"codeDepositCost": "513600",
						"executionCost": "168257",
						"totalCost": "681857"
					},
					"external": {
						"ETH()": "2429",
						"EXrate(uint256)": "infinite",
						"defi()": "2515",
						"factory()": "infinite",
						"getExRates()": "infinite",
						"pairGetter()": "infinite",
						"router()": "infinite",
						"wechselkurs()": "infinite",
						"weth()": "2537"
					}
				},
				"methodIdentifiers": {
					"ETH()": "8322fff2",
					"EXrate(uint256)": "57bc8be3",
					"defi()": "38c0f073",
					"factory()": "c45a0155",
					"getExRates()": "c95097b1",
					"pairGetter()": "7a7beed3",
					"router()": "f887ea40",
					"wechselkurs()": "c985395d",
					"weth()": "3fc8cef3"
				}
			},
			"storageLayout": {
				"storage": [
					{
						"astId": 1001,
						"contract": "solutions.sol:GetExchangeRate",
						"label": "pairGetter",
						"offset": 0,
						"slot": "0",
						"type": "t_contract(PairGetter)998"
					},
					{
						"astId": 1004,
						"contract": "solutions.sol:GetExchangeRate",
						"label": "factory",
						"offset": 0,
						"slot": "1",
						"type": "t_contract(IFactory)62"
					},
					{
						"astId": 1007,
						"contract": "solutions.sol:GetExchangeRate",
						"label": "router",
						"offset": 0,
						"slot": "2",
						"type": "t_contract(IRouter)312"
					},
					{
						"astId": 1010,
						"contract": "solutions.sol:GetExchangeRate",
						"label": "wechselkurs",
						"offset": 0,
						"slot": "3",
						"type": "t_contract(Wechselkurs)763"
					},
					{
						"astId": 1013,
						"contract": "solutions.sol:GetExchangeRate",
						"label": "weth",
						"offset": 0,
						"slot": "4",
						"type": "t_address"
					},
					{
						"astId": 1016,
						"contract": "solutions.sol:GetExchangeRate",
						"label": "defi",
						"offset": 0,
						"slot": "5",
						"type": "t_address"
					},
					{
						"astId": 1019,
						"contract": "solutions.sol:GetExchangeRate",
						"label": "ETH",
						"offset": 0,
						"slot": "6",
						"type": "t_uint256"
					},
					{
						"astId": 1022,
						"contract": "solutions.sol:GetExchangeRate",
						"label": "EXrate",
						"offset": 0,
						"slot": "7",
						"type": "t_array(t_uint256)dyn_storage"
					}
				],
				"types": {
					"t_address": {
						"encoding": "inplace",
						"label": "address",
						"numberOfBytes": "20"
					},
					"t_array(t_uint256)dyn_storage": {
						"base": "t_uint256",
						"encoding": "dynamic_array",
						"label": "uint256[]",
						"numberOfBytes": "32"
					},
					"t_contract(IFactory)62": {
						"encoding": "inplace",
						"label": "contract IFactory",
						"numberOfBytes": "20"
					},
					"t_contract(IRouter)312": {
						"encoding": "inplace",
						"label": "contract IRouter",
						"numberOfBytes": "20"
					},
					"t_contract(PairGetter)998": {
						"encoding": "inplace",
						"label": "contract PairGetter",
						"numberOfBytes": "20"
					},
					"t_contract(Wechselkurs)763": {
						"encoding": "inplace",
						"label": "contract Wechselkurs",
						"numberOfBytes": "20"
					},
					"t_uint256": {
						"encoding": "inplace",
						"label": "uint256",
						"numberOfBytes": "32"
					}
				}
			},
			"userdoc": {
				"kind": "user",
				"methods": {},
				"version": 1
			}
		}
	}
}