{
	"solutions.sol": {
		"PairGetter": {
			"abi": [
				{
					"inputs": [],
					"stateMutability": "nonpayable",
					"type": "constructor"
				},
				{
					"inputs": [],
					"name": "ActualPairs",
					"outputs": [
						{
							"internalType": "uint256",
							"name": "",
							"type": "uint256"
						}
					],
					"stateMutability": "view",
					"type": "function"
				},
				{
					"inputs": [],
					"name": "factory",
					"outputs": [
						{
							"internalType": "contract IFactory",
							"name": "",
							"type": "address"
						}
					],
					"stateMutability": "view",
					"type": "function"
				},
				{
					"inputs": [],
					"name": "getAllPairs",
					"outputs": [
						{
							"internalType": "bool",
							"name": "",
							"type": "bool"
						}
					],
					"stateMutability": "nonpayable",
					"type": "function"
				},
				{
					"inputs": [],
					"name": "ind",
					"outputs": [
						{
							"internalType": "uint256",
							"name": "",
							"type": "uint256"
						}
					],
					"stateMutability": "view",
					"type": "function"
				},
				{
					"inputs": [
						{
							"internalType": "address",
							"name": "",
							"type": "address"
						},
						{
							"internalType": "uint256",
							"name": "",
							"type": "uint256"
						}
					],
					"name": "pairs",
					"outputs": [
						{
							"internalType": "address",
							"name": "",
							"type": "address"
						}
					],
					"stateMutability": "view",
					"type": "function"
				},
				{
					"inputs": [],
					"name": "router",
					"outputs": [
						{
							"internalType": "contract IRouter",
							"name": "",
							"type": "address"
						}
					],
					"stateMutability": "view",
					"type": "function"
				},
				{
					"inputs": [
						{
							"internalType": "uint256",
							"name": "",
							"type": "uint256"
						}
					],
					"name": "uniqueAddresses",
					"outputs": [
						{
							"internalType": "address",
							"name": "",
							"type": "address"
						}
					],
					"stateMutability": "view",
					"type": "function"
				}
			],
			"devdoc": {
				"kind": "dev",
				"methods": {},
				"version": 1
			},
			"evm": {
				"assembly": "    /* \"solutions.sol\":8796:10680  contract PairGetter {... */\n  mstore(0x40, 0x80)\n    /* \"solutions.sol\":8896:8938  0xDE39C89e7A8E3Fc73e1e7f8b2edecD4c7FE62b66 */\n  0xde39c89e7a8e3fc73e1e7f8b2edecd4c7fe62b66\n    /* \"solutions.sol\":8881:8938  address weth = 0xDE39C89e7A8E3Fc73e1e7f8b2edecD4c7FE62b66 */\n  0x02\n  exp(0x0100, 0x00)\n  dup2\n  sload\n  dup2\n  0xffffffffffffffffffffffffffffffffffffffff\n  mul\n  not\n  and\n  swap1\n  dup4\n  0xffffffffffffffffffffffffffffffffffffffff\n  and\n  mul\n  or\n  swap1\n  sstore\n  pop\n    /* \"solutions.sol\":8960:9002  0xE5873093edA4e64b77C80186aDC5be024444fcbd */\n  0xe5873093eda4e64b77c80186adc5be024444fcbd\n    /* \"solutions.sol\":8945:9002  address defi = 0xE5873093edA4e64b77C80186aDC5be024444fcbd */\n  0x03\n  exp(0x0100, 0x00)\n  dup2\n  sload\n  dup2\n  0xffffffffffffffffffffffffffffffffffffffff\n  mul\n  not\n  and\n  swap1\n  dup4\n  0xffffffffffffffffffffffffffffffffffffffff\n  and\n  mul\n  or\n  swap1\n  sstore\n  pop\n    /* \"solutions.sol\":9175:9176  0 */\n  0x00\n    /* \"solutions.sol\":9154:9176  uint256 public ind = 0 */\n  0x07\n  sstore\n    /* \"solutions.sol\":9212:9213  0 */\n  0x00\n    /* \"solutions.sol\":9183:9213  uint256 public ActualPairs = 0 */\n  0x08\n  sstore\n    /* \"solutions.sol\":9220:9386  constructor() {... */\n  callvalue\n  dup1\n  iszero\n  tag_1\n  jumpi\n  0x00\n  dup1\n  revert\ntag_1:\n  pop\n    /* \"solutions.sol\":9264:9306  0x0Ca73866dFf0f6b0508F5Cbb223C857C19463e07 */\n  0x0ca73866dff0f6b0508f5cbb223c857c19463e07\n    /* \"solutions.sol\":9245:9252  factory */\n  0x00\n  dup1\n    /* \"solutions.sol\":9245:9307  factory = IFactory(0x0Ca73866dFf0f6b0508F5Cbb223C857C19463e07) */\n  0x0100\n  exp\n  dup2\n  sload\n  dup2\n  0xffffffffffffffffffffffffffffffffffffffff\n  mul\n  not\n  and\n  swap1\n  dup4\n  0xffffffffffffffffffffffffffffffffffffffff\n  and\n  mul\n  or\n  swap1\n  sstore\n  pop\n    /* \"solutions.sol\":9335:9377  0x5DA88dF55AF2E5681D33f36e5916d63797BF4766 */\n  0x5da88df55af2e5681d33f36e5916d63797bf4766\n    /* \"solutions.sol\":9318:9324  router */\n  0x01\n  0x00\n    /* \"solutions.sol\":9318:9378  router = IRouter(0x5DA88dF55AF2E5681D33f36e5916d63797BF4766) */\n  0x0100\n  exp\n  dup2\n  sload\n  dup2\n  0xffffffffffffffffffffffffffffffffffffffff\n  mul\n  not\n  and\n  swap1\n  dup4\n  0xffffffffffffffffffffffffffffffffffffffff\n  and\n  mul\n  or\n  swap1\n  sstore\n  pop\n    /* \"solutions.sol\":8796:10680  contract PairGetter {... */\n  dataSize(sub_0)\n  dup1\n  dataOffset(sub_0)\n  0x00\n  codecopy\n  0x00\n  return\nstop\n\nsub_0: assembly {\n        /* \"solutions.sol\":8796:10680  contract PairGetter {... */\n      mstore(0x40, 0x80)\n      callvalue\n      dup1\n      iszero\n      tag_1\n      jumpi\n      0x00\n      dup1\n      revert\n    tag_1:\n      pop\n      jumpi(tag_2, lt(calldatasize, 0x04))\n      shr(0xe0, calldataload(0x00))\n      dup1\n      0xc417808d\n      gt\n      tag_10\n      jumpi\n      dup1\n      0xc417808d\n      eq\n      tag_6\n      jumpi\n      dup1\n      0xc45a0155\n      eq\n      tag_7\n      jumpi\n      dup1\n      0xf800ece9\n      eq\n      tag_8\n      jumpi\n      dup1\n      0xf887ea40\n      eq\n      tag_9\n      jumpi\n      jump(tag_2)\n    tag_10:\n      dup1\n      0x03d40513\n      eq\n      tag_3\n      jumpi\n      dup1\n      0x240e5b58\n      eq\n      tag_4\n      jumpi\n      dup1\n      0x8e75b5e6\n      eq\n      tag_5\n      jumpi\n    tag_2:\n      0x00\n      dup1\n      revert\n        /* \"solutions.sol\":9009:9052  mapping(address => address[2]) public pairs */\n    tag_3:\n      tag_11\n      0x04\n      dup1\n      calldatasize\n      sub\n      dup2\n      add\n      swap1\n      tag_12\n      swap2\n      swap1\n      tag_13\n      jump\t// in\n    tag_12:\n      tag_14\n      jump\t// in\n    tag_11:\n      mload(0x40)\n      tag_15\n      swap2\n      swap1\n      tag_16\n      jump\t// in\n    tag_15:\n      mload(0x40)\n      dup1\n      swap2\n      sub\n      swap1\n      return\n        /* \"solutions.sol\":9154:9176  uint256 public ind = 0 */\n    tag_4:\n      tag_17\n      tag_18\n      jump\t// in\n    tag_17:\n      mload(0x40)\n      tag_19\n      swap2\n      swap1\n      tag_20\n      jump\t// in\n    tag_19:\n      mload(0x40)\n      dup1\n      swap2\n      sub\n      swap1\n      return\n        /* \"solutions.sol\":9097:9147  mapping(uint256 => address) public uniqueAddresses */\n    tag_5:\n      tag_21\n      0x04\n      dup1\n      calldatasize\n      sub\n      dup2\n      add\n      swap1\n      tag_22\n      swap2\n      swap1\n      tag_23\n      jump\t// in\n    tag_22:\n      tag_24\n      jump\t// in\n    tag_21:\n      mload(0x40)\n      tag_25\n      swap2\n      swap1\n      tag_16\n      jump\t// in\n    tag_25:\n      mload(0x40)\n      dup1\n      swap2\n      sub\n      swap1\n      return\n        /* \"solutions.sol\":9183:9213  uint256 public ActualPairs = 0 */\n    tag_6:\n      tag_26\n      tag_27\n      jump\t// in\n    tag_26:\n      mload(0x40)\n      tag_28\n      swap2\n      swap1\n      tag_20\n      jump\t// in\n    tag_28:\n      mload(0x40)\n      dup1\n      swap2\n      sub\n      swap1\n      return\n        /* \"solutions.sol\":8823:8846  IFactory public factory */\n    tag_7:\n      tag_29\n      tag_30\n      jump\t// in\n    tag_29:\n      mload(0x40)\n      tag_31\n      swap2\n      swap1\n      tag_32\n      jump\t// in\n    tag_31:\n      mload(0x40)\n      dup1\n      swap2\n      sub\n      swap1\n      return\n        /* \"solutions.sol\":9394:10677  function getAllPairs() public returns (bool) {... */\n    tag_8:\n      tag_33\n      tag_34\n      jump\t// in\n    tag_33:\n      mload(0x40)\n      tag_35\n      swap2\n      swap1\n      tag_36\n      jump\t// in\n    tag_35:\n      mload(0x40)\n      dup1\n      swap2\n      sub\n      swap1\n      return\n        /* \"solutions.sol\":8853:8874  IRouter public router */\n    tag_9:\n      tag_37\n      tag_38\n      jump\t// in\n    tag_37:\n      mload(0x40)\n      tag_39\n      swap2\n      swap1\n      tag_40\n      jump\t// in\n    tag_39:\n      mload(0x40)\n      dup1\n      swap2\n      sub\n      swap1\n      return\n        /* \"solutions.sol\":9009:9052  mapping(address => address[2]) public pairs */\n    tag_14:\n      mstore(0x20, 0x04)\n      dup2\n      0x00\n      mstore\n      keccak256(0x00, 0x40)\n      dup2\n      0x02\n      dup2\n      lt\n      tag_41\n      jumpi\n      0x00\n      dup1\n      revert\n    tag_41:\n      add\n      0x00\n      swap2\n      pop\n      swap2\n      pop\n      swap1\n      sload\n      swap1\n      0x0100\n      exp\n      swap1\n      div\n      0xffffffffffffffffffffffffffffffffffffffff\n      and\n      dup2\n      jump\t// out\n        /* \"solutions.sol\":9154:9176  uint256 public ind = 0 */\n    tag_18:\n      sload(0x07)\n      dup2\n      jump\t// out\n        /* \"solutions.sol\":9097:9147  mapping(uint256 => address) public uniqueAddresses */\n    tag_24:\n      mstore(0x20, 0x06)\n      dup1\n      0x00\n      mstore\n      keccak256(0x00, 0x40)\n      0x00\n      swap2\n      pop\n      sload\n      swap1\n      0x0100\n      exp\n      swap1\n      div\n      0xffffffffffffffffffffffffffffffffffffffff\n      and\n      dup2\n      jump\t// out\n        /* \"solutions.sol\":9183:9213  uint256 public ActualPairs = 0 */\n    tag_27:\n      sload(0x08)\n      dup2\n      jump\t// out\n        /* \"solutions.sol\":8823:8846  IFactory public factory */\n    tag_30:\n      0x00\n      dup1\n      sload\n      swap1\n      0x0100\n      exp\n      swap1\n      div\n      0xffffffffffffffffffffffffffffffffffffffff\n      and\n      dup2\n      jump\t// out\n        /* \"solutions.sol\":9394:10677  function getAllPairs() public returns (bool) {... */\n    tag_34:\n        /* \"solutions.sol\":9433:9437  bool */\n      0x00\n        /* \"solutions.sol\":9450:9464  uint256 length */\n      dup1\n        /* \"solutions.sol\":9467:9474  factory */\n      0x00\n      dup1\n      sload\n      swap1\n      0x0100\n      exp\n      swap1\n      div\n      0xffffffffffffffffffffffffffffffffffffffff\n      and\n        /* \"solutions.sol\":9467:9489  factory.allPairsLength */\n      0xffffffffffffffffffffffffffffffffffffffff\n      and\n      0x574f2ba3\n        /* \"solutions.sol\":9467:9491  factory.allPairsLength() */\n      mload(0x40)\n      dup2\n      0xffffffff\n      and\n      0xe0\n      shl\n      dup2\n      mstore\n      0x04\n      add\n      0x20\n      mload(0x40)\n      dup1\n      dup4\n      sub\n      dup2\n      dup7\n      gas\n      staticcall\n      iszero\n      dup1\n      iszero\n      tag_45\n      jumpi\n      returndatasize\n      0x00\n      dup1\n      returndatacopy\n      revert(0x00, returndatasize)\n    tag_45:\n      pop\n      pop\n      pop\n      pop\n      mload(0x40)\n      returndatasize\n      not(0x1f)\n      0x1f\n      dup3\n      add\n      and\n      dup3\n      add\n      dup1\n      0x40\n      mstore\n      pop\n      dup2\n      add\n      swap1\n      tag_46\n      swap2\n      swap1\n      tag_47\n      jump\t// in\n    tag_46:\n        /* \"solutions.sol\":9450:9491  uint256 length = factory.allPairsLength() */\n      swap1\n      pop\n        /* \"solutions.sol\":9517:9526  uint256 i */\n      0x00\n        /* \"solutions.sol\":9512:10126  for (uint256 i = 0; i < length; i++) {... */\n    tag_48:\n        /* \"solutions.sol\":9536:9542  length */\n      dup2\n        /* \"solutions.sol\":9532:9533  i */\n      dup2\n        /* \"solutions.sol\":9532:9542  i < length */\n      lt\n        /* \"solutions.sol\":9512:10126  for (uint256 i = 0; i < length; i++) {... */\n      iszero\n      tag_49\n      jumpi\n        /* \"solutions.sol\":9564:9581  IPair pairAddress */\n      0x00\n        /* \"solutions.sol\":9590:9597  factory */\n      dup1\n      0x00\n      swap1\n      sload\n      swap1\n      0x0100\n      exp\n      swap1\n      div\n      0xffffffffffffffffffffffffffffffffffffffff\n      and\n        /* \"solutions.sol\":9590:9606  factory.allPairs */\n      0xffffffffffffffffffffffffffffffffffffffff\n      and\n      0x1e3dd18b\n        /* \"solutions.sol\":9607:9608  i */\n      dup4\n        /* \"solutions.sol\":9590:9609  factory.allPairs(i) */\n      mload(0x40)\n      dup3\n      0xffffffff\n      and\n      0xe0\n      shl\n      dup2\n      mstore\n      0x04\n      add\n      tag_51\n      swap2\n      swap1\n      tag_20\n      jump\t// in\n    tag_51:\n      0x20\n      mload(0x40)\n      dup1\n      dup4\n      sub\n      dup2\n      dup7\n      gas\n      staticcall\n      iszero\n      dup1\n      iszero\n      tag_53\n      jumpi\n      returndatasize\n      0x00\n      dup1\n      returndatacopy\n      revert(0x00, returndatasize)\n    tag_53:\n      pop\n      pop\n      pop\n      pop\n      mload(0x40)\n      returndatasize\n      not(0x1f)\n      0x1f\n      dup3\n      add\n      and\n      dup3\n      add\n      dup1\n      0x40\n      mstore\n      pop\n      dup2\n      add\n      swap1\n      tag_54\n      swap2\n      swap1\n      tag_55\n      jump\t// in\n    tag_54:\n        /* \"solutions.sol\":9564:9610  IPair pairAddress = IPair(factory.allPairs(i)) */\n      swap1\n      pop\n        /* \"solutions.sol\":9625:9639  address token0 */\n      0x00\n        /* \"solutions.sol\":9642:9653  pairAddress */\n      dup2\n        /* \"solutions.sol\":9642:9660  pairAddress.token0 */\n      0xffffffffffffffffffffffffffffffffffffffff\n      and\n      0x0dfe1681\n        /* \"solutions.sol\":9642:9662  pairAddress.token0() */\n      mload(0x40)\n      dup2\n      0xffffffff\n      and\n      0xe0\n      shl\n      dup2\n      mstore\n      0x04\n      add\n      0x20\n      mload(0x40)\n      dup1\n      dup4\n      sub\n      dup2\n      dup7\n      gas\n      staticcall\n      iszero\n      dup1\n      iszero\n      tag_57\n      jumpi\n      returndatasize\n      0x00\n      dup1\n      returndatacopy\n      revert(0x00, returndatasize)\n    tag_57:\n      pop\n      pop\n      pop\n      pop\n      mload(0x40)\n      returndatasize\n      not(0x1f)\n      0x1f\n      dup3\n      add\n      and\n      dup3\n      add\n      dup1\n      0x40\n      mstore\n      pop\n      dup2\n      add\n      swap1\n      tag_58\n      swap2\n      swap1\n      tag_55\n      jump\t// in\n    tag_58:\n        /* \"solutions.sol\":9625:9662  address token0 = pairAddress.token0() */\n      swap1\n      pop\n        /* \"solutions.sol\":9677:9691  address token1 */\n      0x00\n        /* \"solutions.sol\":9694:9705  pairAddress */\n      dup3\n        /* \"solutions.sol\":9694:9712  pairAddress.token1 */\n      0xffffffffffffffffffffffffffffffffffffffff\n      and\n      0xd21220a7\n        /* \"solutions.sol\":9694:9714  pairAddress.token1() */\n      mload(0x40)\n      dup2\n      0xffffffff\n      and\n      0xe0\n      shl\n      dup2\n      mstore\n      0x04\n      add\n      0x20\n      mload(0x40)\n      dup1\n      dup4\n      sub\n      dup2\n      dup7\n      gas\n      staticcall\n      iszero\n      dup1\n      iszero\n      tag_60\n      jumpi\n      returndatasize\n      0x00\n      dup1\n      returndatacopy\n      revert(0x00, returndatasize)\n    tag_60:\n      pop\n      pop\n      pop\n      pop\n      mload(0x40)\n      returndatasize\n      not(0x1f)\n      0x1f\n      dup3\n      add\n      and\n      dup3\n      add\n      dup1\n      0x40\n      mstore\n      pop\n      dup2\n      add\n      swap1\n      tag_61\n      swap2\n      swap1\n      tag_55\n      jump\t// in\n    tag_61:\n        /* \"solutions.sol\":9677:9714  address token1 = pairAddress.token1() */\n      swap1\n      pop\n        /* \"solutions.sol\":9745:9749  weth */\n      0x02\n      0x00\n      swap1\n      sload\n      swap1\n      0x0100\n      exp\n      swap1\n      div\n      0xffffffffffffffffffffffffffffffffffffffff\n      and\n        /* \"solutions.sol\":9735:9749  token0 != weth */\n      0xffffffffffffffffffffffffffffffffffffffff\n      and\n        /* \"solutions.sol\":9735:9741  token0 */\n      dup3\n        /* \"solutions.sol\":9735:9749  token0 != weth */\n      0xffffffffffffffffffffffffffffffffffffffff\n      and\n      eq\n      iszero\n        /* \"solutions.sol\":9735:9767  token0 != weth && token0 != defi */\n      dup1\n      iszero\n      tag_62\n      jumpi\n      pop\n        /* \"solutions.sol\":9763:9767  defi */\n      0x03\n      0x00\n      swap1\n      sload\n      swap1\n      0x0100\n      exp\n      swap1\n      div\n      0xffffffffffffffffffffffffffffffffffffffff\n      and\n        /* \"solutions.sol\":9753:9767  token0 != defi */\n      0xffffffffffffffffffffffffffffffffffffffff\n      and\n        /* \"solutions.sol\":9753:9759  token0 */\n      dup3\n        /* \"solutions.sol\":9753:9767  token0 != defi */\n      0xffffffffffffffffffffffffffffffffffffffff\n      and\n      eq\n      iszero\n        /* \"solutions.sol\":9735:9767  token0 != weth && token0 != defi */\n    tag_62:\n        /* \"solutions.sol\":9735:9786  token0 != weth && token0 != defi && !exists[token0] */\n      dup1\n      iszero\n      tag_63\n      jumpi\n      pop\n        /* \"solutions.sol\":9772:9778  exists */\n      0x05\n        /* \"solutions.sol\":9772:9786  exists[token0] */\n      0x00\n        /* \"solutions.sol\":9779:9785  token0 */\n      dup4\n        /* \"solutions.sol\":9772:9786  exists[token0] */\n      0xffffffffffffffffffffffffffffffffffffffff\n      and\n      0xffffffffffffffffffffffffffffffffffffffff\n      and\n      dup2\n      mstore\n      0x20\n      add\n      swap1\n      dup2\n      mstore\n      0x20\n      add\n      0x00\n      keccak256\n      0x00\n      swap1\n      sload\n      swap1\n      0x0100\n      exp\n      swap1\n      div\n      0xff\n      and\n        /* \"solutions.sol\":9771:9786  !exists[token0] */\n      iszero\n        /* \"solutions.sol\":9735:9786  token0 != weth && token0 != defi && !exists[token0] */\n    tag_63:\n        /* \"solutions.sol\":9731:9916  if (token0 != weth && token0 != defi && !exists[token0]) {... */\n      iszero\n      tag_64\n      jumpi\n        /* \"solutions.sol\":9824:9828  true */\n      0x01\n        /* \"solutions.sol\":9807:9813  exists */\n      0x05\n        /* \"solutions.sol\":9807:9821  exists[token0] */\n      0x00\n        /* \"solutions.sol\":9814:9820  token0 */\n      dup5\n        /* \"solutions.sol\":9807:9821  exists[token0] */\n      0xffffffffffffffffffffffffffffffffffffffff\n      and\n      0xffffffffffffffffffffffffffffffffffffffff\n      and\n      dup2\n      mstore\n      0x20\n      add\n      swap1\n      dup2\n      mstore\n      0x20\n      add\n      0x00\n      keccak256\n      0x00\n        /* \"solutions.sol\":9807:9828  exists[token0] = true */\n      0x0100\n      exp\n      dup2\n      sload\n      dup2\n      0xff\n      mul\n      not\n      and\n      swap1\n      dup4\n      iszero\n      iszero\n      mul\n      or\n      swap1\n      sstore\n      pop\n        /* \"solutions.sol\":9870:9876  token0 */\n      dup2\n        /* \"solutions.sol\":9847:9862  uniqueAddresses */\n      0x06\n        /* \"solutions.sol\":9847:9867  uniqueAddresses[ind] */\n      0x00\n        /* \"solutions.sol\":9863:9866  ind */\n      sload(0x07)\n        /* \"solutions.sol\":9847:9867  uniqueAddresses[ind] */\n      dup2\n      mstore\n      0x20\n      add\n      swap1\n      dup2\n      mstore\n      0x20\n      add\n      0x00\n      keccak256\n      0x00\n        /* \"solutions.sol\":9847:9876  uniqueAddresses[ind] = token0 */\n      0x0100\n      exp\n      dup2\n      sload\n      dup2\n      0xffffffffffffffffffffffffffffffffffffffff\n      mul\n      not\n      and\n      swap1\n      dup4\n      0xffffffffffffffffffffffffffffffffffffffff\n      and\n      mul\n      or\n      swap1\n      sstore\n      pop\n        /* \"solutions.sol\":9895:9898  ind */\n      0x07\n      0x00\n        /* \"solutions.sol\":9895:9900  ind++ */\n      dup2\n      sload\n      dup1\n      swap3\n      swap2\n      swap1\n      tag_65\n      swap1\n      tag_66\n      jump\t// in\n    tag_65:\n      swap2\n      swap1\n      pop\n      sstore\n      pop\n        /* \"solutions.sol\":9731:9916  if (token0 != weth && token0 != defi && !exists[token0]) {... */\n    tag_64:\n        /* \"solutions.sol\":9944:9948  weth */\n      0x02\n      0x00\n      swap1\n      sload\n      swap1\n      0x0100\n      exp\n      swap1\n      div\n      0xffffffffffffffffffffffffffffffffffffffff\n      and\n        /* \"solutions.sol\":9934:9948  token1 != weth */\n      0xffffffffffffffffffffffffffffffffffffffff\n      and\n        /* \"solutions.sol\":9934:9940  token1 */\n      dup2\n        /* \"solutions.sol\":9934:9948  token1 != weth */\n      0xffffffffffffffffffffffffffffffffffffffff\n      and\n      eq\n      iszero\n        /* \"solutions.sol\":9934:9966  token1 != weth && token1 != defi */\n      dup1\n      iszero\n      tag_67\n      jumpi\n      pop\n        /* \"solutions.sol\":9962:9966  defi */\n      0x03\n      0x00\n      swap1\n      sload\n      swap1\n      0x0100\n      exp\n      swap1\n      div\n      0xffffffffffffffffffffffffffffffffffffffff\n      and\n        /* \"solutions.sol\":9952:9966  token1 != defi */\n      0xffffffffffffffffffffffffffffffffffffffff\n      and\n        /* \"solutions.sol\":9952:9958  token1 */\n      dup2\n        /* \"solutions.sol\":9952:9966  token1 != defi */\n      0xffffffffffffffffffffffffffffffffffffffff\n      and\n      eq\n      iszero\n        /* \"solutions.sol\":9934:9966  token1 != weth && token1 != defi */\n    tag_67:\n        /* \"solutions.sol\":9934:9985  token1 != weth && token1 != defi && !exists[token1] */\n      dup1\n      iszero\n      tag_68\n      jumpi\n      pop\n        /* \"solutions.sol\":9971:9977  exists */\n      0x05\n        /* \"solutions.sol\":9971:9985  exists[token1] */\n      0x00\n        /* \"solutions.sol\":9978:9984  token1 */\n      dup3\n        /* \"solutions.sol\":9971:9985  exists[token1] */\n      0xffffffffffffffffffffffffffffffffffffffff\n      and\n      0xffffffffffffffffffffffffffffffffffffffff\n      and\n      dup2\n      mstore\n      0x20\n      add\n      swap1\n      dup2\n      mstore\n      0x20\n      add\n      0x00\n      keccak256\n      0x00\n      swap1\n      sload\n      swap1\n      0x0100\n      exp\n      swap1\n      div\n      0xff\n      and\n        /* \"solutions.sol\":9970:9985  !exists[token1] */\n      iszero\n        /* \"solutions.sol\":9934:9985  token1 != weth && token1 != defi && !exists[token1] */\n    tag_68:\n        /* \"solutions.sol\":9930:10115  if (token1 != weth && token1 != defi && !exists[token1]) {... */\n      iszero\n      tag_69\n      jumpi\n        /* \"solutions.sol\":10023:10027  true */\n      0x01\n        /* \"solutions.sol\":10006:10012  exists */\n      0x05\n        /* \"solutions.sol\":10006:10020  exists[token1] */\n      0x00\n        /* \"solutions.sol\":10013:10019  token1 */\n      dup4\n        /* \"solutions.sol\":10006:10020  exists[token1] */\n      0xffffffffffffffffffffffffffffffffffffffff\n      and\n      0xffffffffffffffffffffffffffffffffffffffff\n      and\n      dup2\n      mstore\n      0x20\n      add\n      swap1\n      dup2\n      mstore\n      0x20\n      add\n      0x00\n      keccak256\n      0x00\n        /* \"solutions.sol\":10006:10027  exists[token1] = true */\n      0x0100\n      exp\n      dup2\n      sload\n      dup2\n      0xff\n      mul\n      not\n      and\n      swap1\n      dup4\n      iszero\n      iszero\n      mul\n      or\n      swap1\n      sstore\n      pop\n        /* \"solutions.sol\":10069:10075  token1 */\n      dup1\n        /* \"solutions.sol\":10046:10061  uniqueAddresses */\n      0x06\n        /* \"solutions.sol\":10046:10066  uniqueAddresses[ind] */\n      0x00\n        /* \"solutions.sol\":10062:10065  ind */\n      sload(0x07)\n        /* \"solutions.sol\":10046:10066  uniqueAddresses[ind] */\n      dup2\n      mstore\n      0x20\n      add\n      swap1\n      dup2\n      mstore\n      0x20\n      add\n      0x00\n      keccak256\n      0x00\n        /* \"solutions.sol\":10046:10075  uniqueAddresses[ind] = token1 */\n      0x0100\n      exp\n      dup2\n      sload\n      dup2\n      0xffffffffffffffffffffffffffffffffffffffff\n      mul\n      not\n      and\n      swap1\n      dup4\n      0xffffffffffffffffffffffffffffffffffffffff\n      and\n      mul\n      or\n      swap1\n      sstore\n      pop\n        /* \"solutions.sol\":10094:10097  ind */\n      0x07\n      0x00\n        /* \"solutions.sol\":10094:10099  ind++ */\n      dup2\n      sload\n      dup1\n      swap3\n      swap2\n      swap1\n      tag_70\n      swap1\n      tag_66\n      jump\t// in\n    tag_70:\n      swap2\n      swap1\n      pop\n      sstore\n      pop\n        /* \"solutions.sol\":9930:10115  if (token1 != weth && token1 != defi && !exists[token1]) {... */\n    tag_69:\n        /* \"solutions.sol\":9549:10126  {... */\n      pop\n      pop\n      pop\n        /* \"solutions.sol\":9544:9547  i++ */\n      dup1\n      dup1\n      tag_71\n      swap1\n      tag_66\n      jump\t// in\n    tag_71:\n      swap2\n      pop\n      pop\n        /* \"solutions.sol\":9512:10126  for (uint256 i = 0; i < length; i++) {... */\n      jump(tag_48)\n    tag_49:\n      pop\n        /* \"solutions.sol\":10151:10160  uint256 i */\n      0x00\n        /* \"solutions.sol\":10146:10646  for (uint256 i = 0; i < ind; i++) {... */\n    tag_72:\n        /* \"solutions.sol\":10170:10173  ind */\n      sload(0x07)\n        /* \"solutions.sol\":10166:10167  i */\n      dup2\n        /* \"solutions.sol\":10166:10173  i < ind */\n      lt\n        /* \"solutions.sol\":10146:10646  for (uint256 i = 0; i < ind; i++) {... */\n      iszero\n      tag_73\n      jumpi\n        /* \"solutions.sol\":10195:10208  address pair0 */\n      0x00\n        /* \"solutions.sol\":10211:10218  factory */\n      dup1\n      0x00\n      swap1\n      sload\n      swap1\n      0x0100\n      exp\n      swap1\n      div\n      0xffffffffffffffffffffffffffffffffffffffff\n      and\n        /* \"solutions.sol\":10211:10226  factory.getPair */\n      0xffffffffffffffffffffffffffffffffffffffff\n      and\n      0xe6a43905\n        /* \"solutions.sol\":10227:10242  uniqueAddresses */\n      0x06\n        /* \"solutions.sol\":10227:10245  uniqueAddresses[i] */\n      0x00\n        /* \"solutions.sol\":10243:10244  i */\n      dup6\n        /* \"solutions.sol\":10227:10245  uniqueAddresses[i] */\n      dup2\n      mstore\n      0x20\n      add\n      swap1\n      dup2\n      mstore\n      0x20\n      add\n      0x00\n      keccak256\n      0x00\n      swap1\n      sload\n      swap1\n      0x0100\n      exp\n      swap1\n      div\n      0xffffffffffffffffffffffffffffffffffffffff\n      and\n        /* \"solutions.sol\":10247:10251  weth */\n      0x02\n      0x00\n      swap1\n      sload\n      swap1\n      0x0100\n      exp\n      swap1\n      div\n      0xffffffffffffffffffffffffffffffffffffffff\n      and\n        /* \"solutions.sol\":10211:10252  factory.getPair(uniqueAddresses[i], weth) */\n      mload(0x40)\n      dup4\n      0xffffffff\n      and\n      0xe0\n      shl\n      dup2\n      mstore\n      0x04\n      add\n      tag_75\n      swap3\n      swap2\n      swap1\n      tag_76\n      jump\t// in\n    tag_75:\n      0x20\n      mload(0x40)\n      dup1\n      dup4\n      sub\n      dup2\n      dup7\n      gas\n      staticcall\n      iszero\n      dup1\n      iszero\n      tag_78\n      jumpi\n      returndatasize\n      0x00\n      dup1\n      returndatacopy\n      revert(0x00, returndatasize)\n    tag_78:\n      pop\n      pop\n      pop\n      pop\n      mload(0x40)\n      returndatasize\n      not(0x1f)\n      0x1f\n      dup3\n      add\n      and\n      dup3\n      add\n      dup1\n      0x40\n      mstore\n      pop\n      dup2\n      add\n      swap1\n      tag_79\n      swap2\n      swap1\n      tag_55\n      jump\t// in\n    tag_79:\n        /* \"solutions.sol\":10195:10252  address pair0 = factory.getPair(uniqueAddresses[i], weth) */\n      swap1\n      pop\n        /* \"solutions.sol\":10267:10280  address pair1 */\n      0x00\n        /* \"solutions.sol\":10283:10290  factory */\n      dup1\n      0x00\n      swap1\n      sload\n      swap1\n      0x0100\n      exp\n      swap1\n      div\n      0xffffffffffffffffffffffffffffffffffffffff\n      and\n        /* \"solutions.sol\":10283:10298  factory.getPair */\n      0xffffffffffffffffffffffffffffffffffffffff\n      and\n      0xe6a43905\n        /* \"solutions.sol\":10299:10314  uniqueAddresses */\n      0x06\n        /* \"solutions.sol\":10299:10317  uniqueAddresses[i] */\n      0x00\n        /* \"solutions.sol\":10315:10316  i */\n      dup7\n        /* \"solutions.sol\":10299:10317  uniqueAddresses[i] */\n      dup2\n      mstore\n      0x20\n      add\n      swap1\n      dup2\n      mstore\n      0x20\n      add\n      0x00\n      keccak256\n      0x00\n      swap1\n      sload\n      swap1\n      0x0100\n      exp\n      swap1\n      div\n      0xffffffffffffffffffffffffffffffffffffffff\n      and\n        /* \"solutions.sol\":10319:10323  defi */\n      0x03\n      0x00\n      swap1\n      sload\n      swap1\n      0x0100\n      exp\n      swap1\n      div\n      0xffffffffffffffffffffffffffffffffffffffff\n      and\n        /* \"solutions.sol\":10283:10324  factory.getPair(uniqueAddresses[i], defi) */\n      mload(0x40)\n      dup4\n      0xffffffff\n      and\n      0xe0\n      shl\n      dup2\n      mstore\n      0x04\n      add\n      tag_80\n      swap3\n      swap2\n      swap1\n      tag_76\n      jump\t// in\n    tag_80:\n      0x20\n      mload(0x40)\n      dup1\n      dup4\n      sub\n      dup2\n      dup7\n      gas\n      staticcall\n      iszero\n      dup1\n      iszero\n      tag_82\n      jumpi\n      returndatasize\n      0x00\n      dup1\n      returndatacopy\n      revert(0x00, returndatasize)\n    tag_82:\n      pop\n      pop\n      pop\n      pop\n      mload(0x40)\n      returndatasize\n      not(0x1f)\n      0x1f\n      dup3\n      add\n      and\n      dup3\n      add\n      dup1\n      0x40\n      mstore\n      pop\n      dup2\n      add\n      swap1\n      tag_83\n      swap2\n      swap1\n      tag_55\n      jump\t// in\n    tag_83:\n        /* \"solutions.sol\":10267:10324  address pair1 = factory.getPair(uniqueAddresses[i], defi) */\n      swap1\n      pop\n        /* \"solutions.sol\":10362:10363  0 */\n      0x00\n        /* \"solutions.sol\":10345:10364  pair0 != address(0) */\n      0xffffffffffffffffffffffffffffffffffffffff\n      and\n        /* \"solutions.sol\":10345:10350  pair0 */\n      dup3\n        /* \"solutions.sol\":10345:10364  pair0 != address(0) */\n      0xffffffffffffffffffffffffffffffffffffffff\n      and\n      eq\n      iszero\n        /* \"solutions.sol\":10345:10387  pair0 != address(0) && pair1 != address(0) */\n      dup1\n      iszero\n      tag_84\n      jumpi\n      pop\n        /* \"solutions.sol\":10385:10386  0 */\n      0x00\n        /* \"solutions.sol\":10368:10387  pair1 != address(0) */\n      0xffffffffffffffffffffffffffffffffffffffff\n      and\n        /* \"solutions.sol\":10368:10373  pair1 */\n      dup2\n        /* \"solutions.sol\":10368:10387  pair1 != address(0) */\n      0xffffffffffffffffffffffffffffffffffffffff\n      and\n      eq\n      iszero\n        /* \"solutions.sol\":10345:10387  pair0 != address(0) && pair1 != address(0) */\n    tag_84:\n        /* \"solutions.sol\":10341:10635  if (pair0 != address(0) && pair1 != address(0)) {... */\n      iszero\n      tag_85\n      jumpi\n        /* \"solutions.sol\":10439:10444  pair0 */\n      dup2\n        /* \"solutions.sol\":10408:10413  pairs */\n      0x04\n        /* \"solutions.sol\":10408:10433  pairs[uniqueAddresses[i]] */\n      0x00\n        /* \"solutions.sol\":10414:10429  uniqueAddresses */\n      0x06\n        /* \"solutions.sol\":10414:10432  uniqueAddresses[i] */\n      0x00\n        /* \"solutions.sol\":10430:10431  i */\n      dup8\n        /* \"solutions.sol\":10414:10432  uniqueAddresses[i] */\n      dup2\n      mstore\n      0x20\n      add\n      swap1\n      dup2\n      mstore\n      0x20\n      add\n      0x00\n      keccak256\n      0x00\n      swap1\n      sload\n      swap1\n      0x0100\n      exp\n      swap1\n      div\n      0xffffffffffffffffffffffffffffffffffffffff\n      and\n        /* \"solutions.sol\":10408:10433  pairs[uniqueAddresses[i]] */\n      0xffffffffffffffffffffffffffffffffffffffff\n      and\n      0xffffffffffffffffffffffffffffffffffffffff\n      and\n      dup2\n      mstore\n      0x20\n      add\n      swap1\n      dup2\n      mstore\n      0x20\n      add\n      0x00\n      keccak256\n        /* \"solutions.sol\":10434:10435  0 */\n      0x00\n        /* \"solutions.sol\":10408:10436  pairs[uniqueAddresses[i]][0] */\n      0x02\n      dup2\n      lt\n      tag_86\n      jumpi\n      tag_87\n      tag_88\n      jump\t// in\n    tag_87:\n    tag_86:\n      add\n      0x00\n        /* \"solutions.sol\":10408:10444  pairs[uniqueAddresses[i]][0] = pair0 */\n      0x0100\n      exp\n      dup2\n      sload\n      dup2\n      0xffffffffffffffffffffffffffffffffffffffff\n      mul\n      not\n      and\n      swap1\n      dup4\n      0xffffffffffffffffffffffffffffffffffffffff\n      and\n      mul\n      or\n      swap1\n      sstore\n      pop\n        /* \"solutions.sol\":10494:10499  pair1 */\n      dup1\n        /* \"solutions.sol\":10463:10468  pairs */\n      0x04\n        /* \"solutions.sol\":10463:10488  pairs[uniqueAddresses[i]] */\n      0x00\n        /* \"solutions.sol\":10469:10484  uniqueAddresses */\n      0x06\n        /* \"solutions.sol\":10469:10487  uniqueAddresses[i] */\n      0x00\n        /* \"solutions.sol\":10485:10486  i */\n      dup8\n        /* \"solutions.sol\":10469:10487  uniqueAddresses[i] */\n      dup2\n      mstore\n      0x20\n      add\n      swap1\n      dup2\n      mstore\n      0x20\n      add\n      0x00\n      keccak256\n      0x00\n      swap1\n      sload\n      swap1\n      0x0100\n      exp\n      swap1\n      div\n      0xffffffffffffffffffffffffffffffffffffffff\n      and\n        /* \"solutions.sol\":10463:10488  pairs[uniqueAddresses[i]] */\n      0xffffffffffffffffffffffffffffffffffffffff\n      and\n      0xffffffffffffffffffffffffffffffffffffffff\n      and\n      dup2\n      mstore\n      0x20\n      add\n      swap1\n      dup2\n      mstore\n      0x20\n      add\n      0x00\n      keccak256\n        /* \"solutions.sol\":10489:10490  1 */\n      0x01\n        /* \"solutions.sol\":10463:10491  pairs[uniqueAddresses[i]][1] */\n      0x02\n      dup2\n      lt\n      tag_90\n      jumpi\n      tag_91\n      tag_88\n      jump\t// in\n    tag_91:\n    tag_90:\n      add\n      0x00\n        /* \"solutions.sol\":10463:10499  pairs[uniqueAddresses[i]][1] = pair1 */\n      0x0100\n      exp\n      dup2\n      sload\n      dup2\n      0xffffffffffffffffffffffffffffffffffffffff\n      mul\n      not\n      and\n      swap1\n      dup4\n      0xffffffffffffffffffffffffffffffffffffffff\n      and\n      mul\n      or\n      swap1\n      sstore\n      pop\n        /* \"solutions.sol\":10536:10547  ActualPairs */\n      0x08\n      0x00\n        /* \"solutions.sol\":10536:10549  ActualPairs++ */\n      dup2\n      sload\n      dup1\n      swap3\n      swap2\n      swap1\n      tag_93\n      swap1\n      tag_66\n      jump\t// in\n    tag_93:\n      swap2\n      swap1\n      pop\n      sstore\n      pop\n        /* \"solutions.sol\":10341:10635  if (pair0 != address(0) && pair1 != address(0)) {... */\n      jump(tag_94)\n    tag_85:\n        /* \"solutions.sol\":10617:10618  0 */\n      0x00\n        /* \"solutions.sol\":10588:10603  uniqueAddresses */\n      0x06\n        /* \"solutions.sol\":10588:10606  uniqueAddresses[i] */\n      0x00\n        /* \"solutions.sol\":10604:10605  i */\n      dup6\n        /* \"solutions.sol\":10588:10606  uniqueAddresses[i] */\n      dup2\n      mstore\n      0x20\n      add\n      swap1\n      dup2\n      mstore\n      0x20\n      add\n      0x00\n      keccak256\n      0x00\n        /* \"solutions.sol\":10588:10619  uniqueAddresses[i] = address(0) */\n      0x0100\n      exp\n      dup2\n      sload\n      dup2\n      0xffffffffffffffffffffffffffffffffffffffff\n      mul\n      not\n      and\n      swap1\n      dup4\n      0xffffffffffffffffffffffffffffffffffffffff\n      and\n      mul\n      or\n      swap1\n      sstore\n      pop\n        /* \"solutions.sol\":10341:10635  if (pair0 != address(0) && pair1 != address(0)) {... */\n    tag_94:\n        /* \"solutions.sol\":10180:10646  {... */\n      pop\n      pop\n        /* \"solutions.sol\":10175:10178  i++ */\n      dup1\n      dup1\n      tag_95\n      swap1\n      tag_66\n      jump\t// in\n    tag_95:\n      swap2\n      pop\n      pop\n        /* \"solutions.sol\":10146:10646  for (uint256 i = 0; i < ind; i++) {... */\n      jump(tag_72)\n    tag_73:\n      pop\n        /* \"solutions.sol\":10665:10669  true */\n      0x01\n        /* \"solutions.sol\":10658:10669  return true */\n      swap2\n      pop\n      pop\n        /* \"solutions.sol\":9394:10677  function getAllPairs() public returns (bool) {... */\n      swap1\n      jump\t// out\n        /* \"solutions.sol\":8853:8874  IRouter public router */\n    tag_38:\n      0x01\n      0x00\n      swap1\n      sload\n      swap1\n      0x0100\n      exp\n      swap1\n      div\n      0xffffffffffffffffffffffffffffffffffffffff\n      and\n      dup2\n      jump\t// out\n        /* \"#utility.yul\":88:205   */\n    tag_97:\n        /* \"#utility.yul\":197:198   */\n      0x00\n        /* \"#utility.yul\":194:195   */\n      dup1\n        /* \"#utility.yul\":187:199   */\n      revert\n        /* \"#utility.yul\":334:460   */\n    tag_99:\n        /* \"#utility.yul\":371:378   */\n      0x00\n        /* \"#utility.yul\":411:453   */\n      0xffffffffffffffffffffffffffffffffffffffff\n        /* \"#utility.yul\":404:409   */\n      dup3\n        /* \"#utility.yul\":400:454   */\n      and\n        /* \"#utility.yul\":389:454   */\n      swap1\n      pop\n        /* \"#utility.yul\":334:460   */\n      swap2\n      swap1\n      pop\n      jump\t// out\n        /* \"#utility.yul\":466:562   */\n    tag_100:\n        /* \"#utility.yul\":503:510   */\n      0x00\n        /* \"#utility.yul\":532:556   */\n      tag_126\n        /* \"#utility.yul\":550:555   */\n      dup3\n        /* \"#utility.yul\":532:556   */\n      tag_99\n      jump\t// in\n    tag_126:\n        /* \"#utility.yul\":521:556   */\n      swap1\n      pop\n        /* \"#utility.yul\":466:562   */\n      swap2\n      swap1\n      pop\n      jump\t// out\n        /* \"#utility.yul\":568:690   */\n    tag_101:\n        /* \"#utility.yul\":641:665   */\n      tag_128\n        /* \"#utility.yul\":659:664   */\n      dup2\n        /* \"#utility.yul\":641:665   */\n      tag_100\n      jump\t// in\n    tag_128:\n        /* \"#utility.yul\":634:639   */\n      dup2\n        /* \"#utility.yul\":631:666   */\n      eq\n        /* \"#utility.yul\":621:684   */\n      tag_129\n      jumpi\n        /* \"#utility.yul\":680:681   */\n      0x00\n        /* \"#utility.yul\":677:678   */\n      dup1\n        /* \"#utility.yul\":670:682   */\n      revert\n        /* \"#utility.yul\":621:684   */\n    tag_129:\n        /* \"#utility.yul\":568:690   */\n      pop\n      jump\t// out\n        /* \"#utility.yul\":696:835   */\n    tag_102:\n        /* \"#utility.yul\":742:747   */\n      0x00\n        /* \"#utility.yul\":780:786   */\n      dup2\n        /* \"#utility.yul\":767:787   */\n      calldataload\n        /* \"#utility.yul\":758:787   */\n      swap1\n      pop\n        /* \"#utility.yul\":796:829   */\n      tag_131\n        /* \"#utility.yul\":823:828   */\n      dup2\n        /* \"#utility.yul\":796:829   */\n      tag_101\n      jump\t// in\n    tag_131:\n        /* \"#utility.yul\":696:835   */\n      swap3\n      swap2\n      pop\n      pop\n      jump\t// out\n        /* \"#utility.yul\":841:918   */\n    tag_103:\n        /* \"#utility.yul\":878:885   */\n      0x00\n        /* \"#utility.yul\":907:912   */\n      dup2\n        /* \"#utility.yul\":896:912   */\n      swap1\n      pop\n        /* \"#utility.yul\":841:918   */\n      swap2\n      swap1\n      pop\n      jump\t// out\n        /* \"#utility.yul\":924:1046   */\n    tag_104:\n        /* \"#utility.yul\":997:1021   */\n      tag_134\n        /* \"#utility.yul\":1015:1020   */\n      dup2\n        /* \"#utility.yul\":997:1021   */\n      tag_103\n      jump\t// in\n    tag_134:\n        /* \"#utility.yul\":990:995   */\n      dup2\n        /* \"#utility.yul\":987:1022   */\n      eq\n        /* \"#utility.yul\":977:1040   */\n      tag_135\n      jumpi\n        /* \"#utility.yul\":1036:1037   */\n      0x00\n        /* \"#utility.yul\":1033:1034   */\n      dup1\n        /* \"#utility.yul\":1026:1038   */\n      revert\n        /* \"#utility.yul\":977:1040   */\n    tag_135:\n        /* \"#utility.yul\":924:1046   */\n      pop\n      jump\t// out\n        /* \"#utility.yul\":1052:1191   */\n    tag_105:\n        /* \"#utility.yul\":1098:1103   */\n      0x00\n        /* \"#utility.yul\":1136:1142   */\n      dup2\n        /* \"#utility.yul\":1123:1143   */\n      calldataload\n        /* \"#utility.yul\":1114:1143   */\n      swap1\n      pop\n        /* \"#utility.yul\":1152:1185   */\n      tag_137\n        /* \"#utility.yul\":1179:1184   */\n      dup2\n        /* \"#utility.yul\":1152:1185   */\n      tag_104\n      jump\t// in\n    tag_137:\n        /* \"#utility.yul\":1052:1191   */\n      swap3\n      swap2\n      pop\n      pop\n      jump\t// out\n        /* \"#utility.yul\":1197:1671   */\n    tag_13:\n        /* \"#utility.yul\":1265:1271   */\n      0x00\n        /* \"#utility.yul\":1273:1279   */\n      dup1\n        /* \"#utility.yul\":1322:1324   */\n      0x40\n        /* \"#utility.yul\":1310:1319   */\n      dup4\n        /* \"#utility.yul\":1301:1308   */\n      dup6\n        /* \"#utility.yul\":1297:1320   */\n      sub\n        /* \"#utility.yul\":1293:1325   */\n      slt\n        /* \"#utility.yul\":1290:1409   */\n      iszero\n      tag_139\n      jumpi\n        /* \"#utility.yul\":1328:1407   */\n      tag_140\n      tag_97\n      jump\t// in\n    tag_140:\n        /* \"#utility.yul\":1290:1409   */\n    tag_139:\n        /* \"#utility.yul\":1448:1449   */\n      0x00\n        /* \"#utility.yul\":1473:1526   */\n      tag_141\n        /* \"#utility.yul\":1518:1525   */\n      dup6\n        /* \"#utility.yul\":1509:1515   */\n      dup3\n        /* \"#utility.yul\":1498:1507   */\n      dup7\n        /* \"#utility.yul\":1494:1516   */\n      add\n        /* \"#utility.yul\":1473:1526   */\n      tag_102\n      jump\t// in\n    tag_141:\n        /* \"#utility.yul\":1463:1526   */\n      swap3\n      pop\n        /* \"#utility.yul\":1419:1536   */\n      pop\n        /* \"#utility.yul\":1575:1577   */\n      0x20\n        /* \"#utility.yul\":1601:1654   */\n      tag_142\n        /* \"#utility.yul\":1646:1653   */\n      dup6\n        /* \"#utility.yul\":1637:1643   */\n      dup3\n        /* \"#utility.yul\":1626:1635   */\n      dup7\n        /* \"#utility.yul\":1622:1644   */\n      add\n        /* \"#utility.yul\":1601:1654   */\n      tag_105\n      jump\t// in\n    tag_142:\n        /* \"#utility.yul\":1591:1654   */\n      swap2\n      pop\n        /* \"#utility.yul\":1546:1664   */\n      pop\n        /* \"#utility.yul\":1197:1671   */\n      swap3\n      pop\n      swap3\n      swap1\n      pop\n      jump\t// out\n        /* \"#utility.yul\":1677:1795   */\n    tag_106:\n        /* \"#utility.yul\":1764:1788   */\n      tag_144\n        /* \"#utility.yul\":1782:1787   */\n      dup2\n        /* \"#utility.yul\":1764:1788   */\n      tag_100\n      jump\t// in\n    tag_144:\n        /* \"#utility.yul\":1759:1762   */\n      dup3\n        /* \"#utility.yul\":1752:1789   */\n      mstore\n        /* \"#utility.yul\":1677:1795   */\n      pop\n      pop\n      jump\t// out\n        /* \"#utility.yul\":1801:2023   */\n    tag_16:\n        /* \"#utility.yul\":1894:1898   */\n      0x00\n        /* \"#utility.yul\":1932:1934   */\n      0x20\n        /* \"#utility.yul\":1921:1930   */\n      dup3\n        /* \"#utility.yul\":1917:1935   */\n      add\n        /* \"#utility.yul\":1909:1935   */\n      swap1\n      pop\n        /* \"#utility.yul\":1945:2016   */\n      tag_146\n        /* \"#utility.yul\":2013:2014   */\n      0x00\n        /* \"#utility.yul\":2002:2011   */\n      dup4\n        /* \"#utility.yul\":1998:2015   */\n      add\n        /* \"#utility.yul\":1989:1995   */\n      dup5\n        /* \"#utility.yul\":1945:2016   */\n      tag_106\n      jump\t// in\n    tag_146:\n        /* \"#utility.yul\":1801:2023   */\n      swap3\n      swap2\n      pop\n      pop\n      jump\t// out\n        /* \"#utility.yul\":2029:2147   */\n    tag_107:\n        /* \"#utility.yul\":2116:2140   */\n      tag_148\n        /* \"#utility.yul\":2134:2139   */\n      dup2\n        /* \"#utility.yul\":2116:2140   */\n      tag_103\n      jump\t// in\n    tag_148:\n        /* \"#utility.yul\":2111:2114   */\n      dup3\n        /* \"#utility.yul\":2104:2141   */\n      mstore\n        /* \"#utility.yul\":2029:2147   */\n      pop\n      pop\n      jump\t// out\n        /* \"#utility.yul\":2153:2375   */\n    tag_20:\n        /* \"#utility.yul\":2246:2250   */\n      0x00\n        /* \"#utility.yul\":2284:2286   */\n      0x20\n        /* \"#utility.yul\":2273:2282   */\n      dup3\n        /* \"#utility.yul\":2269:2287   */\n      add\n        /* \"#utility.yul\":2261:2287   */\n      swap1\n      pop\n        /* \"#utility.yul\":2297:2368   */\n      tag_150\n        /* \"#utility.yul\":2365:2366   */\n      0x00\n        /* \"#utility.yul\":2354:2363   */\n      dup4\n        /* \"#utility.yul\":2350:2367   */\n      add\n        /* \"#utility.yul\":2341:2347   */\n      dup5\n        /* \"#utility.yul\":2297:2368   */\n      tag_107\n      jump\t// in\n    tag_150:\n        /* \"#utility.yul\":2153:2375   */\n      swap3\n      swap2\n      pop\n      pop\n      jump\t// out\n        /* \"#utility.yul\":2381:2710   */\n    tag_23:\n        /* \"#utility.yul\":2440:2446   */\n      0x00\n        /* \"#utility.yul\":2489:2491   */\n      0x20\n        /* \"#utility.yul\":2477:2486   */\n      dup3\n        /* \"#utility.yul\":2468:2475   */\n      dup5\n        /* \"#utility.yul\":2464:2487   */\n      sub\n        /* \"#utility.yul\":2460:2492   */\n      slt\n        /* \"#utility.yul\":2457:2576   */\n      iszero\n      tag_152\n      jumpi\n        /* \"#utility.yul\":2495:2574   */\n      tag_153\n      tag_97\n      jump\t// in\n    tag_153:\n        /* \"#utility.yul\":2457:2576   */\n    tag_152:\n        /* \"#utility.yul\":2615:2616   */\n      0x00\n        /* \"#utility.yul\":2640:2693   */\n      tag_154\n        /* \"#utility.yul\":2685:2692   */\n      dup5\n        /* \"#utility.yul\":2676:2682   */\n      dup3\n        /* \"#utility.yul\":2665:2674   */\n      dup6\n        /* \"#utility.yul\":2661:2683   */\n      add\n        /* \"#utility.yul\":2640:2693   */\n      tag_105\n      jump\t// in\n    tag_154:\n        /* \"#utility.yul\":2630:2693   */\n      swap2\n      pop\n        /* \"#utility.yul\":2586:2703   */\n      pop\n        /* \"#utility.yul\":2381:2710   */\n      swap3\n      swap2\n      pop\n      pop\n      jump\t// out\n        /* \"#utility.yul\":2716:2776   */\n    tag_108:\n        /* \"#utility.yul\":2744:2747   */\n      0x00\n        /* \"#utility.yul\":2765:2770   */\n      dup2\n        /* \"#utility.yul\":2758:2770   */\n      swap1\n      pop\n        /* \"#utility.yul\":2716:2776   */\n      swap2\n      swap1\n      pop\n      jump\t// out\n        /* \"#utility.yul\":2782:2924   */\n    tag_109:\n        /* \"#utility.yul\":2832:2841   */\n      0x00\n        /* \"#utility.yul\":2865:2918   */\n      tag_157\n        /* \"#utility.yul\":2883:2917   */\n      tag_158\n        /* \"#utility.yul\":2892:2916   */\n      tag_159\n        /* \"#utility.yul\":2910:2915   */\n      dup5\n        /* \"#utility.yul\":2892:2916   */\n      tag_99\n      jump\t// in\n    tag_159:\n        /* \"#utility.yul\":2883:2917   */\n      tag_108\n      jump\t// in\n    tag_158:\n        /* \"#utility.yul\":2865:2918   */\n      tag_99\n      jump\t// in\n    tag_157:\n        /* \"#utility.yul\":2852:2918   */\n      swap1\n      pop\n        /* \"#utility.yul\":2782:2924   */\n      swap2\n      swap1\n      pop\n      jump\t// out\n        /* \"#utility.yul\":2930:3056   */\n    tag_110:\n        /* \"#utility.yul\":2980:2989   */\n      0x00\n        /* \"#utility.yul\":3013:3050   */\n      tag_161\n        /* \"#utility.yul\":3044:3049   */\n      dup3\n        /* \"#utility.yul\":3013:3050   */\n      tag_109\n      jump\t// in\n    tag_161:\n        /* \"#utility.yul\":3000:3050   */\n      swap1\n      pop\n        /* \"#utility.yul\":2930:3056   */\n      swap2\n      swap1\n      pop\n      jump\t// out\n        /* \"#utility.yul\":3062:3203   */\n    tag_111:\n        /* \"#utility.yul\":3127:3136   */\n      0x00\n        /* \"#utility.yul\":3160:3197   */\n      tag_163\n        /* \"#utility.yul\":3191:3196   */\n      dup3\n        /* \"#utility.yul\":3160:3197   */\n      tag_110\n      jump\t// in\n    tag_163:\n        /* \"#utility.yul\":3147:3197   */\n      swap1\n      pop\n        /* \"#utility.yul\":3062:3203   */\n      swap2\n      swap1\n      pop\n      jump\t// out\n        /* \"#utility.yul\":3209:3370   */\n    tag_112:\n        /* \"#utility.yul\":3311:3363   */\n      tag_165\n        /* \"#utility.yul\":3357:3362   */\n      dup2\n        /* \"#utility.yul\":3311:3363   */\n      tag_111\n      jump\t// in\n    tag_165:\n        /* \"#utility.yul\":3306:3309   */\n      dup3\n        /* \"#utility.yul\":3299:3364   */\n      mstore\n        /* \"#utility.yul\":3209:3370   */\n      pop\n      pop\n      jump\t// out\n        /* \"#utility.yul\":3376:3628   */\n    tag_32:\n        /* \"#utility.yul\":3484:3488   */\n      0x00\n        /* \"#utility.yul\":3522:3524   */\n      0x20\n        /* \"#utility.yul\":3511:3520   */\n      dup3\n        /* \"#utility.yul\":3507:3525   */\n      add\n        /* \"#utility.yul\":3499:3525   */\n      swap1\n      pop\n        /* \"#utility.yul\":3535:3621   */\n      tag_167\n        /* \"#utility.yul\":3618:3619   */\n      0x00\n        /* \"#utility.yul\":3607:3616   */\n      dup4\n        /* \"#utility.yul\":3603:3620   */\n      add\n        /* \"#utility.yul\":3594:3600   */\n      dup5\n        /* \"#utility.yul\":3535:3621   */\n      tag_112\n      jump\t// in\n    tag_167:\n        /* \"#utility.yul\":3376:3628   */\n      swap3\n      swap2\n      pop\n      pop\n      jump\t// out\n        /* \"#utility.yul\":3634:3724   */\n    tag_113:\n        /* \"#utility.yul\":3668:3675   */\n      0x00\n        /* \"#utility.yul\":3711:3716   */\n      dup2\n        /* \"#utility.yul\":3704:3717   */\n      iszero\n        /* \"#utility.yul\":3697:3718   */\n      iszero\n        /* \"#utility.yul\":3686:3718   */\n      swap1\n      pop\n        /* \"#utility.yul\":3634:3724   */\n      swap2\n      swap1\n      pop\n      jump\t// out\n        /* \"#utility.yul\":3730:3839   */\n    tag_114:\n        /* \"#utility.yul\":3811:3832   */\n      tag_170\n        /* \"#utility.yul\":3826:3831   */\n      dup2\n        /* \"#utility.yul\":3811:3832   */\n      tag_113\n      jump\t// in\n    tag_170:\n        /* \"#utility.yul\":3806:3809   */\n      dup3\n        /* \"#utility.yul\":3799:3833   */\n      mstore\n        /* \"#utility.yul\":3730:3839   */\n      pop\n      pop\n      jump\t// out\n        /* \"#utility.yul\":3845:4055   */\n    tag_36:\n        /* \"#utility.yul\":3932:3936   */\n      0x00\n        /* \"#utility.yul\":3970:3972   */\n      0x20\n        /* \"#utility.yul\":3959:3968   */\n      dup3\n        /* \"#utility.yul\":3955:3973   */\n      add\n        /* \"#utility.yul\":3947:3973   */\n      swap1\n      pop\n        /* \"#utility.yul\":3983:4048   */\n      tag_172\n        /* \"#utility.yul\":4045:4046   */\n      0x00\n        /* \"#utility.yul\":4034:4043   */\n      dup4\n        /* \"#utility.yul\":4030:4047   */\n      add\n        /* \"#utility.yul\":4021:4027   */\n      dup5\n        /* \"#utility.yul\":3983:4048   */\n      tag_114\n      jump\t// in\n    tag_172:\n        /* \"#utility.yul\":3845:4055   */\n      swap3\n      swap2\n      pop\n      pop\n      jump\t// out\n        /* \"#utility.yul\":4061:4202   */\n    tag_115:\n        /* \"#utility.yul\":4126:4135   */\n      0x00\n        /* \"#utility.yul\":4159:4196   */\n      tag_174\n        /* \"#utility.yul\":4190:4195   */\n      dup3\n        /* \"#utility.yul\":4159:4196   */\n      tag_110\n      jump\t// in\n    tag_174:\n        /* \"#utility.yul\":4146:4196   */\n      swap1\n      pop\n        /* \"#utility.yul\":4061:4202   */\n      swap2\n      swap1\n      pop\n      jump\t// out\n        /* \"#utility.yul\":4208:4369   */\n    tag_116:\n        /* \"#utility.yul\":4310:4362   */\n      tag_176\n        /* \"#utility.yul\":4356:4361   */\n      dup2\n        /* \"#utility.yul\":4310:4362   */\n      tag_115\n      jump\t// in\n    tag_176:\n        /* \"#utility.yul\":4305:4308   */\n      dup3\n        /* \"#utility.yul\":4298:4363   */\n      mstore\n        /* \"#utility.yul\":4208:4369   */\n      pop\n      pop\n      jump\t// out\n        /* \"#utility.yul\":4375:4627   */\n    tag_40:\n        /* \"#utility.yul\":4483:4487   */\n      0x00\n        /* \"#utility.yul\":4521:4523   */\n      0x20\n        /* \"#utility.yul\":4510:4519   */\n      dup3\n        /* \"#utility.yul\":4506:4524   */\n      add\n        /* \"#utility.yul\":4498:4524   */\n      swap1\n      pop\n        /* \"#utility.yul\":4534:4620   */\n      tag_178\n        /* \"#utility.yul\":4617:4618   */\n      0x00\n        /* \"#utility.yul\":4606:4615   */\n      dup4\n        /* \"#utility.yul\":4602:4619   */\n      add\n        /* \"#utility.yul\":4593:4599   */\n      dup5\n        /* \"#utility.yul\":4534:4620   */\n      tag_116\n      jump\t// in\n    tag_178:\n        /* \"#utility.yul\":4375:4627   */\n      swap3\n      swap2\n      pop\n      pop\n      jump\t// out\n        /* \"#utility.yul\":4633:4776   */\n    tag_117:\n        /* \"#utility.yul\":4690:4695   */\n      0x00\n        /* \"#utility.yul\":4721:4727   */\n      dup2\n        /* \"#utility.yul\":4715:4728   */\n      mload\n        /* \"#utility.yul\":4706:4728   */\n      swap1\n      pop\n        /* \"#utility.yul\":4737:4770   */\n      tag_180\n        /* \"#utility.yul\":4764:4769   */\n      dup2\n        /* \"#utility.yul\":4737:4770   */\n      tag_104\n      jump\t// in\n    tag_180:\n        /* \"#utility.yul\":4633:4776   */\n      swap3\n      swap2\n      pop\n      pop\n      jump\t// out\n        /* \"#utility.yul\":4782:5133   */\n    tag_47:\n        /* \"#utility.yul\":4852:4858   */\n      0x00\n        /* \"#utility.yul\":4901:4903   */\n      0x20\n        /* \"#utility.yul\":4889:4898   */\n      dup3\n        /* \"#utility.yul\":4880:4887   */\n      dup5\n        /* \"#utility.yul\":4876:4899   */\n      sub\n        /* \"#utility.yul\":4872:4904   */\n      slt\n        /* \"#utility.yul\":4869:4988   */\n      iszero\n      tag_182\n      jumpi\n        /* \"#utility.yul\":4907:4986   */\n      tag_183\n      tag_97\n      jump\t// in\n    tag_183:\n        /* \"#utility.yul\":4869:4988   */\n    tag_182:\n        /* \"#utility.yul\":5027:5028   */\n      0x00\n        /* \"#utility.yul\":5052:5116   */\n      tag_184\n        /* \"#utility.yul\":5108:5115   */\n      dup5\n        /* \"#utility.yul\":5099:5105   */\n      dup3\n        /* \"#utility.yul\":5088:5097   */\n      dup6\n        /* \"#utility.yul\":5084:5106   */\n      add\n        /* \"#utility.yul\":5052:5116   */\n      tag_117\n      jump\t// in\n    tag_184:\n        /* \"#utility.yul\":5042:5116   */\n      swap2\n      pop\n        /* \"#utility.yul\":4998:5126   */\n      pop\n        /* \"#utility.yul\":4782:5133   */\n      swap3\n      swap2\n      pop\n      pop\n      jump\t// out\n        /* \"#utility.yul\":5139:5282   */\n    tag_118:\n        /* \"#utility.yul\":5196:5201   */\n      0x00\n        /* \"#utility.yul\":5227:5233   */\n      dup2\n        /* \"#utility.yul\":5221:5234   */\n      mload\n        /* \"#utility.yul\":5212:5234   */\n      swap1\n      pop\n        /* \"#utility.yul\":5243:5276   */\n      tag_186\n        /* \"#utility.yul\":5270:5275   */\n      dup2\n        /* \"#utility.yul\":5243:5276   */\n      tag_101\n      jump\t// in\n    tag_186:\n        /* \"#utility.yul\":5139:5282   */\n      swap3\n      swap2\n      pop\n      pop\n      jump\t// out\n        /* \"#utility.yul\":5288:5639   */\n    tag_55:\n        /* \"#utility.yul\":5358:5364   */\n      0x00\n        /* \"#utility.yul\":5407:5409   */\n      0x20\n        /* \"#utility.yul\":5395:5404   */\n      dup3\n        /* \"#utility.yul\":5386:5393   */\n      dup5\n        /* \"#utility.yul\":5382:5405   */\n      sub\n        /* \"#utility.yul\":5378:5410   */\n      slt\n        /* \"#utility.yul\":5375:5494   */\n      iszero\n      tag_188\n      jumpi\n        /* \"#utility.yul\":5413:5492   */\n      tag_189\n      tag_97\n      jump\t// in\n    tag_189:\n        /* \"#utility.yul\":5375:5494   */\n    tag_188:\n        /* \"#utility.yul\":5533:5534   */\n      0x00\n        /* \"#utility.yul\":5558:5622   */\n      tag_190\n        /* \"#utility.yul\":5614:5621   */\n      dup5\n        /* \"#utility.yul\":5605:5611   */\n      dup3\n        /* \"#utility.yul\":5594:5603   */\n      dup6\n        /* \"#utility.yul\":5590:5612   */\n      add\n        /* \"#utility.yul\":5558:5622   */\n      tag_118\n      jump\t// in\n    tag_190:\n        /* \"#utility.yul\":5548:5622   */\n      swap2\n      pop\n        /* \"#utility.yul\":5504:5632   */\n      pop\n        /* \"#utility.yul\":5288:5639   */\n      swap3\n      swap2\n      pop\n      pop\n      jump\t// out\n        /* \"#utility.yul\":5645:5825   */\n    tag_119:\n        /* \"#utility.yul\":5693:5770   */\n      0x4e487b7100000000000000000000000000000000000000000000000000000000\n        /* \"#utility.yul\":5690:5691   */\n      0x00\n        /* \"#utility.yul\":5683:5771   */\n      mstore\n        /* \"#utility.yul\":5790:5794   */\n      0x11\n        /* \"#utility.yul\":5787:5788   */\n      0x04\n        /* \"#utility.yul\":5780:5795   */\n      mstore\n        /* \"#utility.yul\":5814:5818   */\n      0x24\n        /* \"#utility.yul\":5811:5812   */\n      0x00\n        /* \"#utility.yul\":5804:5819   */\n      revert\n        /* \"#utility.yul\":5831:6064   */\n    tag_66:\n        /* \"#utility.yul\":5870:5873   */\n      0x00\n        /* \"#utility.yul\":5893:5917   */\n      tag_193\n        /* \"#utility.yul\":5911:5916   */\n      dup3\n        /* \"#utility.yul\":5893:5917   */\n      tag_103\n      jump\t// in\n    tag_193:\n        /* \"#utility.yul\":5884:5917   */\n      swap2\n      pop\n        /* \"#utility.yul\":5939:6005   */\n      0xffffffffffffffffffffffffffffffffffffffffffffffffffffffffffffffff\n        /* \"#utility.yul\":5932:5937   */\n      dup3\n        /* \"#utility.yul\":5929:6006   */\n      sub\n        /* \"#utility.yul\":5926:6029   */\n      tag_194\n      jumpi\n        /* \"#utility.yul\":6009:6027   */\n      tag_195\n      tag_119\n      jump\t// in\n    tag_195:\n        /* \"#utility.yul\":5926:6029   */\n    tag_194:\n        /* \"#utility.yul\":6056:6057   */\n      0x01\n        /* \"#utility.yul\":6049:6054   */\n      dup3\n        /* \"#utility.yul\":6045:6058   */\n      add\n        /* \"#utility.yul\":6038:6058   */\n      swap1\n      pop\n        /* \"#utility.yul\":5831:6064   */\n      swap2\n      swap1\n      pop\n      jump\t// out\n        /* \"#utility.yul\":6070:6402   */\n    tag_76:\n        /* \"#utility.yul\":6191:6195   */\n      0x00\n        /* \"#utility.yul\":6229:6231   */\n      0x40\n        /* \"#utility.yul\":6218:6227   */\n      dup3\n        /* \"#utility.yul\":6214:6232   */\n      add\n        /* \"#utility.yul\":6206:6232   */\n      swap1\n      pop\n        /* \"#utility.yul\":6242:6313   */\n      tag_197\n        /* \"#utility.yul\":6310:6311   */\n      0x00\n        /* \"#utility.yul\":6299:6308   */\n      dup4\n        /* \"#utility.yul\":6295:6312   */\n      add\n        /* \"#utility.yul\":6286:6292   */\n      dup6\n        /* \"#utility.yul\":6242:6313   */\n      tag_106\n      jump\t// in\n    tag_197:\n        /* \"#utility.yul\":6323:6395   */\n      tag_198\n        /* \"#utility.yul\":6391:6393   */\n      0x20\n        /* \"#utility.yul\":6380:6389   */\n      dup4\n        /* \"#utility.yul\":6376:6394   */\n      add\n        /* \"#utility.yul\":6367:6373   */\n      dup5\n        /* \"#utility.yul\":6323:6395   */\n      tag_106\n      jump\t// in\n    tag_198:\n        /* \"#utility.yul\":6070:6402   */\n      swap4\n      swap3\n      pop\n      pop\n      pop\n      jump\t// out\n        /* \"#utility.yul\":6408:6588   */\n    tag_88:\n        /* \"#utility.yul\":6456:6533   */\n      0x4e487b7100000000000000000000000000000000000000000000000000000000\n        /* \"#utility.yul\":6453:6454   */\n      0x00\n        /* \"#utility.yul\":6446:6534   */\n      mstore\n        /* \"#utility.yul\":6553:6557   */\n      0x32\n        /* \"#utility.yul\":6550:6551   */\n      0x04\n        /* \"#utility.yul\":6543:6558   */\n      mstore\n        /* \"#utility.yul\":6577:6581   */\n      0x24\n        /* \"#utility.yul\":6574:6575   */\n      0x00\n        /* \"#utility.yul\":6567:6582   */\n      revert\n\n    auxdata: 0xa26469706673582212200ff4b80364b3657e3bdaa7dcf126b29d14fc5c8257208f30223d19335d2aa83064736f6c63430008110033\n}\n",
				"bytecode": {
					"linkReferences": {},
					"object": "608060405273de39c89e7a8e3fc73e1e7f8b2edecd4c7fe62b66600260006101000a81548173ffffffffffffffffffffffffffffffffffffffff021916908373ffffffffffffffffffffffffffffffffffffffff16021790555073e5873093eda4e64b77c80186adc5be024444fcbd600360006101000a81548173ffffffffffffffffffffffffffffffffffffffff021916908373ffffffffffffffffffffffffffffffffffffffff160217905550600060075560006008553480156100c457600080fd5b50730ca73866dff0f6b0508f5cbb223c857c19463e076000806101000a81548173ffffffffffffffffffffffffffffffffffffffff021916908373ffffffffffffffffffffffffffffffffffffffff160217905550735da88df55af2e5681d33f36e5916d63797bf4766600160006101000a81548173ffffffffffffffffffffffffffffffffffffffff021916908373ffffffffffffffffffffffffffffffffffffffff1602179055506110698061017d6000396000f3fe608060405234801561001057600080fd5b506004361061007d5760003560e01c8063c417808d1161005b578063c417808d14610100578063c45a01551461011e578063f800ece91461013c578063f887ea401461015a5761007d565b806303d4051314610082578063240e5b58146100b25780638e75b5e6146100d0575b600080fd5b61009c60048036038101906100979190610d33565b610178565b6040516100a99190610d82565b60405180910390f35b6100ba6101bd565b6040516100c79190610dac565b60405180910390f35b6100ea60048036038101906100e59190610dc7565b6101c3565b6040516100f79190610d82565b60405180910390f35b6101086101f6565b6040516101159190610dac565b60405180910390f35b6101266101fc565b6040516101339190610e53565b60405180910390f35b610144610220565b6040516101519190610e89565b60405180910390f35b610162610c74565b60405161016f9190610ec5565b60405180910390f35b6004602052816000526040600020816002811061019457600080fd5b016000915091509054906101000a900473ffffffffffffffffffffffffffffffffffffffff1681565b60075481565b60066020528060005260406000206000915054906101000a900473ffffffffffffffffffffffffffffffffffffffff1681565b60085481565b60008054906101000a900473ffffffffffffffffffffffffffffffffffffffff1681565b60008060008054906101000a900473ffffffffffffffffffffffffffffffffffffffff1673ffffffffffffffffffffffffffffffffffffffff1663574f2ba36040518163ffffffff1660e01b8152600401602060405180830381865afa15801561028e573d6000803e3d6000fd5b505050506040513d601f19601f820116820180604052508101906102b29190610ef5565b905060005b818110156107f25760008060009054906101000a900473ffffffffffffffffffffffffffffffffffffffff1673ffffffffffffffffffffffffffffffffffffffff16631e3dd18b836040518263ffffffff1660e01b815260040161031b9190610dac565b602060405180830381865afa158015610338573d6000803e3d6000fd5b505050506040513d601f19601f8201168201806040525081019061035c9190610f37565b905060008173ffffffffffffffffffffffffffffffffffffffff16630dfe16816040518163ffffffff1660e01b8152600401602060405180830381865afa1580156103ab573d6000803e3d6000fd5b505050506040513d601f19601f820116820180604052508101906103cf9190610f37565b905060008273ffffffffffffffffffffffffffffffffffffffff1663d21220a76040518163ffffffff1660e01b8152600401602060405180830381865afa15801561041e573d6000803e3d6000fd5b505050506040513d601f19601f820116820180604052508101906104429190610f37565b9050600260009054906101000a900473ffffffffffffffffffffffffffffffffffffffff1673ffffffffffffffffffffffffffffffffffffffff168273ffffffffffffffffffffffffffffffffffffffff16141580156104f05750600360009054906101000a900473ffffffffffffffffffffffffffffffffffffffff1673ffffffffffffffffffffffffffffffffffffffff168273ffffffffffffffffffffffffffffffffffffffff1614155b80156105465750600560008373ffffffffffffffffffffffffffffffffffffffff1673ffffffffffffffffffffffffffffffffffffffff16815260200190815260200160002060009054906101000a900460ff16155b15610610576001600560008473ffffffffffffffffffffffffffffffffffffffff1673ffffffffffffffffffffffffffffffffffffffff16815260200190815260200160002060006101000a81548160ff0219169083151502179055508160066000600754815260200190815260200160002060006101000a81548173ffffffffffffffffffffffffffffffffffffffff021916908373ffffffffffffffffffffffffffffffffffffffff1602179055506007600081548092919061060a90610f93565b91905055505b600260009054906101000a900473ffffffffffffffffffffffffffffffffffffffff1673ffffffffffffffffffffffffffffffffffffffff168173ffffffffffffffffffffffffffffffffffffffff16141580156106bc5750600360009054906101000a900473ffffffffffffffffffffffffffffffffffffffff1673ffffffffffffffffffffffffffffffffffffffff168173ffffffffffffffffffffffffffffffffffffffff1614155b80156107125750600560008273ffffffffffffffffffffffffffffffffffffffff1673ffffffffffffffffffffffffffffffffffffffff16815260200190815260200160002060009054906101000a900460ff16155b156107dc576001600560008373ffffffffffffffffffffffffffffffffffffffff1673ffffffffffffffffffffffffffffffffffffffff16815260200190815260200160002060006101000a81548160ff0219169083151502179055508060066000600754815260200190815260200160002060006101000a81548173ffffffffffffffffffffffffffffffffffffffff021916908373ffffffffffffffffffffffffffffffffffffffff160217905550600760008154809291906107d690610f93565b91905055505b50505080806107ea90610f93565b9150506102b7565b5060005b600754811015610c6b5760008060009054906101000a900473ffffffffffffffffffffffffffffffffffffffff1673ffffffffffffffffffffffffffffffffffffffff1663e6a439056006600085815260200190815260200160002060009054906101000a900473ffffffffffffffffffffffffffffffffffffffff16600260009054906101000a900473ffffffffffffffffffffffffffffffffffffffff166040518363ffffffff1660e01b81526004016108b3929190610fdb565b602060405180830381865afa1580156108d0573d6000803e3d6000fd5b505050506040513d601f19601f820116820180604052508101906108f49190610f37565b905060008060009054906101000a900473ffffffffffffffffffffffffffffffffffffffff1673ffffffffffffffffffffffffffffffffffffffff1663e6a439056006600086815260200190815260200160002060009054906101000a900473ffffffffffffffffffffffffffffffffffffffff16600360009054906101000a900473ffffffffffffffffffffffffffffffffffffffff166040518363ffffffff1660e01b81526004016109a9929190610fdb565b602060405180830381865afa1580156109c6573d6000803e3d6000fd5b505050506040513d601f19601f820116820180604052508101906109ea9190610f37565b9050600073ffffffffffffffffffffffffffffffffffffffff168273ffffffffffffffffffffffffffffffffffffffff1614158015610a565750600073ffffffffffffffffffffffffffffffffffffffff168173ffffffffffffffffffffffffffffffffffffffff1614155b15610c025781600460006006600087815260200190815260200160002060009054906101000a900473ffffffffffffffffffffffffffffffffffffffff1673ffffffffffffffffffffffffffffffffffffffff1673ffffffffffffffffffffffffffffffffffffffff168152602001908152602001600020600060028110610ae157610ae0611004565b5b0160006101000a81548173ffffffffffffffffffffffffffffffffffffffff021916908373ffffffffffffffffffffffffffffffffffffffff16021790555080600460006006600087815260200190815260200160002060009054906101000a900473ffffffffffffffffffffffffffffffffffffffff1673ffffffffffffffffffffffffffffffffffffffff1673ffffffffffffffffffffffffffffffffffffffff168152602001908152602001600020600160028110610ba657610ba5611004565b5b0160006101000a81548173ffffffffffffffffffffffffffffffffffffffff021916908373ffffffffffffffffffffffffffffffffffffffff16021790555060086000815480929190610bf890610f93565b9190505550610c56565b60006006600085815260200190815260200160002060006101000a81548173ffffffffffffffffffffffffffffffffffffffff021916908373ffffffffffffffffffffffffffffffffffffffff1602179055505b50508080610c6390610f93565b9150506107f6565b50600191505090565b600160009054906101000a900473ffffffffffffffffffffffffffffffffffffffff1681565b600080fd5b600073ffffffffffffffffffffffffffffffffffffffff82169050919050565b6000610cca82610c9f565b9050919050565b610cda81610cbf565b8114610ce557600080fd5b50565b600081359050610cf781610cd1565b92915050565b6000819050919050565b610d1081610cfd565b8114610d1b57600080fd5b50565b600081359050610d2d81610d07565b92915050565b60008060408385031215610d4a57610d49610c9a565b5b6000610d5885828601610ce8565b9250506020610d6985828601610d1e565b9150509250929050565b610d7c81610cbf565b82525050565b6000602082019050610d976000830184610d73565b92915050565b610da681610cfd565b82525050565b6000602082019050610dc16000830184610d9d565b92915050565b600060208284031215610ddd57610ddc610c9a565b5b6000610deb84828501610d1e565b91505092915050565b6000819050919050565b6000610e19610e14610e0f84610c9f565b610df4565b610c9f565b9050919050565b6000610e2b82610dfe565b9050919050565b6000610e3d82610e20565b9050919050565b610e4d81610e32565b82525050565b6000602082019050610e686000830184610e44565b92915050565b60008115159050919050565b610e8381610e6e565b82525050565b6000602082019050610e9e6000830184610e7a565b92915050565b6000610eaf82610e20565b9050919050565b610ebf81610ea4565b82525050565b6000602082019050610eda6000830184610eb6565b92915050565b600081519050610eef81610d07565b92915050565b600060208284031215610f0b57610f0a610c9a565b5b6000610f1984828501610ee0565b91505092915050565b600081519050610f3181610cd1565b92915050565b600060208284031215610f4d57610f4c610c9a565b5b6000610f5b84828501610f22565b91505092915050565b7f4e487b7100000000000000000000000000000000000000000000000000000000600052601160045260246000fd5b6000610f9e82610cfd565b91507fffffffffffffffffffffffffffffffffffffffffffffffffffffffffffffffff8203610fd057610fcf610f64565b5b600182019050919050565b6000604082019050610ff06000830185610d73565b610ffd6020830184610d73565b9392505050565b7f4e487b7100000000000000000000000000000000000000000000000000000000600052603260045260246000fdfea26469706673582212200ff4b80364b3657e3bdaa7dcf126b29d14fc5c8257208f30223d19335d2aa83064736f6c63430008110033",
					"opcodes": "PUSH1 0x80 PUSH1 0x40 MSTORE PUSH20 0xDE39C89E7A8E3FC73E1E7F8B2EDECD4C7FE62B66 PUSH1 0x2 PUSH1 0x0 PUSH2 0x100 EXP DUP2 SLOAD DUP2 PUSH20 0xFFFFFFFFFFFFFFFFFFFFFFFFFFFFFFFFFFFFFFFF MUL NOT AND SWAP1 DUP4 PUSH20 0xFFFFFFFFFFFFFFFFFFFFFFFFFFFFFFFFFFFFFFFF AND MUL OR SWAP1 SSTORE POP PUSH20 0xE5873093EDA4E64B77C80186ADC5BE024444FCBD PUSH1 0x3 PUSH1 0x0 PUSH2 0x100 EXP DUP2 SLOAD DUP2 PUSH20 0xFFFFFFFFFFFFFFFFFFFFFFFFFFFFFFFFFFFFFFFF MUL NOT AND SWAP1 DUP4 PUSH20 0xFFFFFFFFFFFFFFFFFFFFFFFFFFFFFFFFFFFFFFFF AND MUL OR SWAP1 SSTORE POP PUSH1 0x0 PUSH1 0x7 SSTORE PUSH1 0x0 PUSH1 0x8 SSTORE CALLVALUE DUP1 ISZERO PUSH2 0xC4 JUMPI PUSH1 0x0 DUP1 REVERT JUMPDEST POP PUSH20 0xCA73866DFF0F6B0508F5CBB223C857C19463E07 PUSH1 0x0 DUP1 PUSH2 0x100 EXP DUP2 SLOAD DUP2 PUSH20 0xFFFFFFFFFFFFFFFFFFFFFFFFFFFFFFFFFFFFFFFF MUL NOT AND SWAP1 DUP4 PUSH20 0xFFFFFFFFFFFFFFFFFFFFFFFFFFFFFFFFFFFFFFFF AND MUL OR SWAP1 SSTORE POP PUSH20 0x5DA88DF55AF2E5681D33F36E5916D63797BF4766 PUSH1 0x1 PUSH1 0x0 PUSH2 0x100 EXP DUP2 SLOAD DUP2 PUSH20 0xFFFFFFFFFFFFFFFFFFFFFFFFFFFFFFFFFFFFFFFF MUL NOT AND SWAP1 DUP4 PUSH20 0xFFFFFFFFFFFFFFFFFFFFFFFFFFFFFFFFFFFFFFFF AND MUL OR SWAP1 SSTORE POP PUSH2 0x1069 DUP1 PUSH2 0x17D PUSH1 0x0 CODECOPY PUSH1 0x0 RETURN INVALID PUSH1 0x80 PUSH1 0x40 MSTORE CALLVALUE DUP1 ISZERO PUSH2 0x10 JUMPI PUSH1 0x0 DUP1 REVERT JUMPDEST POP PUSH1 0x4 CALLDATASIZE LT PUSH2 0x7D JUMPI PUSH1 0x0 CALLDATALOAD PUSH1 0xE0 SHR DUP1 PUSH4 0xC417808D GT PUSH2 0x5B JUMPI DUP1 PUSH4 0xC417808D EQ PUSH2 0x100 JUMPI DUP1 PUSH4 0xC45A0155 EQ PUSH2 0x11E JUMPI DUP1 PUSH4 0xF800ECE9 EQ PUSH2 0x13C JUMPI DUP1 PUSH4 0xF887EA40 EQ PUSH2 0x15A JUMPI PUSH2 0x7D JUMP JUMPDEST DUP1 PUSH4 0x3D40513 EQ PUSH2 0x82 JUMPI DUP1 PUSH4 0x240E5B58 EQ PUSH2 0xB2 JUMPI DUP1 PUSH4 0x8E75B5E6 EQ PUSH2 0xD0 JUMPI JUMPDEST PUSH1 0x0 DUP1 REVERT JUMPDEST PUSH2 0x9C PUSH1 0x4 DUP1 CALLDATASIZE SUB DUP2 ADD SWAP1 PUSH2 0x97 SWAP2 SWAP1 PUSH2 0xD33 JUMP JUMPDEST PUSH2 0x178 JUMP JUMPDEST PUSH1 0x40 MLOAD PUSH2 0xA9 SWAP2 SWAP1 PUSH2 0xD82 JUMP JUMPDEST PUSH1 0x40 MLOAD DUP1 SWAP2 SUB SWAP1 RETURN JUMPDEST PUSH2 0xBA PUSH2 0x1BD JUMP JUMPDEST PUSH1 0x40 MLOAD PUSH2 0xC7 SWAP2 SWAP1 PUSH2 0xDAC JUMP JUMPDEST PUSH1 0x40 MLOAD DUP1 SWAP2 SUB SWAP1 RETURN JUMPDEST PUSH2 0xEA PUSH1 0x4 DUP1 CALLDATASIZE SUB DUP2 ADD SWAP1 PUSH2 0xE5 SWAP2 SWAP1 PUSH2 0xDC7 JUMP JUMPDEST PUSH2 0x1C3 JUMP JUMPDEST PUSH1 0x40 MLOAD PUSH2 0xF7 SWAP2 SWAP1 PUSH2 0xD82 JUMP JUMPDEST PUSH1 0x40 MLOAD DUP1 SWAP2 SUB SWAP1 RETURN JUMPDEST PUSH2 0x108 PUSH2 0x1F6 JUMP JUMPDEST PUSH1 0x40 MLOAD PUSH2 0x115 SWAP2 SWAP1 PUSH2 0xDAC JUMP JUMPDEST PUSH1 0x40 MLOAD DUP1 SWAP2 SUB SWAP1 RETURN JUMPDEST PUSH2 0x126 PUSH2 0x1FC JUMP JUMPDEST PUSH1 0x40 MLOAD PUSH2 0x133 SWAP2 SWAP1 PUSH2 0xE53 JUMP JUMPDEST PUSH1 0x40 MLOAD DUP1 SWAP2 SUB SWAP1 RETURN JUMPDEST PUSH2 0x144 PUSH2 0x220 JUMP JUMPDEST PUSH1 0x40 MLOAD PUSH2 0x151 SWAP2 SWAP1 PUSH2 0xE89 JUMP JUMPDEST PUSH1 0x40 MLOAD DUP1 SWAP2 SUB SWAP1 RETURN JUMPDEST PUSH2 0x162 PUSH2 0xC74 JUMP JUMPDEST PUSH1 0x40 MLOAD PUSH2 0x16F SWAP2 SWAP1 PUSH2 0xEC5 JUMP JUMPDEST PUSH1 0x40 MLOAD DUP1 SWAP2 SUB SWAP1 RETURN JUMPDEST PUSH1 0x4 PUSH1 0x20 MSTORE DUP2 PUSH1 0x0 MSTORE PUSH1 0x40 PUSH1 0x0 KECCAK256 DUP2 PUSH1 0x2 DUP2 LT PUSH2 0x194 JUMPI PUSH1 0x0 DUP1 REVERT JUMPDEST ADD PUSH1 0x0 SWAP2 POP SWAP2 POP SWAP1 SLOAD SWAP1 PUSH2 0x100 EXP SWAP1 DIV PUSH20 0xFFFFFFFFFFFFFFFFFFFFFFFFFFFFFFFFFFFFFFFF AND DUP2 JUMP JUMPDEST PUSH1 0x7 SLOAD DUP2 JUMP JUMPDEST PUSH1 0x6 PUSH1 0x20 MSTORE DUP1 PUSH1 0x0 MSTORE PUSH1 0x40 PUSH1 0x0 KECCAK256 PUSH1 0x0 SWAP2 POP SLOAD SWAP1 PUSH2 0x100 EXP SWAP1 DIV PUSH20 0xFFFFFFFFFFFFFFFFFFFFFFFFFFFFFFFFFFFFFFFF AND DUP2 JUMP JUMPDEST PUSH1 0x8 SLOAD DUP2 JUMP JUMPDEST PUSH1 0x0 DUP1 SLOAD SWAP1 PUSH2 0x100 EXP SWAP1 DIV PUSH20 0xFFFFFFFFFFFFFFFFFFFFFFFFFFFFFFFFFFFFFFFF AND DUP2 JUMP JUMPDEST PUSH1 0x0 DUP1 PUSH1 0x0 DUP1 SLOAD SWAP1 PUSH2 0x100 EXP SWAP1 DIV PUSH20 0xFFFFFFFFFFFFFFFFFFFFFFFFFFFFFFFFFFFFFFFF AND PUSH20 0xFFFFFFFFFFFFFFFFFFFFFFFFFFFFFFFFFFFFFFFF AND PUSH4 0x574F2BA3 PUSH1 0x40 MLOAD DUP2 PUSH4 0xFFFFFFFF AND PUSH1 0xE0 SHL DUP2 MSTORE PUSH1 0x4 ADD PUSH1 0x20 PUSH1 0x40 MLOAD DUP1 DUP4 SUB DUP2 DUP7 GAS STATICCALL ISZERO DUP1 ISZERO PUSH2 0x28E JUMPI RETURNDATASIZE PUSH1 0x0 DUP1 RETURNDATACOPY RETURNDATASIZE PUSH1 0x0 REVERT JUMPDEST POP POP POP POP PUSH1 0x40 MLOAD RETURNDATASIZE PUSH1 0x1F NOT PUSH1 0x1F DUP3 ADD AND DUP3 ADD DUP1 PUSH1 0x40 MSTORE POP DUP2 ADD SWAP1 PUSH2 0x2B2 SWAP2 SWAP1 PUSH2 0xEF5 JUMP JUMPDEST SWAP1 POP PUSH1 0x0 JUMPDEST DUP2 DUP2 LT ISZERO PUSH2 0x7F2 JUMPI PUSH1 0x0 DUP1 PUSH1 0x0 SWAP1 SLOAD SWAP1 PUSH2 0x100 EXP SWAP1 DIV PUSH20 0xFFFFFFFFFFFFFFFFFFFFFFFFFFFFFFFFFFFFFFFF AND PUSH20 0xFFFFFFFFFFFFFFFFFFFFFFFFFFFFFFFFFFFFFFFF AND PUSH4 0x1E3DD18B DUP4 PUSH1 0x40 MLOAD DUP3 PUSH4 0xFFFFFFFF AND PUSH1 0xE0 SHL DUP2 MSTORE PUSH1 0x4 ADD PUSH2 0x31B SWAP2 SWAP1 PUSH2 0xDAC JUMP JUMPDEST PUSH1 0x20 PUSH1 0x40 MLOAD DUP1 DUP4 SUB DUP2 DUP7 GAS STATICCALL ISZERO DUP1 ISZERO PUSH2 0x338 JUMPI RETURNDATASIZE PUSH1 0x0 DUP1 RETURNDATACOPY RETURNDATASIZE PUSH1 0x0 REVERT JUMPDEST POP POP POP POP PUSH1 0x40 MLOAD RETURNDATASIZE PUSH1 0x1F NOT PUSH1 0x1F DUP3 ADD AND DUP3 ADD DUP1 PUSH1 0x40 MSTORE POP DUP2 ADD SWAP1 PUSH2 0x35C SWAP2 SWAP1 PUSH2 0xF37 JUMP JUMPDEST SWAP1 POP PUSH1 0x0 DUP2 PUSH20 0xFFFFFFFFFFFFFFFFFFFFFFFFFFFFFFFFFFFFFFFF AND PUSH4 0xDFE1681 PUSH1 0x40 MLOAD DUP2 PUSH4 0xFFFFFFFF AND PUSH1 0xE0 SHL DUP2 MSTORE PUSH1 0x4 ADD PUSH1 0x20 PUSH1 0x40 MLOAD DUP1 DUP4 SUB DUP2 DUP7 GAS STATICCALL ISZERO DUP1 ISZERO PUSH2 0x3AB JUMPI RETURNDATASIZE PUSH1 0x0 DUP1 RETURNDATACOPY RETURNDATASIZE PUSH1 0x0 REVERT JUMPDEST POP POP POP POP PUSH1 0x40 MLOAD RETURNDATASIZE PUSH1 0x1F NOT PUSH1 0x1F DUP3 ADD AND DUP3 ADD DUP1 PUSH1 0x40 MSTORE POP DUP2 ADD SWAP1 PUSH2 0x3CF SWAP2 SWAP1 PUSH2 0xF37 JUMP JUMPDEST SWAP1 POP PUSH1 0x0 DUP3 PUSH20 0xFFFFFFFFFFFFFFFFFFFFFFFFFFFFFFFFFFFFFFFF AND PUSH4 0xD21220A7 PUSH1 0x40 MLOAD DUP2 PUSH4 0xFFFFFFFF AND PUSH1 0xE0 SHL DUP2 MSTORE PUSH1 0x4 ADD PUSH1 0x20 PUSH1 0x40 MLOAD DUP1 DUP4 SUB DUP2 DUP7 GAS STATICCALL ISZERO DUP1 ISZERO PUSH2 0x41E JUMPI RETURNDATASIZE PUSH1 0x0 DUP1 RETURNDATACOPY RETURNDATASIZE PUSH1 0x0 REVERT JUMPDEST POP POP POP POP PUSH1 0x40 MLOAD RETURNDATASIZE PUSH1 0x1F NOT PUSH1 0x1F DUP3 ADD AND DUP3 ADD DUP1 PUSH1 0x40 MSTORE POP DUP2 ADD SWAP1 PUSH2 0x442 SWAP2 SWAP1 PUSH2 0xF37 JUMP JUMPDEST SWAP1 POP PUSH1 0x2 PUSH1 0x0 SWAP1 SLOAD SWAP1 PUSH2 0x100 EXP SWAP1 DIV PUSH20 0xFFFFFFFFFFFFFFFFFFFFFFFFFFFFFFFFFFFFFFFF AND PUSH20 0xFFFFFFFFFFFFFFFFFFFFFFFFFFFFFFFFFFFFFFFF AND DUP3 PUSH20 0xFFFFFFFFFFFFFFFFFFFFFFFFFFFFFFFFFFFFFFFF AND EQ ISZERO DUP1 ISZERO PUSH2 0x4F0 JUMPI POP PUSH1 0x3 PUSH1 0x0 SWAP1 SLOAD SWAP1 PUSH2 0x100 EXP SWAP1 DIV PUSH20 0xFFFFFFFFFFFFFFFFFFFFFFFFFFFFFFFFFFFFFFFF AND PUSH20 0xFFFFFFFFFFFFFFFFFFFFFFFFFFFFFFFFFFFFFFFF AND DUP3 PUSH20 0xFFFFFFFFFFFFFFFFFFFFFFFFFFFFFFFFFFFFFFFF AND EQ ISZERO JUMPDEST DUP1 ISZERO PUSH2 0x546 JUMPI POP PUSH1 0x5 PUSH1 0x0 DUP4 PUSH20 0xFFFFFFFFFFFFFFFFFFFFFFFFFFFFFFFFFFFFFFFF AND PUSH20 0xFFFFFFFFFFFFFFFFFFFFFFFFFFFFFFFFFFFFFFFF AND DUP2 MSTORE PUSH1 0x20 ADD SWAP1 DUP2 MSTORE PUSH1 0x20 ADD PUSH1 0x0 KECCAK256 PUSH1 0x0 SWAP1 SLOAD SWAP1 PUSH2 0x100 EXP SWAP1 DIV PUSH1 0xFF AND ISZERO JUMPDEST ISZERO PUSH2 0x610 JUMPI PUSH1 0x1 PUSH1 0x5 PUSH1 0x0 DUP5 PUSH20 0xFFFFFFFFFFFFFFFFFFFFFFFFFFFFFFFFFFFFFFFF AND PUSH20 0xFFFFFFFFFFFFFFFFFFFFFFFFFFFFFFFFFFFFFFFF AND DUP2 MSTORE PUSH1 0x20 ADD SWAP1 DUP2 MSTORE PUSH1 0x20 ADD PUSH1 0x0 KECCAK256 PUSH1 0x0 PUSH2 0x100 EXP DUP2 SLOAD DUP2 PUSH1 0xFF MUL NOT AND SWAP1 DUP4 ISZERO ISZERO MUL OR SWAP1 SSTORE POP DUP2 PUSH1 0x6 PUSH1 0x0 PUSH1 0x7 SLOAD DUP2 MSTORE PUSH1 0x20 ADD SWAP1 DUP2 MSTORE PUSH1 0x20 ADD PUSH1 0x0 KECCAK256 PUSH1 0x0 PUSH2 0x100 EXP DUP2 SLOAD DUP2 PUSH20 0xFFFFFFFFFFFFFFFFFFFFFFFFFFFFFFFFFFFFFFFF MUL NOT AND SWAP1 DUP4 PUSH20 0xFFFFFFFFFFFFFFFFFFFFFFFFFFFFFFFFFFFFFFFF AND MUL OR SWAP1 SSTORE POP PUSH1 0x7 PUSH1 0x0 DUP2 SLOAD DUP1 SWAP3 SWAP2 SWAP1 PUSH2 0x60A SWAP1 PUSH2 0xF93 JUMP JUMPDEST SWAP2 SWAP1 POP SSTORE POP JUMPDEST PUSH1 0x2 PUSH1 0x0 SWAP1 SLOAD SWAP1 PUSH2 0x100 EXP SWAP1 DIV PUSH20 0xFFFFFFFFFFFFFFFFFFFFFFFFFFFFFFFFFFFFFFFF AND PUSH20 0xFFFFFFFFFFFFFFFFFFFFFFFFFFFFFFFFFFFFFFFF AND DUP2 PUSH20 0xFFFFFFFFFFFFFFFFFFFFFFFFFFFFFFFFFFFFFFFF AND EQ ISZERO DUP1 ISZERO PUSH2 0x6BC JUMPI POP PUSH1 0x3 PUSH1 0x0 SWAP1 SLOAD SWAP1 PUSH2 0x100 EXP SWAP1 DIV PUSH20 0xFFFFFFFFFFFFFFFFFFFFFFFFFFFFFFFFFFFFFFFF AND PUSH20 0xFFFFFFFFFFFFFFFFFFFFFFFFFFFFFFFFFFFFFFFF AND DUP2 PUSH20 0xFFFFFFFFFFFFFFFFFFFFFFFFFFFFFFFFFFFFFFFF AND EQ ISZERO JUMPDEST DUP1 ISZERO PUSH2 0x712 JUMPI POP PUSH1 0x5 PUSH1 0x0 DUP3 PUSH20 0xFFFFFFFFFFFFFFFFFFFFFFFFFFFFFFFFFFFFFFFF AND PUSH20 0xFFFFFFFFFFFFFFFFFFFFFFFFFFFFFFFFFFFFFFFF AND DUP2 MSTORE PUSH1 0x20 ADD SWAP1 DUP2 MSTORE PUSH1 0x20 ADD PUSH1 0x0 KECCAK256 PUSH1 0x0 SWAP1 SLOAD SWAP1 PUSH2 0x100 EXP SWAP1 DIV PUSH1 0xFF AND ISZERO JUMPDEST ISZERO PUSH2 0x7DC JUMPI PUSH1 0x1 PUSH1 0x5 PUSH1 0x0 DUP4 PUSH20 0xFFFFFFFFFFFFFFFFFFFFFFFFFFFFFFFFFFFFFFFF AND PUSH20 0xFFFFFFFFFFFFFFFFFFFFFFFFFFFFFFFFFFFFFFFF AND DUP2 MSTORE PUSH1 0x20 ADD SWAP1 DUP2 MSTORE PUSH1 0x20 ADD PUSH1 0x0 KECCAK256 PUSH1 0x0 PUSH2 0x100 EXP DUP2 SLOAD DUP2 PUSH1 0xFF MUL NOT AND SWAP1 DUP4 ISZERO ISZERO MUL OR SWAP1 SSTORE POP DUP1 PUSH1 0x6 PUSH1 0x0 PUSH1 0x7 SLOAD DUP2 MSTORE PUSH1 0x20 ADD SWAP1 DUP2 MSTORE PUSH1 0x20 ADD PUSH1 0x0 KECCAK256 PUSH1 0x0 PUSH2 0x100 EXP DUP2 SLOAD DUP2 PUSH20 0xFFFFFFFFFFFFFFFFFFFFFFFFFFFFFFFFFFFFFFFF MUL NOT AND SWAP1 DUP4 PUSH20 0xFFFFFFFFFFFFFFFFFFFFFFFFFFFFFFFFFFFFFFFF AND MUL OR SWAP1 SSTORE POP PUSH1 0x7 PUSH1 0x0 DUP2 SLOAD DUP1 SWAP3 SWAP2 SWAP1 PUSH2 0x7D6 SWAP1 PUSH2 0xF93 JUMP JUMPDEST SWAP2 SWAP1 POP SSTORE POP JUMPDEST POP POP POP DUP1 DUP1 PUSH2 0x7EA SWAP1 PUSH2 0xF93 JUMP JUMPDEST SWAP2 POP POP PUSH2 0x2B7 JUMP JUMPDEST POP PUSH1 0x0 JUMPDEST PUSH1 0x7 SLOAD DUP2 LT ISZERO PUSH2 0xC6B JUMPI PUSH1 0x0 DUP1 PUSH1 0x0 SWAP1 SLOAD SWAP1 PUSH2 0x100 EXP SWAP1 DIV PUSH20 0xFFFFFFFFFFFFFFFFFFFFFFFFFFFFFFFFFFFFFFFF AND PUSH20 0xFFFFFFFFFFFFFFFFFFFFFFFFFFFFFFFFFFFFFFFF AND PUSH4 0xE6A43905 PUSH1 0x6 PUSH1 0x0 DUP6 DUP2 MSTORE PUSH1 0x20 ADD SWAP1 DUP2 MSTORE PUSH1 0x20 ADD PUSH1 0x0 KECCAK256 PUSH1 0x0 SWAP1 SLOAD SWAP1 PUSH2 0x100 EXP SWAP1 DIV PUSH20 0xFFFFFFFFFFFFFFFFFFFFFFFFFFFFFFFFFFFFFFFF AND PUSH1 0x2 PUSH1 0x0 SWAP1 SLOAD SWAP1 PUSH2 0x100 EXP SWAP1 DIV PUSH20 0xFFFFFFFFFFFFFFFFFFFFFFFFFFFFFFFFFFFFFFFF AND PUSH1 0x40 MLOAD DUP4 PUSH4 0xFFFFFFFF AND PUSH1 0xE0 SHL DUP2 MSTORE PUSH1 0x4 ADD PUSH2 0x8B3 SWAP3 SWAP2 SWAP1 PUSH2 0xFDB JUMP JUMPDEST PUSH1 0x20 PUSH1 0x40 MLOAD DUP1 DUP4 SUB DUP2 DUP7 GAS STATICCALL ISZERO DUP1 ISZERO PUSH2 0x8D0 JUMPI RETURNDATASIZE PUSH1 0x0 DUP1 RETURNDATACOPY RETURNDATASIZE PUSH1 0x0 REVERT JUMPDEST POP POP POP POP PUSH1 0x40 MLOAD RETURNDATASIZE PUSH1 0x1F NOT PUSH1 0x1F DUP3 ADD AND DUP3 ADD DUP1 PUSH1 0x40 MSTORE POP DUP2 ADD SWAP1 PUSH2 0x8F4 SWAP2 SWAP1 PUSH2 0xF37 JUMP JUMPDEST SWAP1 POP PUSH1 0x0 DUP1 PUSH1 0x0 SWAP1 SLOAD SWAP1 PUSH2 0x100 EXP SWAP1 DIV PUSH20 0xFFFFFFFFFFFFFFFFFFFFFFFFFFFFFFFFFFFFFFFF AND PUSH20 0xFFFFFFFFFFFFFFFFFFFFFFFFFFFFFFFFFFFFFFFF AND PUSH4 0xE6A43905 PUSH1 0x6 PUSH1 0x0 DUP7 DUP2 MSTORE PUSH1 0x20 ADD SWAP1 DUP2 MSTORE PUSH1 0x20 ADD PUSH1 0x0 KECCAK256 PUSH1 0x0 SWAP1 SLOAD SWAP1 PUSH2 0x100 EXP SWAP1 DIV PUSH20 0xFFFFFFFFFFFFFFFFFFFFFFFFFFFFFFFFFFFFFFFF AND PUSH1 0x3 PUSH1 0x0 SWAP1 SLOAD SWAP1 PUSH2 0x100 EXP SWAP1 DIV PUSH20 0xFFFFFFFFFFFFFFFFFFFFFFFFFFFFFFFFFFFFFFFF AND PUSH1 0x40 MLOAD DUP4 PUSH4 0xFFFFFFFF AND PUSH1 0xE0 SHL DUP2 MSTORE PUSH1 0x4 ADD PUSH2 0x9A9 SWAP3 SWAP2 SWAP1 PUSH2 0xFDB JUMP JUMPDEST PUSH1 0x20 PUSH1 0x40 MLOAD DUP1 DUP4 SUB DUP2 DUP7 GAS STATICCALL ISZERO DUP1 ISZERO PUSH2 0x9C6 JUMPI RETURNDATASIZE PUSH1 0x0 DUP1 RETURNDATACOPY RETURNDATASIZE PUSH1 0x0 REVERT JUMPDEST POP POP POP POP PUSH1 0x40 MLOAD RETURNDATASIZE PUSH1 0x1F NOT PUSH1 0x1F DUP3 ADD AND DUP3 ADD DUP1 PUSH1 0x40 MSTORE POP DUP2 ADD SWAP1 PUSH2 0x9EA SWAP2 SWAP1 PUSH2 0xF37 JUMP JUMPDEST SWAP1 POP PUSH1 0x0 PUSH20 0xFFFFFFFFFFFFFFFFFFFFFFFFFFFFFFFFFFFFFFFF AND DUP3 PUSH20 0xFFFFFFFFFFFFFFFFFFFFFFFFFFFFFFFFFFFFFFFF AND EQ ISZERO DUP1 ISZERO PUSH2 0xA56 JUMPI POP PUSH1 0x0 PUSH20 0xFFFFFFFFFFFFFFFFFFFFFFFFFFFFFFFFFFFFFFFF AND DUP2 PUSH20 0xFFFFFFFFFFFFFFFFFFFFFFFFFFFFFFFFFFFFFFFF AND EQ ISZERO JUMPDEST ISZERO PUSH2 0xC02 JUMPI DUP2 PUSH1 0x4 PUSH1 0x0 PUSH1 0x6 PUSH1 0x0 DUP8 DUP2 MSTORE PUSH1 0x20 ADD SWAP1 DUP2 MSTORE PUSH1 0x20 ADD PUSH1 0x0 KECCAK256 PUSH1 0x0 SWAP1 SLOAD SWAP1 PUSH2 0x100 EXP SWAP1 DIV PUSH20 0xFFFFFFFFFFFFFFFFFFFFFFFFFFFFFFFFFFFFFFFF AND PUSH20 0xFFFFFFFFFFFFFFFFFFFFFFFFFFFFFFFFFFFFFFFF AND PUSH20 0xFFFFFFFFFFFFFFFFFFFFFFFFFFFFFFFFFFFFFFFF AND DUP2 MSTORE PUSH1 0x20 ADD SWAP1 DUP2 MSTORE PUSH1 0x20 ADD PUSH1 0x0 KECCAK256 PUSH1 0x0 PUSH1 0x2 DUP2 LT PUSH2 0xAE1 JUMPI PUSH2 0xAE0 PUSH2 0x1004 JUMP JUMPDEST JUMPDEST ADD PUSH1 0x0 PUSH2 0x100 EXP DUP2 SLOAD DUP2 PUSH20 0xFFFFFFFFFFFFFFFFFFFFFFFFFFFFFFFFFFFFFFFF MUL NOT AND SWAP1 DUP4 PUSH20 0xFFFFFFFFFFFFFFFFFFFFFFFFFFFFFFFFFFFFFFFF AND MUL OR SWAP1 SSTORE POP DUP1 PUSH1 0x4 PUSH1 0x0 PUSH1 0x6 PUSH1 0x0 DUP8 DUP2 MSTORE PUSH1 0x20 ADD SWAP1 DUP2 MSTORE PUSH1 0x20 ADD PUSH1 0x0 KECCAK256 PUSH1 0x0 SWAP1 SLOAD SWAP1 PUSH2 0x100 EXP SWAP1 DIV PUSH20 0xFFFFFFFFFFFFFFFFFFFFFFFFFFFFFFFFFFFFFFFF AND PUSH20 0xFFFFFFFFFFFFFFFFFFFFFFFFFFFFFFFFFFFFFFFF AND PUSH20 0xFFFFFFFFFFFFFFFFFFFFFFFFFFFFFFFFFFFFFFFF AND DUP2 MSTORE PUSH1 0x20 ADD SWAP1 DUP2 MSTORE PUSH1 0x20 ADD PUSH1 0x0 KECCAK256 PUSH1 0x1 PUSH1 0x2 DUP2 LT PUSH2 0xBA6 JUMPI PUSH2 0xBA5 PUSH2 0x1004 JUMP JUMPDEST JUMPDEST ADD PUSH1 0x0 PUSH2 0x100 EXP DUP2 SLOAD DUP2 PUSH20 0xFFFFFFFFFFFFFFFFFFFFFFFFFFFFFFFFFFFFFFFF MUL NOT AND SWAP1 DUP4 PUSH20 0xFFFFFFFFFFFFFFFFFFFFFFFFFFFFFFFFFFFFFFFF AND MUL OR SWAP1 SSTORE POP PUSH1 0x8 PUSH1 0x0 DUP2 SLOAD DUP1 SWAP3 SWAP2 SWAP1 PUSH2 0xBF8 SWAP1 PUSH2 0xF93 JUMP JUMPDEST SWAP2 SWAP1 POP SSTORE POP PUSH2 0xC56 JUMP JUMPDEST PUSH1 0x0 PUSH1 0x6 PUSH1 0x0 DUP6 DUP2 MSTORE PUSH1 0x20 ADD SWAP1 DUP2 MSTORE PUSH1 0x20 ADD PUSH1 0x0 KECCAK256 PUSH1 0x0 PUSH2 0x100 EXP DUP2 SLOAD DUP2 PUSH20 0xFFFFFFFFFFFFFFFFFFFFFFFFFFFFFFFFFFFFFFFF MUL NOT AND SWAP1 DUP4 PUSH20 0xFFFFFFFFFFFFFFFFFFFFFFFFFFFFFFFFFFFFFFFF AND MUL OR SWAP1 SSTORE POP JUMPDEST POP POP DUP1 DUP1 PUSH2 0xC63 SWAP1 PUSH2 0xF93 JUMP JUMPDEST SWAP2 POP POP PUSH2 0x7F6 JUMP JUMPDEST POP PUSH1 0x1 SWAP2 POP POP SWAP1 JUMP JUMPDEST PUSH1 0x1 PUSH1 0x0 SWAP1 SLOAD SWAP1 PUSH2 0x100 EXP SWAP1 DIV PUSH20 0xFFFFFFFFFFFFFFFFFFFFFFFFFFFFFFFFFFFFFFFF AND DUP2 JUMP JUMPDEST PUSH1 0x0 DUP1 REVERT JUMPDEST PUSH1 0x0 PUSH20 0xFFFFFFFFFFFFFFFFFFFFFFFFFFFFFFFFFFFFFFFF DUP3 AND SWAP1 POP SWAP2 SWAP1 POP JUMP JUMPDEST PUSH1 0x0 PUSH2 0xCCA DUP3 PUSH2 0xC9F JUMP JUMPDEST SWAP1 POP SWAP2 SWAP1 POP JUMP JUMPDEST PUSH2 0xCDA DUP2 PUSH2 0xCBF JUMP JUMPDEST DUP2 EQ PUSH2 0xCE5 JUMPI PUSH1 0x0 DUP1 REVERT JUMPDEST POP JUMP JUMPDEST PUSH1 0x0 DUP2 CALLDATALOAD SWAP1 POP PUSH2 0xCF7 DUP2 PUSH2 0xCD1 JUMP JUMPDEST SWAP3 SWAP2 POP POP JUMP JUMPDEST PUSH1 0x0 DUP2 SWAP1 POP SWAP2 SWAP1 POP JUMP JUMPDEST PUSH2 0xD10 DUP2 PUSH2 0xCFD JUMP JUMPDEST DUP2 EQ PUSH2 0xD1B JUMPI PUSH1 0x0 DUP1 REVERT JUMPDEST POP JUMP JUMPDEST PUSH1 0x0 DUP2 CALLDATALOAD SWAP1 POP PUSH2 0xD2D DUP2 PUSH2 0xD07 JUMP JUMPDEST SWAP3 SWAP2 POP POP JUMP JUMPDEST PUSH1 0x0 DUP1 PUSH1 0x40 DUP4 DUP6 SUB SLT ISZERO PUSH2 0xD4A JUMPI PUSH2 0xD49 PUSH2 0xC9A JUMP JUMPDEST JUMPDEST PUSH1 0x0 PUSH2 0xD58 DUP6 DUP3 DUP7 ADD PUSH2 0xCE8 JUMP JUMPDEST SWAP3 POP POP PUSH1 0x20 PUSH2 0xD69 DUP6 DUP3 DUP7 ADD PUSH2 0xD1E JUMP JUMPDEST SWAP2 POP POP SWAP3 POP SWAP3 SWAP1 POP JUMP JUMPDEST PUSH2 0xD7C DUP2 PUSH2 0xCBF JUMP JUMPDEST DUP3 MSTORE POP POP JUMP JUMPDEST PUSH1 0x0 PUSH1 0x20 DUP3 ADD SWAP1 POP PUSH2 0xD97 PUSH1 0x0 DUP4 ADD DUP5 PUSH2 0xD73 JUMP JUMPDEST SWAP3 SWAP2 POP POP JUMP JUMPDEST PUSH2 0xDA6 DUP2 PUSH2 0xCFD JUMP JUMPDEST DUP3 MSTORE POP POP JUMP JUMPDEST PUSH1 0x0 PUSH1 0x20 DUP3 ADD SWAP1 POP PUSH2 0xDC1 PUSH1 0x0 DUP4 ADD DUP5 PUSH2 0xD9D JUMP JUMPDEST SWAP3 SWAP2 POP POP JUMP JUMPDEST PUSH1 0x0 PUSH1 0x20 DUP3 DUP5 SUB SLT ISZERO PUSH2 0xDDD JUMPI PUSH2 0xDDC PUSH2 0xC9A JUMP JUMPDEST JUMPDEST PUSH1 0x0 PUSH2 0xDEB DUP5 DUP3 DUP6 ADD PUSH2 0xD1E JUMP JUMPDEST SWAP2 POP POP SWAP3 SWAP2 POP POP JUMP JUMPDEST PUSH1 0x0 DUP2 SWAP1 POP SWAP2 SWAP1 POP JUMP JUMPDEST PUSH1 0x0 PUSH2 0xE19 PUSH2 0xE14 PUSH2 0xE0F DUP5 PUSH2 0xC9F JUMP JUMPDEST PUSH2 0xDF4 JUMP JUMPDEST PUSH2 0xC9F JUMP JUMPDEST SWAP1 POP SWAP2 SWAP1 POP JUMP JUMPDEST PUSH1 0x0 PUSH2 0xE2B DUP3 PUSH2 0xDFE JUMP JUMPDEST SWAP1 POP SWAP2 SWAP1 POP JUMP JUMPDEST PUSH1 0x0 PUSH2 0xE3D DUP3 PUSH2 0xE20 JUMP JUMPDEST SWAP1 POP SWAP2 SWAP1 POP JUMP JUMPDEST PUSH2 0xE4D DUP2 PUSH2 0xE32 JUMP JUMPDEST DUP3 MSTORE POP POP JUMP JUMPDEST PUSH1 0x0 PUSH1 0x20 DUP3 ADD SWAP1 POP PUSH2 0xE68 PUSH1 0x0 DUP4 ADD DUP5 PUSH2 0xE44 JUMP JUMPDEST SWAP3 SWAP2 POP POP JUMP JUMPDEST PUSH1 0x0 DUP2 ISZERO ISZERO SWAP1 POP SWAP2 SWAP1 POP JUMP JUMPDEST PUSH2 0xE83 DUP2 PUSH2 0xE6E JUMP JUMPDEST DUP3 MSTORE POP POP JUMP JUMPDEST PUSH1 0x0 PUSH1 0x20 DUP3 ADD SWAP1 POP PUSH2 0xE9E PUSH1 0x0 DUP4 ADD DUP5 PUSH2 0xE7A JUMP JUMPDEST SWAP3 SWAP2 POP POP JUMP JUMPDEST PUSH1 0x0 PUSH2 0xEAF DUP3 PUSH2 0xE20 JUMP JUMPDEST SWAP1 POP SWAP2 SWAP1 POP JUMP JUMPDEST PUSH2 0xEBF DUP2 PUSH2 0xEA4 JUMP JUMPDEST DUP3 MSTORE POP POP JUMP JUMPDEST PUSH1 0x0 PUSH1 0x20 DUP3 ADD SWAP1 POP PUSH2 0xEDA PUSH1 0x0 DUP4 ADD DUP5 PUSH2 0xEB6 JUMP JUMPDEST SWAP3 SWAP2 POP POP JUMP JUMPDEST PUSH1 0x0 DUP2 MLOAD SWAP1 POP PUSH2 0xEEF DUP2 PUSH2 0xD07 JUMP JUMPDEST SWAP3 SWAP2 POP POP JUMP JUMPDEST PUSH1 0x0 PUSH1 0x20 DUP3 DUP5 SUB SLT ISZERO PUSH2 0xF0B JUMPI PUSH2 0xF0A PUSH2 0xC9A JUMP JUMPDEST JUMPDEST PUSH1 0x0 PUSH2 0xF19 DUP5 DUP3 DUP6 ADD PUSH2 0xEE0 JUMP JUMPDEST SWAP2 POP POP SWAP3 SWAP2 POP POP JUMP JUMPDEST PUSH1 0x0 DUP2 MLOAD SWAP1 POP PUSH2 0xF31 DUP2 PUSH2 0xCD1 JUMP JUMPDEST SWAP3 SWAP2 POP POP JUMP JUMPDEST PUSH1 0x0 PUSH1 0x20 DUP3 DUP5 SUB SLT ISZERO PUSH2 0xF4D JUMPI PUSH2 0xF4C PUSH2 0xC9A JUMP JUMPDEST JUMPDEST PUSH1 0x0 PUSH2 0xF5B DUP5 DUP3 DUP6 ADD PUSH2 0xF22 JUMP JUMPDEST SWAP2 POP POP SWAP3 SWAP2 POP POP JUMP JUMPDEST PUSH32 0x4E487B7100000000000000000000000000000000000000000000000000000000 PUSH1 0x0 MSTORE PUSH1 0x11 PUSH1 0x4 MSTORE PUSH1 0x24 PUSH1 0x0 REVERT JUMPDEST PUSH1 0x0 PUSH2 0xF9E DUP3 PUSH2 0xCFD JUMP JUMPDEST SWAP2 POP PUSH32 0xFFFFFFFFFFFFFFFFFFFFFFFFFFFFFFFFFFFFFFFFFFFFFFFFFFFFFFFFFFFFFFFF DUP3 SUB PUSH2 0xFD0 JUMPI PUSH2 0xFCF PUSH2 0xF64 JUMP JUMPDEST JUMPDEST PUSH1 0x1 DUP3 ADD SWAP1 POP SWAP2 SWAP1 POP JUMP JUMPDEST PUSH1 0x0 PUSH1 0x40 DUP3 ADD SWAP1 POP PUSH2 0xFF0 PUSH1 0x0 DUP4 ADD DUP6 PUSH2 0xD73 JUMP JUMPDEST PUSH2 0xFFD PUSH1 0x20 DUP4 ADD DUP5 PUSH2 0xD73 JUMP JUMPDEST SWAP4 SWAP3 POP POP POP JUMP JUMPDEST PUSH32 0x4E487B7100000000000000000000000000000000000000000000000000000000 PUSH1 0x0 MSTORE PUSH1 0x32 PUSH1 0x4 MSTORE PUSH1 0x24 PUSH1 0x0 REVERT INVALID LOG2 PUSH5 0x6970667358 0x22 SLT KECCAK256 0xF DELEGATECALL 0xB8 SUB PUSH5 0xB3657E3BDA 0xA7 0xDC CALL 0x26 0xB2 SWAP14 EQ 0xFC 0x5C DUP3 JUMPI KECCAK256 DUP16 ADDRESS 0x22 RETURNDATASIZE NOT CALLER 0x5D 0x2A 0xA8 ADDRESS PUSH5 0x736F6C6343 STOP ADDMOD GT STOP CALLER "
				},
				"gasEstimates": {
					"creation": {
						"codeDepositCost": "840200",
						"executionCost": "107957",
						"totalCost": "948157"
					},
					"external": {
						"ActualPairs()": "2429",
						"factory()": "infinite",
						"getAllPairs()": "infinite",
						"ind()": "2452",
						"pairs(address,uint256)": "infinite",
						"router()": "infinite",
						"uniqueAddresses(uint256)": "2884"
					}
				},
				"methodIdentifiers": {
					"ActualPairs()": "c417808d",
					"factory()": "c45a0155",
					"getAllPairs()": "f800ece9",
					"ind()": "240e5b58",
					"pairs(address,uint256)": "03d40513",
					"router()": "f887ea40",
					"uniqueAddresses(uint256)": "8e75b5e6"
				}
			},
			"storageLayout": {
				"storage": [
					{
						"astId": 766,
						"contract": "solutions.sol:PairGetter",
						"label": "factory",
						"offset": 0,
						"slot": "0",
						"type": "t_contract(IFactory)62"
					},
					{
						"astId": 769,
						"contract": "solutions.sol:PairGetter",
						"label": "router",
						"offset": 0,
						"slot": "1",
						"type": "t_contract(IRouter)312"
					},
					{
						"astId": 772,
						"contract": "solutions.sol:PairGetter",
						"label": "weth",
						"offset": 0,
						"slot": "2",
						"type": "t_address"
					},
					{
						"astId": 775,
						"contract": "solutions.sol:PairGetter",
						"label": "defi",
						"offset": 0,
						"slot": "3",
						"type": "t_address"
					},
					{
						"astId": 781,
						"contract": "solutions.sol:PairGetter",
						"label": "pairs",
						"offset": 0,
						"slot": "4",
						"type": "t_mapping(t_address,t_array(t_address)2_storage)"
					},
					{
						"astId": 785,
						"contract": "solutions.sol:PairGetter",
						"label": "exists",
						"offset": 0,
						"slot": "5",
						"type": "t_mapping(t_address,t_bool)"
					},
					{
						"astId": 789,
						"contract": "solutions.sol:PairGetter",
						"label": "uniqueAddresses",
						"offset": 0,
						"slot": "6",
						"type": "t_mapping(t_uint256,t_address)"
					},
					{
						"astId": 792,
						"contract": "solutions.sol:PairGetter",
						"label": "ind",
						"offset": 0,
						"slot": "7",
						"type": "t_uint256"
					},
					{
						"astId": 795,
						"contract": "solutions.sol:PairGetter",
						"label": "ActualPairs",
						"offset": 0,
						"slot": "8",
						"type": "t_uint256"
					}
				],
				"types": {
					"t_address": {
						"encoding": "inplace",
						"label": "address",
						"numberOfBytes": "20"
					},
					"t_array(t_address)2_storage": {
						"base": "t_address",
						"encoding": "inplace",
						"label": "address[2]",
						"numberOfBytes": "64"
					},
					"t_bool": {
						"encoding": "inplace",
						"label": "bool",
						"numberOfBytes": "1"
					},
					"t_contract(IFactory)62": {
						"encoding": "inplace",
						"label": "contract IFactory",
						"numberOfBytes": "20"
					},
					"t_contract(IRouter)312": {
						"encoding": "inplace",
						"label": "contract IRouter",
						"numberOfBytes": "20"
					},
					"t_mapping(t_address,t_array(t_address)2_storage)": {
						"encoding": "mapping",
						"key": "t_address",
						"label": "mapping(address => address[2])",
						"numberOfBytes": "32",
						"value": "t_array(t_address)2_storage"
					},
					"t_mapping(t_address,t_bool)": {
						"encoding": "mapping",
						"key": "t_address",
						"label": "mapping(address => bool)",
						"numberOfBytes": "32",
						"value": "t_bool"
					},
					"t_mapping(t_uint256,t_address)": {
						"encoding": "mapping",
						"key": "t_uint256",
						"label": "mapping(uint256 => address)",
						"numberOfBytes": "32",
						"value": "t_address"
					},
					"t_uint256": {
						"encoding": "inplace",
						"label": "uint256",
						"numberOfBytes": "32"
					}
				}
			},
			"userdoc": {
				"kind": "user",
				"methods": {},
				"version": 1
			}
		}
	}
}