{
	"nst.sol": {
		"MyToken": {
			"abi": [
				{
					"inputs": [
						{
							"internalType": "string",
							"name": "_name",
							"type": "string"
						},
						{
							"internalType": "string",
							"name": "_symbol",
							"type": "string"
						},
						{
							"internalType": "uint8",
							"name": "_decimals",
							"type": "uint8"
						},
						{
							"internalType": "uint256",
							"name": "_initialSupply",
							"type": "uint256"
						}
					],
					"stateMutability": "nonpayable",
					"type": "constructor"
				},
				{
					"anonymous": false,
					"inputs": [
						{
							"indexed": true,
							"internalType": "address",
							"name": "owner",
							"type": "address"
						},
						{
							"indexed": true,
							"internalType": "address",
							"name": "spender",
							"type": "address"
						},
						{
							"indexed": false,
							"internalType": "uint256",
							"name": "value",
							"type": "uint256"
						}
					],
					"name": "Approval",
					"type": "event"
				},
				{
					"anonymous": false,
					"inputs": [
						{
							"indexed": true,
							"internalType": "address",
							"name": "from",
							"type": "address"
						},
						{
							"indexed": true,
							"internalType": "address",
							"name": "to",
							"type": "address"
						},
						{
							"indexed": false,
							"internalType": "uint256",
							"name": "value",
							"type": "uint256"
						}
					],
					"name": "Transfer",
					"type": "event"
				},
				{
					"inputs": [
						{
							"internalType": "address",
							"name": "",
							"type": "address"
						},
						{
							"internalType": "address",
							"name": "",
							"type": "address"
						}
					],
					"name": "allowance",
					"outputs": [
						{
							"internalType": "uint256",
							"name": "",
							"type": "uint256"
						}
					],
					"stateMutability": "view",
					"type": "function"
				},
				{
					"inputs": [
						{
							"internalType": "address",
							"name": "_spender",
							"type": "address"
						},
						{
							"internalType": "uint256",
							"name": "_value",
							"type": "uint256"
						}
					],
					"name": "approve",
					"outputs": [
						{
							"internalType": "bool",
							"name": "success",
							"type": "bool"
						}
					],
					"stateMutability": "nonpayable",
					"type": "function"
				},
				{
					"inputs": [
						{
							"internalType": "address",
							"name": "",
							"type": "address"
						}
					],
					"name": "badge",
					"outputs": [
						{
							"internalType": "string",
							"name": "",
							"type": "string"
						}
					],
					"stateMutability": "view",
					"type": "function"
				},
				{
					"inputs": [
						{
							"internalType": "address",
							"name": "",
							"type": "address"
						}
					],
					"name": "balanceOf",
					"outputs": [
						{
							"internalType": "uint256",
							"name": "",
							"type": "uint256"
						}
					],
					"stateMutability": "view",
					"type": "function"
				},
				{
					"inputs": [],
					"name": "decimals",
					"outputs": [
						{
							"internalType": "uint8",
							"name": "",
							"type": "uint8"
						}
					],
					"stateMutability": "view",
					"type": "function"
				},
				{
					"inputs": [],
					"name": "name",
					"outputs": [
						{
							"internalType": "string",
							"name": "",
							"type": "string"
						}
					],
					"stateMutability": "view",
					"type": "function"
				},
				{
					"inputs": [
						{
							"internalType": "address",
							"name": "",
							"type": "address"
						}
					],
					"name": "nrBurnt",
					"outputs": [
						{
							"internalType": "uint256",
							"name": "",
							"type": "uint256"
						}
					],
					"stateMutability": "view",
					"type": "function"
				},
				{
					"inputs": [],
					"name": "symbol",
					"outputs": [
						{
							"internalType": "string",
							"name": "",
							"type": "string"
						}
					],
					"stateMutability": "view",
					"type": "function"
				},
				{
					"inputs": [
						{
							"internalType": "uint256",
							"name": "_value",
							"type": "uint256"
						}
					],
					"name": "tokenBurn",
					"outputs": [
						{
							"internalType": "bool",
							"name": "success",
							"type": "bool"
						}
					],
					"stateMutability": "nonpayable",
					"type": "function"
				},
				{
					"inputs": [],
					"name": "totalSupply",
					"outputs": [
						{
							"internalType": "uint256",
							"name": "",
							"type": "uint256"
						}
					],
					"stateMutability": "view",
					"type": "function"
				},
				{
					"inputs": [
						{
							"internalType": "address",
							"name": "_to",
							"type": "address"
						},
						{
							"internalType": "uint256",
							"name": "_value",
							"type": "uint256"
						}
					],
					"name": "transfer",
					"outputs": [
						{
							"internalType": "bool",
							"name": "success",
							"type": "bool"
						}
					],
					"stateMutability": "nonpayable",
					"type": "function"
				},
				{
					"inputs": [
						{
							"internalType": "address",
							"name": "_from",
							"type": "address"
						},
						{
							"internalType": "address",
							"name": "_to",
							"type": "address"
						},
						{
							"internalType": "uint256",
							"name": "_value",
							"type": "uint256"
						}
					],
					"name": "transferFrom",
					"outputs": [
						{
							"internalType": "bool",
							"name": "success",
							"type": "bool"
						}
					],
					"stateMutability": "nonpayable",
					"type": "function"
				}
			],
			"devdoc": {
				"kind": "dev",
				"methods": {},
				"version": 1
			},
			"evm": {
				"assembly": "    /* \"nst.sol\":854:3474  contract MyToken is IERC20 {... */\n  mstore(0x40, 0x80)\n    /* \"nst.sol\":1211:1503  constructor(string memory _name, string memory _symbol, uint8 _decimals, uint256 _initialSupply) {... */\n  callvalue\n  dup1\n  iszero\n  tag_1\n  jumpi\n  0x00\n  dup1\n  revert\ntag_1:\n  pop\n  mload(0x40)\n  sub(codesize, bytecodeSize)\n  dup1\n  bytecodeSize\n  dup4\n  codecopy\n  dup2\n  dup2\n  add\n  0x40\n  mstore\n  dup2\n  add\n  swap1\n  tag_2\n  swap2\n  swap1\n  tag_3\n  jump\t// in\ntag_2:\n    /* \"nst.sol\":1325:1330  _name */\n  dup4\n    /* \"nst.sol\":1318:1322  name */\n  0x00\n    /* \"nst.sol\":1318:1330  name = _name */\n  swap1\n  dup2\n  tag_6\n  swap2\n  swap1\n  tag_7\n  jump\t// in\ntag_6:\n  pop\n    /* \"nst.sol\":1349:1356  _symbol */\n  dup3\n    /* \"nst.sol\":1340:1346  symbol */\n  0x01\n    /* \"nst.sol\":1340:1356  symbol = _symbol */\n  swap1\n  dup2\n  tag_8\n  swap2\n  swap1\n  tag_7\n  jump\t// in\ntag_8:\n  pop\n    /* \"nst.sol\":1377:1386  _decimals */\n  dup2\n    /* \"nst.sol\":1366:1374  decimals */\n  0x02\n  0x00\n    /* \"nst.sol\":1366:1386  decimals = _decimals */\n  0x0100\n  exp\n  dup2\n  sload\n  dup2\n  0xff\n  mul\n  not\n  and\n  swap1\n  dup4\n  0xff\n  and\n  mul\n  or\n  swap1\n  sstore\n  pop\n    /* \"nst.sol\":1441:1450  _decimals */\n  dup2\n    /* \"nst.sol\":1433:1451  uint256(_decimals) */\n  0xff\n  and\n    /* \"nst.sol\":1427:1429  10 */\n  0x0a\n    /* \"nst.sol\":1427:1451  10 ** uint256(_decimals) */\n  tag_9\n  swap2\n  swap1\n  tag_10\n  jump\t// in\ntag_9:\n    /* \"nst.sol\":1410:1424  _initialSupply */\n  dup2\n    /* \"nst.sol\":1410:1451  _initialSupply * 10 ** uint256(_decimals) */\n  tag_11\n  swap2\n  swap1\n  tag_12\n  jump\t// in\ntag_11:\n    /* \"nst.sol\":1396:1407  totalSupply */\n  0x03\n    /* \"nst.sol\":1396:1451  totalSupply = _initialSupply * 10 ** uint256(_decimals) */\n  dup2\n  swap1\n  sstore\n  pop\n    /* \"nst.sol\":1485:1496  totalSupply */\n  sload(0x03)\n    /* \"nst.sol\":1461:1470  balanceOf */\n  0x04\n    /* \"nst.sol\":1461:1482  balanceOf[msg.sender] */\n  0x00\n    /* \"nst.sol\":1471:1481  msg.sender */\n  caller\n    /* \"nst.sol\":1461:1482  balanceOf[msg.sender] */\n  0xffffffffffffffffffffffffffffffffffffffff\n  and\n  0xffffffffffffffffffffffffffffffffffffffff\n  and\n  dup2\n  mstore\n  0x20\n  add\n  swap1\n  dup2\n  mstore\n  0x20\n  add\n  0x00\n  keccak256\n    /* \"nst.sol\":1461:1496  balanceOf[msg.sender] = totalSupply */\n  dup2\n  swap1\n  sstore\n  pop\n    /* \"nst.sol\":1211:1503  constructor(string memory _name, string memory _symbol, uint8 _decimals, uint256 _initialSupply) {... */\n  pop\n  pop\n  pop\n  pop\n    /* \"nst.sol\":854:3474  contract MyToken is IERC20 {... */\n  jump(tag_13)\n    /* \"#utility.yul\":7:82   */\ntag_14:\n    /* \"#utility.yul\":40:46   */\n  0x00\n    /* \"#utility.yul\":73:75   */\n  0x40\n    /* \"#utility.yul\":67:76   */\n  mload\n    /* \"#utility.yul\":57:76   */\n  swap1\n  pop\n    /* \"#utility.yul\":7:82   */\n  swap1\n  jump\t// out\n    /* \"#utility.yul\":88:205   */\ntag_15:\n    /* \"#utility.yul\":197:198   */\n  0x00\n    /* \"#utility.yul\":194:195   */\n  dup1\n    /* \"#utility.yul\":187:199   */\n  revert\n    /* \"#utility.yul\":211:328   */\ntag_16:\n    /* \"#utility.yul\":320:321   */\n  0x00\n    /* \"#utility.yul\":317:318   */\n  dup1\n    /* \"#utility.yul\":310:322   */\n  revert\n    /* \"#utility.yul\":334:451   */\ntag_17:\n    /* \"#utility.yul\":443:444   */\n  0x00\n    /* \"#utility.yul\":440:441   */\n  dup1\n    /* \"#utility.yul\":433:445   */\n  revert\n    /* \"#utility.yul\":457:574   */\ntag_18:\n    /* \"#utility.yul\":566:567   */\n  0x00\n    /* \"#utility.yul\":563:564   */\n  dup1\n    /* \"#utility.yul\":556:568   */\n  revert\n    /* \"#utility.yul\":580:682   */\ntag_19:\n    /* \"#utility.yul\":621:627   */\n  0x00\n    /* \"#utility.yul\":672:674   */\n  0x1f\n    /* \"#utility.yul\":668:675   */\n  not\n    /* \"#utility.yul\":663:665   */\n  0x1f\n    /* \"#utility.yul\":656:661   */\n  dup4\n    /* \"#utility.yul\":652:666   */\n  add\n    /* \"#utility.yul\":648:676   */\n  and\n    /* \"#utility.yul\":638:676   */\n  swap1\n  pop\n    /* \"#utility.yul\":580:682   */\n  swap2\n  swap1\n  pop\n  jump\t// out\n    /* \"#utility.yul\":688:868   */\ntag_20:\n    /* \"#utility.yul\":736:813   */\n  0x4e487b7100000000000000000000000000000000000000000000000000000000\n    /* \"#utility.yul\":733:734   */\n  0x00\n    /* \"#utility.yul\":726:814   */\n  mstore\n    /* \"#utility.yul\":833:837   */\n  0x41\n    /* \"#utility.yul\":830:831   */\n  0x04\n    /* \"#utility.yul\":823:838   */\n  mstore\n    /* \"#utility.yul\":857:861   */\n  0x24\n    /* \"#utility.yul\":854:855   */\n  0x00\n    /* \"#utility.yul\":847:862   */\n  revert\n    /* \"#utility.yul\":874:1155   */\ntag_21:\n    /* \"#utility.yul\":957:984   */\n  tag_64\n    /* \"#utility.yul\":979:983   */\n  dup3\n    /* \"#utility.yul\":957:984   */\n  tag_19\n  jump\t// in\ntag_64:\n    /* \"#utility.yul\":949:955   */\n  dup2\n    /* \"#utility.yul\":945:985   */\n  add\n    /* \"#utility.yul\":1087:1093   */\n  dup2\n    /* \"#utility.yul\":1075:1085   */\n  dup2\n    /* \"#utility.yul\":1072:1094   */\n  lt\n    /* \"#utility.yul\":1051:1069   */\n  0xffffffffffffffff\n    /* \"#utility.yul\":1039:1049   */\n  dup3\n    /* \"#utility.yul\":1036:1070   */\n  gt\n    /* \"#utility.yul\":1033:1095   */\n  or\n    /* \"#utility.yul\":1030:1118   */\n  iszero\n  tag_65\n  jumpi\n    /* \"#utility.yul\":1098:1116   */\n  tag_66\n  tag_20\n  jump\t// in\ntag_66:\n    /* \"#utility.yul\":1030:1118   */\ntag_65:\n    /* \"#utility.yul\":1138:1148   */\n  dup1\n    /* \"#utility.yul\":1134:1136   */\n  0x40\n    /* \"#utility.yul\":1127:1149   */\n  mstore\n    /* \"#utility.yul\":917:1155   */\n  pop\n    /* \"#utility.yul\":874:1155   */\n  pop\n  pop\n  jump\t// out\n    /* \"#utility.yul\":1161:1290   */\ntag_22:\n    /* \"#utility.yul\":1195:1201   */\n  0x00\n    /* \"#utility.yul\":1222:1242   */\n  tag_68\n  tag_14\n  jump\t// in\ntag_68:\n    /* \"#utility.yul\":1212:1242   */\n  swap1\n  pop\n    /* \"#utility.yul\":1251:1284   */\n  tag_69\n    /* \"#utility.yul\":1279:1283   */\n  dup3\n    /* \"#utility.yul\":1271:1277   */\n  dup3\n    /* \"#utility.yul\":1251:1284   */\n  tag_21\n  jump\t// in\ntag_69:\n    /* \"#utility.yul\":1161:1290   */\n  swap2\n  swap1\n  pop\n  jump\t// out\n    /* \"#utility.yul\":1296:1604   */\ntag_23:\n    /* \"#utility.yul\":1358:1362   */\n  0x00\n    /* \"#utility.yul\":1448:1466   */\n  0xffffffffffffffff\n    /* \"#utility.yul\":1440:1446   */\n  dup3\n    /* \"#utility.yul\":1437:1467   */\n  gt\n    /* \"#utility.yul\":1434:1490   */\n  iszero\n  tag_71\n  jumpi\n    /* \"#utility.yul\":1470:1488   */\n  tag_72\n  tag_20\n  jump\t// in\ntag_72:\n    /* \"#utility.yul\":1434:1490   */\ntag_71:\n    /* \"#utility.yul\":1508:1537   */\n  tag_73\n    /* \"#utility.yul\":1530:1536   */\n  dup3\n    /* \"#utility.yul\":1508:1537   */\n  tag_19\n  jump\t// in\ntag_73:\n    /* \"#utility.yul\":1500:1537   */\n  swap1\n  pop\n    /* \"#utility.yul\":1592:1596   */\n  0x20\n    /* \"#utility.yul\":1586:1590   */\n  dup2\n    /* \"#utility.yul\":1582:1597   */\n  add\n    /* \"#utility.yul\":1574:1597   */\n  swap1\n  pop\n    /* \"#utility.yul\":1296:1604   */\n  swap2\n  swap1\n  pop\n  jump\t// out\n    /* \"#utility.yul\":1610:1749   */\ntag_24:\n    /* \"#utility.yul\":1699:1705   */\n  dup3\n    /* \"#utility.yul\":1694:1697   */\n  dup2\n    /* \"#utility.yul\":1689:1692   */\n  dup4\n    /* \"#utility.yul\":1683:1706   */\n  mcopy\n    /* \"#utility.yul\":1740:1741   */\n  0x00\n    /* \"#utility.yul\":1731:1737   */\n  dup4\n    /* \"#utility.yul\":1726:1729   */\n  dup4\n    /* \"#utility.yul\":1722:1738   */\n  add\n    /* \"#utility.yul\":1715:1742   */\n  mstore\n    /* \"#utility.yul\":1610:1749   */\n  pop\n  pop\n  pop\n  jump\t// out\n    /* \"#utility.yul\":1755:2189   */\ntag_25:\n    /* \"#utility.yul\":1844:1849   */\n  0x00\n    /* \"#utility.yul\":1869:1935   */\n  tag_76\n    /* \"#utility.yul\":1885:1934   */\n  tag_77\n    /* \"#utility.yul\":1927:1933   */\n  dup5\n    /* \"#utility.yul\":1885:1934   */\n  tag_23\n  jump\t// in\ntag_77:\n    /* \"#utility.yul\":1869:1935   */\n  tag_22\n  jump\t// in\ntag_76:\n    /* \"#utility.yul\":1860:1935   */\n  swap1\n  pop\n    /* \"#utility.yul\":1958:1964   */\n  dup3\n    /* \"#utility.yul\":1951:1956   */\n  dup2\n    /* \"#utility.yul\":1944:1965   */\n  mstore\n    /* \"#utility.yul\":1996:2000   */\n  0x20\n    /* \"#utility.yul\":1989:1994   */\n  dup2\n    /* \"#utility.yul\":1985:2001   */\n  add\n    /* \"#utility.yul\":2034:2037   */\n  dup5\n    /* \"#utility.yul\":2025:2031   */\n  dup5\n    /* \"#utility.yul\":2020:2023   */\n  dup5\n    /* \"#utility.yul\":2016:2032   */\n  add\n    /* \"#utility.yul\":2013:2038   */\n  gt\n    /* \"#utility.yul\":2010:2122   */\n  iszero\n  tag_78\n  jumpi\n    /* \"#utility.yul\":2041:2120   */\n  tag_79\n  tag_18\n  jump\t// in\ntag_79:\n    /* \"#utility.yul\":2010:2122   */\ntag_78:\n    /* \"#utility.yul\":2131:2183   */\n  tag_80\n    /* \"#utility.yul\":2176:2182   */\n  dup5\n    /* \"#utility.yul\":2171:2174   */\n  dup3\n    /* \"#utility.yul\":2166:2169   */\n  dup6\n    /* \"#utility.yul\":2131:2183   */\n  tag_24\n  jump\t// in\ntag_80:\n    /* \"#utility.yul\":1850:2189   */\n  pop\n    /* \"#utility.yul\":1755:2189   */\n  swap4\n  swap3\n  pop\n  pop\n  pop\n  jump\t// out\n    /* \"#utility.yul\":2209:2564   */\ntag_26:\n    /* \"#utility.yul\":2276:2281   */\n  0x00\n    /* \"#utility.yul\":2325:2328   */\n  dup3\n    /* \"#utility.yul\":2318:2322   */\n  0x1f\n    /* \"#utility.yul\":2310:2316   */\n  dup4\n    /* \"#utility.yul\":2306:2323   */\n  add\n    /* \"#utility.yul\":2302:2329   */\n  slt\n    /* \"#utility.yul\":2292:2414   */\n  tag_82\n  jumpi\n    /* \"#utility.yul\":2333:2412   */\n  tag_83\n  tag_17\n  jump\t// in\ntag_83:\n    /* \"#utility.yul\":2292:2414   */\ntag_82:\n    /* \"#utility.yul\":2443:2449   */\n  dup2\n    /* \"#utility.yul\":2437:2450   */\n  mload\n    /* \"#utility.yul\":2468:2558   */\n  tag_84\n    /* \"#utility.yul\":2554:2557   */\n  dup5\n    /* \"#utility.yul\":2546:2552   */\n  dup3\n    /* \"#utility.yul\":2539:2543   */\n  0x20\n    /* \"#utility.yul\":2531:2537   */\n  dup7\n    /* \"#utility.yul\":2527:2544   */\n  add\n    /* \"#utility.yul\":2468:2558   */\n  tag_25\n  jump\t// in\ntag_84:\n    /* \"#utility.yul\":2459:2558   */\n  swap2\n  pop\n    /* \"#utility.yul\":2282:2564   */\n  pop\n    /* \"#utility.yul\":2209:2564   */\n  swap3\n  swap2\n  pop\n  pop\n  jump\t// out\n    /* \"#utility.yul\":2570:2656   */\ntag_27:\n    /* \"#utility.yul\":2605:2612   */\n  0x00\n    /* \"#utility.yul\":2645:2649   */\n  0xff\n    /* \"#utility.yul\":2638:2643   */\n  dup3\n    /* \"#utility.yul\":2634:2650   */\n  and\n    /* \"#utility.yul\":2623:2650   */\n  swap1\n  pop\n    /* \"#utility.yul\":2570:2656   */\n  swap2\n  swap1\n  pop\n  jump\t// out\n    /* \"#utility.yul\":2662:2780   */\ntag_28:\n    /* \"#utility.yul\":2733:2755   */\n  tag_87\n    /* \"#utility.yul\":2749:2754   */\n  dup2\n    /* \"#utility.yul\":2733:2755   */\n  tag_27\n  jump\t// in\ntag_87:\n    /* \"#utility.yul\":2726:2731   */\n  dup2\n    /* \"#utility.yul\":2723:2756   */\n  eq\n    /* \"#utility.yul\":2713:2774   */\n  tag_88\n  jumpi\n    /* \"#utility.yul\":2770:2771   */\n  0x00\n    /* \"#utility.yul\":2767:2768   */\n  dup1\n    /* \"#utility.yul\":2760:2772   */\n  revert\n    /* \"#utility.yul\":2713:2774   */\ntag_88:\n    /* \"#utility.yul\":2662:2780   */\n  pop\n  jump\t// out\n    /* \"#utility.yul\":2786:2925   */\ntag_29:\n    /* \"#utility.yul\":2841:2846   */\n  0x00\n    /* \"#utility.yul\":2872:2878   */\n  dup2\n    /* \"#utility.yul\":2866:2879   */\n  mload\n    /* \"#utility.yul\":2857:2879   */\n  swap1\n  pop\n    /* \"#utility.yul\":2888:2919   */\n  tag_90\n    /* \"#utility.yul\":2913:2918   */\n  dup2\n    /* \"#utility.yul\":2888:2919   */\n  tag_28\n  jump\t// in\ntag_90:\n    /* \"#utility.yul\":2786:2925   */\n  swap3\n  swap2\n  pop\n  pop\n  jump\t// out\n    /* \"#utility.yul\":2931:3008   */\ntag_30:\n    /* \"#utility.yul\":2968:2975   */\n  0x00\n    /* \"#utility.yul\":2997:3002   */\n  dup2\n    /* \"#utility.yul\":2986:3002   */\n  swap1\n  pop\n    /* \"#utility.yul\":2931:3008   */\n  swap2\n  swap1\n  pop\n  jump\t// out\n    /* \"#utility.yul\":3014:3136   */\ntag_31:\n    /* \"#utility.yul\":3087:3111   */\n  tag_93\n    /* \"#utility.yul\":3105:3110   */\n  dup2\n    /* \"#utility.yul\":3087:3111   */\n  tag_30\n  jump\t// in\ntag_93:\n    /* \"#utility.yul\":3080:3085   */\n  dup2\n    /* \"#utility.yul\":3077:3112   */\n  eq\n    /* \"#utility.yul\":3067:3130   */\n  tag_94\n  jumpi\n    /* \"#utility.yul\":3126:3127   */\n  0x00\n    /* \"#utility.yul\":3123:3124   */\n  dup1\n    /* \"#utility.yul\":3116:3128   */\n  revert\n    /* \"#utility.yul\":3067:3130   */\ntag_94:\n    /* \"#utility.yul\":3014:3136   */\n  pop\n  jump\t// out\n    /* \"#utility.yul\":3142:3285   */\ntag_32:\n    /* \"#utility.yul\":3199:3204   */\n  0x00\n    /* \"#utility.yul\":3230:3236   */\n  dup2\n    /* \"#utility.yul\":3224:3237   */\n  mload\n    /* \"#utility.yul\":3215:3237   */\n  swap1\n  pop\n    /* \"#utility.yul\":3246:3279   */\n  tag_96\n    /* \"#utility.yul\":3273:3278   */\n  dup2\n    /* \"#utility.yul\":3246:3279   */\n  tag_31\n  jump\t// in\ntag_96:\n    /* \"#utility.yul\":3142:3285   */\n  swap3\n  swap2\n  pop\n  pop\n  jump\t// out\n    /* \"#utility.yul\":3291:4453   */\ntag_3:\n    /* \"#utility.yul\":3406:3412   */\n  0x00\n    /* \"#utility.yul\":3414:3420   */\n  dup1\n    /* \"#utility.yul\":3422:3428   */\n  0x00\n    /* \"#utility.yul\":3430:3436   */\n  dup1\n    /* \"#utility.yul\":3479:3482   */\n  0x80\n    /* \"#utility.yul\":3467:3476   */\n  dup6\n    /* \"#utility.yul\":3458:3465   */\n  dup8\n    /* \"#utility.yul\":3454:3477   */\n  sub\n    /* \"#utility.yul\":3450:3483   */\n  slt\n    /* \"#utility.yul\":3447:3567   */\n  iszero\n  tag_98\n  jumpi\n    /* \"#utility.yul\":3486:3565   */\n  tag_99\n  tag_15\n  jump\t// in\ntag_99:\n    /* \"#utility.yul\":3447:3567   */\ntag_98:\n    /* \"#utility.yul\":3627:3628   */\n  0x00\n    /* \"#utility.yul\":3616:3625   */\n  dup6\n    /* \"#utility.yul\":3612:3629   */\n  add\n    /* \"#utility.yul\":3606:3630   */\n  mload\n    /* \"#utility.yul\":3657:3675   */\n  0xffffffffffffffff\n    /* \"#utility.yul\":3649:3655   */\n  dup2\n    /* \"#utility.yul\":3646:3676   */\n  gt\n    /* \"#utility.yul\":3643:3760   */\n  iszero\n  tag_100\n  jumpi\n    /* \"#utility.yul\":3679:3758   */\n  tag_101\n  tag_16\n  jump\t// in\ntag_101:\n    /* \"#utility.yul\":3643:3760   */\ntag_100:\n    /* \"#utility.yul\":3784:3858   */\n  tag_102\n    /* \"#utility.yul\":3850:3857   */\n  dup8\n    /* \"#utility.yul\":3841:3847   */\n  dup3\n    /* \"#utility.yul\":3830:3839   */\n  dup9\n    /* \"#utility.yul\":3826:3848   */\n  add\n    /* \"#utility.yul\":3784:3858   */\n  tag_26\n  jump\t// in\ntag_102:\n    /* \"#utility.yul\":3774:3858   */\n  swap5\n  pop\n    /* \"#utility.yul\":3577:3868   */\n  pop\n    /* \"#utility.yul\":3928:3930   */\n  0x20\n    /* \"#utility.yul\":3917:3926   */\n  dup6\n    /* \"#utility.yul\":3913:3931   */\n  add\n    /* \"#utility.yul\":3907:3932   */\n  mload\n    /* \"#utility.yul\":3959:3977   */\n  0xffffffffffffffff\n    /* \"#utility.yul\":3951:3957   */\n  dup2\n    /* \"#utility.yul\":3948:3978   */\n  gt\n    /* \"#utility.yul\":3945:4062   */\n  iszero\n  tag_103\n  jumpi\n    /* \"#utility.yul\":3981:4060   */\n  tag_104\n  tag_16\n  jump\t// in\ntag_104:\n    /* \"#utility.yul\":3945:4062   */\ntag_103:\n    /* \"#utility.yul\":4086:4160   */\n  tag_105\n    /* \"#utility.yul\":4152:4159   */\n  dup8\n    /* \"#utility.yul\":4143:4149   */\n  dup3\n    /* \"#utility.yul\":4132:4141   */\n  dup9\n    /* \"#utility.yul\":4128:4150   */\n  add\n    /* \"#utility.yul\":4086:4160   */\n  tag_26\n  jump\t// in\ntag_105:\n    /* \"#utility.yul\":4076:4160   */\n  swap4\n  pop\n    /* \"#utility.yul\":3878:4170   */\n  pop\n    /* \"#utility.yul\":4209:4211   */\n  0x40\n    /* \"#utility.yul\":4235:4297   */\n  tag_106\n    /* \"#utility.yul\":4289:4296   */\n  dup8\n    /* \"#utility.yul\":4280:4286   */\n  dup3\n    /* \"#utility.yul\":4269:4278   */\n  dup9\n    /* \"#utility.yul\":4265:4287   */\n  add\n    /* \"#utility.yul\":4235:4297   */\n  tag_29\n  jump\t// in\ntag_106:\n    /* \"#utility.yul\":4225:4297   */\n  swap3\n  pop\n    /* \"#utility.yul\":4180:4307   */\n  pop\n    /* \"#utility.yul\":4346:4348   */\n  0x60\n    /* \"#utility.yul\":4372:4436   */\n  tag_107\n    /* \"#utility.yul\":4428:4435   */\n  dup8\n    /* \"#utility.yul\":4419:4425   */\n  dup3\n    /* \"#utility.yul\":4408:4417   */\n  dup9\n    /* \"#utility.yul\":4404:4426   */\n  add\n    /* \"#utility.yul\":4372:4436   */\n  tag_32\n  jump\t// in\ntag_107:\n    /* \"#utility.yul\":4362:4436   */\n  swap2\n  pop\n    /* \"#utility.yul\":4317:4446   */\n  pop\n    /* \"#utility.yul\":3291:4453   */\n  swap3\n  swap6\n  swap2\n  swap5\n  pop\n  swap3\n  pop\n  jump\t// out\n    /* \"#utility.yul\":4459:4558   */\ntag_33:\n    /* \"#utility.yul\":4511:4517   */\n  0x00\n    /* \"#utility.yul\":4545:4550   */\n  dup2\n    /* \"#utility.yul\":4539:4551   */\n  mload\n    /* \"#utility.yul\":4529:4551   */\n  swap1\n  pop\n    /* \"#utility.yul\":4459:4558   */\n  swap2\n  swap1\n  pop\n  jump\t// out\n    /* \"#utility.yul\":4564:4744   */\ntag_34:\n    /* \"#utility.yul\":4612:4689   */\n  0x4e487b7100000000000000000000000000000000000000000000000000000000\n    /* \"#utility.yul\":4609:4610   */\n  0x00\n    /* \"#utility.yul\":4602:4690   */\n  mstore\n    /* \"#utility.yul\":4709:4713   */\n  0x22\n    /* \"#utility.yul\":4706:4707   */\n  0x04\n    /* \"#utility.yul\":4699:4714   */\n  mstore\n    /* \"#utility.yul\":4733:4737   */\n  0x24\n    /* \"#utility.yul\":4730:4731   */\n  0x00\n    /* \"#utility.yul\":4723:4738   */\n  revert\n    /* \"#utility.yul\":4750:5070   */\ntag_35:\n    /* \"#utility.yul\":4794:4800   */\n  0x00\n    /* \"#utility.yul\":4831:4832   */\n  0x02\n    /* \"#utility.yul\":4825:4829   */\n  dup3\n    /* \"#utility.yul\":4821:4833   */\n  div\n    /* \"#utility.yul\":4811:4833   */\n  swap1\n  pop\n    /* \"#utility.yul\":4878:4879   */\n  0x01\n    /* \"#utility.yul\":4872:4876   */\n  dup3\n    /* \"#utility.yul\":4868:4880   */\n  and\n    /* \"#utility.yul\":4899:4917   */\n  dup1\n    /* \"#utility.yul\":4889:4970   */\n  tag_111\n  jumpi\n    /* \"#utility.yul\":4955:4959   */\n  0x7f\n    /* \"#utility.yul\":4947:4953   */\n  dup3\n    /* \"#utility.yul\":4943:4960   */\n  and\n    /* \"#utility.yul\":4933:4960   */\n  swap2\n  pop\n    /* \"#utility.yul\":4889:4970   */\ntag_111:\n    /* \"#utility.yul\":5017:5019   */\n  0x20\n    /* \"#utility.yul\":5009:5015   */\n  dup3\n    /* \"#utility.yul\":5006:5020   */\n  lt\n    /* \"#utility.yul\":4986:5004   */\n  dup2\n    /* \"#utility.yul\":4983:5021   */\n  sub\n    /* \"#utility.yul\":4980:5064   */\n  tag_112\n  jumpi\n    /* \"#utility.yul\":5036:5054   */\n  tag_113\n  tag_34\n  jump\t// in\ntag_113:\n    /* \"#utility.yul\":4980:5064   */\ntag_112:\n    /* \"#utility.yul\":4801:5070   */\n  pop\n    /* \"#utility.yul\":4750:5070   */\n  swap2\n  swap1\n  pop\n  jump\t// out\n    /* \"#utility.yul\":5076:5217   */\ntag_36:\n    /* \"#utility.yul\":5125:5129   */\n  0x00\n    /* \"#utility.yul\":5148:5151   */\n  dup2\n    /* \"#utility.yul\":5140:5151   */\n  swap1\n  pop\n    /* \"#utility.yul\":5171:5174   */\n  dup2\n    /* \"#utility.yul\":5168:5169   */\n  0x00\n    /* \"#utility.yul\":5161:5175   */\n  mstore\n    /* \"#utility.yul\":5205:5209   */\n  0x20\n    /* \"#utility.yul\":5202:5203   */\n  0x00\n    /* \"#utility.yul\":5192:5210   */\n  keccak256\n    /* \"#utility.yul\":5184:5210   */\n  swap1\n  pop\n    /* \"#utility.yul\":5076:5217   */\n  swap2\n  swap1\n  pop\n  jump\t// out\n    /* \"#utility.yul\":5223:5316   */\ntag_37:\n    /* \"#utility.yul\":5260:5266   */\n  0x00\n    /* \"#utility.yul\":5307:5309   */\n  0x20\n    /* \"#utility.yul\":5302:5304   */\n  0x1f\n    /* \"#utility.yul\":5295:5300   */\n  dup4\n    /* \"#utility.yul\":5291:5305   */\n  add\n    /* \"#utility.yul\":5287:5310   */\n  div\n    /* \"#utility.yul\":5277:5310   */\n  swap1\n  pop\n    /* \"#utility.yul\":5223:5316   */\n  swap2\n  swap1\n  pop\n  jump\t// out\n    /* \"#utility.yul\":5322:5429   */\ntag_38:\n    /* \"#utility.yul\":5366:5374   */\n  0x00\n    /* \"#utility.yul\":5416:5421   */\n  dup3\n    /* \"#utility.yul\":5410:5414   */\n  dup3\n    /* \"#utility.yul\":5406:5422   */\n  shl\n    /* \"#utility.yul\":5385:5422   */\n  swap1\n  pop\n    /* \"#utility.yul\":5322:5429   */\n  swap3\n  swap2\n  pop\n  pop\n  jump\t// out\n    /* \"#utility.yul\":5435:5828   */\ntag_39:\n    /* \"#utility.yul\":5504:5510   */\n  0x00\n    /* \"#utility.yul\":5554:5555   */\n  0x08\n    /* \"#utility.yul\":5542:5552   */\n  dup4\n    /* \"#utility.yul\":5538:5556   */\n  mul\n    /* \"#utility.yul\":5577:5674   */\n  tag_118\n    /* \"#utility.yul\":5607:5673   */\n  0xffffffffffffffffffffffffffffffffffffffffffffffffffffffffffffffff\n    /* \"#utility.yul\":5596:5605   */\n  dup3\n    /* \"#utility.yul\":5577:5674   */\n  tag_38\n  jump\t// in\ntag_118:\n    /* \"#utility.yul\":5695:5734   */\n  tag_119\n    /* \"#utility.yul\":5725:5733   */\n  dup7\n    /* \"#utility.yul\":5714:5723   */\n  dup4\n    /* \"#utility.yul\":5695:5734   */\n  tag_38\n  jump\t// in\ntag_119:\n    /* \"#utility.yul\":5683:5734   */\n  swap6\n  pop\n    /* \"#utility.yul\":5767:5771   */\n  dup1\n    /* \"#utility.yul\":5763:5772   */\n  not\n    /* \"#utility.yul\":5756:5761   */\n  dup5\n    /* \"#utility.yul\":5752:5773   */\n  and\n    /* \"#utility.yul\":5743:5773   */\n  swap4\n  pop\n    /* \"#utility.yul\":5816:5820   */\n  dup1\n    /* \"#utility.yul\":5806:5814   */\n  dup7\n    /* \"#utility.yul\":5802:5821   */\n  and\n    /* \"#utility.yul\":5795:5800   */\n  dup5\n    /* \"#utility.yul\":5792:5822   */\n  or\n    /* \"#utility.yul\":5782:5822   */\n  swap3\n  pop\n    /* \"#utility.yul\":5511:5828   */\n  pop\n  pop\n    /* \"#utility.yul\":5435:5828   */\n  swap4\n  swap3\n  pop\n  pop\n  pop\n  jump\t// out\n    /* \"#utility.yul\":5834:5894   */\ntag_40:\n    /* \"#utility.yul\":5862:5865   */\n  0x00\n    /* \"#utility.yul\":5883:5888   */\n  dup2\n    /* \"#utility.yul\":5876:5888   */\n  swap1\n  pop\n    /* \"#utility.yul\":5834:5894   */\n  swap2\n  swap1\n  pop\n  jump\t// out\n    /* \"#utility.yul\":5900:6042   */\ntag_41:\n    /* \"#utility.yul\":5950:5959   */\n  0x00\n    /* \"#utility.yul\":5983:6036   */\n  tag_122\n    /* \"#utility.yul\":6001:6035   */\n  tag_123\n    /* \"#utility.yul\":6010:6034   */\n  tag_124\n    /* \"#utility.yul\":6028:6033   */\n  dup5\n    /* \"#utility.yul\":6010:6034   */\n  tag_30\n  jump\t// in\ntag_124:\n    /* \"#utility.yul\":6001:6035   */\n  tag_40\n  jump\t// in\ntag_123:\n    /* \"#utility.yul\":5983:6036   */\n  tag_30\n  jump\t// in\ntag_122:\n    /* \"#utility.yul\":5970:6036   */\n  swap1\n  pop\n    /* \"#utility.yul\":5900:6042   */\n  swap2\n  swap1\n  pop\n  jump\t// out\n    /* \"#utility.yul\":6048:6123   */\ntag_42:\n    /* \"#utility.yul\":6091:6094   */\n  0x00\n    /* \"#utility.yul\":6112:6117   */\n  dup2\n    /* \"#utility.yul\":6105:6117   */\n  swap1\n  pop\n    /* \"#utility.yul\":6048:6123   */\n  swap2\n  swap1\n  pop\n  jump\t// out\n    /* \"#utility.yul\":6129:6398   */\ntag_43:\n    /* \"#utility.yul\":6239:6278   */\n  tag_127\n    /* \"#utility.yul\":6270:6277   */\n  dup4\n    /* \"#utility.yul\":6239:6278   */\n  tag_41\n  jump\t// in\ntag_127:\n    /* \"#utility.yul\":6300:6391   */\n  tag_128\n    /* \"#utility.yul\":6349:6390   */\n  tag_129\n    /* \"#utility.yul\":6373:6389   */\n  dup3\n    /* \"#utility.yul\":6349:6390   */\n  tag_42\n  jump\t// in\ntag_129:\n    /* \"#utility.yul\":6341:6347   */\n  dup5\n    /* \"#utility.yul\":6334:6338   */\n  dup5\n    /* \"#utility.yul\":6328:6339   */\n  sload\n    /* \"#utility.yul\":6300:6391   */\n  tag_39\n  jump\t// in\ntag_128:\n    /* \"#utility.yul\":6294:6298   */\n  dup3\n    /* \"#utility.yul\":6287:6392   */\n  sstore\n    /* \"#utility.yul\":6205:6398   */\n  pop\n    /* \"#utility.yul\":6129:6398   */\n  pop\n  pop\n  pop\n  jump\t// out\n    /* \"#utility.yul\":6404:6477   */\ntag_44:\n    /* \"#utility.yul\":6449:6452   */\n  0x00\n    /* \"#utility.yul\":6404:6477   */\n  swap1\n  jump\t// out\n    /* \"#utility.yul\":6483:6672   */\ntag_45:\n    /* \"#utility.yul\":6560:6592   */\n  tag_132\n  tag_44\n  jump\t// in\ntag_132:\n    /* \"#utility.yul\":6601:6666   */\n  tag_133\n    /* \"#utility.yul\":6659:6665   */\n  dup2\n    /* \"#utility.yul\":6651:6657   */\n  dup5\n    /* \"#utility.yul\":6645:6649   */\n  dup5\n    /* \"#utility.yul\":6601:6666   */\n  tag_43\n  jump\t// in\ntag_133:\n    /* \"#utility.yul\":6536:6672   */\n  pop\n    /* \"#utility.yul\":6483:6672   */\n  pop\n  pop\n  jump\t// out\n    /* \"#utility.yul\":6678:6864   */\ntag_46:\n    /* \"#utility.yul\":6738:6858   */\ntag_135:\n    /* \"#utility.yul\":6755:6758   */\n  dup2\n    /* \"#utility.yul\":6748:6753   */\n  dup2\n    /* \"#utility.yul\":6745:6759   */\n  lt\n    /* \"#utility.yul\":6738:6858   */\n  iszero\n  tag_137\n  jumpi\n    /* \"#utility.yul\":6809:6848   */\n  tag_138\n    /* \"#utility.yul\":6846:6847   */\n  0x00\n    /* \"#utility.yul\":6839:6844   */\n  dup3\n    /* \"#utility.yul\":6809:6848   */\n  tag_45\n  jump\t// in\ntag_138:\n    /* \"#utility.yul\":6782:6783   */\n  0x01\n    /* \"#utility.yul\":6775:6780   */\n  dup2\n    /* \"#utility.yul\":6771:6784   */\n  add\n    /* \"#utility.yul\":6762:6784   */\n  swap1\n  pop\n    /* \"#utility.yul\":6738:6858   */\n  jump(tag_135)\ntag_137:\n    /* \"#utility.yul\":6678:6864   */\n  pop\n  pop\n  jump\t// out\n    /* \"#utility.yul\":6870:7413   */\ntag_47:\n    /* \"#utility.yul\":6971:6973   */\n  0x1f\n    /* \"#utility.yul\":6966:6969   */\n  dup3\n    /* \"#utility.yul\":6963:6974   */\n  gt\n    /* \"#utility.yul\":6960:7406   */\n  iszero\n  tag_140\n  jumpi\n    /* \"#utility.yul\":7005:7043   */\n  tag_141\n    /* \"#utility.yul\":7037:7042   */\n  dup2\n    /* \"#utility.yul\":7005:7043   */\n  tag_36\n  jump\t// in\ntag_141:\n    /* \"#utility.yul\":7089:7118   */\n  tag_142\n    /* \"#utility.yul\":7107:7117   */\n  dup5\n    /* \"#utility.yul\":7089:7118   */\n  tag_37\n  jump\t// in\ntag_142:\n    /* \"#utility.yul\":7079:7087   */\n  dup2\n    /* \"#utility.yul\":7075:7119   */\n  add\n    /* \"#utility.yul\":7272:7274   */\n  0x20\n    /* \"#utility.yul\":7260:7270   */\n  dup6\n    /* \"#utility.yul\":7257:7275   */\n  lt\n    /* \"#utility.yul\":7254:7303   */\n  iszero\n  tag_143\n  jumpi\n    /* \"#utility.yul\":7293:7301   */\n  dup2\n    /* \"#utility.yul\":7278:7301   */\n  swap1\n  pop\n    /* \"#utility.yul\":7254:7303   */\ntag_143:\n    /* \"#utility.yul\":7316:7396   */\n  tag_144\n    /* \"#utility.yul\":7372:7394   */\n  tag_145\n    /* \"#utility.yul\":7390:7393   */\n  dup6\n    /* \"#utility.yul\":7372:7394   */\n  tag_37\n  jump\t// in\ntag_145:\n    /* \"#utility.yul\":7362:7370   */\n  dup4\n    /* \"#utility.yul\":7358:7395   */\n  add\n    /* \"#utility.yul\":7345:7356   */\n  dup3\n    /* \"#utility.yul\":7316:7396   */\n  tag_46\n  jump\t// in\ntag_144:\n    /* \"#utility.yul\":6975:7406   */\n  pop\n  pop\n    /* \"#utility.yul\":6960:7406   */\ntag_140:\n    /* \"#utility.yul\":6870:7413   */\n  pop\n  pop\n  pop\n  jump\t// out\n    /* \"#utility.yul\":7419:7536   */\ntag_48:\n    /* \"#utility.yul\":7473:7481   */\n  0x00\n    /* \"#utility.yul\":7523:7528   */\n  dup3\n    /* \"#utility.yul\":7517:7521   */\n  dup3\n    /* \"#utility.yul\":7513:7529   */\n  shr\n    /* \"#utility.yul\":7492:7529   */\n  swap1\n  pop\n    /* \"#utility.yul\":7419:7536   */\n  swap3\n  swap2\n  pop\n  pop\n  jump\t// out\n    /* \"#utility.yul\":7542:7711   */\ntag_49:\n    /* \"#utility.yul\":7586:7592   */\n  0x00\n    /* \"#utility.yul\":7619:7670   */\n  tag_148\n    /* \"#utility.yul\":7667:7668   */\n  0x00\n    /* \"#utility.yul\":7663:7669   */\n  not\n    /* \"#utility.yul\":7655:7660   */\n  dup5\n    /* \"#utility.yul\":7652:7653   */\n  0x08\n    /* \"#utility.yul\":7648:7661   */\n  mul\n    /* \"#utility.yul\":7619:7670   */\n  tag_48\n  jump\t// in\ntag_148:\n    /* \"#utility.yul\":7615:7671   */\n  not\n    /* \"#utility.yul\":7700:7704   */\n  dup1\n    /* \"#utility.yul\":7694:7698   */\n  dup4\n    /* \"#utility.yul\":7690:7705   */\n  and\n    /* \"#utility.yul\":7680:7705   */\n  swap2\n  pop\n    /* \"#utility.yul\":7593:7711   */\n  pop\n    /* \"#utility.yul\":7542:7711   */\n  swap3\n  swap2\n  pop\n  pop\n  jump\t// out\n    /* \"#utility.yul\":7716:8011   */\ntag_50:\n    /* \"#utility.yul\":7792:7796   */\n  0x00\n    /* \"#utility.yul\":7938:7967   */\n  tag_150\n    /* \"#utility.yul\":7963:7966   */\n  dup4\n    /* \"#utility.yul\":7957:7961   */\n  dup4\n    /* \"#utility.yul\":7938:7967   */\n  tag_49\n  jump\t// in\ntag_150:\n    /* \"#utility.yul\":7930:7967   */\n  swap2\n  pop\n    /* \"#utility.yul\":8000:8003   */\n  dup3\n    /* \"#utility.yul\":7997:7998   */\n  0x02\n    /* \"#utility.yul\":7993:8004   */\n  mul\n    /* \"#utility.yul\":7987:7991   */\n  dup3\n    /* \"#utility.yul\":7984:8005   */\n  or\n    /* \"#utility.yul\":7976:8005   */\n  swap1\n  pop\n    /* \"#utility.yul\":7716:8011   */\n  swap3\n  swap2\n  pop\n  pop\n  jump\t// out\n    /* \"#utility.yul\":8016:9411   */\ntag_7:\n    /* \"#utility.yul\":8133:8170   */\n  tag_152\n    /* \"#utility.yul\":8166:8169   */\n  dup3\n    /* \"#utility.yul\":8133:8170   */\n  tag_33\n  jump\t// in\ntag_152:\n    /* \"#utility.yul\":8235:8253   */\n  0xffffffffffffffff\n    /* \"#utility.yul\":8227:8233   */\n  dup2\n    /* \"#utility.yul\":8224:8254   */\n  gt\n    /* \"#utility.yul\":8221:8277   */\n  iszero\n  tag_153\n  jumpi\n    /* \"#utility.yul\":8257:8275   */\n  tag_154\n  tag_20\n  jump\t// in\ntag_154:\n    /* \"#utility.yul\":8221:8277   */\ntag_153:\n    /* \"#utility.yul\":8301:8339   */\n  tag_155\n    /* \"#utility.yul\":8333:8337   */\n  dup3\n    /* \"#utility.yul\":8327:8338   */\n  sload\n    /* \"#utility.yul\":8301:8339   */\n  tag_35\n  jump\t// in\ntag_155:\n    /* \"#utility.yul\":8386:8453   */\n  tag_156\n    /* \"#utility.yul\":8446:8452   */\n  dup3\n    /* \"#utility.yul\":8438:8444   */\n  dup3\n    /* \"#utility.yul\":8432:8436   */\n  dup6\n    /* \"#utility.yul\":8386:8453   */\n  tag_47\n  jump\t// in\ntag_156:\n    /* \"#utility.yul\":8480:8481   */\n  0x00\n    /* \"#utility.yul\":8504:8508   */\n  0x20\n    /* \"#utility.yul\":8491:8508   */\n  swap1\n  pop\n    /* \"#utility.yul\":8536:8538   */\n  0x1f\n    /* \"#utility.yul\":8528:8534   */\n  dup4\n    /* \"#utility.yul\":8525:8539   */\n  gt\n    /* \"#utility.yul\":8553:8554   */\n  0x01\n    /* \"#utility.yul\":8548:9166   */\n  dup2\n  eq\n  tag_158\n  jumpi\n    /* \"#utility.yul\":9210:9211   */\n  0x00\n    /* \"#utility.yul\":9227:9233   */\n  dup5\n    /* \"#utility.yul\":9224:9301   */\n  iszero\n  tag_159\n  jumpi\n    /* \"#utility.yul\":9276:9285   */\n  dup3\n    /* \"#utility.yul\":9271:9274   */\n  dup8\n    /* \"#utility.yul\":9267:9286   */\n  add\n    /* \"#utility.yul\":9261:9287   */\n  mload\n    /* \"#utility.yul\":9252:9287   */\n  swap1\n  pop\n    /* \"#utility.yul\":9224:9301   */\ntag_159:\n    /* \"#utility.yul\":9327:9394   */\n  tag_160\n    /* \"#utility.yul\":9387:9393   */\n  dup6\n    /* \"#utility.yul\":9380:9385   */\n  dup3\n    /* \"#utility.yul\":9327:9394   */\n  tag_50\n  jump\t// in\ntag_160:\n    /* \"#utility.yul\":9321:9325   */\n  dup7\n    /* \"#utility.yul\":9314:9395   */\n  sstore\n    /* \"#utility.yul\":9183:9405   */\n  pop\n    /* \"#utility.yul\":8518:9405   */\n  jump(tag_157)\n    /* \"#utility.yul\":8548:9166   */\ntag_158:\n    /* \"#utility.yul\":8600:8604   */\n  0x1f\n    /* \"#utility.yul\":8596:8605   */\n  not\n    /* \"#utility.yul\":8588:8594   */\n  dup5\n    /* \"#utility.yul\":8584:8606   */\n  and\n    /* \"#utility.yul\":8634:8671   */\n  tag_161\n    /* \"#utility.yul\":8666:8670   */\n  dup7\n    /* \"#utility.yul\":8634:8671   */\n  tag_36\n  jump\t// in\ntag_161:\n    /* \"#utility.yul\":8693:8694   */\n  0x00\n    /* \"#utility.yul\":8707:8915   */\ntag_162:\n    /* \"#utility.yul\":8721:8728   */\n  dup3\n    /* \"#utility.yul\":8718:8719   */\n  dup2\n    /* \"#utility.yul\":8715:8729   */\n  lt\n    /* \"#utility.yul\":8707:8915   */\n  iszero\n  tag_164\n  jumpi\n    /* \"#utility.yul\":8800:8809   */\n  dup5\n    /* \"#utility.yul\":8795:8798   */\n  dup10\n    /* \"#utility.yul\":8791:8810   */\n  add\n    /* \"#utility.yul\":8785:8811   */\n  mload\n    /* \"#utility.yul\":8777:8783   */\n  dup3\n    /* \"#utility.yul\":8770:8812   */\n  sstore\n    /* \"#utility.yul\":8851:8852   */\n  0x01\n    /* \"#utility.yul\":8843:8849   */\n  dup3\n    /* \"#utility.yul\":8839:8853   */\n  add\n    /* \"#utility.yul\":8829:8853   */\n  swap2\n  pop\n    /* \"#utility.yul\":8898:8900   */\n  0x20\n    /* \"#utility.yul\":8887:8896   */\n  dup6\n    /* \"#utility.yul\":8883:8901   */\n  add\n    /* \"#utility.yul\":8870:8901   */\n  swap5\n  pop\n    /* \"#utility.yul\":8744:8748   */\n  0x20\n    /* \"#utility.yul\":8741:8742   */\n  dup2\n    /* \"#utility.yul\":8737:8749   */\n  add\n    /* \"#utility.yul\":8732:8749   */\n  swap1\n  pop\n    /* \"#utility.yul\":8707:8915   */\n  jump(tag_162)\ntag_164:\n    /* \"#utility.yul\":8943:8949   */\n  dup7\n    /* \"#utility.yul\":8934:8941   */\n  dup4\n    /* \"#utility.yul\":8931:8950   */\n  lt\n    /* \"#utility.yul\":8928:9107   */\n  iszero\n  tag_165\n  jumpi\n    /* \"#utility.yul\":9001:9010   */\n  dup5\n    /* \"#utility.yul\":8996:8999   */\n  dup10\n    /* \"#utility.yul\":8992:9011   */\n  add\n    /* \"#utility.yul\":8986:9012   */\n  mload\n    /* \"#utility.yul\":9044:9092   */\n  tag_166\n    /* \"#utility.yul\":9086:9090   */\n  0x1f\n    /* \"#utility.yul\":9078:9084   */\n  dup10\n    /* \"#utility.yul\":9074:9091   */\n  and\n    /* \"#utility.yul\":9063:9072   */\n  dup3\n    /* \"#utility.yul\":9044:9092   */\n  tag_49\n  jump\t// in\ntag_166:\n    /* \"#utility.yul\":9036:9042   */\n  dup4\n    /* \"#utility.yul\":9029:9093   */\n  sstore\n    /* \"#utility.yul\":8951:9107   */\n  pop\n    /* \"#utility.yul\":8928:9107   */\ntag_165:\n    /* \"#utility.yul\":9153:9154   */\n  0x01\n    /* \"#utility.yul\":9149:9150   */\n  0x02\n    /* \"#utility.yul\":9141:9147   */\n  dup9\n    /* \"#utility.yul\":9137:9151   */\n  mul\n    /* \"#utility.yul\":9133:9155   */\n  add\n    /* \"#utility.yul\":9127:9131   */\n  dup9\n    /* \"#utility.yul\":9120:9156   */\n  sstore\n    /* \"#utility.yul\":8555:9166   */\n  pop\n  pop\n  pop\n    /* \"#utility.yul\":8518:9405   */\ntag_157:\n  pop\n    /* \"#utility.yul\":8108:9411   */\n  pop\n  pop\n  pop\n    /* \"#utility.yul\":8016:9411   */\n  pop\n  pop\n  jump\t// out\n    /* \"#utility.yul\":9417:9597   */\ntag_51:\n    /* \"#utility.yul\":9465:9542   */\n  0x4e487b7100000000000000000000000000000000000000000000000000000000\n    /* \"#utility.yul\":9462:9463   */\n  0x00\n    /* \"#utility.yul\":9455:9543   */\n  mstore\n    /* \"#utility.yul\":9562:9566   */\n  0x11\n    /* \"#utility.yul\":9559:9560   */\n  0x04\n    /* \"#utility.yul\":9552:9567   */\n  mstore\n    /* \"#utility.yul\":9586:9590   */\n  0x24\n    /* \"#utility.yul\":9583:9584   */\n  0x00\n    /* \"#utility.yul\":9576:9591   */\n  revert\n    /* \"#utility.yul\":9603:9705   */\ntag_52:\n    /* \"#utility.yul\":9645:9653   */\n  0x00\n    /* \"#utility.yul\":9692:9697   */\n  dup2\n    /* \"#utility.yul\":9689:9690   */\n  0x01\n    /* \"#utility.yul\":9685:9698   */\n  shr\n    /* \"#utility.yul\":9664:9698   */\n  swap1\n  pop\n    /* \"#utility.yul\":9603:9705   */\n  swap2\n  swap1\n  pop\n  jump\t// out\n    /* \"#utility.yul\":9711:10559   */\ntag_53:\n    /* \"#utility.yul\":9772:9777   */\n  0x00\n    /* \"#utility.yul\":9779:9783   */\n  dup1\n    /* \"#utility.yul\":9803:9809   */\n  dup3\n    /* \"#utility.yul\":9794:9809   */\n  swap2\n  pop\n    /* \"#utility.yul\":9827:9832   */\n  dup4\n    /* \"#utility.yul\":9818:9832   */\n  swap1\n  pop\n    /* \"#utility.yul\":9841:10553   */\ntag_170:\n    /* \"#utility.yul\":9862:9863   */\n  0x01\n    /* \"#utility.yul\":9852:9860   */\n  dup6\n    /* \"#utility.yul\":9849:9864   */\n  gt\n    /* \"#utility.yul\":9841:10553   */\n  iszero\n  tag_172\n  jumpi\n    /* \"#utility.yul\":9957:9961   */\n  dup1\n    /* \"#utility.yul\":9952:9955   */\n  dup7\n    /* \"#utility.yul\":9948:9962   */\n  div\n    /* \"#utility.yul\":9942:9946   */\n  dup2\n    /* \"#utility.yul\":9939:9963   */\n  gt\n    /* \"#utility.yul\":9936:9986   */\n  iszero\n  tag_173\n  jumpi\n    /* \"#utility.yul\":9966:9984   */\n  tag_174\n  tag_51\n  jump\t// in\ntag_174:\n    /* \"#utility.yul\":9936:9986   */\ntag_173:\n    /* \"#utility.yul\":10016:10017   */\n  0x01\n    /* \"#utility.yul\":10006:10014   */\n  dup6\n    /* \"#utility.yul\":10002:10018   */\n  and\n    /* \"#utility.yul\":9999:10450   */\n  iszero\n  tag_175\n  jumpi\n    /* \"#utility.yul\":10431:10435   */\n  dup1\n    /* \"#utility.yul\":10424:10429   */\n  dup3\n    /* \"#utility.yul\":10420:10436   */\n  mul\n    /* \"#utility.yul\":10411:10436   */\n  swap2\n  pop\n    /* \"#utility.yul\":9999:10450   */\ntag_175:\n    /* \"#utility.yul\":10481:10485   */\n  dup1\n    /* \"#utility.yul\":10475:10479   */\n  dup2\n    /* \"#utility.yul\":10471:10486   */\n  mul\n    /* \"#utility.yul\":10463:10486   */\n  swap1\n  pop\n    /* \"#utility.yul\":10511:10543   */\n  tag_176\n    /* \"#utility.yul\":10534:10542   */\n  dup6\n    /* \"#utility.yul\":10511:10543   */\n  tag_52\n  jump\t// in\ntag_176:\n    /* \"#utility.yul\":10499:10543   */\n  swap5\n  pop\n    /* \"#utility.yul\":9841:10553   */\n  jump(tag_170)\ntag_172:\n    /* \"#utility.yul\":9711:10559   */\n  swap5\n  pop\n  swap5\n  swap3\n  pop\n  pop\n  pop\n  jump\t// out\n    /* \"#utility.yul\":10565:11638   */\ntag_54:\n    /* \"#utility.yul\":10619:10624   */\n  0x00\n    /* \"#utility.yul\":10810:10818   */\n  dup3\n    /* \"#utility.yul\":10800:10840   */\n  tag_178\n  jumpi\n    /* \"#utility.yul\":10831:10832   */\n  0x01\n    /* \"#utility.yul\":10822:10832   */\n  swap1\n  pop\n    /* \"#utility.yul\":10833:10838   */\n  jump(tag_177)\n    /* \"#utility.yul\":10800:10840   */\ntag_178:\n    /* \"#utility.yul\":10859:10863   */\n  dup2\n    /* \"#utility.yul\":10849:10885   */\n  tag_179\n  jumpi\n    /* \"#utility.yul\":10876:10877   */\n  0x00\n    /* \"#utility.yul\":10867:10877   */\n  swap1\n  pop\n    /* \"#utility.yul\":10878:10883   */\n  jump(tag_177)\n    /* \"#utility.yul\":10849:10885   */\ntag_179:\n    /* \"#utility.yul\":10945:10949   */\n  dup2\n    /* \"#utility.yul\":10993:10994   */\n  0x01\n    /* \"#utility.yul\":10988:11015   */\n  dup2\n  eq\n  tag_181\n  jumpi\n    /* \"#utility.yul\":11029:11030   */\n  0x02\n    /* \"#utility.yul\":11024:11215   */\n  dup2\n  eq\n  tag_182\n  jumpi\n    /* \"#utility.yul\":10938:11215   */\n  jump(tag_180)\n    /* \"#utility.yul\":10988:11015   */\ntag_181:\n    /* \"#utility.yul\":11006:11007   */\n  0x01\n    /* \"#utility.yul\":10997:11007   */\n  swap2\n  pop\n    /* \"#utility.yul\":11008:11013   */\n  pop\n  jump(tag_177)\n    /* \"#utility.yul\":11024:11215   */\ntag_182:\n    /* \"#utility.yul\":11069:11072   */\n  0xff\n    /* \"#utility.yul\":11059:11067   */\n  dup5\n    /* \"#utility.yul\":11056:11073   */\n  gt\n    /* \"#utility.yul\":11053:11096   */\n  iszero\n  tag_183\n  jumpi\n    /* \"#utility.yul\":11076:11094   */\n  tag_184\n  tag_51\n  jump\t// in\ntag_184:\n    /* \"#utility.yul\":11053:11096   */\ntag_183:\n    /* \"#utility.yul\":11125:11133   */\n  dup4\n    /* \"#utility.yul\":11122:11123   */\n  0x02\n    /* \"#utility.yul\":11118:11134   */\n  exp\n    /* \"#utility.yul\":11109:11134   */\n  swap2\n  pop\n    /* \"#utility.yul\":11160:11163   */\n  dup5\n    /* \"#utility.yul\":11153:11158   */\n  dup3\n    /* \"#utility.yul\":11150:11164   */\n  gt\n    /* \"#utility.yul\":11147:11187   */\n  iszero\n  tag_185\n  jumpi\n    /* \"#utility.yul\":11167:11185   */\n  tag_186\n  tag_51\n  jump\t// in\ntag_186:\n    /* \"#utility.yul\":11147:11187   */\ntag_185:\n    /* \"#utility.yul\":11200:11205   */\n  pop\n  jump(tag_177)\n    /* \"#utility.yul\":10938:11215   */\ntag_180:\n  pop\n    /* \"#utility.yul\":11324:11326   */\n  0x20\n    /* \"#utility.yul\":11314:11322   */\n  dup4\n    /* \"#utility.yul\":11311:11327   */\n  lt\n    /* \"#utility.yul\":11305:11308   */\n  0x0133\n    /* \"#utility.yul\":11299:11303   */\n  dup4\n    /* \"#utility.yul\":11296:11309   */\n  lt\n    /* \"#utility.yul\":11292:11328   */\n  and\n    /* \"#utility.yul\":11274:11276   */\n  0x4e\n    /* \"#utility.yul\":11264:11272   */\n  dup5\n    /* \"#utility.yul\":11261:11277   */\n  lt\n    /* \"#utility.yul\":11256:11258   */\n  0x0b\n    /* \"#utility.yul\":11250:11254   */\n  dup5\n    /* \"#utility.yul\":11247:11259   */\n  lt\n    /* \"#utility.yul\":11243:11278   */\n  and\n    /* \"#utility.yul\":11227:11338   */\n  or\n    /* \"#utility.yul\":11224:11470   */\n  iszero\n  tag_187\n  jumpi\n    /* \"#utility.yul\":11380:11388   */\n  dup3\n    /* \"#utility.yul\":11374:11378   */\n  dup3\n    /* \"#utility.yul\":11370:11389   */\n  exp\n    /* \"#utility.yul\":11361:11389   */\n  swap1\n  pop\n    /* \"#utility.yul\":11415:11418   */\n  dup4\n    /* \"#utility.yul\":11408:11413   */\n  dup2\n    /* \"#utility.yul\":11405:11419   */\n  gt\n    /* \"#utility.yul\":11402:11442   */\n  iszero\n  tag_188\n  jumpi\n    /* \"#utility.yul\":11422:11440   */\n  tag_189\n  tag_51\n  jump\t// in\ntag_189:\n    /* \"#utility.yul\":11402:11442   */\ntag_188:\n    /* \"#utility.yul\":11455:11460   */\n  jump(tag_177)\n    /* \"#utility.yul\":11224:11470   */\ntag_187:\n    /* \"#utility.yul\":11495:11537   */\n  tag_190\n    /* \"#utility.yul\":11533:11536   */\n  dup5\n    /* \"#utility.yul\":11523:11531   */\n  dup5\n    /* \"#utility.yul\":11517:11521   */\n  dup5\n    /* \"#utility.yul\":11514:11515   */\n  0x01\n    /* \"#utility.yul\":11495:11537   */\n  tag_53\n  jump\t// in\ntag_190:\n    /* \"#utility.yul\":11480:11537   */\n  swap3\n  pop\n  swap1\n  pop\n    /* \"#utility.yul\":11569:11573   */\n  dup2\n    /* \"#utility.yul\":11564:11567   */\n  dup5\n    /* \"#utility.yul\":11560:11574   */\n  div\n    /* \"#utility.yul\":11553:11558   */\n  dup2\n    /* \"#utility.yul\":11550:11575   */\n  gt\n    /* \"#utility.yul\":11547:11598   */\n  iszero\n  tag_191\n  jumpi\n    /* \"#utility.yul\":11578:11596   */\n  tag_192\n  tag_51\n  jump\t// in\ntag_192:\n    /* \"#utility.yul\":11547:11598   */\ntag_191:\n    /* \"#utility.yul\":11627:11631   */\n  dup2\n    /* \"#utility.yul\":11620:11625   */\n  dup2\n    /* \"#utility.yul\":11616:11632   */\n  mul\n    /* \"#utility.yul\":11607:11632   */\n  swap1\n  pop\n    /* \"#utility.yul\":10565:11638   */\ntag_177:\n  swap4\n  swap3\n  pop\n  pop\n  pop\n  jump\t// out\n    /* \"#utility.yul\":11644:11929   */\ntag_10:\n    /* \"#utility.yul\":11704:11709   */\n  0x00\n    /* \"#utility.yul\":11728:11751   */\n  tag_194\n    /* \"#utility.yul\":11746:11750   */\n  dup3\n    /* \"#utility.yul\":11728:11751   */\n  tag_30\n  jump\t// in\ntag_194:\n    /* \"#utility.yul\":11720:11751   */\n  swap2\n  pop\n    /* \"#utility.yul\":11772:11799   */\n  tag_195\n    /* \"#utility.yul\":11790:11798   */\n  dup4\n    /* \"#utility.yul\":11772:11799   */\n  tag_30\n  jump\t// in\ntag_195:\n    /* \"#utility.yul\":11760:11799   */\n  swap3\n  pop\n    /* \"#utility.yul\":11818:11922   */\n  tag_196\n    /* \"#utility.yul\":11855:11921   */\n  0xffffffffffffffffffffffffffffffffffffffffffffffffffffffffffffffff\n    /* \"#utility.yul\":11845:11853   */\n  dup5\n    /* \"#utility.yul\":11839:11843   */\n  dup5\n    /* \"#utility.yul\":11818:11922   */\n  tag_54\n  jump\t// in\ntag_196:\n    /* \"#utility.yul\":11809:11922   */\n  swap1\n  pop\n    /* \"#utility.yul\":11644:11929   */\n  swap3\n  swap2\n  pop\n  pop\n  jump\t// out\n    /* \"#utility.yul\":11935:12345   */\ntag_12:\n    /* \"#utility.yul\":11975:11982   */\n  0x00\n    /* \"#utility.yul\":11998:12018   */\n  tag_198\n    /* \"#utility.yul\":12016:12017   */\n  dup3\n    /* \"#utility.yul\":11998:12018   */\n  tag_30\n  jump\t// in\ntag_198:\n    /* \"#utility.yul\":11993:12018   */\n  swap2\n  pop\n    /* \"#utility.yul\":12032:12052   */\n  tag_199\n    /* \"#utility.yul\":12050:12051   */\n  dup4\n    /* \"#utility.yul\":12032:12052   */\n  tag_30\n  jump\t// in\ntag_199:\n    /* \"#utility.yul\":12027:12052   */\n  swap3\n  pop\n    /* \"#utility.yul\":12087:12088   */\n  dup3\n    /* \"#utility.yul\":12084:12085   */\n  dup3\n    /* \"#utility.yul\":12080:12089   */\n  mul\n    /* \"#utility.yul\":12109:12139   */\n  tag_200\n    /* \"#utility.yul\":12127:12138   */\n  dup2\n    /* \"#utility.yul\":12109:12139   */\n  tag_30\n  jump\t// in\ntag_200:\n    /* \"#utility.yul\":12098:12139   */\n  swap2\n  pop\n    /* \"#utility.yul\":12288:12289   */\n  dup3\n    /* \"#utility.yul\":12279:12286   */\n  dup3\n    /* \"#utility.yul\":12275:12290   */\n  div\n    /* \"#utility.yul\":12272:12273   */\n  dup5\n    /* \"#utility.yul\":12269:12291   */\n  eq\n    /* \"#utility.yul\":12249:12250   */\n  dup4\n    /* \"#utility.yul\":12242:12251   */\n  iszero\n    /* \"#utility.yul\":12222:12305   */\n  or\n    /* \"#utility.yul\":12199:12338   */\n  tag_201\n  jumpi\n    /* \"#utility.yul\":12318:12336   */\n  tag_202\n  tag_51\n  jump\t// in\ntag_202:\n    /* \"#utility.yul\":12199:12338   */\ntag_201:\n    /* \"#utility.yul\":11983:12345   */\n  pop\n    /* \"#utility.yul\":11935:12345   */\n  swap3\n  swap2\n  pop\n  pop\n  jump\t// out\n    /* \"nst.sol\":854:3474  contract MyToken is IERC20 {... */\ntag_13:\n  dataSize(sub_0)\n  dup1\n  dataOffset(sub_0)\n  0x00\n  codecopy\n  0x00\n  return\nstop\n\nsub_0: assembly {\n        /* \"nst.sol\":854:3474  contract MyToken is IERC20 {... */\n      mstore(0x40, 0x80)\n      callvalue\n      dup1\n      iszero\n      tag_1\n      jumpi\n      0x00\n      dup1\n      revert\n    tag_1:\n      pop\n      jumpi(tag_2, lt(calldatasize, 0x04))\n      shr(0xe0, calldataload(0x00))\n      dup1\n      0x70a08231\n      gt\n      tag_15\n      jumpi\n      dup1\n      0x70a08231\n      eq\n      tag_9\n      jumpi\n      dup1\n      0x88e179c7\n      eq\n      tag_10\n      jumpi\n      dup1\n      0x95d89b41\n      eq\n      tag_11\n      jumpi\n      dup1\n      0xa9059cbb\n      eq\n      tag_12\n      jumpi\n      dup1\n      0xd8194c88\n      eq\n      tag_13\n      jumpi\n      dup1\n      0xdd62ed3e\n      eq\n      tag_14\n      jumpi\n      jump(tag_2)\n    tag_15:\n      dup1\n      0x06fdde03\n      eq\n      tag_3\n      jumpi\n      dup1\n      0x095ea7b3\n      eq\n      tag_4\n      jumpi\n      dup1\n      0x18160ddd\n      eq\n      tag_5\n      jumpi\n      dup1\n      0x23b872dd\n      eq\n      tag_6\n      jumpi\n      dup1\n      0x313ce567\n      eq\n      tag_7\n      jumpi\n      dup1\n      0x39451a88\n      eq\n      tag_8\n      jumpi\n    tag_2:\n      0x00\n      dup1\n      revert\n        /* \"nst.sol\":887:905  string public name */\n    tag_3:\n      tag_16\n      tag_17\n      jump\t// in\n    tag_16:\n      mload(0x40)\n      tag_18\n      swap2\n      swap1\n      tag_19\n      jump\t// in\n    tag_18:\n      mload(0x40)\n      dup1\n      swap2\n      sub\n      swap1\n      return\n        /* \"nst.sol\":1826:2047  function approve(address _spender, uint256 _value) public override returns (bool success) {... */\n    tag_4:\n      tag_20\n      0x04\n      dup1\n      calldatasize\n      sub\n      dup2\n      add\n      swap1\n      tag_21\n      swap2\n      swap1\n      tag_22\n      jump\t// in\n    tag_21:\n      tag_23\n      jump\t// in\n    tag_20:\n      mload(0x40)\n      tag_24\n      swap2\n      swap1\n      tag_25\n      jump\t// in\n    tag_24:\n      mload(0x40)\n      dup1\n      swap2\n      sub\n      swap1\n      return\n        /* \"nst.sol\":964:990  uint256 public totalSupply */\n    tag_5:\n      tag_26\n      tag_27\n      jump\t// in\n    tag_26:\n      mload(0x40)\n      tag_28\n      swap2\n      swap1\n      tag_29\n      jump\t// in\n    tag_28:\n      mload(0x40)\n      dup1\n      swap2\n      sub\n      swap1\n      return\n        /* \"nst.sol\":2053:2495  function transferFrom(address _from, address _to, uint256 _value) public override returns (bool success) {... */\n    tag_6:\n      tag_30\n      0x04\n      dup1\n      calldatasize\n      sub\n      dup2\n      add\n      swap1\n      tag_31\n      swap2\n      swap1\n      tag_32\n      jump\t// in\n    tag_31:\n      tag_33\n      jump\t// in\n    tag_30:\n      mload(0x40)\n      tag_34\n      swap2\n      swap1\n      tag_25\n      jump\t// in\n    tag_34:\n      mload(0x40)\n      dup1\n      swap2\n      sub\n      swap1\n      return\n        /* \"nst.sol\":937:958  uint8 public decimals */\n    tag_7:\n      tag_35\n      tag_36\n      jump\t// in\n    tag_35:\n      mload(0x40)\n      tag_37\n      swap2\n      swap1\n      tag_38\n      jump\t// in\n    tag_37:\n      mload(0x40)\n      dup1\n      swap2\n      sub\n      swap1\n      return\n        /* \"nst.sol\":3102:3472  function tokenBurn(uint256 _value) public returns (bool success) {... */\n    tag_8:\n      tag_39\n      0x04\n      dup1\n      calldatasize\n      sub\n      dup2\n      add\n      swap1\n      tag_40\n      swap2\n      swap1\n      tag_41\n      jump\t// in\n    tag_40:\n      tag_42\n      jump\t// in\n    tag_39:\n      mload(0x40)\n      tag_43\n      swap2\n      swap1\n      tag_25\n      jump\t// in\n    tag_43:\n      mload(0x40)\n      dup1\n      swap2\n      sub\n      swap1\n      return\n        /* \"nst.sol\":997:1041  mapping(address => uint256) public balanceOf */\n    tag_9:\n      tag_44\n      0x04\n      dup1\n      calldatasize\n      sub\n      dup2\n      add\n      swap1\n      tag_45\n      swap2\n      swap1\n      tag_46\n      jump\t// in\n    tag_45:\n      tag_47\n      jump\t// in\n    tag_44:\n      mload(0x40)\n      tag_48\n      swap2\n      swap1\n      tag_29\n      jump\t// in\n    tag_48:\n      mload(0x40)\n      dup1\n      swap2\n      sub\n      swap1\n      return\n        /* \"nst.sol\":1165:1204  mapping(address => string) public badge */\n    tag_10:\n      tag_49\n      0x04\n      dup1\n      calldatasize\n      sub\n      dup2\n      add\n      swap1\n      tag_50\n      swap2\n      swap1\n      tag_46\n      jump\t// in\n    tag_50:\n      tag_51\n      jump\t// in\n    tag_49:\n      mload(0x40)\n      tag_52\n      swap2\n      swap1\n      tag_19\n      jump\t// in\n    tag_52:\n      mload(0x40)\n      dup1\n      swap2\n      sub\n      swap1\n      return\n        /* \"nst.sol\":911:931  string public symbol */\n    tag_11:\n      tag_53\n      tag_54\n      jump\t// in\n    tag_53:\n      mload(0x40)\n      tag_55\n      swap2\n      swap1\n      tag_19\n      jump\t// in\n    tag_55:\n      mload(0x40)\n      dup1\n      swap2\n      sub\n      swap1\n      return\n        /* \"nst.sol\":1509:1820  function transfer(address _to, uint256 _value) public override returns (bool success) {... */\n    tag_12:\n      tag_56\n      0x04\n      dup1\n      calldatasize\n      sub\n      dup2\n      add\n      swap1\n      tag_57\n      swap2\n      swap1\n      tag_22\n      jump\t// in\n    tag_57:\n      tag_58\n      jump\t// in\n    tag_56:\n      mload(0x40)\n      tag_59\n      swap2\n      swap1\n      tag_25\n      jump\t// in\n    tag_59:\n      mload(0x40)\n      dup1\n      swap2\n      sub\n      swap1\n      return\n        /* \"nst.sol\":1117:1159  mapping(address => uint256) public nrBurnt */\n    tag_13:\n      tag_60\n      0x04\n      dup1\n      calldatasize\n      sub\n      dup2\n      add\n      swap1\n      tag_61\n      swap2\n      swap1\n      tag_46\n      jump\t// in\n    tag_61:\n      tag_62\n      jump\t// in\n    tag_60:\n      mload(0x40)\n      tag_63\n      swap2\n      swap1\n      tag_29\n      jump\t// in\n    tag_63:\n      mload(0x40)\n      dup1\n      swap2\n      sub\n      swap1\n      return\n        /* \"nst.sol\":1047:1111  mapping(address => mapping(address => uint256)) public allowance */\n    tag_14:\n      tag_64\n      0x04\n      dup1\n      calldatasize\n      sub\n      dup2\n      add\n      swap1\n      tag_65\n      swap2\n      swap1\n      tag_66\n      jump\t// in\n    tag_65:\n      tag_67\n      jump\t// in\n    tag_64:\n      mload(0x40)\n      tag_68\n      swap2\n      swap1\n      tag_29\n      jump\t// in\n    tag_68:\n      mload(0x40)\n      dup1\n      swap2\n      sub\n      swap1\n      return\n        /* \"nst.sol\":887:905  string public name */\n    tag_17:\n      0x00\n      dup1\n      sload\n      tag_69\n      swap1\n      tag_70\n      jump\t// in\n    tag_69:\n      dup1\n      0x1f\n      add\n      0x20\n      dup1\n      swap2\n      div\n      mul\n      0x20\n      add\n      mload(0x40)\n      swap1\n      dup2\n      add\n      0x40\n      mstore\n      dup1\n      swap3\n      swap2\n      swap1\n      dup2\n      dup2\n      mstore\n      0x20\n      add\n      dup3\n      dup1\n      sload\n      tag_71\n      swap1\n      tag_70\n      jump\t// in\n    tag_71:\n      dup1\n      iszero\n      tag_72\n      jumpi\n      dup1\n      0x1f\n      lt\n      tag_73\n      jumpi\n      0x0100\n      dup1\n      dup4\n      sload\n      div\n      mul\n      dup4\n      mstore\n      swap2\n      0x20\n      add\n      swap2\n      jump(tag_72)\n    tag_73:\n      dup3\n      add\n      swap2\n      swap1\n      0x00\n      mstore\n      keccak256(0x00, 0x20)\n      swap1\n    tag_74:\n      dup2\n      sload\n      dup2\n      mstore\n      swap1\n      0x01\n      add\n      swap1\n      0x20\n      add\n      dup1\n      dup4\n      gt\n      tag_74\n      jumpi\n      dup3\n      swap1\n      sub\n      0x1f\n      and\n      dup3\n      add\n      swap2\n    tag_72:\n      pop\n      pop\n      pop\n      pop\n      pop\n      dup2\n      jump\t// out\n        /* \"nst.sol\":1826:2047  function approve(address _spender, uint256 _value) public override returns (bool success) {... */\n    tag_23:\n        /* \"nst.sol\":1902:1914  bool success */\n      0x00\n        /* \"nst.sol\":1960:1966  _value */\n      dup2\n        /* \"nst.sol\":1926:1935  allowance */\n      0x05\n        /* \"nst.sol\":1926:1947  allowance[msg.sender] */\n      0x00\n        /* \"nst.sol\":1936:1946  msg.sender */\n      caller\n        /* \"nst.sol\":1926:1947  allowance[msg.sender] */\n      0xffffffffffffffffffffffffffffffffffffffff\n      and\n      0xffffffffffffffffffffffffffffffffffffffff\n      and\n      dup2\n      mstore\n      0x20\n      add\n      swap1\n      dup2\n      mstore\n      0x20\n      add\n      0x00\n      keccak256\n        /* \"nst.sol\":1926:1957  allowance[msg.sender][_spender] */\n      0x00\n        /* \"nst.sol\":1948:1956  _spender */\n      dup6\n        /* \"nst.sol\":1926:1957  allowance[msg.sender][_spender] */\n      0xffffffffffffffffffffffffffffffffffffffff\n      and\n      0xffffffffffffffffffffffffffffffffffffffff\n      and\n      dup2\n      mstore\n      0x20\n      add\n      swap1\n      dup2\n      mstore\n      0x20\n      add\n      0x00\n      keccak256\n        /* \"nst.sol\":1926:1966  allowance[msg.sender][_spender] = _value */\n      dup2\n      swap1\n      sstore\n      pop\n        /* \"nst.sol\":2002:2010  _spender */\n      dup3\n        /* \"nst.sol\":1981:2019  Approval(msg.sender, _spender, _value) */\n      0xffffffffffffffffffffffffffffffffffffffff\n      and\n        /* \"nst.sol\":1990:2000  msg.sender */\n      caller\n        /* \"nst.sol\":1981:2019  Approval(msg.sender, _spender, _value) */\n      0xffffffffffffffffffffffffffffffffffffffff\n      and\n      0x8c5be1e5ebec7d5bd14f71427d1e84f3dd0314c0f7b2291e5b200ac8c7c3b925\n        /* \"nst.sol\":2012:2018  _value */\n      dup5\n        /* \"nst.sol\":1981:2019  Approval(msg.sender, _spender, _value) */\n      mload(0x40)\n      tag_76\n      swap2\n      swap1\n      tag_29\n      jump\t// in\n    tag_76:\n      mload(0x40)\n      dup1\n      swap2\n      sub\n      swap1\n      log3\n        /* \"nst.sol\":2036:2040  true */\n      0x01\n        /* \"nst.sol\":2029:2040  return true */\n      swap1\n      pop\n        /* \"nst.sol\":1826:2047  function approve(address _spender, uint256 _value) public override returns (bool success) {... */\n      swap3\n      swap2\n      pop\n      pop\n      jump\t// out\n        /* \"nst.sol\":964:990  uint256 public totalSupply */\n    tag_27:\n      sload(0x03)\n      dup2\n      jump\t// out\n        /* \"nst.sol\":2053:2495  function transferFrom(address _from, address _to, uint256 _value) public override returns (bool success) {... */\n    tag_33:\n        /* \"nst.sol\":2144:2156  bool success */\n      0x00\n        /* \"nst.sol\":2186:2195  balanceOf */\n      0x04\n        /* \"nst.sol\":2186:2202  balanceOf[_from] */\n      0x00\n        /* \"nst.sol\":2196:2201  _from */\n      dup6\n        /* \"nst.sol\":2186:2202  balanceOf[_from] */\n      0xffffffffffffffffffffffffffffffffffffffff\n      and\n      0xffffffffffffffffffffffffffffffffffffffff\n      and\n      dup2\n      mstore\n      0x20\n      add\n      swap1\n      dup2\n      mstore\n      0x20\n      add\n      0x00\n      keccak256\n      sload\n        /* \"nst.sol\":2176:2182  _value */\n      dup3\n        /* \"nst.sol\":2176:2202  _value <= balanceOf[_from] */\n      gt\n      iszero\n        /* \"nst.sol\":2168:2227  require(_value <= balanceOf[_from], \"Insufficient balance\") */\n      tag_78\n      jumpi\n      mload(0x40)\n      0x08c379a000000000000000000000000000000000000000000000000000000000\n      dup2\n      mstore\n      0x04\n      add\n      tag_79\n      swap1\n      tag_80\n      jump\t// in\n    tag_79:\n      mload(0x40)\n      dup1\n      swap2\n      sub\n      swap1\n      revert\n    tag_78:\n        /* \"nst.sol\":2255:2264  allowance */\n      0x05\n        /* \"nst.sol\":2255:2271  allowance[_from] */\n      0x00\n        /* \"nst.sol\":2265:2270  _from */\n      dup6\n        /* \"nst.sol\":2255:2271  allowance[_from] */\n      0xffffffffffffffffffffffffffffffffffffffff\n      and\n      0xffffffffffffffffffffffffffffffffffffffff\n      and\n      dup2\n      mstore\n      0x20\n      add\n      swap1\n      dup2\n      mstore\n      0x20\n      add\n      0x00\n      keccak256\n        /* \"nst.sol\":2255:2283  allowance[_from][msg.sender] */\n      0x00\n        /* \"nst.sol\":2272:2282  msg.sender */\n      caller\n        /* \"nst.sol\":2255:2283  allowance[_from][msg.sender] */\n      0xffffffffffffffffffffffffffffffffffffffff\n      and\n      0xffffffffffffffffffffffffffffffffffffffff\n      and\n      dup2\n      mstore\n      0x20\n      add\n      swap1\n      dup2\n      mstore\n      0x20\n      add\n      0x00\n      keccak256\n      sload\n        /* \"nst.sol\":2245:2251  _value */\n      dup3\n        /* \"nst.sol\":2245:2283  _value <= allowance[_from][msg.sender] */\n      gt\n      iszero\n        /* \"nst.sol\":2237:2306  require(_value <= allowance[_from][msg.sender], \"Allowance exceeded\") */\n      tag_81\n      jumpi\n      mload(0x40)\n      0x08c379a000000000000000000000000000000000000000000000000000000000\n      dup2\n      mstore\n      0x04\n      add\n      tag_82\n      swap1\n      tag_83\n      jump\t// in\n    tag_82:\n      mload(0x40)\n      dup1\n      swap2\n      sub\n      swap1\n      revert\n    tag_81:\n        /* \"nst.sol\":2336:2342  _value */\n      dup2\n        /* \"nst.sol\":2316:2325  balanceOf */\n      0x04\n        /* \"nst.sol\":2316:2332  balanceOf[_from] */\n      0x00\n        /* \"nst.sol\":2326:2331  _from */\n      dup7\n        /* \"nst.sol\":2316:2332  balanceOf[_from] */\n      0xffffffffffffffffffffffffffffffffffffffff\n      and\n      0xffffffffffffffffffffffffffffffffffffffff\n      and\n      dup2\n      mstore\n      0x20\n      add\n      swap1\n      dup2\n      mstore\n      0x20\n      add\n      0x00\n      keccak256\n      0x00\n        /* \"nst.sol\":2316:2342  balanceOf[_from] -= _value */\n      dup3\n      dup3\n      sload\n      tag_84\n      swap2\n      swap1\n      tag_85\n      jump\t// in\n    tag_84:\n      swap3\n      pop\n      pop\n      dup2\n      swap1\n      sstore\n      pop\n        /* \"nst.sol\":2370:2376  _value */\n      dup2\n        /* \"nst.sol\":2352:2361  balanceOf */\n      0x04\n        /* \"nst.sol\":2352:2366  balanceOf[_to] */\n      0x00\n        /* \"nst.sol\":2362:2365  _to */\n      dup6\n        /* \"nst.sol\":2352:2366  balanceOf[_to] */\n      0xffffffffffffffffffffffffffffffffffffffff\n      and\n      0xffffffffffffffffffffffffffffffffffffffff\n      and\n      dup2\n      mstore\n      0x20\n      add\n      swap1\n      dup2\n      mstore\n      0x20\n      add\n      0x00\n      keccak256\n      0x00\n        /* \"nst.sol\":2352:2376  balanceOf[_to] += _value */\n      dup3\n      dup3\n      sload\n      tag_86\n      swap2\n      swap1\n      tag_87\n      jump\t// in\n    tag_86:\n      swap3\n      pop\n      pop\n      dup2\n      swap1\n      sstore\n      pop\n        /* \"nst.sol\":2418:2424  _value */\n      dup2\n        /* \"nst.sol\":2386:2395  allowance */\n      0x05\n        /* \"nst.sol\":2386:2402  allowance[_from] */\n      0x00\n        /* \"nst.sol\":2396:2401  _from */\n      dup7\n        /* \"nst.sol\":2386:2402  allowance[_from] */\n      0xffffffffffffffffffffffffffffffffffffffff\n      and\n      0xffffffffffffffffffffffffffffffffffffffff\n      and\n      dup2\n      mstore\n      0x20\n      add\n      swap1\n      dup2\n      mstore\n      0x20\n      add\n      0x00\n      keccak256\n        /* \"nst.sol\":2386:2414  allowance[_from][msg.sender] */\n      0x00\n        /* \"nst.sol\":2403:2413  msg.sender */\n      caller\n        /* \"nst.sol\":2386:2414  allowance[_from][msg.sender] */\n      0xffffffffffffffffffffffffffffffffffffffff\n      and\n      0xffffffffffffffffffffffffffffffffffffffff\n      and\n      dup2\n      mstore\n      0x20\n      add\n      swap1\n      dup2\n      mstore\n      0x20\n      add\n      0x00\n      keccak256\n      0x00\n        /* \"nst.sol\":2386:2424  allowance[_from][msg.sender] -= _value */\n      dup3\n      dup3\n      sload\n      tag_88\n      swap2\n      swap1\n      tag_85\n      jump\t// in\n    tag_88:\n      swap3\n      pop\n      pop\n      dup2\n      swap1\n      sstore\n      pop\n        /* \"nst.sol\":2455:2458  _to */\n      dup3\n        /* \"nst.sol\":2439:2467  Transfer(_from, _to, _value) */\n      0xffffffffffffffffffffffffffffffffffffffff\n      and\n        /* \"nst.sol\":2448:2453  _from */\n      dup5\n        /* \"nst.sol\":2439:2467  Transfer(_from, _to, _value) */\n      0xffffffffffffffffffffffffffffffffffffffff\n      and\n      0xddf252ad1be2c89b69c2b068fc378daa952ba7f163c4a11628f55a4df523b3ef\n        /* \"nst.sol\":2460:2466  _value */\n      dup5\n        /* \"nst.sol\":2439:2467  Transfer(_from, _to, _value) */\n      mload(0x40)\n      tag_89\n      swap2\n      swap1\n      tag_29\n      jump\t// in\n    tag_89:\n      mload(0x40)\n      dup1\n      swap2\n      sub\n      swap1\n      log3\n        /* \"nst.sol\":2484:2488  true */\n      0x01\n        /* \"nst.sol\":2477:2488  return true */\n      swap1\n      pop\n        /* \"nst.sol\":2053:2495  function transferFrom(address _from, address _to, uint256 _value) public override returns (bool success) {... */\n      swap4\n      swap3\n      pop\n      pop\n      pop\n      jump\t// out\n        /* \"nst.sol\":937:958  uint8 public decimals */\n    tag_36:\n      0x02\n      0x00\n      swap1\n      sload\n      swap1\n      0x0100\n      exp\n      swap1\n      div\n      0xff\n      and\n      dup2\n      jump\t// out\n        /* \"nst.sol\":3102:3472  function tokenBurn(uint256 _value) public returns (bool success) {... */\n    tag_42:\n        /* \"nst.sol\":3153:3165  bool success */\n      0x00\n        /* \"nst.sol\":3195:3204  balanceOf */\n      0x04\n        /* \"nst.sol\":3195:3216  balanceOf[msg.sender] */\n      0x00\n        /* \"nst.sol\":3205:3215  msg.sender */\n      caller\n        /* \"nst.sol\":3195:3216  balanceOf[msg.sender] */\n      0xffffffffffffffffffffffffffffffffffffffff\n      and\n      0xffffffffffffffffffffffffffffffffffffffff\n      and\n      dup2\n      mstore\n      0x20\n      add\n      swap1\n      dup2\n      mstore\n      0x20\n      add\n      0x00\n      keccak256\n      sload\n        /* \"nst.sol\":3185:3191  _value */\n      dup3\n        /* \"nst.sol\":3185:3216  _value <= balanceOf[msg.sender] */\n      gt\n      iszero\n        /* \"nst.sol\":3177:3241  require(_value <= balanceOf[msg.sender], \"Insufficient balance\") */\n      tag_91\n      jumpi\n      mload(0x40)\n      0x08c379a000000000000000000000000000000000000000000000000000000000\n      dup2\n      mstore\n      0x04\n      add\n      tag_92\n      swap1\n      tag_80\n      jump\t// in\n    tag_92:\n      mload(0x40)\n      dup1\n      swap2\n      sub\n      swap1\n      revert\n    tag_91:\n        /* \"nst.sol\":3276:3282  _value */\n      dup2\n        /* \"nst.sol\":3251:3260  balanceOf */\n      0x04\n        /* \"nst.sol\":3251:3272  balanceOf[msg.sender] */\n      0x00\n        /* \"nst.sol\":3261:3271  msg.sender */\n      caller\n        /* \"nst.sol\":3251:3272  balanceOf[msg.sender] */\n      0xffffffffffffffffffffffffffffffffffffffff\n      and\n      0xffffffffffffffffffffffffffffffffffffffff\n      and\n      dup2\n      mstore\n      0x20\n      add\n      swap1\n      dup2\n      mstore\n      0x20\n      add\n      0x00\n      keccak256\n      0x00\n        /* \"nst.sol\":3251:3282  balanceOf[msg.sender] -= _value */\n      dup3\n      dup3\n      sload\n      tag_93\n      swap2\n      swap1\n      tag_85\n      jump\t// in\n    tag_93:\n      swap3\n      pop\n      pop\n      dup2\n      swap1\n      sstore\n      pop\n        /* \"nst.sol\":3315:3321  _value */\n      dup2\n        /* \"nst.sol\":3292:3299  nrBurnt */\n      0x06\n        /* \"nst.sol\":3292:3311  nrBurnt[msg.sender] */\n      0x00\n        /* \"nst.sol\":3300:3310  msg.sender */\n      caller\n        /* \"nst.sol\":3292:3311  nrBurnt[msg.sender] */\n      0xffffffffffffffffffffffffffffffffffffffff\n      and\n      0xffffffffffffffffffffffffffffffffffffffff\n      and\n      dup2\n      mstore\n      0x20\n      add\n      swap1\n      dup2\n      mstore\n      0x20\n      add\n      0x00\n      keccak256\n      0x00\n        /* \"nst.sol\":3292:3321  nrBurnt[msg.sender] += _value */\n      dup3\n      dup3\n      sload\n      tag_94\n      swap2\n      swap1\n      tag_87\n      jump\t// in\n    tag_94:\n      swap3\n      pop\n      pop\n      dup2\n      swap1\n      sstore\n      pop\n        /* \"nst.sol\":3331:3352  _getBadge(msg.sender) */\n      tag_95\n        /* \"nst.sol\":3341:3351  msg.sender */\n      caller\n        /* \"nst.sol\":3331:3340  _getBadge */\n      tag_96\n        /* \"nst.sol\":3331:3352  _getBadge(msg.sender) */\n      jump\t// in\n    tag_95:\n        /* \"nst.sol\":3396:3397  0 */\n      0x00\n        /* \"nst.sol\":3367:3407  Transfer(msg.sender, address(0), _value) */\n      0xffffffffffffffffffffffffffffffffffffffff\n      and\n        /* \"nst.sol\":3376:3386  msg.sender */\n      caller\n        /* \"nst.sol\":3367:3407  Transfer(msg.sender, address(0), _value) */\n      0xffffffffffffffffffffffffffffffffffffffff\n      and\n      0xddf252ad1be2c89b69c2b068fc378daa952ba7f163c4a11628f55a4df523b3ef\n        /* \"nst.sol\":3400:3406  _value */\n      dup5\n        /* \"nst.sol\":3367:3407  Transfer(msg.sender, address(0), _value) */\n      mload(0x40)\n      tag_97\n      swap2\n      swap1\n      tag_29\n      jump\t// in\n    tag_97:\n      mload(0x40)\n      dup1\n      swap2\n      sub\n      swap1\n      log3\n        /* \"nst.sol\":3461:3465  true */\n      0x01\n        /* \"nst.sol\":3454:3465  return true */\n      swap1\n      pop\n        /* \"nst.sol\":3102:3472  function tokenBurn(uint256 _value) public returns (bool success) {... */\n      swap2\n      swap1\n      pop\n      jump\t// out\n        /* \"nst.sol\":997:1041  mapping(address => uint256) public balanceOf */\n    tag_47:\n      mstore(0x20, 0x04)\n      dup1\n      0x00\n      mstore\n      keccak256(0x00, 0x40)\n      0x00\n      swap2\n      pop\n      swap1\n      pop\n      sload\n      dup2\n      jump\t// out\n        /* \"nst.sol\":1165:1204  mapping(address => string) public badge */\n    tag_51:\n      mstore(0x20, 0x07)\n      dup1\n      0x00\n      mstore\n      keccak256(0x00, 0x40)\n      0x00\n      swap2\n      pop\n      swap1\n      pop\n      dup1\n      sload\n      tag_98\n      swap1\n      tag_70\n      jump\t// in\n    tag_98:\n      dup1\n      0x1f\n      add\n      0x20\n      dup1\n      swap2\n      div\n      mul\n      0x20\n      add\n      mload(0x40)\n      swap1\n      dup2\n      add\n      0x40\n      mstore\n      dup1\n      swap3\n      swap2\n      swap1\n      dup2\n      dup2\n      mstore\n      0x20\n      add\n      dup3\n      dup1\n      sload\n      tag_99\n      swap1\n      tag_70\n      jump\t// in\n    tag_99:\n      dup1\n      iszero\n      tag_100\n      jumpi\n      dup1\n      0x1f\n      lt\n      tag_101\n      jumpi\n      0x0100\n      dup1\n      dup4\n      sload\n      div\n      mul\n      dup4\n      mstore\n      swap2\n      0x20\n      add\n      swap2\n      jump(tag_100)\n    tag_101:\n      dup3\n      add\n      swap2\n      swap1\n      0x00\n      mstore\n      keccak256(0x00, 0x20)\n      swap1\n    tag_102:\n      dup2\n      sload\n      dup2\n      mstore\n      swap1\n      0x01\n      add\n      swap1\n      0x20\n      add\n      dup1\n      dup4\n      gt\n      tag_102\n      jumpi\n      dup3\n      swap1\n      sub\n      0x1f\n      and\n      dup3\n      add\n      swap2\n    tag_100:\n      pop\n      pop\n      pop\n      pop\n      pop\n      dup2\n      jump\t// out\n        /* \"nst.sol\":911:931  string public symbol */\n    tag_54:\n      0x01\n      dup1\n      sload\n      tag_103\n      swap1\n      tag_70\n      jump\t// in\n    tag_103:\n      dup1\n      0x1f\n      add\n      0x20\n      dup1\n      swap2\n      div\n      mul\n      0x20\n      add\n      mload(0x40)\n      swap1\n      dup2\n      add\n      0x40\n      mstore\n      dup1\n      swap3\n      swap2\n      swap1\n      dup2\n      dup2\n      mstore\n      0x20\n      add\n      dup3\n      dup1\n      sload\n      tag_104\n      swap1\n      tag_70\n      jump\t// in\n    tag_104:\n      dup1\n      iszero\n      tag_105\n      jumpi\n      dup1\n      0x1f\n      lt\n      tag_106\n      jumpi\n      0x0100\n      dup1\n      dup4\n      sload\n      div\n      mul\n      dup4\n      mstore\n      swap2\n      0x20\n      add\n      swap2\n      jump(tag_105)\n    tag_106:\n      dup3\n      add\n      swap2\n      swap1\n      0x00\n      mstore\n      keccak256(0x00, 0x20)\n      swap1\n    tag_107:\n      dup2\n      sload\n      dup2\n      mstore\n      swap1\n      0x01\n      add\n      swap1\n      0x20\n      add\n      dup1\n      dup4\n      gt\n      tag_107\n      jumpi\n      dup3\n      swap1\n      sub\n      0x1f\n      and\n      dup3\n      add\n      swap2\n    tag_105:\n      pop\n      pop\n      pop\n      pop\n      pop\n      dup2\n      jump\t// out\n        /* \"nst.sol\":1509:1820  function transfer(address _to, uint256 _value) public override returns (bool success) {... */\n    tag_58:\n        /* \"nst.sol\":1581:1593  bool success */\n      0x00\n        /* \"nst.sol\":1638:1644  _value */\n      dup2\n        /* \"nst.sol\":1613:1622  balanceOf */\n      0x04\n        /* \"nst.sol\":1613:1634  balanceOf[msg.sender] */\n      0x00\n        /* \"nst.sol\":1623:1633  msg.sender */\n      caller\n        /* \"nst.sol\":1613:1634  balanceOf[msg.sender] */\n      0xffffffffffffffffffffffffffffffffffffffff\n      and\n      0xffffffffffffffffffffffffffffffffffffffff\n      and\n      dup2\n      mstore\n      0x20\n      add\n      swap1\n      dup2\n      mstore\n      0x20\n      add\n      0x00\n      keccak256\n      sload\n        /* \"nst.sol\":1613:1644  balanceOf[msg.sender] >= _value */\n      lt\n      iszero\n        /* \"nst.sol\":1605:1669  require(balanceOf[msg.sender] >= _value, \"Insufficient balance\") */\n      tag_109\n      jumpi\n      mload(0x40)\n      0x08c379a000000000000000000000000000000000000000000000000000000000\n      dup2\n      mstore\n      0x04\n      add\n      tag_110\n      swap1\n      tag_80\n      jump\t// in\n    tag_110:\n      mload(0x40)\n      dup1\n      swap2\n      sub\n      swap1\n      revert\n    tag_109:\n        /* \"nst.sol\":1704:1710  _value */\n      dup2\n        /* \"nst.sol\":1679:1688  balanceOf */\n      0x04\n        /* \"nst.sol\":1679:1700  balanceOf[msg.sender] */\n      0x00\n        /* \"nst.sol\":1689:1699  msg.sender */\n      caller\n        /* \"nst.sol\":1679:1700  balanceOf[msg.sender] */\n      0xffffffffffffffffffffffffffffffffffffffff\n      and\n      0xffffffffffffffffffffffffffffffffffffffff\n      and\n      dup2\n      mstore\n      0x20\n      add\n      swap1\n      dup2\n      mstore\n      0x20\n      add\n      0x00\n      keccak256\n      0x00\n        /* \"nst.sol\":1679:1710  balanceOf[msg.sender] -= _value */\n      dup3\n      dup3\n      sload\n      tag_111\n      swap2\n      swap1\n      tag_85\n      jump\t// in\n    tag_111:\n      swap3\n      pop\n      pop\n      dup2\n      swap1\n      sstore\n      pop\n        /* \"nst.sol\":1738:1744  _value */\n      dup2\n        /* \"nst.sol\":1720:1729  balanceOf */\n      0x04\n        /* \"nst.sol\":1720:1734  balanceOf[_to] */\n      0x00\n        /* \"nst.sol\":1730:1733  _to */\n      dup6\n        /* \"nst.sol\":1720:1734  balanceOf[_to] */\n      0xffffffffffffffffffffffffffffffffffffffff\n      and\n      0xffffffffffffffffffffffffffffffffffffffff\n      and\n      dup2\n      mstore\n      0x20\n      add\n      swap1\n      dup2\n      mstore\n      0x20\n      add\n      0x00\n      keccak256\n      0x00\n        /* \"nst.sol\":1720:1744  balanceOf[_to] += _value */\n      dup3\n      dup3\n      sload\n      tag_112\n      swap2\n      swap1\n      tag_87\n      jump\t// in\n    tag_112:\n      swap3\n      pop\n      pop\n      dup2\n      swap1\n      sstore\n      pop\n        /* \"nst.sol\":1780:1783  _to */\n      dup3\n        /* \"nst.sol\":1759:1792  Transfer(msg.sender, _to, _value) */\n      0xffffffffffffffffffffffffffffffffffffffff\n      and\n        /* \"nst.sol\":1768:1778  msg.sender */\n      caller\n        /* \"nst.sol\":1759:1792  Transfer(msg.sender, _to, _value) */\n      0xffffffffffffffffffffffffffffffffffffffff\n      and\n      0xddf252ad1be2c89b69c2b068fc378daa952ba7f163c4a11628f55a4df523b3ef\n        /* \"nst.sol\":1785:1791  _value */\n      dup5\n        /* \"nst.sol\":1759:1792  Transfer(msg.sender, _to, _value) */\n      mload(0x40)\n      tag_113\n      swap2\n      swap1\n      tag_29\n      jump\t// in\n    tag_113:\n      mload(0x40)\n      dup1\n      swap2\n      sub\n      swap1\n      log3\n        /* \"nst.sol\":1809:1813  true */\n      0x01\n        /* \"nst.sol\":1802:1813  return true */\n      swap1\n      pop\n        /* \"nst.sol\":1509:1820  function transfer(address _to, uint256 _value) public override returns (bool success) {... */\n      swap3\n      swap2\n      pop\n      pop\n      jump\t// out\n        /* \"nst.sol\":1117:1159  mapping(address => uint256) public nrBurnt */\n    tag_62:\n      mstore(0x20, 0x06)\n      dup1\n      0x00\n      mstore\n      keccak256(0x00, 0x40)\n      0x00\n      swap2\n      pop\n      swap1\n      pop\n      sload\n      dup2\n      jump\t// out\n        /* \"nst.sol\":1047:1111  mapping(address => mapping(address => uint256)) public allowance */\n    tag_67:\n      mstore(0x20, 0x05)\n      dup2\n      0x00\n      mstore\n      mstore(0x20, keccak256(0x00, 0x40))\n      dup1\n      0x00\n      mstore\n      keccak256(0x00, 0x40)\n      0x00\n      swap2\n      pop\n      swap2\n      pop\n      pop\n      sload\n      dup2\n      jump\t// out\n        /* \"nst.sol\":2501:3096  function _getBadge(address _account) private {... */\n    tag_96:\n        /* \"nst.sol\":2556:2568  uint256 temp */\n      0x00\n        /* \"nst.sol\":2571:2578  nrBurnt */\n      0x06\n        /* \"nst.sol\":2571:2588  nrBurnt[_account] */\n      0x00\n        /* \"nst.sol\":2579:2587  _account */\n      dup4\n        /* \"nst.sol\":2571:2588  nrBurnt[_account] */\n      0xffffffffffffffffffffffffffffffffffffffff\n      and\n      0xffffffffffffffffffffffffffffffffffffffff\n      and\n      dup2\n      mstore\n      0x20\n      add\n      swap1\n      dup2\n      mstore\n      0x20\n      add\n      0x00\n      keccak256\n      sload\n        /* \"nst.sol\":2556:2588  uint256 temp = nrBurnt[_account] */\n      swap1\n      pop\n        /* \"nst.sol\":2629:2637  decimals */\n      0x02\n      0x00\n      swap1\n      sload\n      swap1\n      0x0100\n      exp\n      swap1\n      div\n      0xff\n      and\n        /* \"nst.sol\":2621:2638  uint256(decimals) */\n      0xff\n      and\n        /* \"nst.sol\":2615:2617  10 */\n      0x0a\n        /* \"nst.sol\":2615:2638  10 ** uint256(decimals) */\n      tag_115\n      swap2\n      swap1\n      tag_116\n      jump\t// in\n    tag_115:\n        /* \"nst.sol\":2610:2613  100 */\n      0x64\n        /* \"nst.sol\":2610:2638  100* 10 ** uint256(decimals) */\n      tag_117\n      swap2\n      swap1\n      tag_118\n      jump\t// in\n    tag_117:\n        /* \"nst.sol\":2602:2606  temp */\n      dup2\n        /* \"nst.sol\":2602:2639  temp < (100* 10 ** uint256(decimals)) */\n      lt\n        /* \"nst.sol\":2598:3090  if (temp < (100* 10 ** uint256(decimals))) {... */\n      iszero\n      tag_119\n      jumpi\n        /* \"nst.sol\":2655:2688  badge[_account] = \"Spark Starter\" */\n      mload(0x40)\n      dup1\n      0x40\n      add\n      0x40\n      mstore\n      dup1\n      0x0d\n      dup2\n      mstore\n      0x20\n      add\n      0x537061726b205374617274657200000000000000000000000000000000000000\n      dup2\n      mstore\n      pop\n        /* \"nst.sol\":2655:2660  badge */\n      0x07\n        /* \"nst.sol\":2655:2670  badge[_account] */\n      0x00\n        /* \"nst.sol\":2661:2669  _account */\n      dup5\n        /* \"nst.sol\":2655:2670  badge[_account] */\n      0xffffffffffffffffffffffffffffffffffffffff\n      and\n      0xffffffffffffffffffffffffffffffffffffffff\n      and\n      dup2\n      mstore\n      0x20\n      add\n      swap1\n      dup2\n      mstore\n      0x20\n      add\n      0x00\n      keccak256\n        /* \"nst.sol\":2655:2688  badge[_account] = \"Spark Starter\" */\n      swap1\n      dup2\n      tag_120\n      swap2\n      swap1\n      tag_121\n      jump\t// in\n    tag_120:\n      pop\n        /* \"nst.sol\":2598:3090  if (temp < (100* 10 ** uint256(decimals))) {... */\n      jump(tag_122)\n    tag_119:\n        /* \"nst.sol\":2736:2744  decimals */\n      0x02\n      0x00\n      swap1\n      sload\n      swap1\n      0x0100\n      exp\n      swap1\n      div\n      0xff\n      and\n        /* \"nst.sol\":2728:2745  uint256(decimals) */\n      0xff\n      and\n        /* \"nst.sol\":2722:2724  10 */\n      0x0a\n        /* \"nst.sol\":2722:2745  10 ** uint256(decimals) */\n      tag_123\n      swap2\n      swap1\n      tag_116\n      jump\t// in\n    tag_123:\n        /* \"nst.sol\":2717:2720  500 */\n      0x01f4\n        /* \"nst.sol\":2717:2745  500* 10 ** uint256(decimals) */\n      tag_124\n      swap2\n      swap1\n      tag_118\n      jump\t// in\n    tag_124:\n        /* \"nst.sol\":2709:2713  temp */\n      dup2\n        /* \"nst.sol\":2709:2746  temp < (500* 10 ** uint256(decimals)) */\n      lt\n        /* \"nst.sol\":2705:3090  if (temp < (500* 10 ** uint256(decimals))) {... */\n      iszero\n      tag_125\n      jumpi\n        /* \"nst.sol\":2762:2795  badge[_account] = \"Flame Fanatic\" */\n      mload(0x40)\n      dup1\n      0x40\n      add\n      0x40\n      mstore\n      dup1\n      0x0d\n      dup2\n      mstore\n      0x20\n      add\n      0x466c616d652046616e6174696300000000000000000000000000000000000000\n      dup2\n      mstore\n      pop\n        /* \"nst.sol\":2762:2767  badge */\n      0x07\n        /* \"nst.sol\":2762:2777  badge[_account] */\n      0x00\n        /* \"nst.sol\":2768:2776  _account */\n      dup5\n        /* \"nst.sol\":2762:2777  badge[_account] */\n      0xffffffffffffffffffffffffffffffffffffffff\n      and\n      0xffffffffffffffffffffffffffffffffffffffff\n      and\n      dup2\n      mstore\n      0x20\n      add\n      swap1\n      dup2\n      mstore\n      0x20\n      add\n      0x00\n      keccak256\n        /* \"nst.sol\":2762:2795  badge[_account] = \"Flame Fanatic\" */\n      swap1\n      dup2\n      tag_126\n      swap2\n      swap1\n      tag_121\n      jump\t// in\n    tag_126:\n      pop\n        /* \"nst.sol\":2705:3090  if (temp < (500* 10 ** uint256(decimals))) {... */\n      jump(tag_127)\n    tag_125:\n        /* \"nst.sol\":2844:2852  decimals */\n      0x02\n      0x00\n      swap1\n      sload\n      swap1\n      0x0100\n      exp\n      swap1\n      div\n      0xff\n      and\n        /* \"nst.sol\":2836:2853  uint256(decimals) */\n      0xff\n      and\n        /* \"nst.sol\":2830:2832  10 */\n      0x0a\n        /* \"nst.sol\":2830:2853  10 ** uint256(decimals) */\n      tag_128\n      swap2\n      swap1\n      tag_116\n      jump\t// in\n    tag_128:\n        /* \"nst.sol\":2824:2828  2000 */\n      0x07d0\n        /* \"nst.sol\":2824:2853  2000* 10 ** uint256(decimals) */\n      tag_129\n      swap2\n      swap1\n      tag_118\n      jump\t// in\n    tag_129:\n        /* \"nst.sol\":2816:2820  temp */\n      dup2\n        /* \"nst.sol\":2816:2854  temp < (2000* 10 ** uint256(decimals)) */\n      lt\n        /* \"nst.sol\":2812:3090  if (temp < (2000* 10 ** uint256(decimals))) {... */\n      iszero\n      tag_130\n      jumpi\n        /* \"nst.sol\":2870:2903  badge[_account] = \"Blaze Bringer\" */\n      mload(0x40)\n      dup1\n      0x40\n      add\n      0x40\n      mstore\n      dup1\n      0x0d\n      dup2\n      mstore\n      0x20\n      add\n      0x426c617a65204272696e67657200000000000000000000000000000000000000\n      dup2\n      mstore\n      pop\n        /* \"nst.sol\":2870:2875  badge */\n      0x07\n        /* \"nst.sol\":2870:2885  badge[_account] */\n      0x00\n        /* \"nst.sol\":2876:2884  _account */\n      dup5\n        /* \"nst.sol\":2870:2885  badge[_account] */\n      0xffffffffffffffffffffffffffffffffffffffff\n      and\n      0xffffffffffffffffffffffffffffffffffffffff\n      and\n      dup2\n      mstore\n      0x20\n      add\n      swap1\n      dup2\n      mstore\n      0x20\n      add\n      0x00\n      keccak256\n        /* \"nst.sol\":2870:2903  badge[_account] = \"Blaze Bringer\" */\n      swap1\n      dup2\n      tag_131\n      swap2\n      swap1\n      tag_121\n      jump\t// in\n    tag_131:\n      pop\n        /* \"nst.sol\":2812:3090  if (temp < (2000* 10 ** uint256(decimals))) {... */\n      jump(tag_132)\n    tag_130:\n        /* \"nst.sol\":2952:2960  decimals */\n      0x02\n      0x00\n      swap1\n      sload\n      swap1\n      0x0100\n      exp\n      swap1\n      div\n      0xff\n      and\n        /* \"nst.sol\":2944:2961  uint256(decimals) */\n      0xff\n      and\n        /* \"nst.sol\":2938:2940  10 */\n      0x0a\n        /* \"nst.sol\":2938:2961  10 ** uint256(decimals) */\n      tag_133\n      swap2\n      swap1\n      tag_116\n      jump\t// in\n    tag_133:\n        /* \"nst.sol\":2932:2936  5000 */\n      0x1388\n        /* \"nst.sol\":2932:2961  5000* 10 ** uint256(decimals) */\n      tag_134\n      swap2\n      swap1\n      tag_118\n      jump\t// in\n    tag_134:\n        /* \"nst.sol\":2924:2928  temp */\n      dup2\n        /* \"nst.sol\":2924:2962  temp < (5000* 10 ** uint256(decimals)) */\n      lt\n        /* \"nst.sol\":2920:3090  if (temp < (5000* 10 ** uint256(decimals))) {... */\n      iszero\n      tag_135\n      jumpi\n        /* \"nst.sol\":2978:3014  badge[_account] = \"Inferno Initiate\" */\n      mload(0x40)\n      dup1\n      0x40\n      add\n      0x40\n      mstore\n      dup1\n      0x10\n      dup2\n      mstore\n      0x20\n      add\n      0x496e6665726e6f20496e69746961746500000000000000000000000000000000\n      dup2\n      mstore\n      pop\n        /* \"nst.sol\":2978:2983  badge */\n      0x07\n        /* \"nst.sol\":2978:2993  badge[_account] */\n      0x00\n        /* \"nst.sol\":2984:2992  _account */\n      dup5\n        /* \"nst.sol\":2978:2993  badge[_account] */\n      0xffffffffffffffffffffffffffffffffffffffff\n      and\n      0xffffffffffffffffffffffffffffffffffffffff\n      and\n      dup2\n      mstore\n      0x20\n      add\n      swap1\n      dup2\n      mstore\n      0x20\n      add\n      0x00\n      keccak256\n        /* \"nst.sol\":2978:3014  badge[_account] = \"Inferno Initiate\" */\n      swap1\n      dup2\n      tag_136\n      swap2\n      swap1\n      tag_121\n      jump\t// in\n    tag_136:\n      pop\n        /* \"nst.sol\":2920:3090  if (temp < (5000* 10 ** uint256(decimals))) {... */\n      jump(tag_137)\n    tag_135:\n        /* \"nst.sol\":3045:3079  badge[_account] = \"Phoenix Master\" */\n      mload(0x40)\n      dup1\n      0x40\n      add\n      0x40\n      mstore\n      dup1\n      0x0e\n      dup2\n      mstore\n      0x20\n      add\n      0x50686f656e6978204d6173746572000000000000000000000000000000000000\n      dup2\n      mstore\n      pop\n        /* \"nst.sol\":3045:3050  badge */\n      0x07\n        /* \"nst.sol\":3045:3060  badge[_account] */\n      0x00\n        /* \"nst.sol\":3051:3059  _account */\n      dup5\n        /* \"nst.sol\":3045:3060  badge[_account] */\n      0xffffffffffffffffffffffffffffffffffffffff\n      and\n      0xffffffffffffffffffffffffffffffffffffffff\n      and\n      dup2\n      mstore\n      0x20\n      add\n      swap1\n      dup2\n      mstore\n      0x20\n      add\n      0x00\n      keccak256\n        /* \"nst.sol\":3045:3079  badge[_account] = \"Phoenix Master\" */\n      swap1\n      dup2\n      tag_138\n      swap2\n      swap1\n      tag_121\n      jump\t// in\n    tag_138:\n      pop\n        /* \"nst.sol\":2920:3090  if (temp < (5000* 10 ** uint256(decimals))) {... */\n    tag_137:\n        /* \"nst.sol\":2812:3090  if (temp < (2000* 10 ** uint256(decimals))) {... */\n    tag_132:\n        /* \"nst.sol\":2705:3090  if (temp < (500* 10 ** uint256(decimals))) {... */\n    tag_127:\n        /* \"nst.sol\":2598:3090  if (temp < (100* 10 ** uint256(decimals))) {... */\n    tag_122:\n        /* \"nst.sol\":2546:3096  {... */\n      pop\n        /* \"nst.sol\":2501:3096  function _getBadge(address _account) private {... */\n      pop\n      jump\t// out\n        /* \"#utility.yul\":7:106   */\n    tag_139:\n        /* \"#utility.yul\":59:65   */\n      0x00\n        /* \"#utility.yul\":93:98   */\n      dup2\n        /* \"#utility.yul\":87:99   */\n      mload\n        /* \"#utility.yul\":77:99   */\n      swap1\n      pop\n        /* \"#utility.yul\":7:106   */\n      swap2\n      swap1\n      pop\n      jump\t// out\n        /* \"#utility.yul\":112:281   */\n    tag_140:\n        /* \"#utility.yul\":196:207   */\n      0x00\n        /* \"#utility.yul\":230:236   */\n      dup3\n        /* \"#utility.yul\":225:228   */\n      dup3\n        /* \"#utility.yul\":218:237   */\n      mstore\n        /* \"#utility.yul\":270:274   */\n      0x20\n        /* \"#utility.yul\":265:268   */\n      dup3\n        /* \"#utility.yul\":261:275   */\n      add\n        /* \"#utility.yul\":246:275   */\n      swap1\n      pop\n        /* \"#utility.yul\":112:281   */\n      swap3\n      swap2\n      pop\n      pop\n      jump\t// out\n        /* \"#utility.yul\":287:426   */\n    tag_141:\n        /* \"#utility.yul\":376:382   */\n      dup3\n        /* \"#utility.yul\":371:374   */\n      dup2\n        /* \"#utility.yul\":366:369   */\n      dup4\n        /* \"#utility.yul\":360:383   */\n      mcopy\n        /* \"#utility.yul\":417:418   */\n      0x00\n        /* \"#utility.yul\":408:414   */\n      dup4\n        /* \"#utility.yul\":403:406   */\n      dup4\n        /* \"#utility.yul\":399:415   */\n      add\n        /* \"#utility.yul\":392:419   */\n      mstore\n        /* \"#utility.yul\":287:426   */\n      pop\n      pop\n      pop\n      jump\t// out\n        /* \"#utility.yul\":432:534   */\n    tag_142:\n        /* \"#utility.yul\":473:479   */\n      0x00\n        /* \"#utility.yul\":524:526   */\n      0x1f\n        /* \"#utility.yul\":520:527   */\n      not\n        /* \"#utility.yul\":515:517   */\n      0x1f\n        /* \"#utility.yul\":508:513   */\n      dup4\n        /* \"#utility.yul\":504:518   */\n      add\n        /* \"#utility.yul\":500:528   */\n      and\n        /* \"#utility.yul\":490:528   */\n      swap1\n      pop\n        /* \"#utility.yul\":432:534   */\n      swap2\n      swap1\n      pop\n      jump\t// out\n        /* \"#utility.yul\":540:917   */\n    tag_143:\n        /* \"#utility.yul\":628:631   */\n      0x00\n        /* \"#utility.yul\":656:695   */\n      tag_190\n        /* \"#utility.yul\":689:694   */\n      dup3\n        /* \"#utility.yul\":656:695   */\n      tag_139\n      jump\t// in\n    tag_190:\n        /* \"#utility.yul\":711:782   */\n      tag_191\n        /* \"#utility.yul\":775:781   */\n      dup2\n        /* \"#utility.yul\":770:773   */\n      dup6\n        /* \"#utility.yul\":711:782   */\n      tag_140\n      jump\t// in\n    tag_191:\n        /* \"#utility.yul\":704:782   */\n      swap4\n      pop\n        /* \"#utility.yul\":791:856   */\n      tag_192\n        /* \"#utility.yul\":849:855   */\n      dup2\n        /* \"#utility.yul\":844:847   */\n      dup6\n        /* \"#utility.yul\":837:841   */\n      0x20\n        /* \"#utility.yul\":830:835   */\n      dup7\n        /* \"#utility.yul\":826:842   */\n      add\n        /* \"#utility.yul\":791:856   */\n      tag_141\n      jump\t// in\n    tag_192:\n        /* \"#utility.yul\":881:910   */\n      tag_193\n        /* \"#utility.yul\":903:909   */\n      dup2\n        /* \"#utility.yul\":881:910   */\n      tag_142\n      jump\t// in\n    tag_193:\n        /* \"#utility.yul\":876:879   */\n      dup5\n        /* \"#utility.yul\":872:911   */\n      add\n        /* \"#utility.yul\":865:911   */\n      swap2\n      pop\n        /* \"#utility.yul\":632:917   */\n      pop\n        /* \"#utility.yul\":540:917   */\n      swap3\n      swap2\n      pop\n      pop\n      jump\t// out\n        /* \"#utility.yul\":923:1236   */\n    tag_19:\n        /* \"#utility.yul\":1036:1040   */\n      0x00\n        /* \"#utility.yul\":1074:1076   */\n      0x20\n        /* \"#utility.yul\":1063:1072   */\n      dup3\n        /* \"#utility.yul\":1059:1077   */\n      add\n        /* \"#utility.yul\":1051:1077   */\n      swap1\n      pop\n        /* \"#utility.yul\":1123:1132   */\n      dup2\n        /* \"#utility.yul\":1117:1121   */\n      dup2\n        /* \"#utility.yul\":1113:1133   */\n      sub\n        /* \"#utility.yul\":1109:1110   */\n      0x00\n        /* \"#utility.yul\":1098:1107   */\n      dup4\n        /* \"#utility.yul\":1094:1111   */\n      add\n        /* \"#utility.yul\":1087:1134   */\n      mstore\n        /* \"#utility.yul\":1151:1229   */\n      tag_195\n        /* \"#utility.yul\":1224:1228   */\n      dup2\n        /* \"#utility.yul\":1215:1221   */\n      dup5\n        /* \"#utility.yul\":1151:1229   */\n      tag_143\n      jump\t// in\n    tag_195:\n        /* \"#utility.yul\":1143:1229   */\n      swap1\n      pop\n        /* \"#utility.yul\":923:1236   */\n      swap3\n      swap2\n      pop\n      pop\n      jump\t// out\n        /* \"#utility.yul\":1323:1440   */\n    tag_145:\n        /* \"#utility.yul\":1432:1433   */\n      0x00\n        /* \"#utility.yul\":1429:1430   */\n      dup1\n        /* \"#utility.yul\":1422:1434   */\n      revert\n        /* \"#utility.yul\":1569:1695   */\n    tag_147:\n        /* \"#utility.yul\":1606:1613   */\n      0x00\n        /* \"#utility.yul\":1646:1688   */\n      0xffffffffffffffffffffffffffffffffffffffff\n        /* \"#utility.yul\":1639:1644   */\n      dup3\n        /* \"#utility.yul\":1635:1689   */\n      and\n        /* \"#utility.yul\":1624:1689   */\n      swap1\n      pop\n        /* \"#utility.yul\":1569:1695   */\n      swap2\n      swap1\n      pop\n      jump\t// out\n        /* \"#utility.yul\":1701:1797   */\n    tag_148:\n        /* \"#utility.yul\":1738:1745   */\n      0x00\n        /* \"#utility.yul\":1767:1791   */\n      tag_201\n        /* \"#utility.yul\":1785:1790   */\n      dup3\n        /* \"#utility.yul\":1767:1791   */\n      tag_147\n      jump\t// in\n    tag_201:\n        /* \"#utility.yul\":1756:1791   */\n      swap1\n      pop\n        /* \"#utility.yul\":1701:1797   */\n      swap2\n      swap1\n      pop\n      jump\t// out\n        /* \"#utility.yul\":1803:1925   */\n    tag_149:\n        /* \"#utility.yul\":1876:1900   */\n      tag_203\n        /* \"#utility.yul\":1894:1899   */\n      dup2\n        /* \"#utility.yul\":1876:1900   */\n      tag_148\n      jump\t// in\n    tag_203:\n        /* \"#utility.yul\":1869:1874   */\n      dup2\n        /* \"#utility.yul\":1866:1901   */\n      eq\n        /* \"#utility.yul\":1856:1919   */\n      tag_204\n      jumpi\n        /* \"#utility.yul\":1915:1916   */\n      0x00\n        /* \"#utility.yul\":1912:1913   */\n      dup1\n        /* \"#utility.yul\":1905:1917   */\n      revert\n        /* \"#utility.yul\":1856:1919   */\n    tag_204:\n        /* \"#utility.yul\":1803:1925   */\n      pop\n      jump\t// out\n        /* \"#utility.yul\":1931:2070   */\n    tag_150:\n        /* \"#utility.yul\":1977:1982   */\n      0x00\n        /* \"#utility.yul\":2015:2021   */\n      dup2\n        /* \"#utility.yul\":2002:2022   */\n      calldataload\n        /* \"#utility.yul\":1993:2022   */\n      swap1\n      pop\n        /* \"#utility.yul\":2031:2064   */\n      tag_206\n        /* \"#utility.yul\":2058:2063   */\n      dup2\n        /* \"#utility.yul\":2031:2064   */\n      tag_149\n      jump\t// in\n    tag_206:\n        /* \"#utility.yul\":1931:2070   */\n      swap3\n      swap2\n      pop\n      pop\n      jump\t// out\n        /* \"#utility.yul\":2076:2153   */\n    tag_151:\n        /* \"#utility.yul\":2113:2120   */\n      0x00\n        /* \"#utility.yul\":2142:2147   */\n      dup2\n        /* \"#utility.yul\":2131:2147   */\n      swap1\n      pop\n        /* \"#utility.yul\":2076:2153   */\n      swap2\n      swap1\n      pop\n      jump\t// out\n        /* \"#utility.yul\":2159:2281   */\n    tag_152:\n        /* \"#utility.yul\":2232:2256   */\n      tag_209\n        /* \"#utility.yul\":2250:2255   */\n      dup2\n        /* \"#utility.yul\":2232:2256   */\n      tag_151\n      jump\t// in\n    tag_209:\n        /* \"#utility.yul\":2225:2230   */\n      dup2\n        /* \"#utility.yul\":2222:2257   */\n      eq\n        /* \"#utility.yul\":2212:2275   */\n      tag_210\n      jumpi\n        /* \"#utility.yul\":2271:2272   */\n      0x00\n        /* \"#utility.yul\":2268:2269   */\n      dup1\n        /* \"#utility.yul\":2261:2273   */\n      revert\n        /* \"#utility.yul\":2212:2275   */\n    tag_210:\n        /* \"#utility.yul\":2159:2281   */\n      pop\n      jump\t// out\n        /* \"#utility.yul\":2287:2426   */\n    tag_153:\n        /* \"#utility.yul\":2333:2338   */\n      0x00\n        /* \"#utility.yul\":2371:2377   */\n      dup2\n        /* \"#utility.yul\":2358:2378   */\n      calldataload\n        /* \"#utility.yul\":2349:2378   */\n      swap1\n      pop\n        /* \"#utility.yul\":2387:2420   */\n      tag_212\n        /* \"#utility.yul\":2414:2419   */\n      dup2\n        /* \"#utility.yul\":2387:2420   */\n      tag_152\n      jump\t// in\n    tag_212:\n        /* \"#utility.yul\":2287:2426   */\n      swap3\n      swap2\n      pop\n      pop\n      jump\t// out\n        /* \"#utility.yul\":2432:2906   */\n    tag_22:\n        /* \"#utility.yul\":2500:2506   */\n      0x00\n        /* \"#utility.yul\":2508:2514   */\n      dup1\n        /* \"#utility.yul\":2557:2559   */\n      0x40\n        /* \"#utility.yul\":2545:2554   */\n      dup4\n        /* \"#utility.yul\":2536:2543   */\n      dup6\n        /* \"#utility.yul\":2532:2555   */\n      sub\n        /* \"#utility.yul\":2528:2560   */\n      slt\n        /* \"#utility.yul\":2525:2644   */\n      iszero\n      tag_214\n      jumpi\n        /* \"#utility.yul\":2563:2642   */\n      tag_215\n      tag_145\n      jump\t// in\n    tag_215:\n        /* \"#utility.yul\":2525:2644   */\n    tag_214:\n        /* \"#utility.yul\":2683:2684   */\n      0x00\n        /* \"#utility.yul\":2708:2761   */\n      tag_216\n        /* \"#utility.yul\":2753:2760   */\n      dup6\n        /* \"#utility.yul\":2744:2750   */\n      dup3\n        /* \"#utility.yul\":2733:2742   */\n      dup7\n        /* \"#utility.yul\":2729:2751   */\n      add\n        /* \"#utility.yul\":2708:2761   */\n      tag_150\n      jump\t// in\n    tag_216:\n        /* \"#utility.yul\":2698:2761   */\n      swap3\n      pop\n        /* \"#utility.yul\":2654:2771   */\n      pop\n        /* \"#utility.yul\":2810:2812   */\n      0x20\n        /* \"#utility.yul\":2836:2889   */\n      tag_217\n        /* \"#utility.yul\":2881:2888   */\n      dup6\n        /* \"#utility.yul\":2872:2878   */\n      dup3\n        /* \"#utility.yul\":2861:2870   */\n      dup7\n        /* \"#utility.yul\":2857:2879   */\n      add\n        /* \"#utility.yul\":2836:2889   */\n      tag_153\n      jump\t// in\n    tag_217:\n        /* \"#utility.yul\":2826:2889   */\n      swap2\n      pop\n        /* \"#utility.yul\":2781:2899   */\n      pop\n        /* \"#utility.yul\":2432:2906   */\n      swap3\n      pop\n      swap3\n      swap1\n      pop\n      jump\t// out\n        /* \"#utility.yul\":2912:3002   */\n    tag_154:\n        /* \"#utility.yul\":2946:2953   */\n      0x00\n        /* \"#utility.yul\":2989:2994   */\n      dup2\n        /* \"#utility.yul\":2982:2995   */\n      iszero\n        /* \"#utility.yul\":2975:2996   */\n      iszero\n        /* \"#utility.yul\":2964:2996   */\n      swap1\n      pop\n        /* \"#utility.yul\":2912:3002   */\n      swap2\n      swap1\n      pop\n      jump\t// out\n        /* \"#utility.yul\":3008:3117   */\n    tag_155:\n        /* \"#utility.yul\":3089:3110   */\n      tag_220\n        /* \"#utility.yul\":3104:3109   */\n      dup2\n        /* \"#utility.yul\":3089:3110   */\n      tag_154\n      jump\t// in\n    tag_220:\n        /* \"#utility.yul\":3084:3087   */\n      dup3\n        /* \"#utility.yul\":3077:3111   */\n      mstore\n        /* \"#utility.yul\":3008:3117   */\n      pop\n      pop\n      jump\t// out\n        /* \"#utility.yul\":3123:3333   */\n    tag_25:\n        /* \"#utility.yul\":3210:3214   */\n      0x00\n        /* \"#utility.yul\":3248:3250   */\n      0x20\n        /* \"#utility.yul\":3237:3246   */\n      dup3\n        /* \"#utility.yul\":3233:3251   */\n      add\n        /* \"#utility.yul\":3225:3251   */\n      swap1\n      pop\n        /* \"#utility.yul\":3261:3326   */\n      tag_222\n        /* \"#utility.yul\":3323:3324   */\n      0x00\n        /* \"#utility.yul\":3312:3321   */\n      dup4\n        /* \"#utility.yul\":3308:3325   */\n      add\n        /* \"#utility.yul\":3299:3305   */\n      dup5\n        /* \"#utility.yul\":3261:3326   */\n      tag_155\n      jump\t// in\n    tag_222:\n        /* \"#utility.yul\":3123:3333   */\n      swap3\n      swap2\n      pop\n      pop\n      jump\t// out\n        /* \"#utility.yul\":3339:3457   */\n    tag_156:\n        /* \"#utility.yul\":3426:3450   */\n      tag_224\n        /* \"#utility.yul\":3444:3449   */\n      dup2\n        /* \"#utility.yul\":3426:3450   */\n      tag_151\n      jump\t// in\n    tag_224:\n        /* \"#utility.yul\":3421:3424   */\n      dup3\n        /* \"#utility.yul\":3414:3451   */\n      mstore\n        /* \"#utility.yul\":3339:3457   */\n      pop\n      pop\n      jump\t// out\n        /* \"#utility.yul\":3463:3685   */\n    tag_29:\n        /* \"#utility.yul\":3556:3560   */\n      0x00\n        /* \"#utility.yul\":3594:3596   */\n      0x20\n        /* \"#utility.yul\":3583:3592   */\n      dup3\n        /* \"#utility.yul\":3579:3597   */\n      add\n        /* \"#utility.yul\":3571:3597   */\n      swap1\n      pop\n        /* \"#utility.yul\":3607:3678   */\n      tag_226\n        /* \"#utility.yul\":3675:3676   */\n      0x00\n        /* \"#utility.yul\":3664:3673   */\n      dup4\n        /* \"#utility.yul\":3660:3677   */\n      add\n        /* \"#utility.yul\":3651:3657   */\n      dup5\n        /* \"#utility.yul\":3607:3678   */\n      tag_156\n      jump\t// in\n    tag_226:\n        /* \"#utility.yul\":3463:3685   */\n      swap3\n      swap2\n      pop\n      pop\n      jump\t// out\n        /* \"#utility.yul\":3691:4310   */\n    tag_32:\n        /* \"#utility.yul\":3768:3774   */\n      0x00\n        /* \"#utility.yul\":3776:3782   */\n      dup1\n        /* \"#utility.yul\":3784:3790   */\n      0x00\n        /* \"#utility.yul\":3833:3835   */\n      0x60\n        /* \"#utility.yul\":3821:3830   */\n      dup5\n        /* \"#utility.yul\":3812:3819   */\n      dup7\n        /* \"#utility.yul\":3808:3831   */\n      sub\n        /* \"#utility.yul\":3804:3836   */\n      slt\n        /* \"#utility.yul\":3801:3920   */\n      iszero\n      tag_228\n      jumpi\n        /* \"#utility.yul\":3839:3918   */\n      tag_229\n      tag_145\n      jump\t// in\n    tag_229:\n        /* \"#utility.yul\":3801:3920   */\n    tag_228:\n        /* \"#utility.yul\":3959:3960   */\n      0x00\n        /* \"#utility.yul\":3984:4037   */\n      tag_230\n        /* \"#utility.yul\":4029:4036   */\n      dup7\n        /* \"#utility.yul\":4020:4026   */\n      dup3\n        /* \"#utility.yul\":4009:4018   */\n      dup8\n        /* \"#utility.yul\":4005:4027   */\n      add\n        /* \"#utility.yul\":3984:4037   */\n      tag_150\n      jump\t// in\n    tag_230:\n        /* \"#utility.yul\":3974:4037   */\n      swap4\n      pop\n        /* \"#utility.yul\":3930:4047   */\n      pop\n        /* \"#utility.yul\":4086:4088   */\n      0x20\n        /* \"#utility.yul\":4112:4165   */\n      tag_231\n        /* \"#utility.yul\":4157:4164   */\n      dup7\n        /* \"#utility.yul\":4148:4154   */\n      dup3\n        /* \"#utility.yul\":4137:4146   */\n      dup8\n        /* \"#utility.yul\":4133:4155   */\n      add\n        /* \"#utility.yul\":4112:4165   */\n      tag_150\n      jump\t// in\n    tag_231:\n        /* \"#utility.yul\":4102:4165   */\n      swap3\n      pop\n        /* \"#utility.yul\":4057:4175   */\n      pop\n        /* \"#utility.yul\":4214:4216   */\n      0x40\n        /* \"#utility.yul\":4240:4293   */\n      tag_232\n        /* \"#utility.yul\":4285:4292   */\n      dup7\n        /* \"#utility.yul\":4276:4282   */\n      dup3\n        /* \"#utility.yul\":4265:4274   */\n      dup8\n        /* \"#utility.yul\":4261:4283   */\n      add\n        /* \"#utility.yul\":4240:4293   */\n      tag_153\n      jump\t// in\n    tag_232:\n        /* \"#utility.yul\":4230:4293   */\n      swap2\n      pop\n        /* \"#utility.yul\":4185:4303   */\n      pop\n        /* \"#utility.yul\":3691:4310   */\n      swap3\n      pop\n      swap3\n      pop\n      swap3\n      jump\t// out\n        /* \"#utility.yul\":4316:4402   */\n    tag_157:\n        /* \"#utility.yul\":4351:4358   */\n      0x00\n        /* \"#utility.yul\":4391:4395   */\n      0xff\n        /* \"#utility.yul\":4384:4389   */\n      dup3\n        /* \"#utility.yul\":4380:4396   */\n      and\n        /* \"#utility.yul\":4369:4396   */\n      swap1\n      pop\n        /* \"#utility.yul\":4316:4402   */\n      swap2\n      swap1\n      pop\n      jump\t// out\n        /* \"#utility.yul\":4408:4520   */\n    tag_158:\n        /* \"#utility.yul\":4491:4513   */\n      tag_235\n        /* \"#utility.yul\":4507:4512   */\n      dup2\n        /* \"#utility.yul\":4491:4513   */\n      tag_157\n      jump\t// in\n    tag_235:\n        /* \"#utility.yul\":4486:4489   */\n      dup3\n        /* \"#utility.yul\":4479:4514   */\n      mstore\n        /* \"#utility.yul\":4408:4520   */\n      pop\n      pop\n      jump\t// out\n        /* \"#utility.yul\":4526:4740   */\n    tag_38:\n        /* \"#utility.yul\":4615:4619   */\n      0x00\n        /* \"#utility.yul\":4653:4655   */\n      0x20\n        /* \"#utility.yul\":4642:4651   */\n      dup3\n        /* \"#utility.yul\":4638:4656   */\n      add\n        /* \"#utility.yul\":4630:4656   */\n      swap1\n      pop\n        /* \"#utility.yul\":4666:4733   */\n      tag_237\n        /* \"#utility.yul\":4730:4731   */\n      0x00\n        /* \"#utility.yul\":4719:4728   */\n      dup4\n        /* \"#utility.yul\":4715:4732   */\n      add\n        /* \"#utility.yul\":4706:4712   */\n      dup5\n        /* \"#utility.yul\":4666:4733   */\n      tag_158\n      jump\t// in\n    tag_237:\n        /* \"#utility.yul\":4526:4740   */\n      swap3\n      swap2\n      pop\n      pop\n      jump\t// out\n        /* \"#utility.yul\":4746:5075   */\n    tag_41:\n        /* \"#utility.yul\":4805:4811   */\n      0x00\n        /* \"#utility.yul\":4854:4856   */\n      0x20\n        /* \"#utility.yul\":4842:4851   */\n      dup3\n        /* \"#utility.yul\":4833:4840   */\n      dup5\n        /* \"#utility.yul\":4829:4852   */\n      sub\n        /* \"#utility.yul\":4825:4857   */\n      slt\n        /* \"#utility.yul\":4822:4941   */\n      iszero\n      tag_239\n      jumpi\n        /* \"#utility.yul\":4860:4939   */\n      tag_240\n      tag_145\n      jump\t// in\n    tag_240:\n        /* \"#utility.yul\":4822:4941   */\n    tag_239:\n        /* \"#utility.yul\":4980:4981   */\n      0x00\n        /* \"#utility.yul\":5005:5058   */\n      tag_241\n        /* \"#utility.yul\":5050:5057   */\n      dup5\n        /* \"#utility.yul\":5041:5047   */\n      dup3\n        /* \"#utility.yul\":5030:5039   */\n      dup6\n        /* \"#utility.yul\":5026:5048   */\n      add\n        /* \"#utility.yul\":5005:5058   */\n      tag_153\n      jump\t// in\n    tag_241:\n        /* \"#utility.yul\":4995:5058   */\n      swap2\n      pop\n        /* \"#utility.yul\":4951:5068   */\n      pop\n        /* \"#utility.yul\":4746:5075   */\n      swap3\n      swap2\n      pop\n      pop\n      jump\t// out\n        /* \"#utility.yul\":5081:5410   */\n    tag_46:\n        /* \"#utility.yul\":5140:5146   */\n      0x00\n        /* \"#utility.yul\":5189:5191   */\n      0x20\n        /* \"#utility.yul\":5177:5186   */\n      dup3\n        /* \"#utility.yul\":5168:5175   */\n      dup5\n        /* \"#utility.yul\":5164:5187   */\n      sub\n        /* \"#utility.yul\":5160:5192   */\n      slt\n        /* \"#utility.yul\":5157:5276   */\n      iszero\n      tag_243\n      jumpi\n        /* \"#utility.yul\":5195:5274   */\n      tag_244\n      tag_145\n      jump\t// in\n    tag_244:\n        /* \"#utility.yul\":5157:5276   */\n    tag_243:\n        /* \"#utility.yul\":5315:5316   */\n      0x00\n        /* \"#utility.yul\":5340:5393   */\n      tag_245\n        /* \"#utility.yul\":5385:5392   */\n      dup5\n        /* \"#utility.yul\":5376:5382   */\n      dup3\n        /* \"#utility.yul\":5365:5374   */\n      dup6\n        /* \"#utility.yul\":5361:5383   */\n      add\n        /* \"#utility.yul\":5340:5393   */\n      tag_150\n      jump\t// in\n    tag_245:\n        /* \"#utility.yul\":5330:5393   */\n      swap2\n      pop\n        /* \"#utility.yul\":5286:5403   */\n      pop\n        /* \"#utility.yul\":5081:5410   */\n      swap3\n      swap2\n      pop\n      pop\n      jump\t// out\n        /* \"#utility.yul\":5416:5890   */\n    tag_66:\n        /* \"#utility.yul\":5484:5490   */\n      0x00\n        /* \"#utility.yul\":5492:5498   */\n      dup1\n        /* \"#utility.yul\":5541:5543   */\n      0x40\n        /* \"#utility.yul\":5529:5538   */\n      dup4\n        /* \"#utility.yul\":5520:5527   */\n      dup6\n        /* \"#utility.yul\":5516:5539   */\n      sub\n        /* \"#utility.yul\":5512:5544   */\n      slt\n        /* \"#utility.yul\":5509:5628   */\n      iszero\n      tag_247\n      jumpi\n        /* \"#utility.yul\":5547:5626   */\n      tag_248\n      tag_145\n      jump\t// in\n    tag_248:\n        /* \"#utility.yul\":5509:5628   */\n    tag_247:\n        /* \"#utility.yul\":5667:5668   */\n      0x00\n        /* \"#utility.yul\":5692:5745   */\n      tag_249\n        /* \"#utility.yul\":5737:5744   */\n      dup6\n        /* \"#utility.yul\":5728:5734   */\n      dup3\n        /* \"#utility.yul\":5717:5726   */\n      dup7\n        /* \"#utility.yul\":5713:5735   */\n      add\n        /* \"#utility.yul\":5692:5745   */\n      tag_150\n      jump\t// in\n    tag_249:\n        /* \"#utility.yul\":5682:5745   */\n      swap3\n      pop\n        /* \"#utility.yul\":5638:5755   */\n      pop\n        /* \"#utility.yul\":5794:5796   */\n      0x20\n        /* \"#utility.yul\":5820:5873   */\n      tag_250\n        /* \"#utility.yul\":5865:5872   */\n      dup6\n        /* \"#utility.yul\":5856:5862   */\n      dup3\n        /* \"#utility.yul\":5845:5854   */\n      dup7\n        /* \"#utility.yul\":5841:5863   */\n      add\n        /* \"#utility.yul\":5820:5873   */\n      tag_150\n      jump\t// in\n    tag_250:\n        /* \"#utility.yul\":5810:5873   */\n      swap2\n      pop\n        /* \"#utility.yul\":5765:5883   */\n      pop\n        /* \"#utility.yul\":5416:5890   */\n      swap3\n      pop\n      swap3\n      swap1\n      pop\n      jump\t// out\n        /* \"#utility.yul\":5896:6076   */\n    tag_159:\n        /* \"#utility.yul\":5944:6021   */\n      0x4e487b7100000000000000000000000000000000000000000000000000000000\n        /* \"#utility.yul\":5941:5942   */\n      0x00\n        /* \"#utility.yul\":5934:6022   */\n      mstore\n        /* \"#utility.yul\":6041:6045   */\n      0x22\n        /* \"#utility.yul\":6038:6039   */\n      0x04\n        /* \"#utility.yul\":6031:6046   */\n      mstore\n        /* \"#utility.yul\":6065:6069   */\n      0x24\n        /* \"#utility.yul\":6062:6063   */\n      0x00\n        /* \"#utility.yul\":6055:6070   */\n      revert\n        /* \"#utility.yul\":6082:6402   */\n    tag_70:\n        /* \"#utility.yul\":6126:6132   */\n      0x00\n        /* \"#utility.yul\":6163:6164   */\n      0x02\n        /* \"#utility.yul\":6157:6161   */\n      dup3\n        /* \"#utility.yul\":6153:6165   */\n      div\n        /* \"#utility.yul\":6143:6165   */\n      swap1\n      pop\n        /* \"#utility.yul\":6210:6211   */\n      0x01\n        /* \"#utility.yul\":6204:6208   */\n      dup3\n        /* \"#utility.yul\":6200:6212   */\n      and\n        /* \"#utility.yul\":6231:6249   */\n      dup1\n        /* \"#utility.yul\":6221:6302   */\n      tag_253\n      jumpi\n        /* \"#utility.yul\":6287:6291   */\n      0x7f\n        /* \"#utility.yul\":6279:6285   */\n      dup3\n        /* \"#utility.yul\":6275:6292   */\n      and\n        /* \"#utility.yul\":6265:6292   */\n      swap2\n      pop\n        /* \"#utility.yul\":6221:6302   */\n    tag_253:\n        /* \"#utility.yul\":6349:6351   */\n      0x20\n        /* \"#utility.yul\":6341:6347   */\n      dup3\n        /* \"#utility.yul\":6338:6352   */\n      lt\n        /* \"#utility.yul\":6318:6336   */\n      dup2\n        /* \"#utility.yul\":6315:6353   */\n      sub\n        /* \"#utility.yul\":6312:6396   */\n      tag_254\n      jumpi\n        /* \"#utility.yul\":6368:6386   */\n      tag_255\n      tag_159\n      jump\t// in\n    tag_255:\n        /* \"#utility.yul\":6312:6396   */\n    tag_254:\n        /* \"#utility.yul\":6133:6402   */\n      pop\n        /* \"#utility.yul\":6082:6402   */\n      swap2\n      swap1\n      pop\n      jump\t// out\n        /* \"#utility.yul\":6408:6578   */\n    tag_160:\n        /* \"#utility.yul\":6548:6570   */\n      0x496e73756666696369656e742062616c616e6365000000000000000000000000\n        /* \"#utility.yul\":6544:6545   */\n      0x00\n        /* \"#utility.yul\":6536:6542   */\n      dup3\n        /* \"#utility.yul\":6532:6546   */\n      add\n        /* \"#utility.yul\":6525:6571   */\n      mstore\n        /* \"#utility.yul\":6408:6578   */\n      pop\n      jump\t// out\n        /* \"#utility.yul\":6584:6950   */\n    tag_161:\n        /* \"#utility.yul\":6726:6729   */\n      0x00\n        /* \"#utility.yul\":6747:6814   */\n      tag_258\n        /* \"#utility.yul\":6811:6813   */\n      0x14\n        /* \"#utility.yul\":6806:6809   */\n      dup4\n        /* \"#utility.yul\":6747:6814   */\n      tag_140\n      jump\t// in\n    tag_258:\n        /* \"#utility.yul\":6740:6814   */\n      swap2\n      pop\n        /* \"#utility.yul\":6823:6916   */\n      tag_259\n        /* \"#utility.yul\":6912:6915   */\n      dup3\n        /* \"#utility.yul\":6823:6916   */\n      tag_160\n      jump\t// in\n    tag_259:\n        /* \"#utility.yul\":6941:6943   */\n      0x20\n        /* \"#utility.yul\":6936:6939   */\n      dup3\n        /* \"#utility.yul\":6932:6944   */\n      add\n        /* \"#utility.yul\":6925:6944   */\n      swap1\n      pop\n        /* \"#utility.yul\":6584:6950   */\n      swap2\n      swap1\n      pop\n      jump\t// out\n        /* \"#utility.yul\":6956:7375   */\n    tag_80:\n        /* \"#utility.yul\":7122:7126   */\n      0x00\n        /* \"#utility.yul\":7160:7162   */\n      0x20\n        /* \"#utility.yul\":7149:7158   */\n      dup3\n        /* \"#utility.yul\":7145:7163   */\n      add\n        /* \"#utility.yul\":7137:7163   */\n      swap1\n      pop\n        /* \"#utility.yul\":7209:7218   */\n      dup2\n        /* \"#utility.yul\":7203:7207   */\n      dup2\n        /* \"#utility.yul\":7199:7219   */\n      sub\n        /* \"#utility.yul\":7195:7196   */\n      0x00\n        /* \"#utility.yul\":7184:7193   */\n      dup4\n        /* \"#utility.yul\":7180:7197   */\n      add\n        /* \"#utility.yul\":7173:7220   */\n      mstore\n        /* \"#utility.yul\":7237:7368   */\n      tag_261\n        /* \"#utility.yul\":7363:7367   */\n      dup2\n        /* \"#utility.yul\":7237:7368   */\n      tag_161\n      jump\t// in\n    tag_261:\n        /* \"#utility.yul\":7229:7368   */\n      swap1\n      pop\n        /* \"#utility.yul\":6956:7375   */\n      swap2\n      swap1\n      pop\n      jump\t// out\n        /* \"#utility.yul\":7381:7549   */\n    tag_162:\n        /* \"#utility.yul\":7521:7541   */\n      0x416c6c6f77616e63652065786365656465640000000000000000000000000000\n        /* \"#utility.yul\":7517:7518   */\n      0x00\n        /* \"#utility.yul\":7509:7515   */\n      dup3\n        /* \"#utility.yul\":7505:7519   */\n      add\n        /* \"#utility.yul\":7498:7542   */\n      mstore\n        /* \"#utility.yul\":7381:7549   */\n      pop\n      jump\t// out\n        /* \"#utility.yul\":7555:7921   */\n    tag_163:\n        /* \"#utility.yul\":7697:7700   */\n      0x00\n        /* \"#utility.yul\":7718:7785   */\n      tag_264\n        /* \"#utility.yul\":7782:7784   */\n      0x12\n        /* \"#utility.yul\":7777:7780   */\n      dup4\n        /* \"#utility.yul\":7718:7785   */\n      tag_140\n      jump\t// in\n    tag_264:\n        /* \"#utility.yul\":7711:7785   */\n      swap2\n      pop\n        /* \"#utility.yul\":7794:7887   */\n      tag_265\n        /* \"#utility.yul\":7883:7886   */\n      dup3\n        /* \"#utility.yul\":7794:7887   */\n      tag_162\n      jump\t// in\n    tag_265:\n        /* \"#utility.yul\":7912:7914   */\n      0x20\n        /* \"#utility.yul\":7907:7910   */\n      dup3\n        /* \"#utility.yul\":7903:7915   */\n      add\n        /* \"#utility.yul\":7896:7915   */\n      swap1\n      pop\n        /* \"#utility.yul\":7555:7921   */\n      swap2\n      swap1\n      pop\n      jump\t// out\n        /* \"#utility.yul\":7927:8346   */\n    tag_83:\n        /* \"#utility.yul\":8093:8097   */\n      0x00\n        /* \"#utility.yul\":8131:8133   */\n      0x20\n        /* \"#utility.yul\":8120:8129   */\n      dup3\n        /* \"#utility.yul\":8116:8134   */\n      add\n        /* \"#utility.yul\":8108:8134   */\n      swap1\n      pop\n        /* \"#utility.yul\":8180:8189   */\n      dup2\n        /* \"#utility.yul\":8174:8178   */\n      dup2\n        /* \"#utility.yul\":8170:8190   */\n      sub\n        /* \"#utility.yul\":8166:8167   */\n      0x00\n        /* \"#utility.yul\":8155:8164   */\n      dup4\n        /* \"#utility.yul\":8151:8168   */\n      add\n        /* \"#utility.yul\":8144:8191   */\n      mstore\n        /* \"#utility.yul\":8208:8339   */\n      tag_267\n        /* \"#utility.yul\":8334:8338   */\n      dup2\n        /* \"#utility.yul\":8208:8339   */\n      tag_163\n      jump\t// in\n    tag_267:\n        /* \"#utility.yul\":8200:8339   */\n      swap1\n      pop\n        /* \"#utility.yul\":7927:8346   */\n      swap2\n      swap1\n      pop\n      jump\t// out\n        /* \"#utility.yul\":8352:8532   */\n    tag_164:\n        /* \"#utility.yul\":8400:8477   */\n      0x4e487b7100000000000000000000000000000000000000000000000000000000\n        /* \"#utility.yul\":8397:8398   */\n      0x00\n        /* \"#utility.yul\":8390:8478   */\n      mstore\n        /* \"#utility.yul\":8497:8501   */\n      0x11\n        /* \"#utility.yul\":8494:8495   */\n      0x04\n        /* \"#utility.yul\":8487:8502   */\n      mstore\n        /* \"#utility.yul\":8521:8525   */\n      0x24\n        /* \"#utility.yul\":8518:8519   */\n      0x00\n        /* \"#utility.yul\":8511:8526   */\n      revert\n        /* \"#utility.yul\":8538:8732   */\n    tag_85:\n        /* \"#utility.yul\":8578:8582   */\n      0x00\n        /* \"#utility.yul\":8598:8618   */\n      tag_270\n        /* \"#utility.yul\":8616:8617   */\n      dup3\n        /* \"#utility.yul\":8598:8618   */\n      tag_151\n      jump\t// in\n    tag_270:\n        /* \"#utility.yul\":8593:8618   */\n      swap2\n      pop\n        /* \"#utility.yul\":8632:8652   */\n      tag_271\n        /* \"#utility.yul\":8650:8651   */\n      dup4\n        /* \"#utility.yul\":8632:8652   */\n      tag_151\n      jump\t// in\n    tag_271:\n        /* \"#utility.yul\":8627:8652   */\n      swap3\n      pop\n        /* \"#utility.yul\":8676:8677   */\n      dup3\n        /* \"#utility.yul\":8673:8674   */\n      dup3\n        /* \"#utility.yul\":8669:8678   */\n      sub\n        /* \"#utility.yul\":8661:8678   */\n      swap1\n      pop\n        /* \"#utility.yul\":8700:8701   */\n      dup2\n        /* \"#utility.yul\":8694:8698   */\n      dup2\n        /* \"#utility.yul\":8691:8702   */\n      gt\n        /* \"#utility.yul\":8688:8725   */\n      iszero\n      tag_272\n      jumpi\n        /* \"#utility.yul\":8705:8723   */\n      tag_273\n      tag_164\n      jump\t// in\n    tag_273:\n        /* \"#utility.yul\":8688:8725   */\n    tag_272:\n        /* \"#utility.yul\":8538:8732   */\n      swap3\n      swap2\n      pop\n      pop\n      jump\t// out\n        /* \"#utility.yul\":8738:8929   */\n    tag_87:\n        /* \"#utility.yul\":8778:8781   */\n      0x00\n        /* \"#utility.yul\":8797:8817   */\n      tag_275\n        /* \"#utility.yul\":8815:8816   */\n      dup3\n        /* \"#utility.yul\":8797:8817   */\n      tag_151\n      jump\t// in\n    tag_275:\n        /* \"#utility.yul\":8792:8817   */\n      swap2\n      pop\n        /* \"#utility.yul\":8831:8851   */\n      tag_276\n        /* \"#utility.yul\":8849:8850   */\n      dup4\n        /* \"#utility.yul\":8831:8851   */\n      tag_151\n      jump\t// in\n    tag_276:\n        /* \"#utility.yul\":8826:8851   */\n      swap3\n      pop\n        /* \"#utility.yul\":8874:8875   */\n      dup3\n        /* \"#utility.yul\":8871:8872   */\n      dup3\n        /* \"#utility.yul\":8867:8876   */\n      add\n        /* \"#utility.yul\":8860:8876   */\n      swap1\n      pop\n        /* \"#utility.yul\":8895:8898   */\n      dup1\n        /* \"#utility.yul\":8892:8893   */\n      dup3\n        /* \"#utility.yul\":8889:8899   */\n      gt\n        /* \"#utility.yul\":8886:8922   */\n      iszero\n      tag_277\n      jumpi\n        /* \"#utility.yul\":8902:8920   */\n      tag_278\n      tag_164\n      jump\t// in\n    tag_278:\n        /* \"#utility.yul\":8886:8922   */\n    tag_277:\n        /* \"#utility.yul\":8738:8929   */\n      swap3\n      swap2\n      pop\n      pop\n      jump\t// out\n        /* \"#utility.yul\":8935:9037   */\n    tag_165:\n        /* \"#utility.yul\":8977:8985   */\n      0x00\n        /* \"#utility.yul\":9024:9029   */\n      dup2\n        /* \"#utility.yul\":9021:9022   */\n      0x01\n        /* \"#utility.yul\":9017:9030   */\n      shr\n        /* \"#utility.yul\":8996:9030   */\n      swap1\n      pop\n        /* \"#utility.yul\":8935:9037   */\n      swap2\n      swap1\n      pop\n      jump\t// out\n        /* \"#utility.yul\":9043:9891   */\n    tag_166:\n        /* \"#utility.yul\":9104:9109   */\n      0x00\n        /* \"#utility.yul\":9111:9115   */\n      dup1\n        /* \"#utility.yul\":9135:9141   */\n      dup3\n        /* \"#utility.yul\":9126:9141   */\n      swap2\n      pop\n        /* \"#utility.yul\":9159:9164   */\n      dup4\n        /* \"#utility.yul\":9150:9164   */\n      swap1\n      pop\n        /* \"#utility.yul\":9173:9885   */\n    tag_281:\n        /* \"#utility.yul\":9194:9195   */\n      0x01\n        /* \"#utility.yul\":9184:9192   */\n      dup6\n        /* \"#utility.yul\":9181:9196   */\n      gt\n        /* \"#utility.yul\":9173:9885   */\n      iszero\n      tag_283\n      jumpi\n        /* \"#utility.yul\":9289:9293   */\n      dup1\n        /* \"#utility.yul\":9284:9287   */\n      dup7\n        /* \"#utility.yul\":9280:9294   */\n      div\n        /* \"#utility.yul\":9274:9278   */\n      dup2\n        /* \"#utility.yul\":9271:9295   */\n      gt\n        /* \"#utility.yul\":9268:9318   */\n      iszero\n      tag_284\n      jumpi\n        /* \"#utility.yul\":9298:9316   */\n      tag_285\n      tag_164\n      jump\t// in\n    tag_285:\n        /* \"#utility.yul\":9268:9318   */\n    tag_284:\n        /* \"#utility.yul\":9348:9349   */\n      0x01\n        /* \"#utility.yul\":9338:9346   */\n      dup6\n        /* \"#utility.yul\":9334:9350   */\n      and\n        /* \"#utility.yul\":9331:9782   */\n      iszero\n      tag_286\n      jumpi\n        /* \"#utility.yul\":9763:9767   */\n      dup1\n        /* \"#utility.yul\":9756:9761   */\n      dup3\n        /* \"#utility.yul\":9752:9768   */\n      mul\n        /* \"#utility.yul\":9743:9768   */\n      swap2\n      pop\n        /* \"#utility.yul\":9331:9782   */\n    tag_286:\n        /* \"#utility.yul\":9813:9817   */\n      dup1\n        /* \"#utility.yul\":9807:9811   */\n      dup2\n        /* \"#utility.yul\":9803:9818   */\n      mul\n        /* \"#utility.yul\":9795:9818   */\n      swap1\n      pop\n        /* \"#utility.yul\":9843:9875   */\n      tag_287\n        /* \"#utility.yul\":9866:9874   */\n      dup6\n        /* \"#utility.yul\":9843:9875   */\n      tag_165\n      jump\t// in\n    tag_287:\n        /* \"#utility.yul\":9831:9875   */\n      swap5\n      pop\n        /* \"#utility.yul\":9173:9885   */\n      jump(tag_281)\n    tag_283:\n        /* \"#utility.yul\":9043:9891   */\n      swap5\n      pop\n      swap5\n      swap3\n      pop\n      pop\n      pop\n      jump\t// out\n        /* \"#utility.yul\":9897:10970   */\n    tag_167:\n        /* \"#utility.yul\":9951:9956   */\n      0x00\n        /* \"#utility.yul\":10142:10150   */\n      dup3\n        /* \"#utility.yul\":10132:10172   */\n      tag_289\n      jumpi\n        /* \"#utility.yul\":10163:10164   */\n      0x01\n        /* \"#utility.yul\":10154:10164   */\n      swap1\n      pop\n        /* \"#utility.yul\":10165:10170   */\n      jump(tag_288)\n        /* \"#utility.yul\":10132:10172   */\n    tag_289:\n        /* \"#utility.yul\":10191:10195   */\n      dup2\n        /* \"#utility.yul\":10181:10217   */\n      tag_290\n      jumpi\n        /* \"#utility.yul\":10208:10209   */\n      0x00\n        /* \"#utility.yul\":10199:10209   */\n      swap1\n      pop\n        /* \"#utility.yul\":10210:10215   */\n      jump(tag_288)\n        /* \"#utility.yul\":10181:10217   */\n    tag_290:\n        /* \"#utility.yul\":10277:10281   */\n      dup2\n        /* \"#utility.yul\":10325:10326   */\n      0x01\n        /* \"#utility.yul\":10320:10347   */\n      dup2\n      eq\n      tag_292\n      jumpi\n        /* \"#utility.yul\":10361:10362   */\n      0x02\n        /* \"#utility.yul\":10356:10547   */\n      dup2\n      eq\n      tag_293\n      jumpi\n        /* \"#utility.yul\":10270:10547   */\n      jump(tag_291)\n        /* \"#utility.yul\":10320:10347   */\n    tag_292:\n        /* \"#utility.yul\":10338:10339   */\n      0x01\n        /* \"#utility.yul\":10329:10339   */\n      swap2\n      pop\n        /* \"#utility.yul\":10340:10345   */\n      pop\n      jump(tag_288)\n        /* \"#utility.yul\":10356:10547   */\n    tag_293:\n        /* \"#utility.yul\":10401:10404   */\n      0xff\n        /* \"#utility.yul\":10391:10399   */\n      dup5\n        /* \"#utility.yul\":10388:10405   */\n      gt\n        /* \"#utility.yul\":10385:10428   */\n      iszero\n      tag_294\n      jumpi\n        /* \"#utility.yul\":10408:10426   */\n      tag_295\n      tag_164\n      jump\t// in\n    tag_295:\n        /* \"#utility.yul\":10385:10428   */\n    tag_294:\n        /* \"#utility.yul\":10457:10465   */\n      dup4\n        /* \"#utility.yul\":10454:10455   */\n      0x02\n        /* \"#utility.yul\":10450:10466   */\n      exp\n        /* \"#utility.yul\":10441:10466   */\n      swap2\n      pop\n        /* \"#utility.yul\":10492:10495   */\n      dup5\n        /* \"#utility.yul\":10485:10490   */\n      dup3\n        /* \"#utility.yul\":10482:10496   */\n      gt\n        /* \"#utility.yul\":10479:10519   */\n      iszero\n      tag_296\n      jumpi\n        /* \"#utility.yul\":10499:10517   */\n      tag_297\n      tag_164\n      jump\t// in\n    tag_297:\n        /* \"#utility.yul\":10479:10519   */\n    tag_296:\n        /* \"#utility.yul\":10532:10537   */\n      pop\n      jump(tag_288)\n        /* \"#utility.yul\":10270:10547   */\n    tag_291:\n      pop\n        /* \"#utility.yul\":10656:10658   */\n      0x20\n        /* \"#utility.yul\":10646:10654   */\n      dup4\n        /* \"#utility.yul\":10643:10659   */\n      lt\n        /* \"#utility.yul\":10637:10640   */\n      0x0133\n        /* \"#utility.yul\":10631:10635   */\n      dup4\n        /* \"#utility.yul\":10628:10641   */\n      lt\n        /* \"#utility.yul\":10624:10660   */\n      and\n        /* \"#utility.yul\":10606:10608   */\n      0x4e\n        /* \"#utility.yul\":10596:10604   */\n      dup5\n        /* \"#utility.yul\":10593:10609   */\n      lt\n        /* \"#utility.yul\":10588:10590   */\n      0x0b\n        /* \"#utility.yul\":10582:10586   */\n      dup5\n        /* \"#utility.yul\":10579:10591   */\n      lt\n        /* \"#utility.yul\":10575:10610   */\n      and\n        /* \"#utility.yul\":10559:10670   */\n      or\n        /* \"#utility.yul\":10556:10802   */\n      iszero\n      tag_298\n      jumpi\n        /* \"#utility.yul\":10712:10720   */\n      dup3\n        /* \"#utility.yul\":10706:10710   */\n      dup3\n        /* \"#utility.yul\":10702:10721   */\n      exp\n        /* \"#utility.yul\":10693:10721   */\n      swap1\n      pop\n        /* \"#utility.yul\":10747:10750   */\n      dup4\n        /* \"#utility.yul\":10740:10745   */\n      dup2\n        /* \"#utility.yul\":10737:10751   */\n      gt\n        /* \"#utility.yul\":10734:10774   */\n      iszero\n      tag_299\n      jumpi\n        /* \"#utility.yul\":10754:10772   */\n      tag_300\n      tag_164\n      jump\t// in\n    tag_300:\n        /* \"#utility.yul\":10734:10774   */\n    tag_299:\n        /* \"#utility.yul\":10787:10792   */\n      jump(tag_288)\n        /* \"#utility.yul\":10556:10802   */\n    tag_298:\n        /* \"#utility.yul\":10827:10869   */\n      tag_301\n        /* \"#utility.yul\":10865:10868   */\n      dup5\n        /* \"#utility.yul\":10855:10863   */\n      dup5\n        /* \"#utility.yul\":10849:10853   */\n      dup5\n        /* \"#utility.yul\":10846:10847   */\n      0x01\n        /* \"#utility.yul\":10827:10869   */\n      tag_166\n      jump\t// in\n    tag_301:\n        /* \"#utility.yul\":10812:10869   */\n      swap3\n      pop\n      swap1\n      pop\n        /* \"#utility.yul\":10901:10905   */\n      dup2\n        /* \"#utility.yul\":10896:10899   */\n      dup5\n        /* \"#utility.yul\":10892:10906   */\n      div\n        /* \"#utility.yul\":10885:10890   */\n      dup2\n        /* \"#utility.yul\":10882:10907   */\n      gt\n        /* \"#utility.yul\":10879:10930   */\n      iszero\n      tag_302\n      jumpi\n        /* \"#utility.yul\":10910:10928   */\n      tag_303\n      tag_164\n      jump\t// in\n    tag_303:\n        /* \"#utility.yul\":10879:10930   */\n    tag_302:\n        /* \"#utility.yul\":10959:10963   */\n      dup2\n        /* \"#utility.yul\":10952:10957   */\n      dup2\n        /* \"#utility.yul\":10948:10964   */\n      mul\n        /* \"#utility.yul\":10939:10964   */\n      swap1\n      pop\n        /* \"#utility.yul\":9897:10970   */\n    tag_288:\n      swap4\n      swap3\n      pop\n      pop\n      pop\n      jump\t// out\n        /* \"#utility.yul\":10976:11261   */\n    tag_116:\n        /* \"#utility.yul\":11036:11041   */\n      0x00\n        /* \"#utility.yul\":11060:11083   */\n      tag_305\n        /* \"#utility.yul\":11078:11082   */\n      dup3\n        /* \"#utility.yul\":11060:11083   */\n      tag_151\n      jump\t// in\n    tag_305:\n        /* \"#utility.yul\":11052:11083   */\n      swap2\n      pop\n        /* \"#utility.yul\":11104:11131   */\n      tag_306\n        /* \"#utility.yul\":11122:11130   */\n      dup4\n        /* \"#utility.yul\":11104:11131   */\n      tag_151\n      jump\t// in\n    tag_306:\n        /* \"#utility.yul\":11092:11131   */\n      swap3\n      pop\n        /* \"#utility.yul\":11150:11254   */\n      tag_307\n        /* \"#utility.yul\":11187:11253   */\n      0xffffffffffffffffffffffffffffffffffffffffffffffffffffffffffffffff\n        /* \"#utility.yul\":11177:11185   */\n      dup5\n        /* \"#utility.yul\":11171:11175   */\n      dup5\n        /* \"#utility.yul\":11150:11254   */\n      tag_167\n      jump\t// in\n    tag_307:\n        /* \"#utility.yul\":11141:11254   */\n      swap1\n      pop\n        /* \"#utility.yul\":10976:11261   */\n      swap3\n      swap2\n      pop\n      pop\n      jump\t// out\n        /* \"#utility.yul\":11267:11677   */\n    tag_118:\n        /* \"#utility.yul\":11307:11314   */\n      0x00\n        /* \"#utility.yul\":11330:11350   */\n      tag_309\n        /* \"#utility.yul\":11348:11349   */\n      dup3\n        /* \"#utility.yul\":11330:11350   */\n      tag_151\n      jump\t// in\n    tag_309:\n        /* \"#utility.yul\":11325:11350   */\n      swap2\n      pop\n        /* \"#utility.yul\":11364:11384   */\n      tag_310\n        /* \"#utility.yul\":11382:11383   */\n      dup4\n        /* \"#utility.yul\":11364:11384   */\n      tag_151\n      jump\t// in\n    tag_310:\n        /* \"#utility.yul\":11359:11384   */\n      swap3\n      pop\n        /* \"#utility.yul\":11419:11420   */\n      dup3\n        /* \"#utility.yul\":11416:11417   */\n      dup3\n        /* \"#utility.yul\":11412:11421   */\n      mul\n        /* \"#utility.yul\":11441:11471   */\n      tag_311\n        /* \"#utility.yul\":11459:11470   */\n      dup2\n        /* \"#utility.yul\":11441:11471   */\n      tag_151\n      jump\t// in\n    tag_311:\n        /* \"#utility.yul\":11430:11471   */\n      swap2\n      pop\n        /* \"#utility.yul\":11620:11621   */\n      dup3\n        /* \"#utility.yul\":11611:11618   */\n      dup3\n        /* \"#utility.yul\":11607:11622   */\n      div\n        /* \"#utility.yul\":11604:11605   */\n      dup5\n        /* \"#utility.yul\":11601:11623   */\n      eq\n        /* \"#utility.yul\":11581:11582   */\n      dup4\n        /* \"#utility.yul\":11574:11583   */\n      iszero\n        /* \"#utility.yul\":11554:11637   */\n      or\n        /* \"#utility.yul\":11531:11670   */\n      tag_312\n      jumpi\n        /* \"#utility.yul\":11650:11668   */\n      tag_313\n      tag_164\n      jump\t// in\n    tag_313:\n        /* \"#utility.yul\":11531:11670   */\n    tag_312:\n        /* \"#utility.yul\":11315:11677   */\n      pop\n        /* \"#utility.yul\":11267:11677   */\n      swap3\n      swap2\n      pop\n      pop\n      jump\t// out\n        /* \"#utility.yul\":11683:11863   */\n    tag_168:\n        /* \"#utility.yul\":11731:11808   */\n      0x4e487b7100000000000000000000000000000000000000000000000000000000\n        /* \"#utility.yul\":11728:11729   */\n      0x00\n        /* \"#utility.yul\":11721:11809   */\n      mstore\n        /* \"#utility.yul\":11828:11832   */\n      0x41\n        /* \"#utility.yul\":11825:11826   */\n      0x04\n        /* \"#utility.yul\":11818:11833   */\n      mstore\n        /* \"#utility.yul\":11852:11856   */\n      0x24\n        /* \"#utility.yul\":11849:11850   */\n      0x00\n        /* \"#utility.yul\":11842:11857   */\n      revert\n        /* \"#utility.yul\":11869:12010   */\n    tag_169:\n        /* \"#utility.yul\":11918:11922   */\n      0x00\n        /* \"#utility.yul\":11941:11944   */\n      dup2\n        /* \"#utility.yul\":11933:11944   */\n      swap1\n      pop\n        /* \"#utility.yul\":11964:11967   */\n      dup2\n        /* \"#utility.yul\":11961:11962   */\n      0x00\n        /* \"#utility.yul\":11954:11968   */\n      mstore\n        /* \"#utility.yul\":11998:12002   */\n      0x20\n        /* \"#utility.yul\":11995:11996   */\n      0x00\n        /* \"#utility.yul\":11985:12003   */\n      keccak256\n        /* \"#utility.yul\":11977:12003   */\n      swap1\n      pop\n        /* \"#utility.yul\":11869:12010   */\n      swap2\n      swap1\n      pop\n      jump\t// out\n        /* \"#utility.yul\":12016:12109   */\n    tag_170:\n        /* \"#utility.yul\":12053:12059   */\n      0x00\n        /* \"#utility.yul\":12100:12102   */\n      0x20\n        /* \"#utility.yul\":12095:12097   */\n      0x1f\n        /* \"#utility.yul\":12088:12093   */\n      dup4\n        /* \"#utility.yul\":12084:12098   */\n      add\n        /* \"#utility.yul\":12080:12103   */\n      div\n        /* \"#utility.yul\":12070:12103   */\n      swap1\n      pop\n        /* \"#utility.yul\":12016:12109   */\n      swap2\n      swap1\n      pop\n      jump\t// out\n        /* \"#utility.yul\":12115:12222   */\n    tag_171:\n        /* \"#utility.yul\":12159:12167   */\n      0x00\n        /* \"#utility.yul\":12209:12214   */\n      dup3\n        /* \"#utility.yul\":12203:12207   */\n      dup3\n        /* \"#utility.yul\":12199:12215   */\n      shl\n        /* \"#utility.yul\":12178:12215   */\n      swap1\n      pop\n        /* \"#utility.yul\":12115:12222   */\n      swap3\n      swap2\n      pop\n      pop\n      jump\t// out\n        /* \"#utility.yul\":12228:12621   */\n    tag_172:\n        /* \"#utility.yul\":12297:12303   */\n      0x00\n        /* \"#utility.yul\":12347:12348   */\n      0x08\n        /* \"#utility.yul\":12335:12345   */\n      dup4\n        /* \"#utility.yul\":12331:12349   */\n      mul\n        /* \"#utility.yul\":12370:12467   */\n      tag_319\n        /* \"#utility.yul\":12400:12466   */\n      0xffffffffffffffffffffffffffffffffffffffffffffffffffffffffffffffff\n        /* \"#utility.yul\":12389:12398   */\n      dup3\n        /* \"#utility.yul\":12370:12467   */\n      tag_171\n      jump\t// in\n    tag_319:\n        /* \"#utility.yul\":12488:12527   */\n      tag_320\n        /* \"#utility.yul\":12518:12526   */\n      dup7\n        /* \"#utility.yul\":12507:12516   */\n      dup4\n        /* \"#utility.yul\":12488:12527   */\n      tag_171\n      jump\t// in\n    tag_320:\n        /* \"#utility.yul\":12476:12527   */\n      swap6\n      pop\n        /* \"#utility.yul\":12560:12564   */\n      dup1\n        /* \"#utility.yul\":12556:12565   */\n      not\n        /* \"#utility.yul\":12549:12554   */\n      dup5\n        /* \"#utility.yul\":12545:12566   */\n      and\n        /* \"#utility.yul\":12536:12566   */\n      swap4\n      pop\n        /* \"#utility.yul\":12609:12613   */\n      dup1\n        /* \"#utility.yul\":12599:12607   */\n      dup7\n        /* \"#utility.yul\":12595:12614   */\n      and\n        /* \"#utility.yul\":12588:12593   */\n      dup5\n        /* \"#utility.yul\":12585:12615   */\n      or\n        /* \"#utility.yul\":12575:12615   */\n      swap3\n      pop\n        /* \"#utility.yul\":12304:12621   */\n      pop\n      pop\n        /* \"#utility.yul\":12228:12621   */\n      swap4\n      swap3\n      pop\n      pop\n      pop\n      jump\t// out\n        /* \"#utility.yul\":12627:12687   */\n    tag_173:\n        /* \"#utility.yul\":12655:12658   */\n      0x00\n        /* \"#utility.yul\":12676:12681   */\n      dup2\n        /* \"#utility.yul\":12669:12681   */\n      swap1\n      pop\n        /* \"#utility.yul\":12627:12687   */\n      swap2\n      swap1\n      pop\n      jump\t// out\n        /* \"#utility.yul\":12693:12835   */\n    tag_174:\n        /* \"#utility.yul\":12743:12752   */\n      0x00\n        /* \"#utility.yul\":12776:12829   */\n      tag_323\n        /* \"#utility.yul\":12794:12828   */\n      tag_324\n        /* \"#utility.yul\":12803:12827   */\n      tag_325\n        /* \"#utility.yul\":12821:12826   */\n      dup5\n        /* \"#utility.yul\":12803:12827   */\n      tag_151\n      jump\t// in\n    tag_325:\n        /* \"#utility.yul\":12794:12828   */\n      tag_173\n      jump\t// in\n    tag_324:\n        /* \"#utility.yul\":12776:12829   */\n      tag_151\n      jump\t// in\n    tag_323:\n        /* \"#utility.yul\":12763:12829   */\n      swap1\n      pop\n        /* \"#utility.yul\":12693:12835   */\n      swap2\n      swap1\n      pop\n      jump\t// out\n        /* \"#utility.yul\":12841:12916   */\n    tag_175:\n        /* \"#utility.yul\":12884:12887   */\n      0x00\n        /* \"#utility.yul\":12905:12910   */\n      dup2\n        /* \"#utility.yul\":12898:12910   */\n      swap1\n      pop\n        /* \"#utility.yul\":12841:12916   */\n      swap2\n      swap1\n      pop\n      jump\t// out\n        /* \"#utility.yul\":12922:13191   */\n    tag_176:\n        /* \"#utility.yul\":13032:13071   */\n      tag_328\n        /* \"#utility.yul\":13063:13070   */\n      dup4\n        /* \"#utility.yul\":13032:13071   */\n      tag_174\n      jump\t// in\n    tag_328:\n        /* \"#utility.yul\":13093:13184   */\n      tag_329\n        /* \"#utility.yul\":13142:13183   */\n      tag_330\n        /* \"#utility.yul\":13166:13182   */\n      dup3\n        /* \"#utility.yul\":13142:13183   */\n      tag_175\n      jump\t// in\n    tag_330:\n        /* \"#utility.yul\":13134:13140   */\n      dup5\n        /* \"#utility.yul\":13127:13131   */\n      dup5\n        /* \"#utility.yul\":13121:13132   */\n      sload\n        /* \"#utility.yul\":13093:13184   */\n      tag_172\n      jump\t// in\n    tag_329:\n        /* \"#utility.yul\":13087:13091   */\n      dup3\n        /* \"#utility.yul\":13080:13185   */\n      sstore\n        /* \"#utility.yul\":12998:13191   */\n      pop\n        /* \"#utility.yul\":12922:13191   */\n      pop\n      pop\n      pop\n      jump\t// out\n        /* \"#utility.yul\":13197:13270   */\n    tag_177:\n        /* \"#utility.yul\":13242:13245   */\n      0x00\n        /* \"#utility.yul\":13197:13270   */\n      swap1\n      jump\t// out\n        /* \"#utility.yul\":13276:13465   */\n    tag_178:\n        /* \"#utility.yul\":13353:13385   */\n      tag_333\n      tag_177\n      jump\t// in\n    tag_333:\n        /* \"#utility.yul\":13394:13459   */\n      tag_334\n        /* \"#utility.yul\":13452:13458   */\n      dup2\n        /* \"#utility.yul\":13444:13450   */\n      dup5\n        /* \"#utility.yul\":13438:13442   */\n      dup5\n        /* \"#utility.yul\":13394:13459   */\n      tag_176\n      jump\t// in\n    tag_334:\n        /* \"#utility.yul\":13329:13465   */\n      pop\n        /* \"#utility.yul\":13276:13465   */\n      pop\n      pop\n      jump\t// out\n        /* \"#utility.yul\":13471:13657   */\n    tag_179:\n        /* \"#utility.yul\":13531:13651   */\n    tag_336:\n        /* \"#utility.yul\":13548:13551   */\n      dup2\n        /* \"#utility.yul\":13541:13546   */\n      dup2\n        /* \"#utility.yul\":13538:13552   */\n      lt\n        /* \"#utility.yul\":13531:13651   */\n      iszero\n      tag_338\n      jumpi\n        /* \"#utility.yul\":13602:13641   */\n      tag_339\n        /* \"#utility.yul\":13639:13640   */\n      0x00\n        /* \"#utility.yul\":13632:13637   */\n      dup3\n        /* \"#utility.yul\":13602:13641   */\n      tag_178\n      jump\t// in\n    tag_339:\n        /* \"#utility.yul\":13575:13576   */\n      0x01\n        /* \"#utility.yul\":13568:13573   */\n      dup2\n        /* \"#utility.yul\":13564:13577   */\n      add\n        /* \"#utility.yul\":13555:13577   */\n      swap1\n      pop\n        /* \"#utility.yul\":13531:13651   */\n      jump(tag_336)\n    tag_338:\n        /* \"#utility.yul\":13471:13657   */\n      pop\n      pop\n      jump\t// out\n        /* \"#utility.yul\":13663:14206   */\n    tag_180:\n        /* \"#utility.yul\":13764:13766   */\n      0x1f\n        /* \"#utility.yul\":13759:13762   */\n      dup3\n        /* \"#utility.yul\":13756:13767   */\n      gt\n        /* \"#utility.yul\":13753:14199   */\n      iszero\n      tag_341\n      jumpi\n        /* \"#utility.yul\":13798:13836   */\n      tag_342\n        /* \"#utility.yul\":13830:13835   */\n      dup2\n        /* \"#utility.yul\":13798:13836   */\n      tag_169\n      jump\t// in\n    tag_342:\n        /* \"#utility.yul\":13882:13911   */\n      tag_343\n        /* \"#utility.yul\":13900:13910   */\n      dup5\n        /* \"#utility.yul\":13882:13911   */\n      tag_170\n      jump\t// in\n    tag_343:\n        /* \"#utility.yul\":13872:13880   */\n      dup2\n        /* \"#utility.yul\":13868:13912   */\n      add\n        /* \"#utility.yul\":14065:14067   */\n      0x20\n        /* \"#utility.yul\":14053:14063   */\n      dup6\n        /* \"#utility.yul\":14050:14068   */\n      lt\n        /* \"#utility.yul\":14047:14096   */\n      iszero\n      tag_344\n      jumpi\n        /* \"#utility.yul\":14086:14094   */\n      dup2\n        /* \"#utility.yul\":14071:14094   */\n      swap1\n      pop\n        /* \"#utility.yul\":14047:14096   */\n    tag_344:\n        /* \"#utility.yul\":14109:14189   */\n      tag_345\n        /* \"#utility.yul\":14165:14187   */\n      tag_346\n        /* \"#utility.yul\":14183:14186   */\n      dup6\n        /* \"#utility.yul\":14165:14187   */\n      tag_170\n      jump\t// in\n    tag_346:\n        /* \"#utility.yul\":14155:14163   */\n      dup4\n        /* \"#utility.yul\":14151:14188   */\n      add\n        /* \"#utility.yul\":14138:14149   */\n      dup3\n        /* \"#utility.yul\":14109:14189   */\n      tag_179\n      jump\t// in\n    tag_345:\n        /* \"#utility.yul\":13768:14199   */\n      pop\n      pop\n        /* \"#utility.yul\":13753:14199   */\n    tag_341:\n        /* \"#utility.yul\":13663:14206   */\n      pop\n      pop\n      pop\n      jump\t// out\n        /* \"#utility.yul\":14212:14329   */\n    tag_181:\n        /* \"#utility.yul\":14266:14274   */\n      0x00\n        /* \"#utility.yul\":14316:14321   */\n      dup3\n        /* \"#utility.yul\":14310:14314   */\n      dup3\n        /* \"#utility.yul\":14306:14322   */\n      shr\n        /* \"#utility.yul\":14285:14322   */\n      swap1\n      pop\n        /* \"#utility.yul\":14212:14329   */\n      swap3\n      swap2\n      pop\n      pop\n      jump\t// out\n        /* \"#utility.yul\":14335:14504   */\n    tag_182:\n        /* \"#utility.yul\":14379:14385   */\n      0x00\n        /* \"#utility.yul\":14412:14463   */\n      tag_349\n        /* \"#utility.yul\":14460:14461   */\n      0x00\n        /* \"#utility.yul\":14456:14462   */\n      not\n        /* \"#utility.yul\":14448:14453   */\n      dup5\n        /* \"#utility.yul\":14445:14446   */\n      0x08\n        /* \"#utility.yul\":14441:14454   */\n      mul\n        /* \"#utility.yul\":14412:14463   */\n      tag_181\n      jump\t// in\n    tag_349:\n        /* \"#utility.yul\":14408:14464   */\n      not\n        /* \"#utility.yul\":14493:14497   */\n      dup1\n        /* \"#utility.yul\":14487:14491   */\n      dup4\n        /* \"#utility.yul\":14483:14498   */\n      and\n        /* \"#utility.yul\":14473:14498   */\n      swap2\n      pop\n        /* \"#utility.yul\":14386:14504   */\n      pop\n        /* \"#utility.yul\":14335:14504   */\n      swap3\n      swap2\n      pop\n      pop\n      jump\t// out\n        /* \"#utility.yul\":14509:14804   */\n    tag_183:\n        /* \"#utility.yul\":14585:14589   */\n      0x00\n        /* \"#utility.yul\":14731:14760   */\n      tag_351\n        /* \"#utility.yul\":14756:14759   */\n      dup4\n        /* \"#utility.yul\":14750:14754   */\n      dup4\n        /* \"#utility.yul\":14731:14760   */\n      tag_182\n      jump\t// in\n    tag_351:\n        /* \"#utility.yul\":14723:14760   */\n      swap2\n      pop\n        /* \"#utility.yul\":14793:14796   */\n      dup3\n        /* \"#utility.yul\":14790:14791   */\n      0x02\n        /* \"#utility.yul\":14786:14797   */\n      mul\n        /* \"#utility.yul\":14780:14784   */\n      dup3\n        /* \"#utility.yul\":14777:14798   */\n      or\n        /* \"#utility.yul\":14769:14798   */\n      swap1\n      pop\n        /* \"#utility.yul\":14509:14804   */\n      swap3\n      swap2\n      pop\n      pop\n      jump\t// out\n        /* \"#utility.yul\":14809:16204   */\n    tag_121:\n        /* \"#utility.yul\":14926:14963   */\n      tag_353\n        /* \"#utility.yul\":14959:14962   */\n      dup3\n        /* \"#utility.yul\":14926:14963   */\n      tag_139\n      jump\t// in\n    tag_353:\n        /* \"#utility.yul\":15028:15046   */\n      0xffffffffffffffff\n        /* \"#utility.yul\":15020:15026   */\n      dup2\n        /* \"#utility.yul\":15017:15047   */\n      gt\n        /* \"#utility.yul\":15014:15070   */\n      iszero\n      tag_354\n      jumpi\n        /* \"#utility.yul\":15050:15068   */\n      tag_355\n      tag_168\n      jump\t// in\n    tag_355:\n        /* \"#utility.yul\":15014:15070   */\n    tag_354:\n        /* \"#utility.yul\":15094:15132   */\n      tag_356\n        /* \"#utility.yul\":15126:15130   */\n      dup3\n        /* \"#utility.yul\":15120:15131   */\n      sload\n        /* \"#utility.yul\":15094:15132   */\n      tag_70\n      jump\t// in\n    tag_356:\n        /* \"#utility.yul\":15179:15246   */\n      tag_357\n        /* \"#utility.yul\":15239:15245   */\n      dup3\n        /* \"#utility.yul\":15231:15237   */\n      dup3\n        /* \"#utility.yul\":15225:15229   */\n      dup6\n        /* \"#utility.yul\":15179:15246   */\n      tag_180\n      jump\t// in\n    tag_357:\n        /* \"#utility.yul\":15273:15274   */\n      0x00\n        /* \"#utility.yul\":15297:15301   */\n      0x20\n        /* \"#utility.yul\":15284:15301   */\n      swap1\n      pop\n        /* \"#utility.yul\":15329:15331   */\n      0x1f\n        /* \"#utility.yul\":15321:15327   */\n      dup4\n        /* \"#utility.yul\":15318:15332   */\n      gt\n        /* \"#utility.yul\":15346:15347   */\n      0x01\n        /* \"#utility.yul\":15341:15959   */\n      dup2\n      eq\n      tag_359\n      jumpi\n        /* \"#utility.yul\":16003:16004   */\n      0x00\n        /* \"#utility.yul\":16020:16026   */\n      dup5\n        /* \"#utility.yul\":16017:16094   */\n      iszero\n      tag_360\n      jumpi\n        /* \"#utility.yul\":16069:16078   */\n      dup3\n        /* \"#utility.yul\":16064:16067   */\n      dup8\n        /* \"#utility.yul\":16060:16079   */\n      add\n        /* \"#utility.yul\":16054:16080   */\n      mload\n        /* \"#utility.yul\":16045:16080   */\n      swap1\n      pop\n        /* \"#utility.yul\":16017:16094   */\n    tag_360:\n        /* \"#utility.yul\":16120:16187   */\n      tag_361\n        /* \"#utility.yul\":16180:16186   */\n      dup6\n        /* \"#utility.yul\":16173:16178   */\n      dup3\n        /* \"#utility.yul\":16120:16187   */\n      tag_183\n      jump\t// in\n    tag_361:\n        /* \"#utility.yul\":16114:16118   */\n      dup7\n        /* \"#utility.yul\":16107:16188   */\n      sstore\n        /* \"#utility.yul\":15976:16198   */\n      pop\n        /* \"#utility.yul\":15311:16198   */\n      jump(tag_358)\n        /* \"#utility.yul\":15341:15959   */\n    tag_359:\n        /* \"#utility.yul\":15393:15397   */\n      0x1f\n        /* \"#utility.yul\":15389:15398   */\n      not\n        /* \"#utility.yul\":15381:15387   */\n      dup5\n        /* \"#utility.yul\":15377:15399   */\n      and\n        /* \"#utility.yul\":15427:15464   */\n      tag_362\n        /* \"#utility.yul\":15459:15463   */\n      dup7\n        /* \"#utility.yul\":15427:15464   */\n      tag_169\n      jump\t// in\n    tag_362:\n        /* \"#utility.yul\":15486:15487   */\n      0x00\n        /* \"#utility.yul\":15500:15708   */\n    tag_363:\n        /* \"#utility.yul\":15514:15521   */\n      dup3\n        /* \"#utility.yul\":15511:15512   */\n      dup2\n        /* \"#utility.yul\":15508:15522   */\n      lt\n        /* \"#utility.yul\":15500:15708   */\n      iszero\n      tag_365\n      jumpi\n        /* \"#utility.yul\":15593:15602   */\n      dup5\n        /* \"#utility.yul\":15588:15591   */\n      dup10\n        /* \"#utility.yul\":15584:15603   */\n      add\n        /* \"#utility.yul\":15578:15604   */\n      mload\n        /* \"#utility.yul\":15570:15576   */\n      dup3\n        /* \"#utility.yul\":15563:15605   */\n      sstore\n        /* \"#utility.yul\":15644:15645   */\n      0x01\n        /* \"#utility.yul\":15636:15642   */\n      dup3\n        /* \"#utility.yul\":15632:15646   */\n      add\n        /* \"#utility.yul\":15622:15646   */\n      swap2\n      pop\n        /* \"#utility.yul\":15691:15693   */\n      0x20\n        /* \"#utility.yul\":15680:15689   */\n      dup6\n        /* \"#utility.yul\":15676:15694   */\n      add\n        /* \"#utility.yul\":15663:15694   */\n      swap5\n      pop\n        /* \"#utility.yul\":15537:15541   */\n      0x20\n        /* \"#utility.yul\":15534:15535   */\n      dup2\n        /* \"#utility.yul\":15530:15542   */\n      add\n        /* \"#utility.yul\":15525:15542   */\n      swap1\n      pop\n        /* \"#utility.yul\":15500:15708   */\n      jump(tag_363)\n    tag_365:\n        /* \"#utility.yul\":15736:15742   */\n      dup7\n        /* \"#utility.yul\":15727:15734   */\n      dup4\n        /* \"#utility.yul\":15724:15743   */\n      lt\n        /* \"#utility.yul\":15721:15900   */\n      iszero\n      tag_366\n      jumpi\n        /* \"#utility.yul\":15794:15803   */\n      dup5\n        /* \"#utility.yul\":15789:15792   */\n      dup10\n        /* \"#utility.yul\":15785:15804   */\n      add\n        /* \"#utility.yul\":15779:15805   */\n      mload\n        /* \"#utility.yul\":15837:15885   */\n      tag_367\n        /* \"#utility.yul\":15879:15883   */\n      0x1f\n        /* \"#utility.yul\":15871:15877   */\n      dup10\n        /* \"#utility.yul\":15867:15884   */\n      and\n        /* \"#utility.yul\":15856:15865   */\n      dup3\n        /* \"#utility.yul\":15837:15885   */\n      tag_182\n      jump\t// in\n    tag_367:\n        /* \"#utility.yul\":15829:15835   */\n      dup4\n        /* \"#utility.yul\":15822:15886   */\n      sstore\n        /* \"#utility.yul\":15744:15900   */\n      pop\n        /* \"#utility.yul\":15721:15900   */\n    tag_366:\n        /* \"#utility.yul\":15946:15947   */\n      0x01\n        /* \"#utility.yul\":15942:15943   */\n      0x02\n        /* \"#utility.yul\":15934:15940   */\n      dup9\n        /* \"#utility.yul\":15930:15944   */\n      mul\n        /* \"#utility.yul\":15926:15948   */\n      add\n        /* \"#utility.yul\":15920:15924   */\n      dup9\n        /* \"#utility.yul\":15913:15949   */\n      sstore\n        /* \"#utility.yul\":15348:15959   */\n      pop\n      pop\n      pop\n        /* \"#utility.yul\":15311:16198   */\n    tag_358:\n      pop\n        /* \"#utility.yul\":14901:16204   */\n      pop\n      pop\n      pop\n        /* \"#utility.yul\":14809:16204   */\n      pop\n      pop\n      jump\t// out\n\n    auxdata: 0xa264697066735822122078e344c6f699d3b4e9fcd89fd6bcc71e38870a26bca1f18564191e5edbd669dd64736f6c63430008190033\n}\n",
				"bytecode": {
					"linkReferences": {},
					"object": "608060405234801561000f575f80fd5b506040516120733803806120738339818101604052810190610031919061028e565b835f908161003f919061052e565b50826001908161004f919061052e565b508160025f6101000a81548160ff021916908360ff1602179055508160ff16600a61007a9190610759565b8161008591906107a3565b60038190555060035460045f3373ffffffffffffffffffffffffffffffffffffffff1673ffffffffffffffffffffffffffffffffffffffff1681526020019081526020015f2081905550505050506107e4565b5f604051905090565b5f80fd5b5f80fd5b5f80fd5b5f80fd5b5f601f19601f8301169050919050565b7f4e487b71000000000000000000000000000000000000000000000000000000005f52604160045260245ffd5b610137826100f1565b810181811067ffffffffffffffff8211171561015657610155610101565b5b80604052505050565b5f6101686100d8565b9050610174828261012e565b919050565b5f67ffffffffffffffff82111561019357610192610101565b5b61019c826100f1565b9050602081019050919050565b8281835e5f83830152505050565b5f6101c96101c484610179565b61015f565b9050828152602081018484840111156101e5576101e46100ed565b5b6101f08482856101a9565b509392505050565b5f82601f83011261020c5761020b6100e9565b5b815161021c8482602086016101b7565b91505092915050565b5f60ff82169050919050565b61023a81610225565b8114610244575f80fd5b50565b5f8151905061025581610231565b92915050565b5f819050919050565b61026d8161025b565b8114610277575f80fd5b50565b5f8151905061028881610264565b92915050565b5f805f80608085870312156102a6576102a56100e1565b5b5f85015167ffffffffffffffff8111156102c3576102c26100e5565b5b6102cf878288016101f8565b945050602085015167ffffffffffffffff8111156102f0576102ef6100e5565b5b6102fc878288016101f8565b935050604061030d87828801610247565b925050606061031e8782880161027a565b91505092959194509250565b5f81519050919050565b7f4e487b71000000000000000000000000000000000000000000000000000000005f52602260045260245ffd5b5f600282049050600182168061037857607f821691505b60208210810361038b5761038a610334565b5b50919050565b5f819050815f5260205f209050919050565b5f6020601f8301049050919050565b5f82821b905092915050565b5f600883026103ed7fffffffffffffffffffffffffffffffffffffffffffffffffffffffffffffffff826103b2565b6103f786836103b2565b95508019841693508086168417925050509392505050565b5f819050919050565b5f61043261042d6104288461025b565b61040f565b61025b565b9050919050565b5f819050919050565b61044b83610418565b61045f61045782610439565b8484546103be565b825550505050565b5f90565b610473610467565b61047e818484610442565b505050565b5b818110156104a1576104965f8261046b565b600181019050610484565b5050565b601f8211156104e6576104b781610391565b6104c0846103a3565b810160208510156104cf578190505b6104e36104db856103a3565b830182610483565b50505b505050565b5f82821c905092915050565b5f6105065f19846008026104eb565b1980831691505092915050565b5f61051e83836104f7565b9150826002028217905092915050565b6105378261032a565b67ffffffffffffffff8111156105505761054f610101565b5b61055a8254610361565b6105658282856104a5565b5f60209050601f831160018114610596575f8415610584578287015190505b61058e8582610513565b8655506105f5565b601f1984166105a486610391565b5f5b828110156105cb578489015182556001820191506020850194506020810190506105a6565b868310156105e857848901516105e4601f8916826104f7565b8355505b6001600288020188555050505b505050505050565b7f4e487b71000000000000000000000000000000000000000000000000000000005f52601160045260245ffd5b5f8160011c9050919050565b5f808291508390505b600185111561067f5780860481111561065b5761065a6105fd565b5b600185161561066a5780820291505b80810290506106788561062a565b945061063f565b94509492505050565b5f826106975760019050610752565b816106a4575f9050610752565b81600181146106ba57600281146106c4576106f3565b6001915050610752565b60ff8411156106d6576106d56105fd565b5b8360020a9150848211156106ed576106ec6105fd565b5b50610752565b5060208310610133831016604e8410600b84101617156107285782820a905083811115610723576107226105fd565b5b610752565b6107358484846001610636565b9250905081840481111561074c5761074b6105fd565b5b81810290505b9392505050565b5f6107638261025b565b915061076e8361025b565b925061079b7fffffffffffffffffffffffffffffffffffffffffffffffffffffffffffffffff8484610688565b905092915050565b5f6107ad8261025b565b91506107b88361025b565b92508282026107c68161025b565b915082820484148315176107dd576107dc6105fd565b5b5092915050565b611882806107f15f395ff3fe608060405234801561000f575f80fd5b50600436106100b2575f3560e01c806370a082311161006f57806370a08231146101a057806388e179c7146101d057806395d89b4114610200578063a9059cbb1461021e578063d8194c881461024e578063dd62ed3e1461027e576100b2565b806306fdde03146100b6578063095ea7b3146100d457806318160ddd1461010457806323b872dd14610122578063313ce5671461015257806339451a8814610170575b5f80fd5b6100be6102ae565b6040516100cb9190610fd7565b60405180910390f35b6100ee60048036038101906100e99190611088565b610339565b6040516100fb91906110e0565b60405180910390f35b61010c610426565b6040516101199190611108565b60405180910390f35b61013c60048036038101906101379190611121565b61042c565b60405161014991906110e0565b60405180910390f35b61015a61070c565b604051610167919061118c565b60405180910390f35b61018a600480360381019061018591906111a5565b61071e565b60405161019791906110e0565b60405180910390f35b6101ba60048036038101906101b591906111d0565b6108bc565b6040516101c79190611108565b60405180910390f35b6101ea60048036038101906101e591906111d0565b6108d1565b6040516101f79190610fd7565b60405180910390f35b61020861096c565b6040516102159190610fd7565b60405180910390f35b61023860048036038101906102339190611088565b6109f8565b60405161024591906110e0565b60405180910390f35b610268600480360381019061026391906111d0565b610b8e565b6040516102759190611108565b60405180910390f35b610298600480360381019061029391906111fb565b610ba3565b6040516102a59190611108565b60405180910390f35b5f80546102ba90611266565b80601f01602080910402602001604051908101604052809291908181526020018280546102e690611266565b80156103315780601f1061030857610100808354040283529160200191610331565b820191905f5260205f20905b81548152906001019060200180831161031457829003601f168201915b505050505081565b5f8160055f3373ffffffffffffffffffffffffffffffffffffffff1673ffffffffffffffffffffffffffffffffffffffff1681526020019081526020015f205f8573ffffffffffffffffffffffffffffffffffffffff1673ffffffffffffffffffffffffffffffffffffffff1681526020019081526020015f20819055508273ffffffffffffffffffffffffffffffffffffffff163373ffffffffffffffffffffffffffffffffffffffff167f8c5be1e5ebec7d5bd14f71427d1e84f3dd0314c0f7b2291e5b200ac8c7c3b925846040516104149190611108565b60405180910390a36001905092915050565b60035481565b5f60045f8573ffffffffffffffffffffffffffffffffffffffff1673ffffffffffffffffffffffffffffffffffffffff1681526020019081526020015f20548211156104ad576040517f08c379a00000000000000000000000000000000000000000000000000000000081526004016104a4906112e0565b60405180910390fd5b60055f8573ffffffffffffffffffffffffffffffffffffffff1673ffffffffffffffffffffffffffffffffffffffff1681526020019081526020015f205f3373ffffffffffffffffffffffffffffffffffffffff1673ffffffffffffffffffffffffffffffffffffffff1681526020019081526020015f2054821115610568576040517f08c379a000000000000000000000000000000000000000000000000000000000815260040161055f90611348565b60405180910390fd5b8160045f8673ffffffffffffffffffffffffffffffffffffffff1673ffffffffffffffffffffffffffffffffffffffff1681526020019081526020015f205f8282546105b49190611393565b925050819055508160045f8573ffffffffffffffffffffffffffffffffffffffff1673ffffffffffffffffffffffffffffffffffffffff1681526020019081526020015f205f82825461060791906113c6565b925050819055508160055f8673ffffffffffffffffffffffffffffffffffffffff1673ffffffffffffffffffffffffffffffffffffffff1681526020019081526020015f205f3373ffffffffffffffffffffffffffffffffffffffff1673ffffffffffffffffffffffffffffffffffffffff1681526020019081526020015f205f8282546106959190611393565b925050819055508273ffffffffffffffffffffffffffffffffffffffff168473ffffffffffffffffffffffffffffffffffffffff167fddf252ad1be2c89b69c2b068fc378daa952ba7f163c4a11628f55a4df523b3ef846040516106f99190611108565b60405180910390a3600190509392505050565b60025f9054906101000a900460ff1681565b5f60045f3373ffffffffffffffffffffffffffffffffffffffff1673ffffffffffffffffffffffffffffffffffffffff1681526020019081526020015f205482111561079f576040517f08c379a0000000000000000000000000000000000000000000000000000000008152600401610796906112e0565b60405180910390fd5b8160045f3373ffffffffffffffffffffffffffffffffffffffff1673ffffffffffffffffffffffffffffffffffffffff1681526020019081526020015f205f8282546107eb9190611393565b925050819055508160065f3373ffffffffffffffffffffffffffffffffffffffff1673ffffffffffffffffffffffffffffffffffffffff1681526020019081526020015f205f82825461083e91906113c6565b9250508190555061084e33610bc3565b5f73ffffffffffffffffffffffffffffffffffffffff163373ffffffffffffffffffffffffffffffffffffffff167fddf252ad1be2c89b69c2b068fc378daa952ba7f163c4a11628f55a4df523b3ef846040516108ab9190611108565b60405180910390a360019050919050565b6004602052805f5260405f205f915090505481565b6007602052805f5260405f205f9150905080546108ed90611266565b80601f016020809104026020016040519081016040528092919081815260200182805461091990611266565b80156109645780601f1061093b57610100808354040283529160200191610964565b820191905f5260205f20905b81548152906001019060200180831161094757829003601f168201915b505050505081565b6001805461097990611266565b80601f01602080910402602001604051908101604052809291908181526020018280546109a590611266565b80156109f05780601f106109c7576101008083540402835291602001916109f0565b820191905f5260205f20905b8154815290600101906020018083116109d357829003601f168201915b505050505081565b5f8160045f3373ffffffffffffffffffffffffffffffffffffffff1673ffffffffffffffffffffffffffffffffffffffff1681526020019081526020015f20541015610a79576040517f08c379a0000000000000000000000000000000000000000000000000000000008152600401610a70906112e0565b60405180910390fd5b8160045f3373ffffffffffffffffffffffffffffffffffffffff1673ffffffffffffffffffffffffffffffffffffffff1681526020019081526020015f205f828254610ac59190611393565b925050819055508160045f8573ffffffffffffffffffffffffffffffffffffffff1673ffffffffffffffffffffffffffffffffffffffff1681526020019081526020015f205f828254610b1891906113c6565b925050819055508273ffffffffffffffffffffffffffffffffffffffff163373ffffffffffffffffffffffffffffffffffffffff167fddf252ad1be2c89b69c2b068fc378daa952ba7f163c4a11628f55a4df523b3ef84604051610b7c9190611108565b60405180910390a36001905092915050565b6006602052805f5260405f205f915090505481565b6005602052815f5260405f20602052805f5260405f205f91509150505481565b5f60065f8373ffffffffffffffffffffffffffffffffffffffff1673ffffffffffffffffffffffffffffffffffffffff1681526020019081526020015f2054905060025f9054906101000a900460ff1660ff16600a610c229190611528565b6064610c2e9190611572565b811015610cba576040518060400160405280600d81526020017f537061726b20537461727465720000000000000000000000000000000000000081525060075f8473ffffffffffffffffffffffffffffffffffffffff1673ffffffffffffffffffffffffffffffffffffffff1681526020019081526020015f209081610cb4919061177d565b50610f63565b60025f9054906101000a900460ff1660ff16600a610cd89190611528565b6101f4610ce59190611572565b811015610d71576040518060400160405280600d81526020017f466c616d652046616e617469630000000000000000000000000000000000000081525060075f8473ffffffffffffffffffffffffffffffffffffffff1673ffffffffffffffffffffffffffffffffffffffff1681526020019081526020015f209081610d6b919061177d565b50610f62565b60025f9054906101000a900460ff1660ff16600a610d8f9190611528565b6107d0610d9c9190611572565b811015610e28576040518060400160405280600d81526020017f426c617a65204272696e6765720000000000000000000000000000000000000081525060075f8473ffffffffffffffffffffffffffffffffffffffff1673ffffffffffffffffffffffffffffffffffffffff1681526020019081526020015f209081610e22919061177d565b50610f61565b60025f9054906101000a900460ff1660ff16600a610e469190611528565b611388610e539190611572565b811015610edf576040518060400160405280601081526020017f496e6665726e6f20496e6974696174650000000000000000000000000000000081525060075f8473ffffffffffffffffffffffffffffffffffffffff1673ffffffffffffffffffffffffffffffffffffffff1681526020019081526020015f209081610ed9919061177d565b50610f60565b6040518060400160405280600e81526020017f50686f656e6978204d617374657200000000000000000000000000000000000081525060075f8473ffffffffffffffffffffffffffffffffffffffff1673ffffffffffffffffffffffffffffffffffffffff1681526020019081526020015f209081610f5e919061177d565b505b5b5b5b5050565b5f81519050919050565b5f82825260208201905092915050565b8281835e5f83830152505050565b5f601f19601f8301169050919050565b5f610fa982610f67565b610fb38185610f71565b9350610fc3818560208601610f81565b610fcc81610f8f565b840191505092915050565b5f6020820190508181035f830152610fef8184610f9f565b905092915050565b5f80fd5b5f73ffffffffffffffffffffffffffffffffffffffff82169050919050565b5f61102482610ffb565b9050919050565b6110348161101a565b811461103e575f80fd5b50565b5f8135905061104f8161102b565b92915050565b5f819050919050565b61106781611055565b8114611071575f80fd5b50565b5f813590506110828161105e565b92915050565b5f806040838503121561109e5761109d610ff7565b5b5f6110ab85828601611041565b92505060206110bc85828601611074565b9150509250929050565b5f8115159050919050565b6110da816110c6565b82525050565b5f6020820190506110f35f8301846110d1565b92915050565b61110281611055565b82525050565b5f60208201905061111b5f8301846110f9565b92915050565b5f805f6060848603121561113857611137610ff7565b5b5f61114586828701611041565b935050602061115686828701611041565b925050604061116786828701611074565b9150509250925092565b5f60ff82169050919050565b61118681611171565b82525050565b5f60208201905061119f5f83018461117d565b92915050565b5f602082840312156111ba576111b9610ff7565b5b5f6111c784828501611074565b91505092915050565b5f602082840312156111e5576111e4610ff7565b5b5f6111f284828501611041565b91505092915050565b5f806040838503121561121157611210610ff7565b5b5f61121e85828601611041565b925050602061122f85828601611041565b9150509250929050565b7f4e487b71000000000000000000000000000000000000000000000000000000005f52602260045260245ffd5b5f600282049050600182168061127d57607f821691505b6020821081036112905761128f611239565b5b50919050565b7f496e73756666696369656e742062616c616e63650000000000000000000000005f82015250565b5f6112ca601483610f71565b91506112d582611296565b602082019050919050565b5f6020820190508181035f8301526112f7816112be565b9050919050565b7f416c6c6f77616e636520657863656564656400000000000000000000000000005f82015250565b5f611332601283610f71565b915061133d826112fe565b602082019050919050565b5f6020820190508181035f83015261135f81611326565b9050919050565b7f4e487b71000000000000000000000000000000000000000000000000000000005f52601160045260245ffd5b5f61139d82611055565b91506113a883611055565b92508282039050818111156113c0576113bf611366565b5b92915050565b5f6113d082611055565b91506113db83611055565b92508282019050808211156113f3576113f2611366565b5b92915050565b5f8160011c9050919050565b5f808291508390505b600185111561144e5780860481111561142a57611429611366565b5b60018516156114395780820291505b8081029050611447856113f9565b945061140e565b94509492505050565b5f826114665760019050611521565b81611473575f9050611521565b81600181146114895760028114611493576114c2565b6001915050611521565b60ff8411156114a5576114a4611366565b5b8360020a9150848211156114bc576114bb611366565b5b50611521565b5060208310610133831016604e8410600b84101617156114f75782820a9050838111156114f2576114f1611366565b5b611521565b6115048484846001611405565b9250905081840481111561151b5761151a611366565b5b81810290505b9392505050565b5f61153282611055565b915061153d83611055565b925061156a7fffffffffffffffffffffffffffffffffffffffffffffffffffffffffffffffff8484611457565b905092915050565b5f61157c82611055565b915061158783611055565b925082820261159581611055565b915082820484148315176115ac576115ab611366565b5b5092915050565b7f4e487b71000000000000000000000000000000000000000000000000000000005f52604160045260245ffd5b5f819050815f5260205f209050919050565b5f6020601f8301049050919050565b5f82821b905092915050565b5f6008830261163c7fffffffffffffffffffffffffffffffffffffffffffffffffffffffffffffffff82611601565b6116468683611601565b95508019841693508086168417925050509392505050565b5f819050919050565b5f61168161167c61167784611055565b61165e565b611055565b9050919050565b5f819050919050565b61169a83611667565b6116ae6116a682611688565b84845461160d565b825550505050565b5f90565b6116c26116b6565b6116cd818484611691565b505050565b5b818110156116f0576116e55f826116ba565b6001810190506116d3565b5050565b601f82111561173557611706816115e0565b61170f846115f2565b8101602085101561171e578190505b61173261172a856115f2565b8301826116d2565b50505b505050565b5f82821c905092915050565b5f6117555f198460080261173a565b1980831691505092915050565b5f61176d8383611746565b9150826002028217905092915050565b61178682610f67565b67ffffffffffffffff81111561179f5761179e6115b3565b5b6117a98254611266565b6117b48282856116f4565b5f60209050601f8311600181146117e5575f84156117d3578287015190505b6117dd8582611762565b865550611844565b601f1984166117f3866115e0565b5f5b8281101561181a578489015182556001820191506020850194506020810190506117f5565b868310156118375784890151611833601f891682611746565b8355505b6001600288020188555050505b50505050505056fea264697066735822122078e344c6f699d3b4e9fcd89fd6bcc71e38870a26bca1f18564191e5edbd669dd64736f6c63430008190033",
					"opcodes": "PUSH1 0x80 PUSH1 0x40 MSTORE CALLVALUE DUP1 ISZERO PUSH2 0xF JUMPI PUSH0 DUP1 REVERT JUMPDEST POP PUSH1 0x40 MLOAD PUSH2 0x2073 CODESIZE SUB DUP1 PUSH2 0x2073 DUP4 CODECOPY DUP2 DUP2 ADD PUSH1 0x40 MSTORE DUP2 ADD SWAP1 PUSH2 0x31 SWAP2 SWAP1 PUSH2 0x28E JUMP JUMPDEST DUP4 PUSH0 SWAP1 DUP2 PUSH2 0x3F SWAP2 SWAP1 PUSH2 0x52E JUMP JUMPDEST POP DUP3 PUSH1 0x1 SWAP1 DUP2 PUSH2 0x4F SWAP2 SWAP1 PUSH2 0x52E JUMP JUMPDEST POP DUP2 PUSH1 0x2 PUSH0 PUSH2 0x100 EXP DUP2 SLOAD DUP2 PUSH1 0xFF MUL NOT AND SWAP1 DUP4 PUSH1 0xFF AND MUL OR SWAP1 SSTORE POP DUP2 PUSH1 0xFF AND PUSH1 0xA PUSH2 0x7A SWAP2 SWAP1 PUSH2 0x759 JUMP JUMPDEST DUP2 PUSH2 0x85 SWAP2 SWAP1 PUSH2 0x7A3 JUMP JUMPDEST PUSH1 0x3 DUP2 SWAP1 SSTORE POP PUSH1 0x3 SLOAD PUSH1 0x4 PUSH0 CALLER PUSH20 0xFFFFFFFFFFFFFFFFFFFFFFFFFFFFFFFFFFFFFFFF AND PUSH20 0xFFFFFFFFFFFFFFFFFFFFFFFFFFFFFFFFFFFFFFFF AND DUP2 MSTORE PUSH1 0x20 ADD SWAP1 DUP2 MSTORE PUSH1 0x20 ADD PUSH0 KECCAK256 DUP2 SWAP1 SSTORE POP POP POP POP POP PUSH2 0x7E4 JUMP JUMPDEST PUSH0 PUSH1 0x40 MLOAD SWAP1 POP SWAP1 JUMP JUMPDEST PUSH0 DUP1 REVERT JUMPDEST PUSH0 DUP1 REVERT JUMPDEST PUSH0 DUP1 REVERT JUMPDEST PUSH0 DUP1 REVERT JUMPDEST PUSH0 PUSH1 0x1F NOT PUSH1 0x1F DUP4 ADD AND SWAP1 POP SWAP2 SWAP1 POP JUMP JUMPDEST PUSH32 0x4E487B7100000000000000000000000000000000000000000000000000000000 PUSH0 MSTORE PUSH1 0x41 PUSH1 0x4 MSTORE PUSH1 0x24 PUSH0 REVERT JUMPDEST PUSH2 0x137 DUP3 PUSH2 0xF1 JUMP JUMPDEST DUP2 ADD DUP2 DUP2 LT PUSH8 0xFFFFFFFFFFFFFFFF DUP3 GT OR ISZERO PUSH2 0x156 JUMPI PUSH2 0x155 PUSH2 0x101 JUMP JUMPDEST JUMPDEST DUP1 PUSH1 0x40 MSTORE POP POP POP JUMP JUMPDEST PUSH0 PUSH2 0x168 PUSH2 0xD8 JUMP JUMPDEST SWAP1 POP PUSH2 0x174 DUP3 DUP3 PUSH2 0x12E JUMP JUMPDEST SWAP2 SWAP1 POP JUMP JUMPDEST PUSH0 PUSH8 0xFFFFFFFFFFFFFFFF DUP3 GT ISZERO PUSH2 0x193 JUMPI PUSH2 0x192 PUSH2 0x101 JUMP JUMPDEST JUMPDEST PUSH2 0x19C DUP3 PUSH2 0xF1 JUMP JUMPDEST SWAP1 POP PUSH1 0x20 DUP2 ADD SWAP1 POP SWAP2 SWAP1 POP JUMP JUMPDEST DUP3 DUP2 DUP4 MCOPY PUSH0 DUP4 DUP4 ADD MSTORE POP POP POP JUMP JUMPDEST PUSH0 PUSH2 0x1C9 PUSH2 0x1C4 DUP5 PUSH2 0x179 JUMP JUMPDEST PUSH2 0x15F JUMP JUMPDEST SWAP1 POP DUP3 DUP2 MSTORE PUSH1 0x20 DUP2 ADD DUP5 DUP5 DUP5 ADD GT ISZERO PUSH2 0x1E5 JUMPI PUSH2 0x1E4 PUSH2 0xED JUMP JUMPDEST JUMPDEST PUSH2 0x1F0 DUP5 DUP3 DUP6 PUSH2 0x1A9 JUMP JUMPDEST POP SWAP4 SWAP3 POP POP POP JUMP JUMPDEST PUSH0 DUP3 PUSH1 0x1F DUP4 ADD SLT PUSH2 0x20C JUMPI PUSH2 0x20B PUSH2 0xE9 JUMP JUMPDEST JUMPDEST DUP2 MLOAD PUSH2 0x21C DUP5 DUP3 PUSH1 0x20 DUP7 ADD PUSH2 0x1B7 JUMP JUMPDEST SWAP2 POP POP SWAP3 SWAP2 POP POP JUMP JUMPDEST PUSH0 PUSH1 0xFF DUP3 AND SWAP1 POP SWAP2 SWAP1 POP JUMP JUMPDEST PUSH2 0x23A DUP2 PUSH2 0x225 JUMP JUMPDEST DUP2 EQ PUSH2 0x244 JUMPI PUSH0 DUP1 REVERT JUMPDEST POP JUMP JUMPDEST PUSH0 DUP2 MLOAD SWAP1 POP PUSH2 0x255 DUP2 PUSH2 0x231 JUMP JUMPDEST SWAP3 SWAP2 POP POP JUMP JUMPDEST PUSH0 DUP2 SWAP1 POP SWAP2 SWAP1 POP JUMP JUMPDEST PUSH2 0x26D DUP2 PUSH2 0x25B JUMP JUMPDEST DUP2 EQ PUSH2 0x277 JUMPI PUSH0 DUP1 REVERT JUMPDEST POP JUMP JUMPDEST PUSH0 DUP2 MLOAD SWAP1 POP PUSH2 0x288 DUP2 PUSH2 0x264 JUMP JUMPDEST SWAP3 SWAP2 POP POP JUMP JUMPDEST PUSH0 DUP1 PUSH0 DUP1 PUSH1 0x80 DUP6 DUP8 SUB SLT ISZERO PUSH2 0x2A6 JUMPI PUSH2 0x2A5 PUSH2 0xE1 JUMP JUMPDEST JUMPDEST PUSH0 DUP6 ADD MLOAD PUSH8 0xFFFFFFFFFFFFFFFF DUP2 GT ISZERO PUSH2 0x2C3 JUMPI PUSH2 0x2C2 PUSH2 0xE5 JUMP JUMPDEST JUMPDEST PUSH2 0x2CF DUP8 DUP3 DUP9 ADD PUSH2 0x1F8 JUMP JUMPDEST SWAP5 POP POP PUSH1 0x20 DUP6 ADD MLOAD PUSH8 0xFFFFFFFFFFFFFFFF DUP2 GT ISZERO PUSH2 0x2F0 JUMPI PUSH2 0x2EF PUSH2 0xE5 JUMP JUMPDEST JUMPDEST PUSH2 0x2FC DUP8 DUP3 DUP9 ADD PUSH2 0x1F8 JUMP JUMPDEST SWAP4 POP POP PUSH1 0x40 PUSH2 0x30D DUP8 DUP3 DUP9 ADD PUSH2 0x247 JUMP JUMPDEST SWAP3 POP POP PUSH1 0x60 PUSH2 0x31E DUP8 DUP3 DUP9 ADD PUSH2 0x27A JUMP JUMPDEST SWAP2 POP POP SWAP3 SWAP6 SWAP2 SWAP5 POP SWAP3 POP JUMP JUMPDEST PUSH0 DUP2 MLOAD SWAP1 POP SWAP2 SWAP1 POP JUMP JUMPDEST PUSH32 0x4E487B7100000000000000000000000000000000000000000000000000000000 PUSH0 MSTORE PUSH1 0x22 PUSH1 0x4 MSTORE PUSH1 0x24 PUSH0 REVERT JUMPDEST PUSH0 PUSH1 0x2 DUP3 DIV SWAP1 POP PUSH1 0x1 DUP3 AND DUP1 PUSH2 0x378 JUMPI PUSH1 0x7F DUP3 AND SWAP2 POP JUMPDEST PUSH1 0x20 DUP3 LT DUP2 SUB PUSH2 0x38B JUMPI PUSH2 0x38A PUSH2 0x334 JUMP JUMPDEST JUMPDEST POP SWAP2 SWAP1 POP JUMP JUMPDEST PUSH0 DUP2 SWAP1 POP DUP2 PUSH0 MSTORE PUSH1 0x20 PUSH0 KECCAK256 SWAP1 POP SWAP2 SWAP1 POP JUMP JUMPDEST PUSH0 PUSH1 0x20 PUSH1 0x1F DUP4 ADD DIV SWAP1 POP SWAP2 SWAP1 POP JUMP JUMPDEST PUSH0 DUP3 DUP3 SHL SWAP1 POP SWAP3 SWAP2 POP POP JUMP JUMPDEST PUSH0 PUSH1 0x8 DUP4 MUL PUSH2 0x3ED PUSH32 0xFFFFFFFFFFFFFFFFFFFFFFFFFFFFFFFFFFFFFFFFFFFFFFFFFFFFFFFFFFFFFFFF DUP3 PUSH2 0x3B2 JUMP JUMPDEST PUSH2 0x3F7 DUP7 DUP4 PUSH2 0x3B2 JUMP JUMPDEST SWAP6 POP DUP1 NOT DUP5 AND SWAP4 POP DUP1 DUP7 AND DUP5 OR SWAP3 POP POP POP SWAP4 SWAP3 POP POP POP JUMP JUMPDEST PUSH0 DUP2 SWAP1 POP SWAP2 SWAP1 POP JUMP JUMPDEST PUSH0 PUSH2 0x432 PUSH2 0x42D PUSH2 0x428 DUP5 PUSH2 0x25B JUMP JUMPDEST PUSH2 0x40F JUMP JUMPDEST PUSH2 0x25B JUMP JUMPDEST SWAP1 POP SWAP2 SWAP1 POP JUMP JUMPDEST PUSH0 DUP2 SWAP1 POP SWAP2 SWAP1 POP JUMP JUMPDEST PUSH2 0x44B DUP4 PUSH2 0x418 JUMP JUMPDEST PUSH2 0x45F PUSH2 0x457 DUP3 PUSH2 0x439 JUMP JUMPDEST DUP5 DUP5 SLOAD PUSH2 0x3BE JUMP JUMPDEST DUP3 SSTORE POP POP POP POP JUMP JUMPDEST PUSH0 SWAP1 JUMP JUMPDEST PUSH2 0x473 PUSH2 0x467 JUMP JUMPDEST PUSH2 0x47E DUP2 DUP5 DUP5 PUSH2 0x442 JUMP JUMPDEST POP POP POP JUMP JUMPDEST JUMPDEST DUP2 DUP2 LT ISZERO PUSH2 0x4A1 JUMPI PUSH2 0x496 PUSH0 DUP3 PUSH2 0x46B JUMP JUMPDEST PUSH1 0x1 DUP2 ADD SWAP1 POP PUSH2 0x484 JUMP JUMPDEST POP POP JUMP JUMPDEST PUSH1 0x1F DUP3 GT ISZERO PUSH2 0x4E6 JUMPI PUSH2 0x4B7 DUP2 PUSH2 0x391 JUMP JUMPDEST PUSH2 0x4C0 DUP5 PUSH2 0x3A3 JUMP JUMPDEST DUP2 ADD PUSH1 0x20 DUP6 LT ISZERO PUSH2 0x4CF JUMPI DUP2 SWAP1 POP JUMPDEST PUSH2 0x4E3 PUSH2 0x4DB DUP6 PUSH2 0x3A3 JUMP JUMPDEST DUP4 ADD DUP3 PUSH2 0x483 JUMP JUMPDEST POP POP JUMPDEST POP POP POP JUMP JUMPDEST PUSH0 DUP3 DUP3 SHR SWAP1 POP SWAP3 SWAP2 POP POP JUMP JUMPDEST PUSH0 PUSH2 0x506 PUSH0 NOT DUP5 PUSH1 0x8 MUL PUSH2 0x4EB JUMP JUMPDEST NOT DUP1 DUP4 AND SWAP2 POP POP SWAP3 SWAP2 POP POP JUMP JUMPDEST PUSH0 PUSH2 0x51E DUP4 DUP4 PUSH2 0x4F7 JUMP JUMPDEST SWAP2 POP DUP3 PUSH1 0x2 MUL DUP3 OR SWAP1 POP SWAP3 SWAP2 POP POP JUMP JUMPDEST PUSH2 0x537 DUP3 PUSH2 0x32A JUMP JUMPDEST PUSH8 0xFFFFFFFFFFFFFFFF DUP2 GT ISZERO PUSH2 0x550 JUMPI PUSH2 0x54F PUSH2 0x101 JUMP JUMPDEST JUMPDEST PUSH2 0x55A DUP3 SLOAD PUSH2 0x361 JUMP JUMPDEST PUSH2 0x565 DUP3 DUP3 DUP6 PUSH2 0x4A5 JUMP JUMPDEST PUSH0 PUSH1 0x20 SWAP1 POP PUSH1 0x1F DUP4 GT PUSH1 0x1 DUP2 EQ PUSH2 0x596 JUMPI PUSH0 DUP5 ISZERO PUSH2 0x584 JUMPI DUP3 DUP8 ADD MLOAD SWAP1 POP JUMPDEST PUSH2 0x58E DUP6 DUP3 PUSH2 0x513 JUMP JUMPDEST DUP7 SSTORE POP PUSH2 0x5F5 JUMP JUMPDEST PUSH1 0x1F NOT DUP5 AND PUSH2 0x5A4 DUP7 PUSH2 0x391 JUMP JUMPDEST PUSH0 JUMPDEST DUP3 DUP2 LT ISZERO PUSH2 0x5CB JUMPI DUP5 DUP10 ADD MLOAD DUP3 SSTORE PUSH1 0x1 DUP3 ADD SWAP2 POP PUSH1 0x20 DUP6 ADD SWAP5 POP PUSH1 0x20 DUP2 ADD SWAP1 POP PUSH2 0x5A6 JUMP JUMPDEST DUP7 DUP4 LT ISZERO PUSH2 0x5E8 JUMPI DUP5 DUP10 ADD MLOAD PUSH2 0x5E4 PUSH1 0x1F DUP10 AND DUP3 PUSH2 0x4F7 JUMP JUMPDEST DUP4 SSTORE POP JUMPDEST PUSH1 0x1 PUSH1 0x2 DUP9 MUL ADD DUP9 SSTORE POP POP POP JUMPDEST POP POP POP POP POP POP JUMP JUMPDEST PUSH32 0x4E487B7100000000000000000000000000000000000000000000000000000000 PUSH0 MSTORE PUSH1 0x11 PUSH1 0x4 MSTORE PUSH1 0x24 PUSH0 REVERT JUMPDEST PUSH0 DUP2 PUSH1 0x1 SHR SWAP1 POP SWAP2 SWAP1 POP JUMP JUMPDEST PUSH0 DUP1 DUP3 SWAP2 POP DUP4 SWAP1 POP JUMPDEST PUSH1 0x1 DUP6 GT ISZERO PUSH2 0x67F JUMPI DUP1 DUP7 DIV DUP2 GT ISZERO PUSH2 0x65B JUMPI PUSH2 0x65A PUSH2 0x5FD JUMP JUMPDEST JUMPDEST PUSH1 0x1 DUP6 AND ISZERO PUSH2 0x66A JUMPI DUP1 DUP3 MUL SWAP2 POP JUMPDEST DUP1 DUP2 MUL SWAP1 POP PUSH2 0x678 DUP6 PUSH2 0x62A JUMP JUMPDEST SWAP5 POP PUSH2 0x63F JUMP JUMPDEST SWAP5 POP SWAP5 SWAP3 POP POP POP JUMP JUMPDEST PUSH0 DUP3 PUSH2 0x697 JUMPI PUSH1 0x1 SWAP1 POP PUSH2 0x752 JUMP JUMPDEST DUP2 PUSH2 0x6A4 JUMPI PUSH0 SWAP1 POP PUSH2 0x752 JUMP JUMPDEST DUP2 PUSH1 0x1 DUP2 EQ PUSH2 0x6BA JUMPI PUSH1 0x2 DUP2 EQ PUSH2 0x6C4 JUMPI PUSH2 0x6F3 JUMP JUMPDEST PUSH1 0x1 SWAP2 POP POP PUSH2 0x752 JUMP JUMPDEST PUSH1 0xFF DUP5 GT ISZERO PUSH2 0x6D6 JUMPI PUSH2 0x6D5 PUSH2 0x5FD JUMP JUMPDEST JUMPDEST DUP4 PUSH1 0x2 EXP SWAP2 POP DUP5 DUP3 GT ISZERO PUSH2 0x6ED JUMPI PUSH2 0x6EC PUSH2 0x5FD JUMP JUMPDEST JUMPDEST POP PUSH2 0x752 JUMP JUMPDEST POP PUSH1 0x20 DUP4 LT PUSH2 0x133 DUP4 LT AND PUSH1 0x4E DUP5 LT PUSH1 0xB DUP5 LT AND OR ISZERO PUSH2 0x728 JUMPI DUP3 DUP3 EXP SWAP1 POP DUP4 DUP2 GT ISZERO PUSH2 0x723 JUMPI PUSH2 0x722 PUSH2 0x5FD JUMP JUMPDEST JUMPDEST PUSH2 0x752 JUMP JUMPDEST PUSH2 0x735 DUP5 DUP5 DUP5 PUSH1 0x1 PUSH2 0x636 JUMP JUMPDEST SWAP3 POP SWAP1 POP DUP2 DUP5 DIV DUP2 GT ISZERO PUSH2 0x74C JUMPI PUSH2 0x74B PUSH2 0x5FD JUMP JUMPDEST JUMPDEST DUP2 DUP2 MUL SWAP1 POP JUMPDEST SWAP4 SWAP3 POP POP POP JUMP JUMPDEST PUSH0 PUSH2 0x763 DUP3 PUSH2 0x25B JUMP JUMPDEST SWAP2 POP PUSH2 0x76E DUP4 PUSH2 0x25B JUMP JUMPDEST SWAP3 POP PUSH2 0x79B PUSH32 0xFFFFFFFFFFFFFFFFFFFFFFFFFFFFFFFFFFFFFFFFFFFFFFFFFFFFFFFFFFFFFFFF DUP5 DUP5 PUSH2 0x688 JUMP JUMPDEST SWAP1 POP SWAP3 SWAP2 POP POP JUMP JUMPDEST PUSH0 PUSH2 0x7AD DUP3 PUSH2 0x25B JUMP JUMPDEST SWAP2 POP PUSH2 0x7B8 DUP4 PUSH2 0x25B JUMP JUMPDEST SWAP3 POP DUP3 DUP3 MUL PUSH2 0x7C6 DUP2 PUSH2 0x25B JUMP JUMPDEST SWAP2 POP DUP3 DUP3 DIV DUP5 EQ DUP4 ISZERO OR PUSH2 0x7DD JUMPI PUSH2 0x7DC PUSH2 0x5FD JUMP JUMPDEST JUMPDEST POP SWAP3 SWAP2 POP POP JUMP JUMPDEST PUSH2 0x1882 DUP1 PUSH2 0x7F1 PUSH0 CODECOPY PUSH0 RETURN INVALID PUSH1 0x80 PUSH1 0x40 MSTORE CALLVALUE DUP1 ISZERO PUSH2 0xF JUMPI PUSH0 DUP1 REVERT JUMPDEST POP PUSH1 0x4 CALLDATASIZE LT PUSH2 0xB2 JUMPI PUSH0 CALLDATALOAD PUSH1 0xE0 SHR DUP1 PUSH4 0x70A08231 GT PUSH2 0x6F JUMPI DUP1 PUSH4 0x70A08231 EQ PUSH2 0x1A0 JUMPI DUP1 PUSH4 0x88E179C7 EQ PUSH2 0x1D0 JUMPI DUP1 PUSH4 0x95D89B41 EQ PUSH2 0x200 JUMPI DUP1 PUSH4 0xA9059CBB EQ PUSH2 0x21E JUMPI DUP1 PUSH4 0xD8194C88 EQ PUSH2 0x24E JUMPI DUP1 PUSH4 0xDD62ED3E EQ PUSH2 0x27E JUMPI PUSH2 0xB2 JUMP JUMPDEST DUP1 PUSH4 0x6FDDE03 EQ PUSH2 0xB6 JUMPI DUP1 PUSH4 0x95EA7B3 EQ PUSH2 0xD4 JUMPI DUP1 PUSH4 0x18160DDD EQ PUSH2 0x104 JUMPI DUP1 PUSH4 0x23B872DD EQ PUSH2 0x122 JUMPI DUP1 PUSH4 0x313CE567 EQ PUSH2 0x152 JUMPI DUP1 PUSH4 0x39451A88 EQ PUSH2 0x170 JUMPI JUMPDEST PUSH0 DUP1 REVERT JUMPDEST PUSH2 0xBE PUSH2 0x2AE JUMP JUMPDEST PUSH1 0x40 MLOAD PUSH2 0xCB SWAP2 SWAP1 PUSH2 0xFD7 JUMP JUMPDEST PUSH1 0x40 MLOAD DUP1 SWAP2 SUB SWAP1 RETURN JUMPDEST PUSH2 0xEE PUSH1 0x4 DUP1 CALLDATASIZE SUB DUP2 ADD SWAP1 PUSH2 0xE9 SWAP2 SWAP1 PUSH2 0x1088 JUMP JUMPDEST PUSH2 0x339 JUMP JUMPDEST PUSH1 0x40 MLOAD PUSH2 0xFB SWAP2 SWAP1 PUSH2 0x10E0 JUMP JUMPDEST PUSH1 0x40 MLOAD DUP1 SWAP2 SUB SWAP1 RETURN JUMPDEST PUSH2 0x10C PUSH2 0x426 JUMP JUMPDEST PUSH1 0x40 MLOAD PUSH2 0x119 SWAP2 SWAP1 PUSH2 0x1108 JUMP JUMPDEST PUSH1 0x40 MLOAD DUP1 SWAP2 SUB SWAP1 RETURN JUMPDEST PUSH2 0x13C PUSH1 0x4 DUP1 CALLDATASIZE SUB DUP2 ADD SWAP1 PUSH2 0x137 SWAP2 SWAP1 PUSH2 0x1121 JUMP JUMPDEST PUSH2 0x42C JUMP JUMPDEST PUSH1 0x40 MLOAD PUSH2 0x149 SWAP2 SWAP1 PUSH2 0x10E0 JUMP JUMPDEST PUSH1 0x40 MLOAD DUP1 SWAP2 SUB SWAP1 RETURN JUMPDEST PUSH2 0x15A PUSH2 0x70C JUMP JUMPDEST PUSH1 0x40 MLOAD PUSH2 0x167 SWAP2 SWAP1 PUSH2 0x118C JUMP JUMPDEST PUSH1 0x40 MLOAD DUP1 SWAP2 SUB SWAP1 RETURN JUMPDEST PUSH2 0x18A PUSH1 0x4 DUP1 CALLDATASIZE SUB DUP2 ADD SWAP1 PUSH2 0x185 SWAP2 SWAP1 PUSH2 0x11A5 JUMP JUMPDEST PUSH2 0x71E JUMP JUMPDEST PUSH1 0x40 MLOAD PUSH2 0x197 SWAP2 SWAP1 PUSH2 0x10E0 JUMP JUMPDEST PUSH1 0x40 MLOAD DUP1 SWAP2 SUB SWAP1 RETURN JUMPDEST PUSH2 0x1BA PUSH1 0x4 DUP1 CALLDATASIZE SUB DUP2 ADD SWAP1 PUSH2 0x1B5 SWAP2 SWAP1 PUSH2 0x11D0 JUMP JUMPDEST PUSH2 0x8BC JUMP JUMPDEST PUSH1 0x40 MLOAD PUSH2 0x1C7 SWAP2 SWAP1 PUSH2 0x1108 JUMP JUMPDEST PUSH1 0x40 MLOAD DUP1 SWAP2 SUB SWAP1 RETURN JUMPDEST PUSH2 0x1EA PUSH1 0x4 DUP1 CALLDATASIZE SUB DUP2 ADD SWAP1 PUSH2 0x1E5 SWAP2 SWAP1 PUSH2 0x11D0 JUMP JUMPDEST PUSH2 0x8D1 JUMP JUMPDEST PUSH1 0x40 MLOAD PUSH2 0x1F7 SWAP2 SWAP1 PUSH2 0xFD7 JUMP JUMPDEST PUSH1 0x40 MLOAD DUP1 SWAP2 SUB SWAP1 RETURN JUMPDEST PUSH2 0x208 PUSH2 0x96C JUMP JUMPDEST PUSH1 0x40 MLOAD PUSH2 0x215 SWAP2 SWAP1 PUSH2 0xFD7 JUMP JUMPDEST PUSH1 0x40 MLOAD DUP1 SWAP2 SUB SWAP1 RETURN JUMPDEST PUSH2 0x238 PUSH1 0x4 DUP1 CALLDATASIZE SUB DUP2 ADD SWAP1 PUSH2 0x233 SWAP2 SWAP1 PUSH2 0x1088 JUMP JUMPDEST PUSH2 0x9F8 JUMP JUMPDEST PUSH1 0x40 MLOAD PUSH2 0x245 SWAP2 SWAP1 PUSH2 0x10E0 JUMP JUMPDEST PUSH1 0x40 MLOAD DUP1 SWAP2 SUB SWAP1 RETURN JUMPDEST PUSH2 0x268 PUSH1 0x4 DUP1 CALLDATASIZE SUB DUP2 ADD SWAP1 PUSH2 0x263 SWAP2 SWAP1 PUSH2 0x11D0 JUMP JUMPDEST PUSH2 0xB8E JUMP JUMPDEST PUSH1 0x40 MLOAD PUSH2 0x275 SWAP2 SWAP1 PUSH2 0x1108 JUMP JUMPDEST PUSH1 0x40 MLOAD DUP1 SWAP2 SUB SWAP1 RETURN JUMPDEST PUSH2 0x298 PUSH1 0x4 DUP1 CALLDATASIZE SUB DUP2 ADD SWAP1 PUSH2 0x293 SWAP2 SWAP1 PUSH2 0x11FB JUMP JUMPDEST PUSH2 0xBA3 JUMP JUMPDEST PUSH1 0x40 MLOAD PUSH2 0x2A5 SWAP2 SWAP1 PUSH2 0x1108 JUMP JUMPDEST PUSH1 0x40 MLOAD DUP1 SWAP2 SUB SWAP1 RETURN JUMPDEST PUSH0 DUP1 SLOAD PUSH2 0x2BA SWAP1 PUSH2 0x1266 JUMP JUMPDEST DUP1 PUSH1 0x1F ADD PUSH1 0x20 DUP1 SWAP2 DIV MUL PUSH1 0x20 ADD PUSH1 0x40 MLOAD SWAP1 DUP2 ADD PUSH1 0x40 MSTORE DUP1 SWAP3 SWAP2 SWAP1 DUP2 DUP2 MSTORE PUSH1 0x20 ADD DUP3 DUP1 SLOAD PUSH2 0x2E6 SWAP1 PUSH2 0x1266 JUMP JUMPDEST DUP1 ISZERO PUSH2 0x331 JUMPI DUP1 PUSH1 0x1F LT PUSH2 0x308 JUMPI PUSH2 0x100 DUP1 DUP4 SLOAD DIV MUL DUP4 MSTORE SWAP2 PUSH1 0x20 ADD SWAP2 PUSH2 0x331 JUMP JUMPDEST DUP3 ADD SWAP2 SWAP1 PUSH0 MSTORE PUSH1 0x20 PUSH0 KECCAK256 SWAP1 JUMPDEST DUP2 SLOAD DUP2 MSTORE SWAP1 PUSH1 0x1 ADD SWAP1 PUSH1 0x20 ADD DUP1 DUP4 GT PUSH2 0x314 JUMPI DUP3 SWAP1 SUB PUSH1 0x1F AND DUP3 ADD SWAP2 JUMPDEST POP POP POP POP POP DUP2 JUMP JUMPDEST PUSH0 DUP2 PUSH1 0x5 PUSH0 CALLER PUSH20 0xFFFFFFFFFFFFFFFFFFFFFFFFFFFFFFFFFFFFFFFF AND PUSH20 0xFFFFFFFFFFFFFFFFFFFFFFFFFFFFFFFFFFFFFFFF AND DUP2 MSTORE PUSH1 0x20 ADD SWAP1 DUP2 MSTORE PUSH1 0x20 ADD PUSH0 KECCAK256 PUSH0 DUP6 PUSH20 0xFFFFFFFFFFFFFFFFFFFFFFFFFFFFFFFFFFFFFFFF AND PUSH20 0xFFFFFFFFFFFFFFFFFFFFFFFFFFFFFFFFFFFFFFFF AND DUP2 MSTORE PUSH1 0x20 ADD SWAP1 DUP2 MSTORE PUSH1 0x20 ADD PUSH0 KECCAK256 DUP2 SWAP1 SSTORE POP DUP3 PUSH20 0xFFFFFFFFFFFFFFFFFFFFFFFFFFFFFFFFFFFFFFFF AND CALLER PUSH20 0xFFFFFFFFFFFFFFFFFFFFFFFFFFFFFFFFFFFFFFFF AND PUSH32 0x8C5BE1E5EBEC7D5BD14F71427D1E84F3DD0314C0F7B2291E5B200AC8C7C3B925 DUP5 PUSH1 0x40 MLOAD PUSH2 0x414 SWAP2 SWAP1 PUSH2 0x1108 JUMP JUMPDEST PUSH1 0x40 MLOAD DUP1 SWAP2 SUB SWAP1 LOG3 PUSH1 0x1 SWAP1 POP SWAP3 SWAP2 POP POP JUMP JUMPDEST PUSH1 0x3 SLOAD DUP2 JUMP JUMPDEST PUSH0 PUSH1 0x4 PUSH0 DUP6 PUSH20 0xFFFFFFFFFFFFFFFFFFFFFFFFFFFFFFFFFFFFFFFF AND PUSH20 0xFFFFFFFFFFFFFFFFFFFFFFFFFFFFFFFFFFFFFFFF AND DUP2 MSTORE PUSH1 0x20 ADD SWAP1 DUP2 MSTORE PUSH1 0x20 ADD PUSH0 KECCAK256 SLOAD DUP3 GT ISZERO PUSH2 0x4AD JUMPI PUSH1 0x40 MLOAD PUSH32 0x8C379A000000000000000000000000000000000000000000000000000000000 DUP2 MSTORE PUSH1 0x4 ADD PUSH2 0x4A4 SWAP1 PUSH2 0x12E0 JUMP JUMPDEST PUSH1 0x40 MLOAD DUP1 SWAP2 SUB SWAP1 REVERT JUMPDEST PUSH1 0x5 PUSH0 DUP6 PUSH20 0xFFFFFFFFFFFFFFFFFFFFFFFFFFFFFFFFFFFFFFFF AND PUSH20 0xFFFFFFFFFFFFFFFFFFFFFFFFFFFFFFFFFFFFFFFF AND DUP2 MSTORE PUSH1 0x20 ADD SWAP1 DUP2 MSTORE PUSH1 0x20 ADD PUSH0 KECCAK256 PUSH0 CALLER PUSH20 0xFFFFFFFFFFFFFFFFFFFFFFFFFFFFFFFFFFFFFFFF AND PUSH20 0xFFFFFFFFFFFFFFFFFFFFFFFFFFFFFFFFFFFFFFFF AND DUP2 MSTORE PUSH1 0x20 ADD SWAP1 DUP2 MSTORE PUSH1 0x20 ADD PUSH0 KECCAK256 SLOAD DUP3 GT ISZERO PUSH2 0x568 JUMPI PUSH1 0x40 MLOAD PUSH32 0x8C379A000000000000000000000000000000000000000000000000000000000 DUP2 MSTORE PUSH1 0x4 ADD PUSH2 0x55F SWAP1 PUSH2 0x1348 JUMP JUMPDEST PUSH1 0x40 MLOAD DUP1 SWAP2 SUB SWAP1 REVERT JUMPDEST DUP2 PUSH1 0x4 PUSH0 DUP7 PUSH20 0xFFFFFFFFFFFFFFFFFFFFFFFFFFFFFFFFFFFFFFFF AND PUSH20 0xFFFFFFFFFFFFFFFFFFFFFFFFFFFFFFFFFFFFFFFF AND DUP2 MSTORE PUSH1 0x20 ADD SWAP1 DUP2 MSTORE PUSH1 0x20 ADD PUSH0 KECCAK256 PUSH0 DUP3 DUP3 SLOAD PUSH2 0x5B4 SWAP2 SWAP1 PUSH2 0x1393 JUMP JUMPDEST SWAP3 POP POP DUP2 SWAP1 SSTORE POP DUP2 PUSH1 0x4 PUSH0 DUP6 PUSH20 0xFFFFFFFFFFFFFFFFFFFFFFFFFFFFFFFFFFFFFFFF AND PUSH20 0xFFFFFFFFFFFFFFFFFFFFFFFFFFFFFFFFFFFFFFFF AND DUP2 MSTORE PUSH1 0x20 ADD SWAP1 DUP2 MSTORE PUSH1 0x20 ADD PUSH0 KECCAK256 PUSH0 DUP3 DUP3 SLOAD PUSH2 0x607 SWAP2 SWAP1 PUSH2 0x13C6 JUMP JUMPDEST SWAP3 POP POP DUP2 SWAP1 SSTORE POP DUP2 PUSH1 0x5 PUSH0 DUP7 PUSH20 0xFFFFFFFFFFFFFFFFFFFFFFFFFFFFFFFFFFFFFFFF AND PUSH20 0xFFFFFFFFFFFFFFFFFFFFFFFFFFFFFFFFFFFFFFFF AND DUP2 MSTORE PUSH1 0x20 ADD SWAP1 DUP2 MSTORE PUSH1 0x20 ADD PUSH0 KECCAK256 PUSH0 CALLER PUSH20 0xFFFFFFFFFFFFFFFFFFFFFFFFFFFFFFFFFFFFFFFF AND PUSH20 0xFFFFFFFFFFFFFFFFFFFFFFFFFFFFFFFFFFFFFFFF AND DUP2 MSTORE PUSH1 0x20 ADD SWAP1 DUP2 MSTORE PUSH1 0x20 ADD PUSH0 KECCAK256 PUSH0 DUP3 DUP3 SLOAD PUSH2 0x695 SWAP2 SWAP1 PUSH2 0x1393 JUMP JUMPDEST SWAP3 POP POP DUP2 SWAP1 SSTORE POP DUP3 PUSH20 0xFFFFFFFFFFFFFFFFFFFFFFFFFFFFFFFFFFFFFFFF AND DUP5 PUSH20 0xFFFFFFFFFFFFFFFFFFFFFFFFFFFFFFFFFFFFFFFF AND PUSH32 0xDDF252AD1BE2C89B69C2B068FC378DAA952BA7F163C4A11628F55A4DF523B3EF DUP5 PUSH1 0x40 MLOAD PUSH2 0x6F9 SWAP2 SWAP1 PUSH2 0x1108 JUMP JUMPDEST PUSH1 0x40 MLOAD DUP1 SWAP2 SUB SWAP1 LOG3 PUSH1 0x1 SWAP1 POP SWAP4 SWAP3 POP POP POP JUMP JUMPDEST PUSH1 0x2 PUSH0 SWAP1 SLOAD SWAP1 PUSH2 0x100 EXP SWAP1 DIV PUSH1 0xFF AND DUP2 JUMP JUMPDEST PUSH0 PUSH1 0x4 PUSH0 CALLER PUSH20 0xFFFFFFFFFFFFFFFFFFFFFFFFFFFFFFFFFFFFFFFF AND PUSH20 0xFFFFFFFFFFFFFFFFFFFFFFFFFFFFFFFFFFFFFFFF AND DUP2 MSTORE PUSH1 0x20 ADD SWAP1 DUP2 MSTORE PUSH1 0x20 ADD PUSH0 KECCAK256 SLOAD DUP3 GT ISZERO PUSH2 0x79F JUMPI PUSH1 0x40 MLOAD PUSH32 0x8C379A000000000000000000000000000000000000000000000000000000000 DUP2 MSTORE PUSH1 0x4 ADD PUSH2 0x796 SWAP1 PUSH2 0x12E0 JUMP JUMPDEST PUSH1 0x40 MLOAD DUP1 SWAP2 SUB SWAP1 REVERT JUMPDEST DUP2 PUSH1 0x4 PUSH0 CALLER PUSH20 0xFFFFFFFFFFFFFFFFFFFFFFFFFFFFFFFFFFFFFFFF AND PUSH20 0xFFFFFFFFFFFFFFFFFFFFFFFFFFFFFFFFFFFFFFFF AND DUP2 MSTORE PUSH1 0x20 ADD SWAP1 DUP2 MSTORE PUSH1 0x20 ADD PUSH0 KECCAK256 PUSH0 DUP3 DUP3 SLOAD PUSH2 0x7EB SWAP2 SWAP1 PUSH2 0x1393 JUMP JUMPDEST SWAP3 POP POP DUP2 SWAP1 SSTORE POP DUP2 PUSH1 0x6 PUSH0 CALLER PUSH20 0xFFFFFFFFFFFFFFFFFFFFFFFFFFFFFFFFFFFFFFFF AND PUSH20 0xFFFFFFFFFFFFFFFFFFFFFFFFFFFFFFFFFFFFFFFF AND DUP2 MSTORE PUSH1 0x20 ADD SWAP1 DUP2 MSTORE PUSH1 0x20 ADD PUSH0 KECCAK256 PUSH0 DUP3 DUP3 SLOAD PUSH2 0x83E SWAP2 SWAP1 PUSH2 0x13C6 JUMP JUMPDEST SWAP3 POP POP DUP2 SWAP1 SSTORE POP PUSH2 0x84E CALLER PUSH2 0xBC3 JUMP JUMPDEST PUSH0 PUSH20 0xFFFFFFFFFFFFFFFFFFFFFFFFFFFFFFFFFFFFFFFF AND CALLER PUSH20 0xFFFFFFFFFFFFFFFFFFFFFFFFFFFFFFFFFFFFFFFF AND PUSH32 0xDDF252AD1BE2C89B69C2B068FC378DAA952BA7F163C4A11628F55A4DF523B3EF DUP5 PUSH1 0x40 MLOAD PUSH2 0x8AB SWAP2 SWAP1 PUSH2 0x1108 JUMP JUMPDEST PUSH1 0x40 MLOAD DUP1 SWAP2 SUB SWAP1 LOG3 PUSH1 0x1 SWAP1 POP SWAP2 SWAP1 POP JUMP JUMPDEST PUSH1 0x4 PUSH1 0x20 MSTORE DUP1 PUSH0 MSTORE PUSH1 0x40 PUSH0 KECCAK256 PUSH0 SWAP2 POP SWAP1 POP SLOAD DUP2 JUMP JUMPDEST PUSH1 0x7 PUSH1 0x20 MSTORE DUP1 PUSH0 MSTORE PUSH1 0x40 PUSH0 KECCAK256 PUSH0 SWAP2 POP SWAP1 POP DUP1 SLOAD PUSH2 0x8ED SWAP1 PUSH2 0x1266 JUMP JUMPDEST DUP1 PUSH1 0x1F ADD PUSH1 0x20 DUP1 SWAP2 DIV MUL PUSH1 0x20 ADD PUSH1 0x40 MLOAD SWAP1 DUP2 ADD PUSH1 0x40 MSTORE DUP1 SWAP3 SWAP2 SWAP1 DUP2 DUP2 MSTORE PUSH1 0x20 ADD DUP3 DUP1 SLOAD PUSH2 0x919 SWAP1 PUSH2 0x1266 JUMP JUMPDEST DUP1 ISZERO PUSH2 0x964 JUMPI DUP1 PUSH1 0x1F LT PUSH2 0x93B JUMPI PUSH2 0x100 DUP1 DUP4 SLOAD DIV MUL DUP4 MSTORE SWAP2 PUSH1 0x20 ADD SWAP2 PUSH2 0x964 JUMP JUMPDEST DUP3 ADD SWAP2 SWAP1 PUSH0 MSTORE PUSH1 0x20 PUSH0 KECCAK256 SWAP1 JUMPDEST DUP2 SLOAD DUP2 MSTORE SWAP1 PUSH1 0x1 ADD SWAP1 PUSH1 0x20 ADD DUP1 DUP4 GT PUSH2 0x947 JUMPI DUP3 SWAP1 SUB PUSH1 0x1F AND DUP3 ADD SWAP2 JUMPDEST POP POP POP POP POP DUP2 JUMP JUMPDEST PUSH1 0x1 DUP1 SLOAD PUSH2 0x979 SWAP1 PUSH2 0x1266 JUMP JUMPDEST DUP1 PUSH1 0x1F ADD PUSH1 0x20 DUP1 SWAP2 DIV MUL PUSH1 0x20 ADD PUSH1 0x40 MLOAD SWAP1 DUP2 ADD PUSH1 0x40 MSTORE DUP1 SWAP3 SWAP2 SWAP1 DUP2 DUP2 MSTORE PUSH1 0x20 ADD DUP3 DUP1 SLOAD PUSH2 0x9A5 SWAP1 PUSH2 0x1266 JUMP JUMPDEST DUP1 ISZERO PUSH2 0x9F0 JUMPI DUP1 PUSH1 0x1F LT PUSH2 0x9C7 JUMPI PUSH2 0x100 DUP1 DUP4 SLOAD DIV MUL DUP4 MSTORE SWAP2 PUSH1 0x20 ADD SWAP2 PUSH2 0x9F0 JUMP JUMPDEST DUP3 ADD SWAP2 SWAP1 PUSH0 MSTORE PUSH1 0x20 PUSH0 KECCAK256 SWAP1 JUMPDEST DUP2 SLOAD DUP2 MSTORE SWAP1 PUSH1 0x1 ADD SWAP1 PUSH1 0x20 ADD DUP1 DUP4 GT PUSH2 0x9D3 JUMPI DUP3 SWAP1 SUB PUSH1 0x1F AND DUP3 ADD SWAP2 JUMPDEST POP POP POP POP POP DUP2 JUMP JUMPDEST PUSH0 DUP2 PUSH1 0x4 PUSH0 CALLER PUSH20 0xFFFFFFFFFFFFFFFFFFFFFFFFFFFFFFFFFFFFFFFF AND PUSH20 0xFFFFFFFFFFFFFFFFFFFFFFFFFFFFFFFFFFFFFFFF AND DUP2 MSTORE PUSH1 0x20 ADD SWAP1 DUP2 MSTORE PUSH1 0x20 ADD PUSH0 KECCAK256 SLOAD LT ISZERO PUSH2 0xA79 JUMPI PUSH1 0x40 MLOAD PUSH32 0x8C379A000000000000000000000000000000000000000000000000000000000 DUP2 MSTORE PUSH1 0x4 ADD PUSH2 0xA70 SWAP1 PUSH2 0x12E0 JUMP JUMPDEST PUSH1 0x40 MLOAD DUP1 SWAP2 SUB SWAP1 REVERT JUMPDEST DUP2 PUSH1 0x4 PUSH0 CALLER PUSH20 0xFFFFFFFFFFFFFFFFFFFFFFFFFFFFFFFFFFFFFFFF AND PUSH20 0xFFFFFFFFFFFFFFFFFFFFFFFFFFFFFFFFFFFFFFFF AND DUP2 MSTORE PUSH1 0x20 ADD SWAP1 DUP2 MSTORE PUSH1 0x20 ADD PUSH0 KECCAK256 PUSH0 DUP3 DUP3 SLOAD PUSH2 0xAC5 SWAP2 SWAP1 PUSH2 0x1393 JUMP JUMPDEST SWAP3 POP POP DUP2 SWAP1 SSTORE POP DUP2 PUSH1 0x4 PUSH0 DUP6 PUSH20 0xFFFFFFFFFFFFFFFFFFFFFFFFFFFFFFFFFFFFFFFF AND PUSH20 0xFFFFFFFFFFFFFFFFFFFFFFFFFFFFFFFFFFFFFFFF AND DUP2 MSTORE PUSH1 0x20 ADD SWAP1 DUP2 MSTORE PUSH1 0x20 ADD PUSH0 KECCAK256 PUSH0 DUP3 DUP3 SLOAD PUSH2 0xB18 SWAP2 SWAP1 PUSH2 0x13C6 JUMP JUMPDEST SWAP3 POP POP DUP2 SWAP1 SSTORE POP DUP3 PUSH20 0xFFFFFFFFFFFFFFFFFFFFFFFFFFFFFFFFFFFFFFFF AND CALLER PUSH20 0xFFFFFFFFFFFFFFFFFFFFFFFFFFFFFFFFFFFFFFFF AND PUSH32 0xDDF252AD1BE2C89B69C2B068FC378DAA952BA7F163C4A11628F55A4DF523B3EF DUP5 PUSH1 0x40 MLOAD PUSH2 0xB7C SWAP2 SWAP1 PUSH2 0x1108 JUMP JUMPDEST PUSH1 0x40 MLOAD DUP1 SWAP2 SUB SWAP1 LOG3 PUSH1 0x1 SWAP1 POP SWAP3 SWAP2 POP POP JUMP JUMPDEST PUSH1 0x6 PUSH1 0x20 MSTORE DUP1 PUSH0 MSTORE PUSH1 0x40 PUSH0 KECCAK256 PUSH0 SWAP2 POP SWAP1 POP SLOAD DUP2 JUMP JUMPDEST PUSH1 0x5 PUSH1 0x20 MSTORE DUP2 PUSH0 MSTORE PUSH1 0x40 PUSH0 KECCAK256 PUSH1 0x20 MSTORE DUP1 PUSH0 MSTORE PUSH1 0x40 PUSH0 KECCAK256 PUSH0 SWAP2 POP SWAP2 POP POP SLOAD DUP2 JUMP JUMPDEST PUSH0 PUSH1 0x6 PUSH0 DUP4 PUSH20 0xFFFFFFFFFFFFFFFFFFFFFFFFFFFFFFFFFFFFFFFF AND PUSH20 0xFFFFFFFFFFFFFFFFFFFFFFFFFFFFFFFFFFFFFFFF AND DUP2 MSTORE PUSH1 0x20 ADD SWAP1 DUP2 MSTORE PUSH1 0x20 ADD PUSH0 KECCAK256 SLOAD SWAP1 POP PUSH1 0x2 PUSH0 SWAP1 SLOAD SWAP1 PUSH2 0x100 EXP SWAP1 DIV PUSH1 0xFF AND PUSH1 0xFF AND PUSH1 0xA PUSH2 0xC22 SWAP2 SWAP1 PUSH2 0x1528 JUMP JUMPDEST PUSH1 0x64 PUSH2 0xC2E SWAP2 SWAP1 PUSH2 0x1572 JUMP JUMPDEST DUP2 LT ISZERO PUSH2 0xCBA JUMPI PUSH1 0x40 MLOAD DUP1 PUSH1 0x40 ADD PUSH1 0x40 MSTORE DUP1 PUSH1 0xD DUP2 MSTORE PUSH1 0x20 ADD PUSH32 0x537061726B205374617274657200000000000000000000000000000000000000 DUP2 MSTORE POP PUSH1 0x7 PUSH0 DUP5 PUSH20 0xFFFFFFFFFFFFFFFFFFFFFFFFFFFFFFFFFFFFFFFF AND PUSH20 0xFFFFFFFFFFFFFFFFFFFFFFFFFFFFFFFFFFFFFFFF AND DUP2 MSTORE PUSH1 0x20 ADD SWAP1 DUP2 MSTORE PUSH1 0x20 ADD PUSH0 KECCAK256 SWAP1 DUP2 PUSH2 0xCB4 SWAP2 SWAP1 PUSH2 0x177D JUMP JUMPDEST POP PUSH2 0xF63 JUMP JUMPDEST PUSH1 0x2 PUSH0 SWAP1 SLOAD SWAP1 PUSH2 0x100 EXP SWAP1 DIV PUSH1 0xFF AND PUSH1 0xFF AND PUSH1 0xA PUSH2 0xCD8 SWAP2 SWAP1 PUSH2 0x1528 JUMP JUMPDEST PUSH2 0x1F4 PUSH2 0xCE5 SWAP2 SWAP1 PUSH2 0x1572 JUMP JUMPDEST DUP2 LT ISZERO PUSH2 0xD71 JUMPI PUSH1 0x40 MLOAD DUP1 PUSH1 0x40 ADD PUSH1 0x40 MSTORE DUP1 PUSH1 0xD DUP2 MSTORE PUSH1 0x20 ADD PUSH32 0x466C616D652046616E6174696300000000000000000000000000000000000000 DUP2 MSTORE POP PUSH1 0x7 PUSH0 DUP5 PUSH20 0xFFFFFFFFFFFFFFFFFFFFFFFFFFFFFFFFFFFFFFFF AND PUSH20 0xFFFFFFFFFFFFFFFFFFFFFFFFFFFFFFFFFFFFFFFF AND DUP2 MSTORE PUSH1 0x20 ADD SWAP1 DUP2 MSTORE PUSH1 0x20 ADD PUSH0 KECCAK256 SWAP1 DUP2 PUSH2 0xD6B SWAP2 SWAP1 PUSH2 0x177D JUMP JUMPDEST POP PUSH2 0xF62 JUMP JUMPDEST PUSH1 0x2 PUSH0 SWAP1 SLOAD SWAP1 PUSH2 0x100 EXP SWAP1 DIV PUSH1 0xFF AND PUSH1 0xFF AND PUSH1 0xA PUSH2 0xD8F SWAP2 SWAP1 PUSH2 0x1528 JUMP JUMPDEST PUSH2 0x7D0 PUSH2 0xD9C SWAP2 SWAP1 PUSH2 0x1572 JUMP JUMPDEST DUP2 LT ISZERO PUSH2 0xE28 JUMPI PUSH1 0x40 MLOAD DUP1 PUSH1 0x40 ADD PUSH1 0x40 MSTORE DUP1 PUSH1 0xD DUP2 MSTORE PUSH1 0x20 ADD PUSH32 0x426C617A65204272696E67657200000000000000000000000000000000000000 DUP2 MSTORE POP PUSH1 0x7 PUSH0 DUP5 PUSH20 0xFFFFFFFFFFFFFFFFFFFFFFFFFFFFFFFFFFFFFFFF AND PUSH20 0xFFFFFFFFFFFFFFFFFFFFFFFFFFFFFFFFFFFFFFFF AND DUP2 MSTORE PUSH1 0x20 ADD SWAP1 DUP2 MSTORE PUSH1 0x20 ADD PUSH0 KECCAK256 SWAP1 DUP2 PUSH2 0xE22 SWAP2 SWAP1 PUSH2 0x177D JUMP JUMPDEST POP PUSH2 0xF61 JUMP JUMPDEST PUSH1 0x2 PUSH0 SWAP1 SLOAD SWAP1 PUSH2 0x100 EXP SWAP1 DIV PUSH1 0xFF AND PUSH1 0xFF AND PUSH1 0xA PUSH2 0xE46 SWAP2 SWAP1 PUSH2 0x1528 JUMP JUMPDEST PUSH2 0x1388 PUSH2 0xE53 SWAP2 SWAP1 PUSH2 0x1572 JUMP JUMPDEST DUP2 LT ISZERO PUSH2 0xEDF JUMPI PUSH1 0x40 MLOAD DUP1 PUSH1 0x40 ADD PUSH1 0x40 MSTORE DUP1 PUSH1 0x10 DUP2 MSTORE PUSH1 0x20 ADD PUSH32 0x496E6665726E6F20496E69746961746500000000000000000000000000000000 DUP2 MSTORE POP PUSH1 0x7 PUSH0 DUP5 PUSH20 0xFFFFFFFFFFFFFFFFFFFFFFFFFFFFFFFFFFFFFFFF AND PUSH20 0xFFFFFFFFFFFFFFFFFFFFFFFFFFFFFFFFFFFFFFFF AND DUP2 MSTORE PUSH1 0x20 ADD SWAP1 DUP2 MSTORE PUSH1 0x20 ADD PUSH0 KECCAK256 SWAP1 DUP2 PUSH2 0xED9 SWAP2 SWAP1 PUSH2 0x177D JUMP JUMPDEST POP PUSH2 0xF60 JUMP JUMPDEST PUSH1 0x40 MLOAD DUP1 PUSH1 0x40 ADD PUSH1 0x40 MSTORE DUP1 PUSH1 0xE DUP2 MSTORE PUSH1 0x20 ADD PUSH32 0x50686F656E6978204D6173746572000000000000000000000000000000000000 DUP2 MSTORE POP PUSH1 0x7 PUSH0 DUP5 PUSH20 0xFFFFFFFFFFFFFFFFFFFFFFFFFFFFFFFFFFFFFFFF AND PUSH20 0xFFFFFFFFFFFFFFFFFFFFFFFFFFFFFFFFFFFFFFFF AND DUP2 MSTORE PUSH1 0x20 ADD SWAP1 DUP2 MSTORE PUSH1 0x20 ADD PUSH0 KECCAK256 SWAP1 DUP2 PUSH2 0xF5E SWAP2 SWAP1 PUSH2 0x177D JUMP JUMPDEST POP JUMPDEST JUMPDEST JUMPDEST JUMPDEST POP POP JUMP JUMPDEST PUSH0 DUP2 MLOAD SWAP1 POP SWAP2 SWAP1 POP JUMP JUMPDEST PUSH0 DUP3 DUP3 MSTORE PUSH1 0x20 DUP3 ADD SWAP1 POP SWAP3 SWAP2 POP POP JUMP JUMPDEST DUP3 DUP2 DUP4 MCOPY PUSH0 DUP4 DUP4 ADD MSTORE POP POP POP JUMP JUMPDEST PUSH0 PUSH1 0x1F NOT PUSH1 0x1F DUP4 ADD AND SWAP1 POP SWAP2 SWAP1 POP JUMP JUMPDEST PUSH0 PUSH2 0xFA9 DUP3 PUSH2 0xF67 JUMP JUMPDEST PUSH2 0xFB3 DUP2 DUP6 PUSH2 0xF71 JUMP JUMPDEST SWAP4 POP PUSH2 0xFC3 DUP2 DUP6 PUSH1 0x20 DUP7 ADD PUSH2 0xF81 JUMP JUMPDEST PUSH2 0xFCC DUP2 PUSH2 0xF8F JUMP JUMPDEST DUP5 ADD SWAP2 POP POP SWAP3 SWAP2 POP POP JUMP JUMPDEST PUSH0 PUSH1 0x20 DUP3 ADD SWAP1 POP DUP2 DUP2 SUB PUSH0 DUP4 ADD MSTORE PUSH2 0xFEF DUP2 DUP5 PUSH2 0xF9F JUMP JUMPDEST SWAP1 POP SWAP3 SWAP2 POP POP JUMP JUMPDEST PUSH0 DUP1 REVERT JUMPDEST PUSH0 PUSH20 0xFFFFFFFFFFFFFFFFFFFFFFFFFFFFFFFFFFFFFFFF DUP3 AND SWAP1 POP SWAP2 SWAP1 POP JUMP JUMPDEST PUSH0 PUSH2 0x1024 DUP3 PUSH2 0xFFB JUMP JUMPDEST SWAP1 POP SWAP2 SWAP1 POP JUMP JUMPDEST PUSH2 0x1034 DUP2 PUSH2 0x101A JUMP JUMPDEST DUP2 EQ PUSH2 0x103E JUMPI PUSH0 DUP1 REVERT JUMPDEST POP JUMP JUMPDEST PUSH0 DUP2 CALLDATALOAD SWAP1 POP PUSH2 0x104F DUP2 PUSH2 0x102B JUMP JUMPDEST SWAP3 SWAP2 POP POP JUMP JUMPDEST PUSH0 DUP2 SWAP1 POP SWAP2 SWAP1 POP JUMP JUMPDEST PUSH2 0x1067 DUP2 PUSH2 0x1055 JUMP JUMPDEST DUP2 EQ PUSH2 0x1071 JUMPI PUSH0 DUP1 REVERT JUMPDEST POP JUMP JUMPDEST PUSH0 DUP2 CALLDATALOAD SWAP1 POP PUSH2 0x1082 DUP2 PUSH2 0x105E JUMP JUMPDEST SWAP3 SWAP2 POP POP JUMP JUMPDEST PUSH0 DUP1 PUSH1 0x40 DUP4 DUP6 SUB SLT ISZERO PUSH2 0x109E JUMPI PUSH2 0x109D PUSH2 0xFF7 JUMP JUMPDEST JUMPDEST PUSH0 PUSH2 0x10AB DUP6 DUP3 DUP7 ADD PUSH2 0x1041 JUMP JUMPDEST SWAP3 POP POP PUSH1 0x20 PUSH2 0x10BC DUP6 DUP3 DUP7 ADD PUSH2 0x1074 JUMP JUMPDEST SWAP2 POP POP SWAP3 POP SWAP3 SWAP1 POP JUMP JUMPDEST PUSH0 DUP2 ISZERO ISZERO SWAP1 POP SWAP2 SWAP1 POP JUMP JUMPDEST PUSH2 0x10DA DUP2 PUSH2 0x10C6 JUMP JUMPDEST DUP3 MSTORE POP POP JUMP JUMPDEST PUSH0 PUSH1 0x20 DUP3 ADD SWAP1 POP PUSH2 0x10F3 PUSH0 DUP4 ADD DUP5 PUSH2 0x10D1 JUMP JUMPDEST SWAP3 SWAP2 POP POP JUMP JUMPDEST PUSH2 0x1102 DUP2 PUSH2 0x1055 JUMP JUMPDEST DUP3 MSTORE POP POP JUMP JUMPDEST PUSH0 PUSH1 0x20 DUP3 ADD SWAP1 POP PUSH2 0x111B PUSH0 DUP4 ADD DUP5 PUSH2 0x10F9 JUMP JUMPDEST SWAP3 SWAP2 POP POP JUMP JUMPDEST PUSH0 DUP1 PUSH0 PUSH1 0x60 DUP5 DUP7 SUB SLT ISZERO PUSH2 0x1138 JUMPI PUSH2 0x1137 PUSH2 0xFF7 JUMP JUMPDEST JUMPDEST PUSH0 PUSH2 0x1145 DUP7 DUP3 DUP8 ADD PUSH2 0x1041 JUMP JUMPDEST SWAP4 POP POP PUSH1 0x20 PUSH2 0x1156 DUP7 DUP3 DUP8 ADD PUSH2 0x1041 JUMP JUMPDEST SWAP3 POP POP PUSH1 0x40 PUSH2 0x1167 DUP7 DUP3 DUP8 ADD PUSH2 0x1074 JUMP JUMPDEST SWAP2 POP POP SWAP3 POP SWAP3 POP SWAP3 JUMP JUMPDEST PUSH0 PUSH1 0xFF DUP3 AND SWAP1 POP SWAP2 SWAP1 POP JUMP JUMPDEST PUSH2 0x1186 DUP2 PUSH2 0x1171 JUMP JUMPDEST DUP3 MSTORE POP POP JUMP JUMPDEST PUSH0 PUSH1 0x20 DUP3 ADD SWAP1 POP PUSH2 0x119F PUSH0 DUP4 ADD DUP5 PUSH2 0x117D JUMP JUMPDEST SWAP3 SWAP2 POP POP JUMP JUMPDEST PUSH0 PUSH1 0x20 DUP3 DUP5 SUB SLT ISZERO PUSH2 0x11BA JUMPI PUSH2 0x11B9 PUSH2 0xFF7 JUMP JUMPDEST JUMPDEST PUSH0 PUSH2 0x11C7 DUP5 DUP3 DUP6 ADD PUSH2 0x1074 JUMP JUMPDEST SWAP2 POP POP SWAP3 SWAP2 POP POP JUMP JUMPDEST PUSH0 PUSH1 0x20 DUP3 DUP5 SUB SLT ISZERO PUSH2 0x11E5 JUMPI PUSH2 0x11E4 PUSH2 0xFF7 JUMP JUMPDEST JUMPDEST PUSH0 PUSH2 0x11F2 DUP5 DUP3 DUP6 ADD PUSH2 0x1041 JUMP JUMPDEST SWAP2 POP POP SWAP3 SWAP2 POP POP JUMP JUMPDEST PUSH0 DUP1 PUSH1 0x40 DUP4 DUP6 SUB SLT ISZERO PUSH2 0x1211 JUMPI PUSH2 0x1210 PUSH2 0xFF7 JUMP JUMPDEST JUMPDEST PUSH0 PUSH2 0x121E DUP6 DUP3 DUP7 ADD PUSH2 0x1041 JUMP JUMPDEST SWAP3 POP POP PUSH1 0x20 PUSH2 0x122F DUP6 DUP3 DUP7 ADD PUSH2 0x1041 JUMP JUMPDEST SWAP2 POP POP SWAP3 POP SWAP3 SWAP1 POP JUMP JUMPDEST PUSH32 0x4E487B7100000000000000000000000000000000000000000000000000000000 PUSH0 MSTORE PUSH1 0x22 PUSH1 0x4 MSTORE PUSH1 0x24 PUSH0 REVERT JUMPDEST PUSH0 PUSH1 0x2 DUP3 DIV SWAP1 POP PUSH1 0x1 DUP3 AND DUP1 PUSH2 0x127D JUMPI PUSH1 0x7F DUP3 AND SWAP2 POP JUMPDEST PUSH1 0x20 DUP3 LT DUP2 SUB PUSH2 0x1290 JUMPI PUSH2 0x128F PUSH2 0x1239 JUMP JUMPDEST JUMPDEST POP SWAP2 SWAP1 POP JUMP JUMPDEST PUSH32 0x496E73756666696369656E742062616C616E6365000000000000000000000000 PUSH0 DUP3 ADD MSTORE POP JUMP JUMPDEST PUSH0 PUSH2 0x12CA PUSH1 0x14 DUP4 PUSH2 0xF71 JUMP JUMPDEST SWAP2 POP PUSH2 0x12D5 DUP3 PUSH2 0x1296 JUMP JUMPDEST PUSH1 0x20 DUP3 ADD SWAP1 POP SWAP2 SWAP1 POP JUMP JUMPDEST PUSH0 PUSH1 0x20 DUP3 ADD SWAP1 POP DUP2 DUP2 SUB PUSH0 DUP4 ADD MSTORE PUSH2 0x12F7 DUP2 PUSH2 0x12BE JUMP JUMPDEST SWAP1 POP SWAP2 SWAP1 POP JUMP JUMPDEST PUSH32 0x416C6C6F77616E63652065786365656465640000000000000000000000000000 PUSH0 DUP3 ADD MSTORE POP JUMP JUMPDEST PUSH0 PUSH2 0x1332 PUSH1 0x12 DUP4 PUSH2 0xF71 JUMP JUMPDEST SWAP2 POP PUSH2 0x133D DUP3 PUSH2 0x12FE JUMP JUMPDEST PUSH1 0x20 DUP3 ADD SWAP1 POP SWAP2 SWAP1 POP JUMP JUMPDEST PUSH0 PUSH1 0x20 DUP3 ADD SWAP1 POP DUP2 DUP2 SUB PUSH0 DUP4 ADD MSTORE PUSH2 0x135F DUP2 PUSH2 0x1326 JUMP JUMPDEST SWAP1 POP SWAP2 SWAP1 POP JUMP JUMPDEST PUSH32 0x4E487B7100000000000000000000000000000000000000000000000000000000 PUSH0 MSTORE PUSH1 0x11 PUSH1 0x4 MSTORE PUSH1 0x24 PUSH0 REVERT JUMPDEST PUSH0 PUSH2 0x139D DUP3 PUSH2 0x1055 JUMP JUMPDEST SWAP2 POP PUSH2 0x13A8 DUP4 PUSH2 0x1055 JUMP JUMPDEST SWAP3 POP DUP3 DUP3 SUB SWAP1 POP DUP2 DUP2 GT ISZERO PUSH2 0x13C0 JUMPI PUSH2 0x13BF PUSH2 0x1366 JUMP JUMPDEST JUMPDEST SWAP3 SWAP2 POP POP JUMP JUMPDEST PUSH0 PUSH2 0x13D0 DUP3 PUSH2 0x1055 JUMP JUMPDEST SWAP2 POP PUSH2 0x13DB DUP4 PUSH2 0x1055 JUMP JUMPDEST SWAP3 POP DUP3 DUP3 ADD SWAP1 POP DUP1 DUP3 GT ISZERO PUSH2 0x13F3 JUMPI PUSH2 0x13F2 PUSH2 0x1366 JUMP JUMPDEST JUMPDEST SWAP3 SWAP2 POP POP JUMP JUMPDEST PUSH0 DUP2 PUSH1 0x1 SHR SWAP1 POP SWAP2 SWAP1 POP JUMP JUMPDEST PUSH0 DUP1 DUP3 SWAP2 POP DUP4 SWAP1 POP JUMPDEST PUSH1 0x1 DUP6 GT ISZERO PUSH2 0x144E JUMPI DUP1 DUP7 DIV DUP2 GT ISZERO PUSH2 0x142A JUMPI PUSH2 0x1429 PUSH2 0x1366 JUMP JUMPDEST JUMPDEST PUSH1 0x1 DUP6 AND ISZERO PUSH2 0x1439 JUMPI DUP1 DUP3 MUL SWAP2 POP JUMPDEST DUP1 DUP2 MUL SWAP1 POP PUSH2 0x1447 DUP6 PUSH2 0x13F9 JUMP JUMPDEST SWAP5 POP PUSH2 0x140E JUMP JUMPDEST SWAP5 POP SWAP5 SWAP3 POP POP POP JUMP JUMPDEST PUSH0 DUP3 PUSH2 0x1466 JUMPI PUSH1 0x1 SWAP1 POP PUSH2 0x1521 JUMP JUMPDEST DUP2 PUSH2 0x1473 JUMPI PUSH0 SWAP1 POP PUSH2 0x1521 JUMP JUMPDEST DUP2 PUSH1 0x1 DUP2 EQ PUSH2 0x1489 JUMPI PUSH1 0x2 DUP2 EQ PUSH2 0x1493 JUMPI PUSH2 0x14C2 JUMP JUMPDEST PUSH1 0x1 SWAP2 POP POP PUSH2 0x1521 JUMP JUMPDEST PUSH1 0xFF DUP5 GT ISZERO PUSH2 0x14A5 JUMPI PUSH2 0x14A4 PUSH2 0x1366 JUMP JUMPDEST JUMPDEST DUP4 PUSH1 0x2 EXP SWAP2 POP DUP5 DUP3 GT ISZERO PUSH2 0x14BC JUMPI PUSH2 0x14BB PUSH2 0x1366 JUMP JUMPDEST JUMPDEST POP PUSH2 0x1521 JUMP JUMPDEST POP PUSH1 0x20 DUP4 LT PUSH2 0x133 DUP4 LT AND PUSH1 0x4E DUP5 LT PUSH1 0xB DUP5 LT AND OR ISZERO PUSH2 0x14F7 JUMPI DUP3 DUP3 EXP SWAP1 POP DUP4 DUP2 GT ISZERO PUSH2 0x14F2 JUMPI PUSH2 0x14F1 PUSH2 0x1366 JUMP JUMPDEST JUMPDEST PUSH2 0x1521 JUMP JUMPDEST PUSH2 0x1504 DUP5 DUP5 DUP5 PUSH1 0x1 PUSH2 0x1405 JUMP JUMPDEST SWAP3 POP SWAP1 POP DUP2 DUP5 DIV DUP2 GT ISZERO PUSH2 0x151B JUMPI PUSH2 0x151A PUSH2 0x1366 JUMP JUMPDEST JUMPDEST DUP2 DUP2 MUL SWAP1 POP JUMPDEST SWAP4 SWAP3 POP POP POP JUMP JUMPDEST PUSH0 PUSH2 0x1532 DUP3 PUSH2 0x1055 JUMP JUMPDEST SWAP2 POP PUSH2 0x153D DUP4 PUSH2 0x1055 JUMP JUMPDEST SWAP3 POP PUSH2 0x156A PUSH32 0xFFFFFFFFFFFFFFFFFFFFFFFFFFFFFFFFFFFFFFFFFFFFFFFFFFFFFFFFFFFFFFFF DUP5 DUP5 PUSH2 0x1457 JUMP JUMPDEST SWAP1 POP SWAP3 SWAP2 POP POP JUMP JUMPDEST PUSH0 PUSH2 0x157C DUP3 PUSH2 0x1055 JUMP JUMPDEST SWAP2 POP PUSH2 0x1587 DUP4 PUSH2 0x1055 JUMP JUMPDEST SWAP3 POP DUP3 DUP3 MUL PUSH2 0x1595 DUP2 PUSH2 0x1055 JUMP JUMPDEST SWAP2 POP DUP3 DUP3 DIV DUP5 EQ DUP4 ISZERO OR PUSH2 0x15AC JUMPI PUSH2 0x15AB PUSH2 0x1366 JUMP JUMPDEST JUMPDEST POP SWAP3 SWAP2 POP POP JUMP JUMPDEST PUSH32 0x4E487B7100000000000000000000000000000000000000000000000000000000 PUSH0 MSTORE PUSH1 0x41 PUSH1 0x4 MSTORE PUSH1 0x24 PUSH0 REVERT JUMPDEST PUSH0 DUP2 SWAP1 POP DUP2 PUSH0 MSTORE PUSH1 0x20 PUSH0 KECCAK256 SWAP1 POP SWAP2 SWAP1 POP JUMP JUMPDEST PUSH0 PUSH1 0x20 PUSH1 0x1F DUP4 ADD DIV SWAP1 POP SWAP2 SWAP1 POP JUMP JUMPDEST PUSH0 DUP3 DUP3 SHL SWAP1 POP SWAP3 SWAP2 POP POP JUMP JUMPDEST PUSH0 PUSH1 0x8 DUP4 MUL PUSH2 0x163C PUSH32 0xFFFFFFFFFFFFFFFFFFFFFFFFFFFFFFFFFFFFFFFFFFFFFFFFFFFFFFFFFFFFFFFF DUP3 PUSH2 0x1601 JUMP JUMPDEST PUSH2 0x1646 DUP7 DUP4 PUSH2 0x1601 JUMP JUMPDEST SWAP6 POP DUP1 NOT DUP5 AND SWAP4 POP DUP1 DUP7 AND DUP5 OR SWAP3 POP POP POP SWAP4 SWAP3 POP POP POP JUMP JUMPDEST PUSH0 DUP2 SWAP1 POP SWAP2 SWAP1 POP JUMP JUMPDEST PUSH0 PUSH2 0x1681 PUSH2 0x167C PUSH2 0x1677 DUP5 PUSH2 0x1055 JUMP JUMPDEST PUSH2 0x165E JUMP JUMPDEST PUSH2 0x1055 JUMP JUMPDEST SWAP1 POP SWAP2 SWAP1 POP JUMP JUMPDEST PUSH0 DUP2 SWAP1 POP SWAP2 SWAP1 POP JUMP JUMPDEST PUSH2 0x169A DUP4 PUSH2 0x1667 JUMP JUMPDEST PUSH2 0x16AE PUSH2 0x16A6 DUP3 PUSH2 0x1688 JUMP JUMPDEST DUP5 DUP5 SLOAD PUSH2 0x160D JUMP JUMPDEST DUP3 SSTORE POP POP POP POP JUMP JUMPDEST PUSH0 SWAP1 JUMP JUMPDEST PUSH2 0x16C2 PUSH2 0x16B6 JUMP JUMPDEST PUSH2 0x16CD DUP2 DUP5 DUP5 PUSH2 0x1691 JUMP JUMPDEST POP POP POP JUMP JUMPDEST JUMPDEST DUP2 DUP2 LT ISZERO PUSH2 0x16F0 JUMPI PUSH2 0x16E5 PUSH0 DUP3 PUSH2 0x16BA JUMP JUMPDEST PUSH1 0x1 DUP2 ADD SWAP1 POP PUSH2 0x16D3 JUMP JUMPDEST POP POP JUMP JUMPDEST PUSH1 0x1F DUP3 GT ISZERO PUSH2 0x1735 JUMPI PUSH2 0x1706 DUP2 PUSH2 0x15E0 JUMP JUMPDEST PUSH2 0x170F DUP5 PUSH2 0x15F2 JUMP JUMPDEST DUP2 ADD PUSH1 0x20 DUP6 LT ISZERO PUSH2 0x171E JUMPI DUP2 SWAP1 POP JUMPDEST PUSH2 0x1732 PUSH2 0x172A DUP6 PUSH2 0x15F2 JUMP JUMPDEST DUP4 ADD DUP3 PUSH2 0x16D2 JUMP JUMPDEST POP POP JUMPDEST POP POP POP JUMP JUMPDEST PUSH0 DUP3 DUP3 SHR SWAP1 POP SWAP3 SWAP2 POP POP JUMP JUMPDEST PUSH0 PUSH2 0x1755 PUSH0 NOT DUP5 PUSH1 0x8 MUL PUSH2 0x173A JUMP JUMPDEST NOT DUP1 DUP4 AND SWAP2 POP POP SWAP3 SWAP2 POP POP JUMP JUMPDEST PUSH0 PUSH2 0x176D DUP4 DUP4 PUSH2 0x1746 JUMP JUMPDEST SWAP2 POP DUP3 PUSH1 0x2 MUL DUP3 OR SWAP1 POP SWAP3 SWAP2 POP POP JUMP JUMPDEST PUSH2 0x1786 DUP3 PUSH2 0xF67 JUMP JUMPDEST PUSH8 0xFFFFFFFFFFFFFFFF DUP2 GT ISZERO PUSH2 0x179F JUMPI PUSH2 0x179E PUSH2 0x15B3 JUMP JUMPDEST JUMPDEST PUSH2 0x17A9 DUP3 SLOAD PUSH2 0x1266 JUMP JUMPDEST PUSH2 0x17B4 DUP3 DUP3 DUP6 PUSH2 0x16F4 JUMP JUMPDEST PUSH0 PUSH1 0x20 SWAP1 POP PUSH1 0x1F DUP4 GT PUSH1 0x1 DUP2 EQ PUSH2 0x17E5 JUMPI PUSH0 DUP5 ISZERO PUSH2 0x17D3 JUMPI DUP3 DUP8 ADD MLOAD SWAP1 POP JUMPDEST PUSH2 0x17DD DUP6 DUP3 PUSH2 0x1762 JUMP JUMPDEST DUP7 SSTORE POP PUSH2 0x1844 JUMP JUMPDEST PUSH1 0x1F NOT DUP5 AND PUSH2 0x17F3 DUP7 PUSH2 0x15E0 JUMP JUMPDEST PUSH0 JUMPDEST DUP3 DUP2 LT ISZERO PUSH2 0x181A JUMPI DUP5 DUP10 ADD MLOAD DUP3 SSTORE PUSH1 0x1 DUP3 ADD SWAP2 POP PUSH1 0x20 DUP6 ADD SWAP5 POP PUSH1 0x20 DUP2 ADD SWAP1 POP PUSH2 0x17F5 JUMP JUMPDEST DUP7 DUP4 LT ISZERO PUSH2 0x1837 JUMPI DUP5 DUP10 ADD MLOAD PUSH2 0x1833 PUSH1 0x1F DUP10 AND DUP3 PUSH2 0x1746 JUMP JUMPDEST DUP4 SSTORE POP JUMPDEST PUSH1 0x1 PUSH1 0x2 DUP9 MUL ADD DUP9 SSTORE POP POP POP JUMPDEST POP POP POP POP POP POP JUMP INVALID LOG2 PUSH5 0x6970667358 0x22 SLT KECCAK256 PUSH25 0xE344C6F699D3B4E9FCD89FD6BCC71E38870A26BCA1F1856419 0x1E MCOPY 0xDB 0xD6 PUSH10 0xDD64736F6C6343000819 STOP CALLER "
				},
				"gasEstimates": {
					"creation": {
						"codeDepositCost": "1254800",
						"executionCost": "infinite",
						"totalCost": "infinite"
					},
					"external": {
						"allowance(address,address)": "infinite",
						"approve(address,uint256)": "infinite",
						"badge(address)": "infinite",
						"balanceOf(address)": "2802",
						"decimals()": "2555",
						"name()": "infinite",
						"nrBurnt(address)": "2890",
						"symbol()": "infinite",
						"tokenBurn(uint256)": "infinite",
						"totalSupply()": "2470",
						"transfer(address,uint256)": "infinite",
						"transferFrom(address,address,uint256)": "infinite"
					},
					"internal": {
						"_getBadge(address)": "infinite"
					}
				},
				"methodIdentifiers": {
					"allowance(address,address)": "dd62ed3e",
					"approve(address,uint256)": "095ea7b3",
					"badge(address)": "88e179c7",
					"balanceOf(address)": "70a08231",
					"decimals()": "313ce567",
					"name()": "06fdde03",
					"nrBurnt(address)": "d8194c88",
					"symbol()": "95d89b41",
					"tokenBurn(uint256)": "39451a88",
					"totalSupply()": "18160ddd",
					"transfer(address,uint256)": "a9059cbb",
					"transferFrom(address,address,uint256)": "23b872dd"
				}
			},
			"storageLayout": {
				"storage": [
					{
						"astId": 87,
						"contract": "nst.sol:MyToken",
						"label": "name",
						"offset": 0,
						"slot": "0",
						"type": "t_string_storage"
					},
					{
						"astId": 89,
						"contract": "nst.sol:MyToken",
						"label": "symbol",
						"offset": 0,
						"slot": "1",
						"type": "t_string_storage"
					},
					{
						"astId": 91,
						"contract": "nst.sol:MyToken",
						"label": "decimals",
						"offset": 0,
						"slot": "2",
						"type": "t_uint8"
					},
					{
						"astId": 93,
						"contract": "nst.sol:MyToken",
						"label": "totalSupply",
						"offset": 0,
						"slot": "3",
						"type": "t_uint256"
					},
					{
						"astId": 97,
						"contract": "nst.sol:MyToken",
						"label": "balanceOf",
						"offset": 0,
						"slot": "4",
						"type": "t_mapping(t_address,t_uint256)"
					},
					{
						"astId": 103,
						"contract": "nst.sol:MyToken",
						"label": "allowance",
						"offset": 0,
						"slot": "5",
						"type": "t_mapping(t_address,t_mapping(t_address,t_uint256))"
					},
					{
						"astId": 107,
						"contract": "nst.sol:MyToken",
						"label": "nrBurnt",
						"offset": 0,
						"slot": "6",
						"type": "t_mapping(t_address,t_uint256)"
					},
					{
						"astId": 111,
						"contract": "nst.sol:MyToken",
						"label": "badge",
						"offset": 0,
						"slot": "7",
						"type": "t_mapping(t_address,t_string_storage)"
					}
				],
				"types": {
					"t_address": {
						"encoding": "inplace",
						"label": "address",
						"numberOfBytes": "20"
					},
					"t_mapping(t_address,t_mapping(t_address,t_uint256))": {
						"encoding": "mapping",
						"key": "t_address",
						"label": "mapping(address => mapping(address => uint256))",
						"numberOfBytes": "32",
						"value": "t_mapping(t_address,t_uint256)"
					},
					"t_mapping(t_address,t_string_storage)": {
						"encoding": "mapping",
						"key": "t_address",
						"label": "mapping(address => string)",
						"numberOfBytes": "32",
						"value": "t_string_storage"
					},
					"t_mapping(t_address,t_uint256)": {
						"encoding": "mapping",
						"key": "t_address",
						"label": "mapping(address => uint256)",
						"numberOfBytes": "32",
						"value": "t_uint256"
					},
					"t_string_storage": {
						"encoding": "bytes",
						"label": "string",
						"numberOfBytes": "32"
					},
					"t_uint256": {
						"encoding": "inplace",
						"label": "uint256",
						"numberOfBytes": "32"
					},
					"t_uint8": {
						"encoding": "inplace",
						"label": "uint8",
						"numberOfBytes": "1"
					}
				}
			},
			"userdoc": {
				"kind": "user",
				"methods": {},
				"version": 1
			}
		}
	}
}